{
  "_format": "hh3-artifact-1",
  "contractName": "Groth16Verifier",
  "sourceName": "contracts/Groth16VerifierGenerated.sol",
  "abi": [
    {
      "inputs": [
        {
          "internalType": "uint256[2]",
          "name": "_pA",
          "type": "uint256[2]"
        },
        {
          "internalType": "uint256[2][2]",
          "name": "_pB",
          "type": "uint256[2][2]"
        },
        {
          "internalType": "uint256[2]",
          "name": "_pC",
          "type": "uint256[2]"
        },
        {
          "internalType": "uint256[6]",
          "name": "_pubSignals",
          "type": "uint256[6]"
        }
      ],
      "name": "verifyProof",
      "outputs": [
        {
          "internalType": "bool",
          "name": "",
          "type": "bool"
        }
      ],
      "stateMutability": "view",
      "type": "function"
    }
  ],
  "bytecode": "0x608060405234801561000f575f80fd5b506107188061001d5f395ff3fe608060405234801561000f575f80fd5b5060043610610029575f3560e01c8063f398789b1461002d575b5f80fd5b61004061003b366004610681565b610054565b604051901515815260200160405180910390f35b5f6105fc565b7f30644e72e131a029b85045b68181585d2833e84879b9709143e1f593f00000018110610089575f805260205ff35b50565b5f60405183815284602082015285604082015260408160608360076107d05a03fa9150816100bc575f805260205ff35b825160408201526020830151606082015260408360808360066107d05a03fa915050806100eb575f805260205ff35b5050505050565b7f1899c51d5fc0e8fddeb8c1ba9703a3fcd22e3a9dd469223807170eff2195869c85527f160bc43442a64c94b2f59f8be8cefc495eb91ff6dcf0274e96c3d248a0f15dbb60208601525f608086018661018e87357f0fc9896641d088fa44d8d477ce5f17e5ea2bc5c4c72e6e268b3ddea0315bd11e7f1daeea127f2687868ffb65e17d4eb9170fd89ce14db88bef098175fdb83aeb6d8461008c565b6101de60208801357f0db515910f452516f1ca4597a1e6d780b1963ae3f348ae8be0b0432e2083a46d7f10baef401091a3dff3190d7cc9d5c12b443402b28e0840c4972e67ca96067e868461008c565b61022e60408801357f0ac8e4e53670c2a9d67069d41952dd78240d139e246bd8b8ed21073b39d8decd7f288eb9708fd6ab7565a221c9f95c35cb0e07377d99d9e1cc03c8d25367df35238461008c565b61027e60608801357f148b1f9837d0c68f0ea174ef8e13ff8f8afa88829112b4b8738cf540bc49b6017f2c9d28518e8791e607b23e49df7bce9f6409d1d99803b54be06a26d8b5eebc9c8461008c565b6102ce60808801357f152a4d8369f3827cbfd2e415b112aec3edc3e52d253f6c6739755dbd266d2d167f01877598b6b091938c3e5aee4cc2856aab376a7295f503f28efb7faa57446f8c8461008c565b61031e60a08801357f2b80ee3f2b621d9f2ba2fc8f1ad0d61a3bae227042227f1660f954c5ac4a5e947f1ffd8bfd3218eda86bf919f1b03d33763a9e0c18c267cc2d07c237b5f1d6b58c8461008c565b50823581527f30644e72e131a029b85045b68181585d97816a916871ca8d3c208c16d87cfd4760208401357f30644e72e131a029b85045b68181585d97816a916871ca8d3c208c16d87cfd4703066020820152833560408201526020840135606082015260408401356080820152606084013560a08201527f18dce10d4ca39577b30df5a765b71fd9fec20b1570041a4d09f459b9928dc22960c08201527f2251160ca3bedaa575eaa0d38e8a5580fca0a19e2072b37084c4eaac7c23f40860e08201527f2e053742e4dbaa1305f876264c15353c83363db3632b6fd8456e5780537cc5546101008201527f233dc886af53b9cd55db399f87d0d8882ac072f673fab2ff9d229515f574a09f6101208201527f1f83fc4b02a08e65af1574911b1f150115de1b1adf209e9becf8c57d28d68e316101408201527f2447b82bd6d22d0f28153564d91dd055dd41a6450e06452ad19374536479a5836101608201525f87015161018082015260205f018701516101a08201527f198e9393920d483a7260bfb731fb5d25f1aa493335a9e71297e485b7aef312c26101c08201527f1800deef121f1e76426a00665e5c4479674322d4f75edadd46debd5cd992f6ed6101e08201527f090689d0585ff075ec9e99ad690c3395bc4b313370b38ef355acdadcd122975b6102008201527f12c85ea5db8c6deb4aab71808dcb408fe3d1e7690c43d37b4ce6cc0166fa7daa610220820152843561024082015260208501356102608201527f171799b8510fc7084ba7de70e4c9cd34e9c9e755ac2370b1456528dfb82fc3836102808201527f1296b2df765f0b5af6a0b613f5457d5af3595ed9177401c4b4e0fdb5451881646102a08201527f0fbba144ec1b294d194caa8f69e602d397d097f08f5b8274d0521f2705e92d3f6102c08201527f10d49cb66c3964cbc0432360c032595527e7cae739de8a7ed54532e5ae42a0e66102e08201526020816103008360086107d05a03fa9051169695505050505050565b60405161038081016040526106135f84013561005a565b610620602084013561005a565b61062d604084013561005a565b61063a606084013561005a565b610647608084013561005a565b61065460a084013561005a565b610661818486888a6100f2565b9050805f5260205ff35b806040810183101561067b575f80fd5b92915050565b5f805f806101c0808688031215610696575f80fd5b6106a0878761066b565b945060c08601878111156106b2575f80fd5b6040870194506106c2888261066b565b9350508681870111156106d3575f80fd5b5092959194509261010001915056fea2646970667358221220af4209c8b8a770ad0963e7bbbd72c1ec4a708b511e4b5da2df4bc337da9f89e064736f6c63430008180033",
  "linkReferences": {},
  "deployedLinkReferences": {},
  "immutableReferences": {},
  "inputSourceName": "project/contracts/Groth16VerifierGenerated.sol",
  "buildInfoId": "solc-0_8_24-c03e0d314aca855dcb91bf1118567b1856bae4ec"
}