{"project/contracts/PrivacyPool.sol":{"TelegramPrivacyPool":{"abi":[{"inputs":[{"internalType":"contract IVerifier","name":"_verifier","type":"address"},{"internalType":"contract IIncrementalMerkleTree","name":"_stateTree","type":"address"},{"internalType":"contract ISanctionsList","name":"_sanctionsOracle","type":"address"},{"internalType":"address","name":"admin","type":"address"}],"stateMutability":"nonpayable","type":"constructor"},{"inputs":[],"name":"AccessControlBadConfirmation","type":"error"},{"inputs":[{"internalType":"address","name":"account","type":"address"},{"internalType":"bytes32","name":"neededRole","type":"bytes32"}],"name":"AccessControlUnauthorizedAccount","type":"error"},{"inputs":[],"name":"CommitmentAlreadyExists","type":"error"},{"inputs":[],"name":"EnforcedPause","type":"error"},{"inputs":[],"name":"EthTransferFailed","type":"error"},{"inputs":[],"name":"ExpectedPause","type":"error"},{"inputs":[],"name":"FeeExceedsDenomination","type":"error"},{"inputs":[],"name":"InvalidProof","type":"error"},{"inputs":[],"name":"NullifierAlreadyUsed","type":"error"},{"inputs":[{"internalType":"address","name":"owner","type":"address"}],"name":"OwnableInvalidOwner","type":"error"},{"inputs":[{"internalType":"address","name":"account","type":"address"}],"name":"OwnableUnauthorizedAccount","type":"error"},{"inputs":[{"internalType":"address","name":"account","type":"address"}],"name":"RecipientSanctioned","type":"error"},{"inputs":[],"name":"ReentrancyGuardReentrantCall","type":"error"},{"inputs":[{"internalType":"address","name":"account","type":"address"}],"name":"RelayerSanctioned","type":"error"},{"inputs":[{"internalType":"address","name":"account","type":"address"}],"name":"SenderSanctioned","type":"error"},{"inputs":[],"name":"UnknownAspRoot","type":"error"},{"inputs":[],"name":"UnknownStateRoot","type":"error"},{"inputs":[],"name":"WrongDepositAmount","type":"error"},{"inputs":[],"name":"ZeroAddress","type":"error"},{"inputs":[],"name":"ZeroRoot","type":"error"},{"anonymous":false,"inputs":[{"indexed":true,"internalType":"bytes32","name":"root","type":"bytes32"},{"indexed":false,"internalType":"uint32","name":"index","type":"uint32"},{"indexed":true,"internalType":"address","name":"asp","type":"address"}],"name":"AspRootUpdated","type":"event"},{"anonymous":false,"inputs":[{"indexed":true,"internalType":"bytes32","name":"commitment","type":"bytes32"},{"indexed":false,"internalType":"uint32","name":"leafIndex","type":"uint32"},{"indexed":false,"internalType":"uint256","name":"timestamp","type":"uint256"}],"name":"Deposit","type":"event"},{"anonymous":false,"inputs":[{"indexed":true,"internalType":"address","name":"previousOwner","type":"address"},{"indexed":true,"internalType":"address","name":"newOwner","type":"address"}],"name":"OwnershipTransferred","type":"event"},{"anonymous":false,"inputs":[{"indexed":false,"internalType":"address","name":"account","type":"address"}],"name":"Paused","type":"event"},{"anonymous":false,"inputs":[{"indexed":true,"internalType":"address","name":"to","type":"address"},{"indexed":false,"internalType":"uint256","name":"amount","type":"uint256"}],"name":"ProtocolFeesWithdrawn","type":"event"},{"anonymous":false,"inputs":[{"indexed":true,"internalType":"bytes32","name":"role","type":"bytes32"},{"indexed":true,"internalType":"bytes32","name":"previousAdminRole","type":"bytes32"},{"indexed":true,"internalType":"bytes32","name":"newAdminRole","type":"bytes32"}],"name":"RoleAdminChanged","type":"event"},{"anonymous":false,"inputs":[{"indexed":true,"internalType":"bytes32","name":"role","type":"bytes32"},{"indexed":true,"internalType":"address","name":"account","type":"address"},{"indexed":true,"internalType":"address","name":"sender","type":"address"}],"name":"RoleGranted","type":"event"},{"anonymous":false,"inputs":[{"indexed":true,"internalType":"bytes32","name":"role","type":"bytes32"},{"indexed":true,"internalType":"address","name":"account","type":"address"},{"indexed":true,"internalType":"address","name":"sender","type":"address"}],"name":"RoleRevoked","type":"event"},{"anonymous":false,"inputs":[{"indexed":true,"internalType":"address","name":"account","type":"address"}],"name":"SanctionedAddressAdded","type":"event"},{"anonymous":false,"inputs":[{"indexed":true,"internalType":"address","name":"account","type":"address"}],"name":"SanctionedAddressRemoved","type":"event"},{"anonymous":false,"inputs":[{"indexed":false,"internalType":"address","name":"account","type":"address"}],"name":"Unpaused","type":"event"},{"anonymous":false,"inputs":[{"indexed":true,"internalType":"address","name":"to","type":"address"},{"indexed":true,"internalType":"bytes32","name":"nullifierHash","type":"bytes32"},{"indexed":true,"internalType":"address","name":"relayer","type":"address"},{"indexed":false,"internalType":"uint256","name":"fee","type":"uint256"}],"name":"Withdrawal","type":"event"},{"stateMutability":"payable","type":"fallback"},{"inputs":[],"name":"ASP_ROLE","outputs":[{"internalType":"bytes32","name":"","type":"bytes32"}],"stateMutability":"view","type":"function"},{"inputs":[],"name":"ASP_ROOT_HISTORY","outputs":[{"internalType":"uint32","name":"","type":"uint32"}],"stateMutability":"view","type":"function"},{"inputs":[],"name":"BPS_DENOMINATOR","outputs":[{"internalType":"uint16","name":"","type":"uint16"}],"stateMutability":"view","type":"function"},{"inputs":[],"name":"COMPLIANCE_ROLE","outputs":[{"internalType":"bytes32","name":"","type":"bytes32"}],"stateMutability":"view","type":"function"},{"inputs":[],"name":"DEFAULT_ADMIN_ROLE","outputs":[{"internalType":"bytes32","name":"","type":"bytes32"}],"stateMutability":"view","type":"function"},{"inputs":[],"name":"DENOMINATION","outputs":[{"internalType":"uint256","name":"","type":"uint256"}],"stateMutability":"view","type":"function"},{"inputs":[],"name":"PAUSER_ROLE","outputs":[{"internalType":"bytes32","name":"","type":"bytes32"}],"stateMutability":"view","type":"function"},{"inputs":[],"name":"PROTOCOL_FEE_BPS","outputs":[{"internalType":"uint16","name":"","type":"uint16"}],"stateMutability":"view","type":"function"},{"inputs":[],"name":"accumulatedProtocolFees","outputs":[{"internalType":"uint256","name":"","type":"uint256"}],"stateMutability":"view","type":"function"},{"inputs":[{"internalType":"address","name":"account","type":"address"}],"name":"addSanctioned","outputs":[],"stateMutability":"nonpayable","type":"function"},{"inputs":[],"name":"aspRootIndex","outputs":[{"internalType":"uint32","name":"","type":"uint32"}],"stateMutability":"view","type":"function"},{"inputs":[{"internalType":"uint256","name":"","type":"uint256"}],"name":"aspRoots","outputs":[{"internalType":"bytes32","name":"","type":"bytes32"}],"stateMutability":"view","type":"function"},{"inputs":[{"internalType":"bytes32","name":"","type":"bytes32"}],"name":"commitments","outputs":[{"internalType":"bool","name":"","type":"bool"}],"stateMutability":"view","type":"function"},{"inputs":[{"internalType":"bytes32","name":"commitment","type":"bytes32"}],"name":"deposit","outputs":[],"stateMutability":"payable","type":"function"},{"inputs":[],"name":"depositAmountRequired","outputs":[{"internalType":"uint256","name":"","type":"uint256"}],"stateMutability":"pure","type":"function"},{"inputs":[{"internalType":"bytes32","name":"role","type":"bytes32"}],"name":"getRoleAdmin","outputs":[{"internalType":"bytes32","name":"","type":"bytes32"}],"stateMutability":"view","type":"function"},{"inputs":[{"internalType":"bytes32","name":"role","type":"bytes32"},{"internalType":"address","name":"account","type":"address"}],"name":"grantRole","outputs":[],"stateMutability":"nonpayable","type":"function"},{"inputs":[{"internalType":"bytes32","name":"role","type":"bytes32"},{"internalType":"address","name":"account","type":"address"}],"name":"hasRole","outputs":[{"internalType":"bool","name":"","type":"bool"}],"stateMutability":"view","type":"function"},{"inputs":[{"internalType":"bytes32","name":"root","type":"bytes32"}],"name":"isKnownAspRoot","outputs":[{"internalType":"bool","name":"","type":"bool"}],"stateMutability":"view","type":"function"},{"inputs":[{"internalType":"address","name":"account","type":"address"}],"name":"isSanctioned","outputs":[{"internalType":"bool","name":"","type":"bool"}],"stateMutability":"view","type":"function"},{"inputs":[{"internalType":"bytes32","name":"","type":"bytes32"}],"name":"knownAspRoot","outputs":[{"internalType":"bool","name":"","type":"bool"}],"stateMutability":"view","type":"function"},{"inputs":[{"internalType":"uint256","name":"i","type":"uint256"}],"name":"localSanctionedAt","outputs":[{"internalType":"address","name":"","type":"address"}],"stateMutability":"view","type":"function"},{"inputs":[],"name":"localSanctionedLength","outputs":[{"internalType":"uint256","name":"","type":"uint256"}],"stateMutability":"view","type":"function"},{"inputs":[{"internalType":"bytes32","name":"","type":"bytes32"}],"name":"nullifierHashes","outputs":[{"internalType":"bool","name":"","type":"bool"}],"stateMutability":"view","type":"function"},{"inputs":[],"name":"owner","outputs":[{"internalType":"address","name":"","type":"address"}],"stateMutability":"view","type":"function"},{"inputs":[],"name":"pause","outputs":[],"stateMutability":"nonpayable","type":"function"},{"inputs":[],"name":"paused","outputs":[{"internalType":"bool","name":"","type":"bool"}],"stateMutability":"view","type":"function"},{"inputs":[{"internalType":"bytes32","name":"newRoot","type":"bytes32"}],"name":"publishAspRoot","outputs":[],"stateMutability":"nonpayable","type":"function"},{"inputs":[{"internalType":"address","name":"account","type":"address"}],"name":"removeSanctioned","outputs":[],"stateMutability":"nonpayable","type":"function"},{"inputs":[],"name":"renounceOwnership","outputs":[],"stateMutability":"nonpayable","type":"function"},{"inputs":[{"internalType":"bytes32","name":"role","type":"bytes32"},{"internalType":"address","name":"callerConfirmation","type":"address"}],"name":"renounceRole","outputs":[],"stateMutability":"nonpayable","type":"function"},{"inputs":[{"internalType":"bytes32","name":"role","type":"bytes32"},{"internalType":"address","name":"account","type":"address"}],"name":"revokeRole","outputs":[],"stateMutability":"nonpayable","type":"function"},{"inputs":[],"name":"sanctionsOracle","outputs":[{"internalType":"contract ISanctionsList","name":"","type":"address"}],"stateMutability":"view","type":"function"},{"inputs":[],"name":"stateTree","outputs":[{"internalType":"contract IIncrementalMerkleTree","name":"","type":"address"}],"stateMutability":"view","type":"function"},{"inputs":[{"internalType":"bytes4","name":"interfaceId","type":"bytes4"}],"name":"supportsInterface","outputs":[{"internalType":"bool","name":"","type":"bool"}],"stateMutability":"view","type":"function"},{"inputs":[{"internalType":"address","name":"newOwner","type":"address"}],"name":"transferOwnership","outputs":[],"stateMutability":"nonpayable","type":"function"},{"inputs":[],"name":"unpause","outputs":[],"stateMutability":"nonpayable","type":"function"},{"inputs":[],"name":"verifier","outputs":[{"internalType":"contract IVerifier","name":"","type":"address"}],"stateMutability":"view","type":"function"},{"inputs":[{"internalType":"bytes","name":"proof","type":"bytes"},{"internalType":"bytes32","name":"stateRoot","type":"bytes32"},{"internalType":"bytes32","name":"aspRoot","type":"bytes32"},{"internalType":"bytes32","name":"nullifierHash","type":"bytes32"},{"internalType":"address payable","name":"recipient","type":"address"},{"internalType":"address payable","name":"relayer","type":"address"},{"internalType":"uint256","name":"fee","type":"uint256"}],"name":"withdraw","outputs":[],"stateMutability":"nonpayable","type":"function"},{"inputs":[],"name":"withdrawFees","outputs":[],"stateMutability":"nonpayable","type":"function"},{"stateMutability":"payable","type":"receive"}],"evm":{"bytecode":{"linkReferences":{},"object":"60e060405234801562000010575f80fd5b5060405162001f7038038062001f708339810160408190526200003391620002b1565b8060017f9b779b17422d0df92223018b32b4d1fa46e071723d6817e2486d003becc55f00556001600160a01b0381166200008657604051631e4fbdf760e01b81525f600482015260240160405180910390fd5b620000918162000194565b506001600160a01b038416620000ba5760405163d92e233d60e01b815260040160405180910390fd5b6001600160a01b038316620000e25760405163d92e233d60e01b815260040160405180910390fd5b6001600160a01b0381166200010a5760405163d92e233d60e01b815260040160405180910390fd5b6001600160a01b0380851660805283811660a052821660c0526200012f5f82620001ed565b506200015c7f442a94f1a1fac79af32856af2a64f63648cfa2ef3b98610a5bb7cbec4cee698582620001ed565b50620001897f65d7a28e3265b37a6474929f336521b332c1681b933f6cb9f3376673440d862a82620001ed565b505050505062000316565b600180546001600160a01b03838116610100818102610100600160a81b031985161790945560405193909204169182907f8be0079c531659141344cd1fd0a4f28419497f9722a3daafe3b4186f6b6457e0905f90a35050565b5f828152602081815260408083206001600160a01b038516845290915281205460ff1662000290575f838152602081815260408083206001600160a01b03861684529091529020805460ff19166001179055620002473390565b6001600160a01b0316826001600160a01b0316847f2f8788117e7eff1d82e926ec794901d17c78024a50270940304540a733656f0d60405160405180910390a450600162000293565b505f5b92915050565b6001600160a01b0381168114620002ae575f80fd5b50565b5f805f8060808587031215620002c5575f80fd5b8451620002d28162000299565b6020860151909450620002e58162000299565b6040860151909350620002f88162000299565b60608601519092506200030b8162000299565b939692955090935050565b60805160a05160c051611c0c620003645f395f81816106a0015281816112a501526112f701525f81816103e201528181610ac5015261116e01525f81816104430152610c3f0152611c0c5ff3fe60806040526004361061023e575f3560e01c8063839df9451161012d578063be378228116100aa578063e63ab1e91161006e578063e63ab1e914610777578063e9dd3018146107aa578063ef4688f8146107be578063f184205f146107f1578063f2fde38b1461081f5761028b565b8063be378228146106de578063d407c69514610705578063d547741f14610724578063df592f7d14610743578063e1a45218146107625761028b565b806391d14854116100f157806391d148541461064a578063a217fddf14610669578063b214faa51461067c578063b3df4df91461068f578063b7cf5825146106c25761028b565b8063839df9451461059d5780638456cb59146105cb5780638b01429d146105df5780638b61d736146105fa5780638da5cb5b146106285761028b565b806336568abe116101bb57806355d168da1161017f57806355d168da1461052057806358f786ed1461053f5780635c975abb14610553578063715018a61461056a57806380b437b11461057e5761028b565b806336568abe1461049b5780633f4ba83a146104ba578063476343ee146104ce5780634b01d5dc146104e25780634ea91771146105015761028b565b806318b142771161020257806318b14277146103d1578063248a9ca3146104045780632b7ac3f3146104325780632f2ff15d1461046557806331d1c1b3146104865761028b565b806301ffc9a7146102ce578063020462f3146103025780630280ae8a1461032b578063062d3bd71461036257806317cc915c146103a35761028b565b3661028b5760405162461bcd60e51b8152602060048201526018602482015277141c9a5d9858de541bdbdb0e881d5cd94819195c1bdcda5d60421b60448201526064015b60405180910390fd5b60405162461bcd60e51b8152602060048201526018602482015277141c9a5d9858de541bdbdb0e881d5cd94819195c1bdcda5d60421b6044820152606401610282565b3480156102d9575f80fd5b506102ed6102e83660046118e7565b61083e565b60405190151581526020015b60405180910390f35b34801561030d575f80fd5b50610316604081565b60405163ffffffff90911681526020016102f9565b348015610336575f80fd5b5061034a61034536600461190e565b610874565b6040516001600160a01b0390911681526020016102f9565b34801561036d575f80fd5b506103957f442a94f1a1fac79af32856af2a64f63648cfa2ef3b98610a5bb7cbec4cee698581565b6040519081526020016102f9565b3480156103ae575f80fd5b506102ed6103bd36600461190e565b60036020525f908152604090205460ff1681565b3480156103dc575f80fd5b5061034a7f000000000000000000000000000000000000000000000000000000000000000081565b34801561040f575f80fd5b5061039561041e36600461190e565b5f9081526020819052604090206001015490565b34801561043d575f80fd5b5061034a7f000000000000000000000000000000000000000000000000000000000000000081565b348015610470575f80fd5b5061048461047f366004611939565b610880565b005b348015610491575f80fd5b5061039560485481565b3480156104a6575f80fd5b506104846104b5366004611939565b6108aa565b3480156104c5575f80fd5b506104846108e2565b3480156104d9575f80fd5b50610484610917565b3480156104ed575f80fd5b506104846104fc366004611972565b610a20565b34801561050c575f80fd5b5061048461051b366004611a1f565b610d9e565b34801561052b575f80fd5b5061048461053a36600461190e565b610e10565b34801561054a575f80fd5b50610395610f42565b34801561055e575f80fd5b5060015460ff166102ed565b348015610575575f80fd5b50610484610f7a565b348015610589575f80fd5b50610484610598366004611a1f565b610f8b565b3480156105a8575f80fd5b506102ed6105b736600461190e565b60026020525f908152604090205460ff1681565b3480156105d6575f80fd5b50610484611023565b3480156105ea575f80fd5b5061039567016345785d8a000081565b348015610605575f80fd5b506102ed61061436600461190e565b60456020525f908152604090205460ff1681565b348015610633575f80fd5b5060015461010090046001600160a01b031661034a565b348015610655575f80fd5b506102ed610664366004611939565b611055565b348015610674575f80fd5b506103955f81565b61048461068a36600461190e565b61107d565b34801561069a575f80fd5b5061034a7f000000000000000000000000000000000000000000000000000000000000000081565b3480156106cd575f80fd5b506044546103169063ffffffff1681565b3480156106e9575f80fd5b506106f2606481565b60405161ffff90911681526020016102f9565b348015610710575f80fd5b5061039561071f36600461190e565b61123b565b34801561072f575f80fd5b5061048461073e366004611939565b611251565b34801561074e575f80fd5b506102ed61075d366004611a1f565b611275565b34801561076d575f80fd5b506106f261271081565b348015610782575f80fd5b506103957f65d7a28e3265b37a6474929f336521b332c1681b933f6cb9f3376673440d862a81565b3480156107b5575f80fd5b5061039561136b565b3480156107c9575f80fd5b506103957f60ddeeedcc0ad0194a5daeab83d1463588b03aca86cbee9384a9d5d1e673c2e281565b3480156107fc575f80fd5b506102ed61080b36600461190e565b5f9081526045602052604090205460ff1690565b34801561082a575f80fd5b50610484610839366004611a1f565b611376565b5f6001600160e01b03198216637965db0b60e01b148061086e57506301ffc9a760e01b6001600160e01b03198316145b92915050565b5f61086e6046836113b0565b5f8281526020819052604090206001015461089a816113c2565b6108a483836113cc565b50505050565b6001600160a01b03811633146108d35760405163334bd91960e11b815260040160405180910390fd5b6108dd828261145b565b505050565b7f65d7a28e3265b37a6474929f336521b332c1681b933f6cb9f3376673440d862a61090c816113c2565b6109146114c4565b50565b61091f611516565b610927611549565b6048545f8190036109385750610a08565b5f604881905560015461010090046001600160a01b031690505f816001600160a01b0316836040515f6040518083038185875af1925050503d805f811461099a576040519150601f19603f3d011682016040523d82523d5f602084013e61099f565b606091505b50509050806109c157604051630db2c7f160e31b815260040160405180910390fd5b816001600160a01b03167fa087657e3d85162090ffd700fbfdf5070d816f63aa5da00063f6ffd369c8a6db846040516109fc91815260200190565b60405180910390a25050505b610a1e60015f80516020611bb783398151915255565b565b610a28611564565b610a30611549565b5f8481526003602052604090205460ff1615610a5f57604051636569570160e11b815260040160405180910390fd5b67016345785d8a0000811115610a88576040516349609d8560e11b815260040160405180910390fd5b6001600160a01b038316610aaf5760405163d92e233d60e01b815260040160405180910390fd5b604051636d9833e360e01b8152600481018790527f00000000000000000000000000000000000000000000000000000000000000006001600160a01b031690636d9833e390602401602060405180830381865afa158015610b12573d5f803e3d5ffd5b505050506040513d601f19601f82011682018060405250810190610b369190611a3a565b610b5357604051633f4f4f1360e21b815260040160405180910390fd5b5f8581526045602052604090205460ff16610b8157604051630f3addad60e21b815260040160405180910390fd5b610b8a83611275565b15610bb35760405163dcd3658d60e01b81526001600160a01b0384166004820152602401610282565b6001600160a01b03821615801590610bcf5750610bcf82611275565b15610bf857604051636a77805b60e11b81526001600160a01b0383166004820152602401610282565b610c006118c9565b8681526020810186905260408082018690526001600160a01b038581166060840152848116608084015260a08301849052905163695ef6f960e01b81527f00000000000000000000000000000000000000000000000000000000000000009091169063695ef6f990610c7a908c908c908690600401611a6d565b602060405180830381865afa158015610c95573d5f803e3d5ffd5b505050506040513d601f19601f82011682018060405250810190610cb99190611a3a565b610cd6576040516309bde33960e01b815260040160405180910390fd5b5f858152600360205260409020805460ff191660011790558115801590610d0557506001600160a01b03831615155b15610d1457610d148383611588565b610d2f84610d2a8467016345785d8a0000611adc565b611588565b826001600160a01b031685856001600160a01b03167fe9e508bad6d4c3227e881ca19068f099da81b5164dd6d62b2eaf1e8bc6c3493185604051610d7591815260200190565b60405180910390a450610d9460015f80516020611bb783398151915255565b5050505050505050565b7f442a94f1a1fac79af32856af2a64f63648cfa2ef3b98610a5bb7cbec4cee6985610dc8816113c2565b610dd3604683611603565b15610e0c576040516001600160a01b038316907f27c24e841c9b716a2af2ae635108fc747d4f0ab26bb3be48a53e4ce68d1f925b905f90a25b5050565b7f60ddeeedcc0ad0194a5daeab83d1463588b03aca86cbee9384a9d5d1e673c2e2610e3a816113c2565b81610e585760405163b263ae7360e01b815260040160405180910390fd5b6044545f90604090610e719063ffffffff166001611aef565b610e7b9190611b20565b90505f60048263ffffffff1660408110610e9757610e97611a59565b015490508015610eb7575f818152604560205260409020805460ff191690555b8360048363ffffffff1660408110610ed157610ed1611a59565b01555f84815260456020908152604091829020805460ff191660011790556044805463ffffffff861663ffffffff1990911681179091559151918252339186917f02cd97eb1138905d7dc9c1f5e42e188103a85075b9fc446197669f34269111bd910160405180910390a350505050565b5f612710610f59606467016345785d8a0000611b42565b610f639190611b59565b610f759067016345785d8a0000611b6c565b905090565b610f82611516565b610a1e5f611617565b7f442a94f1a1fac79af32856af2a64f63648cfa2ef3b98610a5bb7cbec4cee6985610fb5816113c2565b6001600160a01b038216610fdc5760405163d92e233d60e01b815260040160405180910390fd5b610fe7604683611670565b15610e0c576040516001600160a01b038316907f99f336eb5bc6257ae248080079fdc6cdc792f5b29f86c8302759dafc68b4c4fd905f90a25050565b7f65d7a28e3265b37a6474929f336521b332c1681b933f6cb9f3376673440d862a61104d816113c2565b610914611684565b5f918252602082815260408084206001600160a01b0393909316845291905290205460ff1690565b611085611564565b61108d611549565b5f6127106110a4606467016345785d8a0000611b42565b6110ae9190611b59565b90506110c28167016345785d8a0000611b6c565b34146110e157604051636ff0acf960e11b815260040160405180910390fd5b5f8281526002602052604090205460ff16156111105760405163145718a760e01b815260040160405180910390fd5b61111933611275565b15611139576040516334da009f60e11b8152336004820152602401610282565b60488054820190555f82815260026020526040808220805460ff1916600117905551632d287e4360e01b8152600481018490527f00000000000000000000000000000000000000000000000000000000000000006001600160a01b031690632d287e43906024016020604051808303815f875af11580156111bc573d5f803e3d5ffd5b505050506040513d601f19601f820116820180604052508101906111e09190611b7f565b6040805163ffffffff8316815242602082015291925084917fa945e51eec50ab98c161376f0db4cf2aeba3ec92755fe2fcd388bdbbb80ff196910160405180910390a2505061091460015f80516020611bb783398151915255565b6004816040811061124a575f80fd5b0154905081565b5f8281526020819052604090206001015461126b816113c2565b6108a4838361145b565b5f6001600160a01b03821661128b57505f919050565b6112966046836116bf565b156112a357506001919050565b7f00000000000000000000000000000000000000000000000000000000000000006001600160a01b03166112d857505f919050565b60405163df592f7d60e01b81526001600160a01b0383811660048301527f0000000000000000000000000000000000000000000000000000000000000000169063df592f7d90602401602060405180830381865afa92505050801561135a575060408051601f3d908101601f1916820190925261135791810190611a3a565b60015b61086e57506001919050565b919050565b5f610f7560466116e0565b61137e611516565b6001600160a01b0381166113a757604051631e4fbdf760e01b81525f6004820152602401610282565b61091481611617565b5f6113bb83836116e9565b9392505050565b610914813361170f565b5f6113d78383611055565b611454575f838152602081815260408083206001600160a01b03861684529091529020805460ff1916600117905561140c3390565b6001600160a01b0316826001600160a01b0316847f2f8788117e7eff1d82e926ec794901d17c78024a50270940304540a733656f0d60405160405180910390a450600161086e565b505f61086e565b5f6114668383611055565b15611454575f838152602081815260408083206001600160a01b0386168085529252808320805460ff1916905551339286917ff6391f5c32d9c69d2a47ea670b442974b53935d1edc7fd64eb21e047a839171b9190a450600161086e565b6114cc611748565b6001805460ff191690557f5db9ee0a495bf2e6ff9c91a7834c1ba4fdd244a5e8aa4e537bd38aeae4b073aa335b6040516001600160a01b03909116815260200160405180910390a1565b6001546001600160a01b03610100909104163314610a1e5760405163118cdaa760e01b8152336004820152602401610282565b61155161176b565b60025f80516020611bb783398151915255565b60015460ff1615610a1e5760405163d93c066560e01b815260040160405180910390fd5b805f03611593575050565b5f826001600160a01b0316826040515f6040518083038185875af1925050503d805f81146115dc576040519150601f19603f3d011682016040523d82523d5f602084013e6115e1565b606091505b50509050806108dd57604051630db2c7f160e31b815260040160405180910390fd5b5f6113bb836001600160a01b03841661179a565b600180546001600160a01b03838116610100818102610100600160a81b031985161790945560405193909204169182907f8be0079c531659141344cd1fd0a4f28419497f9722a3daafe3b4186f6b6457e0905f90a35050565b5f6113bb836001600160a01b038416611884565b61168c611564565b6001805460ff1916811790557f62e78cea01bee320cd4e420270b5ea74000d11b0c9f74754ebdbfc544b05a258336114f9565b6001600160a01b0381165f90815260018301602052604081205415156113bb565b5f61086e825490565b5f825f0182815481106116fe576116fe611a59565b905f5260205f200154905092915050565b6117198282611055565b610e0c5760405163e2517d3f60e01b81526001600160a01b038216600482015260248101839052604401610282565b60015460ff16610a1e57604051638dfc202b60e01b815260040160405180910390fd5b5f80516020611bb783398151915254600203610a1e57604051633ee5aeb560e01b815260040160405180910390fd5b5f8181526001830160205260408120548015611874575f6117bc600183611adc565b85549091505f906117cf90600190611adc565b905080821461182e575f865f0182815481106117ed576117ed611a59565b905f5260205f200154905080875f01848154811061180d5761180d611a59565b5f918252602080832090910192909255918252600188019052604090208390555b855486908061183f5761183f611ba2565b600190038181905f5260205f20015f90559055856001015f8681526020019081526020015f205f90556001935050505061086e565b5f91505061086e565b5092915050565b5f81815260018301602052604081205461145457508154600181810184555f84815260208082209093018490558454848252828601909352604090209190915561086e565b6040518060c001604052806006906020820280368337509192915050565b5f602082840312156118f7575f80fd5b81356001600160e01b0319811681146113bb575f80fd5b5f6020828403121561191e575f80fd5b5035919050565b6001600160a01b0381168114610914575f80fd5b5f806040838503121561194a575f80fd5b82359150602083013561195c81611925565b809150509250929050565b803561136681611925565b5f805f805f805f8060e0898b031215611989575f80fd5b883567ffffffffffffffff808211156119a0575f80fd5b818b0191508b601f8301126119b3575f80fd5b8135818111156119c1575f80fd5b8c60208285010111156119d2575f80fd5b60209283019a50985050890135955060408901359450606089013593506119fb60808a01611967565b9250611a0960a08a01611967565b915060c089013590509295985092959890939650565b5f60208284031215611a2f575f80fd5b81356113bb81611925565b5f60208284031215611a4a575f80fd5b815180151581146113bb575f80fd5b634e487b7160e01b5f52603260045260245ffd5b60e081528260e08201525f6101008486828501375f81868501015280601f19601f8701168401019150506020808301845f5b6006811015611abc57815183529183019190830190600101611a9f565b50505050949350505050565b634e487b7160e01b5f52601160045260245ffd5b8181038181111561086e5761086e611ac8565b63ffffffff81811683821601908082111561187d5761187d611ac8565b634e487b7160e01b5f52601260045260245ffd5b5f63ffffffff80841680611b3657611b36611b0c565b92169190910692915050565b808202811582820484141761086e5761086e611ac8565b5f82611b6757611b67611b0c565b500490565b8082018082111561086e5761086e611ac8565b5f60208284031215611b8f575f80fd5b815163ffffffff811681146113bb575f80fd5b634e487b7160e01b5f52603160045260245ffdfe9b779b17422d0df92223018b32b4d1fa46e071723d6817e2486d003becc55f00a264697066735822122018a7ba0e87e29a671e525ce50a732954944726ff6db3756eba873d8710aef58b64736f6c63430008180033","opcodes":"PUSH1 0xE0 PUSH1 0x40 MSTORE CALLVALUE DUP1 ISZERO PUSH3 0x10 JUMPI PUSH0 DUP1 REVERT JUMPDEST POP PUSH1 0x40 MLOAD PUSH3 0x1F70 CODESIZE SUB DUP1 PUSH3 0x1F70 DUP4 CODECOPY DUP2 ADD PUSH1 0x40 DUP2 SWAP1 MSTORE PUSH3 0x33 SWAP2 PUSH3 0x2B1 JUMP JUMPDEST DUP1 PUSH1 0x1 PUSH32 0x9B779B17422D0DF92223018B32B4D1FA46E071723D6817E2486D003BECC55F00 SSTORE PUSH1 0x1 PUSH1 0x1 PUSH1 0xA0 SHL SUB DUP2 AND PUSH3 0x86 JUMPI PUSH1 0x40 MLOAD PUSH4 0x1E4FBDF7 PUSH1 0xE0 SHL DUP2 MSTORE PUSH0 PUSH1 0x4 DUP3 ADD MSTORE PUSH1 0x24 ADD PUSH1 0x40 MLOAD DUP1 SWAP2 SUB SWAP1 REVERT JUMPDEST PUSH3 0x91 DUP2 PUSH3 0x194 JUMP JUMPDEST POP PUSH1 0x1 PUSH1 0x1 PUSH1 0xA0 SHL SUB DUP5 AND PUSH3 0xBA JUMPI PUSH1 0x40 MLOAD PUSH4 0xD92E233D PUSH1 0xE0 SHL DUP2 MSTORE PUSH1 0x4 ADD PUSH1 0x40 MLOAD DUP1 SWAP2 SUB SWAP1 REVERT JUMPDEST PUSH1 0x1 PUSH1 0x1 PUSH1 0xA0 SHL SUB DUP4 AND PUSH3 0xE2 JUMPI PUSH1 0x40 MLOAD PUSH4 0xD92E233D PUSH1 0xE0 SHL DUP2 MSTORE PUSH1 0x4 ADD PUSH1 0x40 MLOAD DUP1 SWAP2 SUB SWAP1 REVERT JUMPDEST PUSH1 0x1 PUSH1 0x1 PUSH1 0xA0 SHL SUB DUP2 AND PUSH3 0x10A JUMPI PUSH1 0x40 MLOAD PUSH4 0xD92E233D PUSH1 0xE0 SHL DUP2 MSTORE PUSH1 0x4 ADD PUSH1 0x40 MLOAD DUP1 SWAP2 SUB SWAP1 REVERT JUMPDEST PUSH1 0x1 PUSH1 0x1 PUSH1 0xA0 SHL SUB DUP1 DUP6 AND PUSH1 0x80 MSTORE DUP4 DUP2 AND PUSH1 0xA0 MSTORE DUP3 AND PUSH1 0xC0 MSTORE PUSH3 0x12F PUSH0 DUP3 PUSH3 0x1ED JUMP JUMPDEST POP PUSH3 0x15C PUSH32 0x442A94F1A1FAC79AF32856AF2A64F63648CFA2EF3B98610A5BB7CBEC4CEE6985 DUP3 PUSH3 0x1ED JUMP JUMPDEST POP PUSH3 0x189 PUSH32 0x65D7A28E3265B37A6474929F336521B332C1681B933F6CB9F3376673440D862A DUP3 PUSH3 0x1ED JUMP JUMPDEST POP POP POP POP POP PUSH3 0x316 JUMP JUMPDEST PUSH1 0x1 DUP1 SLOAD PUSH1 0x1 PUSH1 0x1 PUSH1 0xA0 SHL SUB DUP4 DUP2 AND PUSH2 0x100 DUP2 DUP2 MUL PUSH2 0x100 PUSH1 0x1 PUSH1 0xA8 SHL SUB NOT DUP6 AND OR SWAP1 SWAP5 SSTORE PUSH1 0x40 MLOAD SWAP4 SWAP1 SWAP3 DIV AND SWAP2 DUP3 SWAP1 PUSH32 0x8BE0079C531659141344CD1FD0A4F28419497F9722A3DAAFE3B4186F6B6457E0 SWAP1 PUSH0 SWAP1 LOG3 POP POP JUMP JUMPDEST PUSH0 DUP3 DUP2 MSTORE PUSH1 0x20 DUP2 DUP2 MSTORE PUSH1 0x40 DUP1 DUP4 KECCAK256 PUSH1 0x1 PUSH1 0x1 PUSH1 0xA0 SHL SUB DUP6 AND DUP5 MSTORE SWAP1 SWAP2 MSTORE DUP2 KECCAK256 SLOAD PUSH1 0xFF AND PUSH3 0x290 JUMPI PUSH0 DUP4 DUP2 MSTORE PUSH1 0x20 DUP2 DUP2 MSTORE PUSH1 0x40 DUP1 DUP4 KECCAK256 PUSH1 0x1 PUSH1 0x1 PUSH1 0xA0 SHL SUB DUP7 AND DUP5 MSTORE SWAP1 SWAP2 MSTORE SWAP1 KECCAK256 DUP1 SLOAD PUSH1 0xFF NOT AND PUSH1 0x1 OR SWAP1 SSTORE PUSH3 0x247 CALLER SWAP1 JUMP JUMPDEST PUSH1 0x1 PUSH1 0x1 PUSH1 0xA0 SHL SUB AND DUP3 PUSH1 0x1 PUSH1 0x1 PUSH1 0xA0 SHL SUB AND DUP5 PUSH32 0x2F8788117E7EFF1D82E926EC794901D17C78024A50270940304540A733656F0D PUSH1 0x40 MLOAD PUSH1 0x40 MLOAD DUP1 SWAP2 SUB SWAP1 LOG4 POP PUSH1 0x1 PUSH3 0x293 JUMP JUMPDEST POP PUSH0 JUMPDEST SWAP3 SWAP2 POP POP JUMP JUMPDEST PUSH1 0x1 PUSH1 0x1 PUSH1 0xA0 SHL SUB DUP2 AND DUP2 EQ PUSH3 0x2AE JUMPI PUSH0 DUP1 REVERT JUMPDEST POP JUMP JUMPDEST PUSH0 DUP1 PUSH0 DUP1 PUSH1 0x80 DUP6 DUP8 SUB SLT ISZERO PUSH3 0x2C5 JUMPI PUSH0 DUP1 REVERT JUMPDEST DUP5 MLOAD PUSH3 0x2D2 DUP2 PUSH3 0x299 JUMP JUMPDEST PUSH1 0x20 DUP7 ADD MLOAD SWAP1 SWAP5 POP PUSH3 0x2E5 DUP2 PUSH3 0x299 JUMP JUMPDEST PUSH1 0x40 DUP7 ADD MLOAD SWAP1 SWAP4 POP PUSH3 0x2F8 DUP2 PUSH3 0x299 JUMP JUMPDEST PUSH1 0x60 DUP7 ADD MLOAD SWAP1 SWAP3 POP PUSH3 0x30B DUP2 PUSH3 0x299 JUMP JUMPDEST SWAP4 SWAP7 SWAP3 SWAP6 POP SWAP1 SWAP4 POP POP JUMP JUMPDEST PUSH1 0x80 MLOAD PUSH1 0xA0 MLOAD PUSH1 0xC0 MLOAD PUSH2 0x1C0C PUSH3 0x364 PUSH0 CODECOPY PUSH0 DUP2 DUP2 PUSH2 0x6A0 ADD MSTORE DUP2 DUP2 PUSH2 0x12A5 ADD MSTORE PUSH2 0x12F7 ADD MSTORE PUSH0 DUP2 DUP2 PUSH2 0x3E2 ADD MSTORE DUP2 DUP2 PUSH2 0xAC5 ADD MSTORE PUSH2 0x116E ADD MSTORE PUSH0 DUP2 DUP2 PUSH2 0x443 ADD MSTORE PUSH2 0xC3F ADD MSTORE PUSH2 0x1C0C PUSH0 RETURN INVALID PUSH1 0x80 PUSH1 0x40 MSTORE PUSH1 0x4 CALLDATASIZE LT PUSH2 0x23E JUMPI PUSH0 CALLDATALOAD PUSH1 0xE0 SHR DUP1 PUSH4 0x839DF945 GT PUSH2 0x12D JUMPI DUP1 PUSH4 0xBE378228 GT PUSH2 0xAA JUMPI DUP1 PUSH4 0xE63AB1E9 GT PUSH2 0x6E JUMPI DUP1 PUSH4 0xE63AB1E9 EQ PUSH2 0x777 JUMPI DUP1 PUSH4 0xE9DD3018 EQ PUSH2 0x7AA JUMPI DUP1 PUSH4 0xEF4688F8 EQ PUSH2 0x7BE JUMPI DUP1 PUSH4 0xF184205F EQ PUSH2 0x7F1 JUMPI DUP1 PUSH4 0xF2FDE38B EQ PUSH2 0x81F JUMPI PUSH2 0x28B JUMP JUMPDEST DUP1 PUSH4 0xBE378228 EQ PUSH2 0x6DE JUMPI DUP1 PUSH4 0xD407C695 EQ PUSH2 0x705 JUMPI DUP1 PUSH4 0xD547741F EQ PUSH2 0x724 JUMPI DUP1 PUSH4 0xDF592F7D EQ PUSH2 0x743 JUMPI DUP1 PUSH4 0xE1A45218 EQ PUSH2 0x762 JUMPI PUSH2 0x28B JUMP JUMPDEST DUP1 PUSH4 0x91D14854 GT PUSH2 0xF1 JUMPI DUP1 PUSH4 0x91D14854 EQ PUSH2 0x64A JUMPI DUP1 PUSH4 0xA217FDDF EQ PUSH2 0x669 JUMPI DUP1 PUSH4 0xB214FAA5 EQ PUSH2 0x67C JUMPI DUP1 PUSH4 0xB3DF4DF9 EQ PUSH2 0x68F JUMPI DUP1 PUSH4 0xB7CF5825 EQ PUSH2 0x6C2 JUMPI PUSH2 0x28B JUMP JUMPDEST DUP1 PUSH4 0x839DF945 EQ PUSH2 0x59D JUMPI DUP1 PUSH4 0x8456CB59 EQ PUSH2 0x5CB JUMPI DUP1 PUSH4 0x8B01429D EQ PUSH2 0x5DF JUMPI DUP1 PUSH4 0x8B61D736 EQ PUSH2 0x5FA JUMPI DUP1 PUSH4 0x8DA5CB5B EQ PUSH2 0x628 JUMPI PUSH2 0x28B JUMP JUMPDEST DUP1 PUSH4 0x36568ABE GT PUSH2 0x1BB JUMPI DUP1 PUSH4 0x55D168DA GT PUSH2 0x17F JUMPI DUP1 PUSH4 0x55D168DA EQ PUSH2 0x520 JUMPI DUP1 PUSH4 0x58F786ED EQ PUSH2 0x53F JUMPI DUP1 PUSH4 0x5C975ABB EQ PUSH2 0x553 JUMPI DUP1 PUSH4 0x715018A6 EQ PUSH2 0x56A JUMPI DUP1 PUSH4 0x80B437B1 EQ PUSH2 0x57E JUMPI PUSH2 0x28B JUMP JUMPDEST DUP1 PUSH4 0x36568ABE EQ PUSH2 0x49B JUMPI DUP1 PUSH4 0x3F4BA83A EQ PUSH2 0x4BA JUMPI DUP1 PUSH4 0x476343EE EQ PUSH2 0x4CE JUMPI DUP1 PUSH4 0x4B01D5DC EQ PUSH2 0x4E2 JUMPI DUP1 PUSH4 0x4EA91771 EQ PUSH2 0x501 JUMPI PUSH2 0x28B JUMP JUMPDEST DUP1 PUSH4 0x18B14277 GT PUSH2 0x202 JUMPI DUP1 PUSH4 0x18B14277 EQ PUSH2 0x3D1 JUMPI DUP1 PUSH4 0x248A9CA3 EQ PUSH2 0x404 JUMPI DUP1 PUSH4 0x2B7AC3F3 EQ PUSH2 0x432 JUMPI DUP1 PUSH4 0x2F2FF15D EQ PUSH2 0x465 JUMPI DUP1 PUSH4 0x31D1C1B3 EQ PUSH2 0x486 JUMPI PUSH2 0x28B JUMP JUMPDEST DUP1 PUSH4 0x1FFC9A7 EQ PUSH2 0x2CE JUMPI DUP1 PUSH4 0x20462F3 EQ PUSH2 0x302 JUMPI DUP1 PUSH4 0x280AE8A EQ PUSH2 0x32B JUMPI DUP1 PUSH4 0x62D3BD7 EQ PUSH2 0x362 JUMPI DUP1 PUSH4 0x17CC915C EQ PUSH2 0x3A3 JUMPI PUSH2 0x28B JUMP JUMPDEST CALLDATASIZE PUSH2 0x28B JUMPI PUSH1 0x40 MLOAD PUSH3 0x461BCD PUSH1 0xE5 SHL DUP2 MSTORE PUSH1 0x20 PUSH1 0x4 DUP3 ADD MSTORE PUSH1 0x18 PUSH1 0x24 DUP3 ADD MSTORE PUSH24 0x141C9A5D9858DE541BDBDB0E881D5CD94819195C1BDCDA5D PUSH1 0x42 SHL PUSH1 0x44 DUP3 ADD MSTORE PUSH1 0x64 ADD JUMPDEST PUSH1 0x40 MLOAD DUP1 SWAP2 SUB SWAP1 REVERT JUMPDEST PUSH1 0x40 MLOAD PUSH3 0x461BCD PUSH1 0xE5 SHL DUP2 MSTORE PUSH1 0x20 PUSH1 0x4 DUP3 ADD MSTORE PUSH1 0x18 PUSH1 0x24 DUP3 ADD MSTORE PUSH24 0x141C9A5D9858DE541BDBDB0E881D5CD94819195C1BDCDA5D PUSH1 0x42 SHL PUSH1 0x44 DUP3 ADD MSTORE PUSH1 0x64 ADD PUSH2 0x282 JUMP JUMPDEST CALLVALUE DUP1 ISZERO PUSH2 0x2D9 JUMPI PUSH0 DUP1 REVERT JUMPDEST POP PUSH2 0x2ED PUSH2 0x2E8 CALLDATASIZE PUSH1 0x4 PUSH2 0x18E7 JUMP JUMPDEST PUSH2 0x83E JUMP JUMPDEST PUSH1 0x40 MLOAD SWAP1 ISZERO ISZERO DUP2 MSTORE PUSH1 0x20 ADD JUMPDEST PUSH1 0x40 MLOAD DUP1 SWAP2 SUB SWAP1 RETURN JUMPDEST CALLVALUE DUP1 ISZERO PUSH2 0x30D JUMPI PUSH0 DUP1 REVERT JUMPDEST POP PUSH2 0x316 PUSH1 0x40 DUP2 JUMP JUMPDEST PUSH1 0x40 MLOAD PUSH4 0xFFFFFFFF SWAP1 SWAP2 AND DUP2 MSTORE PUSH1 0x20 ADD PUSH2 0x2F9 JUMP JUMPDEST CALLVALUE DUP1 ISZERO PUSH2 0x336 JUMPI PUSH0 DUP1 REVERT JUMPDEST POP PUSH2 0x34A PUSH2 0x345 CALLDATASIZE PUSH1 0x4 PUSH2 0x190E JUMP JUMPDEST PUSH2 0x874 JUMP JUMPDEST PUSH1 0x40 MLOAD PUSH1 0x1 PUSH1 0x1 PUSH1 0xA0 SHL SUB SWAP1 SWAP2 AND DUP2 MSTORE PUSH1 0x20 ADD PUSH2 0x2F9 JUMP JUMPDEST CALLVALUE DUP1 ISZERO PUSH2 0x36D JUMPI PUSH0 DUP1 REVERT JUMPDEST POP PUSH2 0x395 PUSH32 0x442A94F1A1FAC79AF32856AF2A64F63648CFA2EF3B98610A5BB7CBEC4CEE6985 DUP2 JUMP JUMPDEST PUSH1 0x40 MLOAD SWAP1 DUP2 MSTORE PUSH1 0x20 ADD PUSH2 0x2F9 JUMP JUMPDEST CALLVALUE DUP1 ISZERO PUSH2 0x3AE JUMPI PUSH0 DUP1 REVERT JUMPDEST POP PUSH2 0x2ED PUSH2 0x3BD CALLDATASIZE PUSH1 0x4 PUSH2 0x190E JUMP JUMPDEST PUSH1 0x3 PUSH1 0x20 MSTORE PUSH0 SWAP1 DUP2 MSTORE PUSH1 0x40 SWAP1 KECCAK256 SLOAD PUSH1 0xFF AND DUP2 JUMP JUMPDEST CALLVALUE DUP1 ISZERO PUSH2 0x3DC JUMPI PUSH0 DUP1 REVERT JUMPDEST POP PUSH2 0x34A PUSH32 0x0 DUP2 JUMP JUMPDEST CALLVALUE DUP1 ISZERO PUSH2 0x40F JUMPI PUSH0 DUP1 REVERT JUMPDEST POP PUSH2 0x395 PUSH2 0x41E CALLDATASIZE PUSH1 0x4 PUSH2 0x190E JUMP JUMPDEST PUSH0 SWAP1 DUP2 MSTORE PUSH1 0x20 DUP2 SWAP1 MSTORE PUSH1 0x40 SWAP1 KECCAK256 PUSH1 0x1 ADD SLOAD SWAP1 JUMP JUMPDEST CALLVALUE DUP1 ISZERO PUSH2 0x43D JUMPI PUSH0 DUP1 REVERT JUMPDEST POP PUSH2 0x34A PUSH32 0x0 DUP2 JUMP JUMPDEST CALLVALUE DUP1 ISZERO PUSH2 0x470 JUMPI PUSH0 DUP1 REVERT JUMPDEST POP PUSH2 0x484 PUSH2 0x47F CALLDATASIZE PUSH1 0x4 PUSH2 0x1939 JUMP JUMPDEST PUSH2 0x880 JUMP JUMPDEST STOP JUMPDEST CALLVALUE DUP1 ISZERO PUSH2 0x491 JUMPI PUSH0 DUP1 REVERT JUMPDEST POP PUSH2 0x395 PUSH1 0x48 SLOAD DUP2 JUMP JUMPDEST CALLVALUE DUP1 ISZERO PUSH2 0x4A6 JUMPI PUSH0 DUP1 REVERT JUMPDEST POP PUSH2 0x484 PUSH2 0x4B5 CALLDATASIZE PUSH1 0x4 PUSH2 0x1939 JUMP JUMPDEST PUSH2 0x8AA JUMP JUMPDEST CALLVALUE DUP1 ISZERO PUSH2 0x4C5 JUMPI PUSH0 DUP1 REVERT JUMPDEST POP PUSH2 0x484 PUSH2 0x8E2 JUMP JUMPDEST CALLVALUE DUP1 ISZERO PUSH2 0x4D9 JUMPI PUSH0 DUP1 REVERT JUMPDEST POP PUSH2 0x484 PUSH2 0x917 JUMP JUMPDEST CALLVALUE DUP1 ISZERO PUSH2 0x4ED JUMPI PUSH0 DUP1 REVERT JUMPDEST POP PUSH2 0x484 PUSH2 0x4FC CALLDATASIZE PUSH1 0x4 PUSH2 0x1972 JUMP JUMPDEST PUSH2 0xA20 JUMP JUMPDEST CALLVALUE DUP1 ISZERO PUSH2 0x50C JUMPI PUSH0 DUP1 REVERT JUMPDEST POP PUSH2 0x484 PUSH2 0x51B CALLDATASIZE PUSH1 0x4 PUSH2 0x1A1F JUMP JUMPDEST PUSH2 0xD9E JUMP JUMPDEST CALLVALUE DUP1 ISZERO PUSH2 0x52B JUMPI PUSH0 DUP1 REVERT JUMPDEST POP PUSH2 0x484 PUSH2 0x53A CALLDATASIZE PUSH1 0x4 PUSH2 0x190E JUMP JUMPDEST PUSH2 0xE10 JUMP JUMPDEST CALLVALUE DUP1 ISZERO PUSH2 0x54A JUMPI PUSH0 DUP1 REVERT JUMPDEST POP PUSH2 0x395 PUSH2 0xF42 JUMP JUMPDEST CALLVALUE DUP1 ISZERO PUSH2 0x55E JUMPI PUSH0 DUP1 REVERT JUMPDEST POP PUSH1 0x1 SLOAD PUSH1 0xFF AND PUSH2 0x2ED JUMP JUMPDEST CALLVALUE DUP1 ISZERO PUSH2 0x575 JUMPI PUSH0 DUP1 REVERT JUMPDEST POP PUSH2 0x484 PUSH2 0xF7A JUMP JUMPDEST CALLVALUE DUP1 ISZERO PUSH2 0x589 JUMPI PUSH0 DUP1 REVERT JUMPDEST POP PUSH2 0x484 PUSH2 0x598 CALLDATASIZE PUSH1 0x4 PUSH2 0x1A1F JUMP JUMPDEST PUSH2 0xF8B JUMP JUMPDEST CALLVALUE DUP1 ISZERO PUSH2 0x5A8 JUMPI PUSH0 DUP1 REVERT JUMPDEST POP PUSH2 0x2ED PUSH2 0x5B7 CALLDATASIZE PUSH1 0x4 PUSH2 0x190E JUMP JUMPDEST PUSH1 0x2 PUSH1 0x20 MSTORE PUSH0 SWAP1 DUP2 MSTORE PUSH1 0x40 SWAP1 KECCAK256 SLOAD PUSH1 0xFF AND DUP2 JUMP JUMPDEST CALLVALUE DUP1 ISZERO PUSH2 0x5D6 JUMPI PUSH0 DUP1 REVERT JUMPDEST POP PUSH2 0x484 PUSH2 0x1023 JUMP JUMPDEST CALLVALUE DUP1 ISZERO PUSH2 0x5EA JUMPI PUSH0 DUP1 REVERT JUMPDEST POP PUSH2 0x395 PUSH8 0x16345785D8A0000 DUP2 JUMP JUMPDEST CALLVALUE DUP1 ISZERO PUSH2 0x605 JUMPI PUSH0 DUP1 REVERT JUMPDEST POP PUSH2 0x2ED PUSH2 0x614 CALLDATASIZE PUSH1 0x4 PUSH2 0x190E JUMP JUMPDEST PUSH1 0x45 PUSH1 0x20 MSTORE PUSH0 SWAP1 DUP2 MSTORE PUSH1 0x40 SWAP1 KECCAK256 SLOAD PUSH1 0xFF AND DUP2 JUMP JUMPDEST CALLVALUE DUP1 ISZERO PUSH2 0x633 JUMPI PUSH0 DUP1 REVERT JUMPDEST POP PUSH1 0x1 SLOAD PUSH2 0x100 SWAP1 DIV PUSH1 0x1 PUSH1 0x1 PUSH1 0xA0 SHL SUB AND PUSH2 0x34A JUMP JUMPDEST CALLVALUE DUP1 ISZERO PUSH2 0x655 JUMPI PUSH0 DUP1 REVERT JUMPDEST POP PUSH2 0x2ED PUSH2 0x664 CALLDATASIZE PUSH1 0x4 PUSH2 0x1939 JUMP JUMPDEST PUSH2 0x1055 JUMP JUMPDEST CALLVALUE DUP1 ISZERO PUSH2 0x674 JUMPI PUSH0 DUP1 REVERT JUMPDEST POP PUSH2 0x395 PUSH0 DUP2 JUMP JUMPDEST PUSH2 0x484 PUSH2 0x68A CALLDATASIZE PUSH1 0x4 PUSH2 0x190E JUMP JUMPDEST PUSH2 0x107D JUMP JUMPDEST CALLVALUE DUP1 ISZERO PUSH2 0x69A JUMPI PUSH0 DUP1 REVERT JUMPDEST POP PUSH2 0x34A PUSH32 0x0 DUP2 JUMP JUMPDEST CALLVALUE DUP1 ISZERO PUSH2 0x6CD JUMPI PUSH0 DUP1 REVERT JUMPDEST POP PUSH1 0x44 SLOAD PUSH2 0x316 SWAP1 PUSH4 0xFFFFFFFF AND DUP2 JUMP JUMPDEST CALLVALUE DUP1 ISZERO PUSH2 0x6E9 JUMPI PUSH0 DUP1 REVERT JUMPDEST POP PUSH2 0x6F2 PUSH1 0x64 DUP2 JUMP JUMPDEST PUSH1 0x40 MLOAD PUSH2 0xFFFF SWAP1 SWAP2 AND DUP2 MSTORE PUSH1 0x20 ADD PUSH2 0x2F9 JUMP JUMPDEST CALLVALUE DUP1 ISZERO PUSH2 0x710 JUMPI PUSH0 DUP1 REVERT JUMPDEST POP PUSH2 0x395 PUSH2 0x71F CALLDATASIZE PUSH1 0x4 PUSH2 0x190E JUMP JUMPDEST PUSH2 0x123B JUMP JUMPDEST CALLVALUE DUP1 ISZERO PUSH2 0x72F JUMPI PUSH0 DUP1 REVERT JUMPDEST POP PUSH2 0x484 PUSH2 0x73E CALLDATASIZE PUSH1 0x4 PUSH2 0x1939 JUMP JUMPDEST PUSH2 0x1251 JUMP JUMPDEST CALLVALUE DUP1 ISZERO PUSH2 0x74E JUMPI PUSH0 DUP1 REVERT JUMPDEST POP PUSH2 0x2ED PUSH2 0x75D CALLDATASIZE PUSH1 0x4 PUSH2 0x1A1F JUMP JUMPDEST PUSH2 0x1275 JUMP JUMPDEST CALLVALUE DUP1 ISZERO PUSH2 0x76D JUMPI PUSH0 DUP1 REVERT JUMPDEST POP PUSH2 0x6F2 PUSH2 0x2710 DUP2 JUMP JUMPDEST CALLVALUE DUP1 ISZERO PUSH2 0x782 JUMPI PUSH0 DUP1 REVERT JUMPDEST POP PUSH2 0x395 PUSH32 0x65D7A28E3265B37A6474929F336521B332C1681B933F6CB9F3376673440D862A DUP2 JUMP JUMPDEST CALLVALUE DUP1 ISZERO PUSH2 0x7B5 JUMPI PUSH0 DUP1 REVERT JUMPDEST POP PUSH2 0x395 PUSH2 0x136B JUMP JUMPDEST CALLVALUE DUP1 ISZERO PUSH2 0x7C9 JUMPI PUSH0 DUP1 REVERT JUMPDEST POP PUSH2 0x395 PUSH32 0x60DDEEEDCC0AD0194A5DAEAB83D1463588B03ACA86CBEE9384A9D5D1E673C2E2 DUP2 JUMP JUMPDEST CALLVALUE DUP1 ISZERO PUSH2 0x7FC JUMPI PUSH0 DUP1 REVERT JUMPDEST POP PUSH2 0x2ED PUSH2 0x80B CALLDATASIZE PUSH1 0x4 PUSH2 0x190E JUMP JUMPDEST PUSH0 SWAP1 DUP2 MSTORE PUSH1 0x45 PUSH1 0x20 MSTORE PUSH1 0x40 SWAP1 KECCAK256 SLOAD PUSH1 0xFF AND SWAP1 JUMP JUMPDEST CALLVALUE DUP1 ISZERO PUSH2 0x82A JUMPI PUSH0 DUP1 REVERT JUMPDEST POP PUSH2 0x484 PUSH2 0x839 CALLDATASIZE PUSH1 0x4 PUSH2 0x1A1F JUMP JUMPDEST PUSH2 0x1376 JUMP JUMPDEST PUSH0 PUSH1 0x1 PUSH1 0x1 PUSH1 0xE0 SHL SUB NOT DUP3 AND PUSH4 0x7965DB0B PUSH1 0xE0 SHL EQ DUP1 PUSH2 0x86E JUMPI POP PUSH4 0x1FFC9A7 PUSH1 0xE0 SHL PUSH1 0x1 PUSH1 0x1 PUSH1 0xE0 SHL SUB NOT DUP4 AND EQ JUMPDEST SWAP3 SWAP2 POP POP JUMP JUMPDEST PUSH0 PUSH2 0x86E PUSH1 0x46 DUP4 PUSH2 0x13B0 JUMP JUMPDEST PUSH0 DUP3 DUP2 MSTORE PUSH1 0x20 DUP2 SWAP1 MSTORE PUSH1 0x40 SWAP1 KECCAK256 PUSH1 0x1 ADD SLOAD PUSH2 0x89A DUP2 PUSH2 0x13C2 JUMP JUMPDEST PUSH2 0x8A4 DUP4 DUP4 PUSH2 0x13CC JUMP JUMPDEST POP POP POP POP JUMP JUMPDEST PUSH1 0x1 PUSH1 0x1 PUSH1 0xA0 SHL SUB DUP2 AND CALLER EQ PUSH2 0x8D3 JUMPI PUSH1 0x40 MLOAD PUSH4 0x334BD919 PUSH1 0xE1 SHL DUP2 MSTORE PUSH1 0x4 ADD PUSH1 0x40 MLOAD DUP1 SWAP2 SUB SWAP1 REVERT JUMPDEST PUSH2 0x8DD DUP3 DUP3 PUSH2 0x145B JUMP JUMPDEST POP POP POP JUMP JUMPDEST PUSH32 0x65D7A28E3265B37A6474929F336521B332C1681B933F6CB9F3376673440D862A PUSH2 0x90C DUP2 PUSH2 0x13C2 JUMP JUMPDEST PUSH2 0x914 PUSH2 0x14C4 JUMP JUMPDEST POP JUMP JUMPDEST PUSH2 0x91F PUSH2 0x1516 JUMP JUMPDEST PUSH2 0x927 PUSH2 0x1549 JUMP JUMPDEST PUSH1 0x48 SLOAD PUSH0 DUP2 SWAP1 SUB PUSH2 0x938 JUMPI POP PUSH2 0xA08 JUMP JUMPDEST PUSH0 PUSH1 0x48 DUP2 SWAP1 SSTORE PUSH1 0x1 SLOAD PUSH2 0x100 SWAP1 DIV PUSH1 0x1 PUSH1 0x1 PUSH1 0xA0 SHL SUB AND SWAP1 POP PUSH0 DUP2 PUSH1 0x1 PUSH1 0x1 PUSH1 0xA0 SHL SUB AND DUP4 PUSH1 0x40 MLOAD PUSH0 PUSH1 0x40 MLOAD DUP1 DUP4 SUB DUP2 DUP6 DUP8 GAS CALL SWAP3 POP POP POP RETURNDATASIZE DUP1 PUSH0 DUP2 EQ PUSH2 0x99A JUMPI PUSH1 0x40 MLOAD SWAP2 POP PUSH1 0x1F NOT PUSH1 0x3F RETURNDATASIZE ADD AND DUP3 ADD PUSH1 0x40 MSTORE RETURNDATASIZE DUP3 MSTORE RETURNDATASIZE PUSH0 PUSH1 0x20 DUP5 ADD RETURNDATACOPY PUSH2 0x99F JUMP JUMPDEST PUSH1 0x60 SWAP2 POP JUMPDEST POP POP SWAP1 POP DUP1 PUSH2 0x9C1 JUMPI PUSH1 0x40 MLOAD PUSH4 0xDB2C7F1 PUSH1 0xE3 SHL DUP2 MSTORE PUSH1 0x4 ADD PUSH1 0x40 MLOAD DUP1 SWAP2 SUB SWAP1 REVERT JUMPDEST DUP2 PUSH1 0x1 PUSH1 0x1 PUSH1 0xA0 SHL SUB AND PUSH32 0xA087657E3D85162090FFD700FBFDF5070D816F63AA5DA00063F6FFD369C8A6DB DUP5 PUSH1 0x40 MLOAD PUSH2 0x9FC SWAP2 DUP2 MSTORE PUSH1 0x20 ADD SWAP1 JUMP JUMPDEST PUSH1 0x40 MLOAD DUP1 SWAP2 SUB SWAP1 LOG2 POP POP POP JUMPDEST PUSH2 0xA1E PUSH1 0x1 PUSH0 DUP1 MLOAD PUSH1 0x20 PUSH2 0x1BB7 DUP4 CODECOPY DUP2 MLOAD SWAP2 MSTORE SSTORE JUMP JUMPDEST JUMP JUMPDEST PUSH2 0xA28 PUSH2 0x1564 JUMP JUMPDEST PUSH2 0xA30 PUSH2 0x1549 JUMP JUMPDEST PUSH0 DUP5 DUP2 MSTORE PUSH1 0x3 PUSH1 0x20 MSTORE PUSH1 0x40 SWAP1 KECCAK256 SLOAD PUSH1 0xFF AND ISZERO PUSH2 0xA5F JUMPI PUSH1 0x40 MLOAD PUSH4 0x65695701 PUSH1 0xE1 SHL DUP2 MSTORE PUSH1 0x4 ADD PUSH1 0x40 MLOAD DUP1 SWAP2 SUB SWAP1 REVERT JUMPDEST PUSH8 0x16345785D8A0000 DUP2 GT ISZERO PUSH2 0xA88 JUMPI PUSH1 0x40 MLOAD PUSH4 0x49609D85 PUSH1 0xE1 SHL DUP2 MSTORE PUSH1 0x4 ADD PUSH1 0x40 MLOAD DUP1 SWAP2 SUB SWAP1 REVERT JUMPDEST PUSH1 0x1 PUSH1 0x1 PUSH1 0xA0 SHL SUB DUP4 AND PUSH2 0xAAF JUMPI PUSH1 0x40 MLOAD PUSH4 0xD92E233D PUSH1 0xE0 SHL DUP2 MSTORE PUSH1 0x4 ADD PUSH1 0x40 MLOAD DUP1 SWAP2 SUB SWAP1 REVERT JUMPDEST PUSH1 0x40 MLOAD PUSH4 0x6D9833E3 PUSH1 0xE0 SHL DUP2 MSTORE PUSH1 0x4 DUP2 ADD DUP8 SWAP1 MSTORE PUSH32 0x0 PUSH1 0x1 PUSH1 0x1 PUSH1 0xA0 SHL SUB AND SWAP1 PUSH4 0x6D9833E3 SWAP1 PUSH1 0x24 ADD PUSH1 0x20 PUSH1 0x40 MLOAD DUP1 DUP4 SUB DUP2 DUP7 GAS STATICCALL ISZERO DUP1 ISZERO PUSH2 0xB12 JUMPI RETURNDATASIZE PUSH0 DUP1 RETURNDATACOPY RETURNDATASIZE PUSH0 REVERT JUMPDEST POP POP POP POP PUSH1 0x40 MLOAD RETURNDATASIZE PUSH1 0x1F NOT PUSH1 0x1F DUP3 ADD AND DUP3 ADD DUP1 PUSH1 0x40 MSTORE POP DUP2 ADD SWAP1 PUSH2 0xB36 SWAP2 SWAP1 PUSH2 0x1A3A JUMP JUMPDEST PUSH2 0xB53 JUMPI PUSH1 0x40 MLOAD PUSH4 0x3F4F4F13 PUSH1 0xE2 SHL DUP2 MSTORE PUSH1 0x4 ADD PUSH1 0x40 MLOAD DUP1 SWAP2 SUB SWAP1 REVERT JUMPDEST PUSH0 DUP6 DUP2 MSTORE PUSH1 0x45 PUSH1 0x20 MSTORE PUSH1 0x40 SWAP1 KECCAK256 SLOAD PUSH1 0xFF AND PUSH2 0xB81 JUMPI PUSH1 0x40 MLOAD PUSH4 0xF3ADDAD PUSH1 0xE2 SHL DUP2 MSTORE PUSH1 0x4 ADD PUSH1 0x40 MLOAD DUP1 SWAP2 SUB SWAP1 REVERT JUMPDEST PUSH2 0xB8A DUP4 PUSH2 0x1275 JUMP JUMPDEST ISZERO PUSH2 0xBB3 JUMPI PUSH1 0x40 MLOAD PUSH4 0xDCD3658D PUSH1 0xE0 SHL DUP2 MSTORE PUSH1 0x1 PUSH1 0x1 PUSH1 0xA0 SHL SUB DUP5 AND PUSH1 0x4 DUP3 ADD MSTORE PUSH1 0x24 ADD PUSH2 0x282 JUMP JUMPDEST PUSH1 0x1 PUSH1 0x1 PUSH1 0xA0 SHL SUB DUP3 AND ISZERO DUP1 ISZERO SWAP1 PUSH2 0xBCF JUMPI POP PUSH2 0xBCF DUP3 PUSH2 0x1275 JUMP JUMPDEST ISZERO PUSH2 0xBF8 JUMPI PUSH1 0x40 MLOAD PUSH4 0x6A77805B PUSH1 0xE1 SHL DUP2 MSTORE PUSH1 0x1 PUSH1 0x1 PUSH1 0xA0 SHL SUB DUP4 AND PUSH1 0x4 DUP3 ADD MSTORE PUSH1 0x24 ADD PUSH2 0x282 JUMP JUMPDEST PUSH2 0xC00 PUSH2 0x18C9 JUMP JUMPDEST DUP7 DUP2 MSTORE PUSH1 0x20 DUP2 ADD DUP7 SWAP1 MSTORE PUSH1 0x40 DUP1 DUP3 ADD DUP7 SWAP1 MSTORE PUSH1 0x1 PUSH1 0x1 PUSH1 0xA0 SHL SUB DUP6 DUP2 AND PUSH1 0x60 DUP5 ADD MSTORE DUP5 DUP2 AND PUSH1 0x80 DUP5 ADD MSTORE PUSH1 0xA0 DUP4 ADD DUP5 SWAP1 MSTORE SWAP1 MLOAD PUSH4 0x695EF6F9 PUSH1 0xE0 SHL DUP2 MSTORE PUSH32 0x0 SWAP1 SWAP2 AND SWAP1 PUSH4 0x695EF6F9 SWAP1 PUSH2 0xC7A SWAP1 DUP13 SWAP1 DUP13 SWAP1 DUP7 SWAP1 PUSH1 0x4 ADD PUSH2 0x1A6D JUMP JUMPDEST PUSH1 0x20 PUSH1 0x40 MLOAD DUP1 DUP4 SUB DUP2 DUP7 GAS STATICCALL ISZERO DUP1 ISZERO PUSH2 0xC95 JUMPI RETURNDATASIZE PUSH0 DUP1 RETURNDATACOPY RETURNDATASIZE PUSH0 REVERT JUMPDEST POP POP POP POP PUSH1 0x40 MLOAD RETURNDATASIZE PUSH1 0x1F NOT PUSH1 0x1F DUP3 ADD AND DUP3 ADD DUP1 PUSH1 0x40 MSTORE POP DUP2 ADD SWAP1 PUSH2 0xCB9 SWAP2 SWAP1 PUSH2 0x1A3A JUMP JUMPDEST PUSH2 0xCD6 JUMPI PUSH1 0x40 MLOAD PUSH4 0x9BDE339 PUSH1 0xE0 SHL DUP2 MSTORE PUSH1 0x4 ADD PUSH1 0x40 MLOAD DUP1 SWAP2 SUB SWAP1 REVERT JUMPDEST PUSH0 DUP6 DUP2 MSTORE PUSH1 0x3 PUSH1 0x20 MSTORE PUSH1 0x40 SWAP1 KECCAK256 DUP1 SLOAD PUSH1 0xFF NOT AND PUSH1 0x1 OR SWAP1 SSTORE DUP2 ISZERO DUP1 ISZERO SWAP1 PUSH2 0xD05 JUMPI POP PUSH1 0x1 PUSH1 0x1 PUSH1 0xA0 SHL SUB DUP4 AND ISZERO ISZERO JUMPDEST ISZERO PUSH2 0xD14 JUMPI PUSH2 0xD14 DUP4 DUP4 PUSH2 0x1588 JUMP JUMPDEST PUSH2 0xD2F DUP5 PUSH2 0xD2A DUP5 PUSH8 0x16345785D8A0000 PUSH2 0x1ADC JUMP JUMPDEST PUSH2 0x1588 JUMP JUMPDEST DUP3 PUSH1 0x1 PUSH1 0x1 PUSH1 0xA0 SHL SUB AND DUP6 DUP6 PUSH1 0x1 PUSH1 0x1 PUSH1 0xA0 SHL SUB AND PUSH32 0xE9E508BAD6D4C3227E881CA19068F099DA81B5164DD6D62B2EAF1E8BC6C34931 DUP6 PUSH1 0x40 MLOAD PUSH2 0xD75 SWAP2 DUP2 MSTORE PUSH1 0x20 ADD SWAP1 JUMP JUMPDEST PUSH1 0x40 MLOAD DUP1 SWAP2 SUB SWAP1 LOG4 POP PUSH2 0xD94 PUSH1 0x1 PUSH0 DUP1 MLOAD PUSH1 0x20 PUSH2 0x1BB7 DUP4 CODECOPY DUP2 MLOAD SWAP2 MSTORE SSTORE JUMP JUMPDEST POP POP POP POP POP POP POP POP JUMP JUMPDEST PUSH32 0x442A94F1A1FAC79AF32856AF2A64F63648CFA2EF3B98610A5BB7CBEC4CEE6985 PUSH2 0xDC8 DUP2 PUSH2 0x13C2 JUMP JUMPDEST PUSH2 0xDD3 PUSH1 0x46 DUP4 PUSH2 0x1603 JUMP JUMPDEST ISZERO PUSH2 0xE0C JUMPI PUSH1 0x40 MLOAD PUSH1 0x1 PUSH1 0x1 PUSH1 0xA0 SHL SUB DUP4 AND SWAP1 PUSH32 0x27C24E841C9B716A2AF2AE635108FC747D4F0AB26BB3BE48A53E4CE68D1F925B SWAP1 PUSH0 SWAP1 LOG2 JUMPDEST POP POP JUMP JUMPDEST PUSH32 0x60DDEEEDCC0AD0194A5DAEAB83D1463588B03ACA86CBEE9384A9D5D1E673C2E2 PUSH2 0xE3A DUP2 PUSH2 0x13C2 JUMP JUMPDEST DUP2 PUSH2 0xE58 JUMPI PUSH1 0x40 MLOAD PUSH4 0xB263AE73 PUSH1 0xE0 SHL DUP2 MSTORE PUSH1 0x4 ADD PUSH1 0x40 MLOAD DUP1 SWAP2 SUB SWAP1 REVERT JUMPDEST PUSH1 0x44 SLOAD PUSH0 SWAP1 PUSH1 0x40 SWAP1 PUSH2 0xE71 SWAP1 PUSH4 0xFFFFFFFF AND PUSH1 0x1 PUSH2 0x1AEF JUMP JUMPDEST PUSH2 0xE7B SWAP2 SWAP1 PUSH2 0x1B20 JUMP JUMPDEST SWAP1 POP PUSH0 PUSH1 0x4 DUP3 PUSH4 0xFFFFFFFF AND PUSH1 0x40 DUP2 LT PUSH2 0xE97 JUMPI PUSH2 0xE97 PUSH2 0x1A59 JUMP JUMPDEST ADD SLOAD SWAP1 POP DUP1 ISZERO PUSH2 0xEB7 JUMPI PUSH0 DUP2 DUP2 MSTORE PUSH1 0x45 PUSH1 0x20 MSTORE PUSH1 0x40 SWAP1 KECCAK256 DUP1 SLOAD PUSH1 0xFF NOT AND SWAP1 SSTORE JUMPDEST DUP4 PUSH1 0x4 DUP4 PUSH4 0xFFFFFFFF AND PUSH1 0x40 DUP2 LT PUSH2 0xED1 JUMPI PUSH2 0xED1 PUSH2 0x1A59 JUMP JUMPDEST ADD SSTORE PUSH0 DUP5 DUP2 MSTORE PUSH1 0x45 PUSH1 0x20 SWAP1 DUP2 MSTORE PUSH1 0x40 SWAP2 DUP3 SWAP1 KECCAK256 DUP1 SLOAD PUSH1 0xFF NOT AND PUSH1 0x1 OR SWAP1 SSTORE PUSH1 0x44 DUP1 SLOAD PUSH4 0xFFFFFFFF DUP7 AND PUSH4 0xFFFFFFFF NOT SWAP1 SWAP2 AND DUP2 OR SWAP1 SWAP2 SSTORE SWAP2 MLOAD SWAP2 DUP3 MSTORE CALLER SWAP2 DUP7 SWAP2 PUSH32 0x2CD97EB1138905D7DC9C1F5E42E188103A85075B9FC446197669F34269111BD SWAP2 ADD PUSH1 0x40 MLOAD DUP1 SWAP2 SUB SWAP1 LOG3 POP POP POP POP JUMP JUMPDEST PUSH0 PUSH2 0x2710 PUSH2 0xF59 PUSH1 0x64 PUSH8 0x16345785D8A0000 PUSH2 0x1B42 JUMP JUMPDEST PUSH2 0xF63 SWAP2 SWAP1 PUSH2 0x1B59 JUMP JUMPDEST PUSH2 0xF75 SWAP1 PUSH8 0x16345785D8A0000 PUSH2 0x1B6C JUMP JUMPDEST SWAP1 POP SWAP1 JUMP JUMPDEST PUSH2 0xF82 PUSH2 0x1516 JUMP JUMPDEST PUSH2 0xA1E PUSH0 PUSH2 0x1617 JUMP JUMPDEST PUSH32 0x442A94F1A1FAC79AF32856AF2A64F63648CFA2EF3B98610A5BB7CBEC4CEE6985 PUSH2 0xFB5 DUP2 PUSH2 0x13C2 JUMP JUMPDEST PUSH1 0x1 PUSH1 0x1 PUSH1 0xA0 SHL SUB DUP3 AND PUSH2 0xFDC JUMPI PUSH1 0x40 MLOAD PUSH4 0xD92E233D PUSH1 0xE0 SHL DUP2 MSTORE PUSH1 0x4 ADD PUSH1 0x40 MLOAD DUP1 SWAP2 SUB SWAP1 REVERT JUMPDEST PUSH2 0xFE7 PUSH1 0x46 DUP4 PUSH2 0x1670 JUMP JUMPDEST ISZERO PUSH2 0xE0C JUMPI PUSH1 0x40 MLOAD PUSH1 0x1 PUSH1 0x1 PUSH1 0xA0 SHL SUB DUP4 AND SWAP1 PUSH32 0x99F336EB5BC6257AE248080079FDC6CDC792F5B29F86C8302759DAFC68B4C4FD SWAP1 PUSH0 SWAP1 LOG2 POP POP JUMP JUMPDEST PUSH32 0x65D7A28E3265B37A6474929F336521B332C1681B933F6CB9F3376673440D862A PUSH2 0x104D DUP2 PUSH2 0x13C2 JUMP JUMPDEST PUSH2 0x914 PUSH2 0x1684 JUMP JUMPDEST PUSH0 SWAP2 DUP3 MSTORE PUSH1 0x20 DUP3 DUP2 MSTORE PUSH1 0x40 DUP1 DUP5 KECCAK256 PUSH1 0x1 PUSH1 0x1 PUSH1 0xA0 SHL SUB SWAP4 SWAP1 SWAP4 AND DUP5 MSTORE SWAP2 SWAP1 MSTORE SWAP1 KECCAK256 SLOAD PUSH1 0xFF AND SWAP1 JUMP JUMPDEST PUSH2 0x1085 PUSH2 0x1564 JUMP JUMPDEST PUSH2 0x108D PUSH2 0x1549 JUMP JUMPDEST PUSH0 PUSH2 0x2710 PUSH2 0x10A4 PUSH1 0x64 PUSH8 0x16345785D8A0000 PUSH2 0x1B42 JUMP JUMPDEST PUSH2 0x10AE SWAP2 SWAP1 PUSH2 0x1B59 JUMP JUMPDEST SWAP1 POP PUSH2 0x10C2 DUP2 PUSH8 0x16345785D8A0000 PUSH2 0x1B6C JUMP JUMPDEST CALLVALUE EQ PUSH2 0x10E1 JUMPI PUSH1 0x40 MLOAD PUSH4 0x6FF0ACF9 PUSH1 0xE1 SHL DUP2 MSTORE PUSH1 0x4 ADD PUSH1 0x40 MLOAD DUP1 SWAP2 SUB SWAP1 REVERT JUMPDEST PUSH0 DUP3 DUP2 MSTORE PUSH1 0x2 PUSH1 0x20 MSTORE PUSH1 0x40 SWAP1 KECCAK256 SLOAD PUSH1 0xFF AND ISZERO PUSH2 0x1110 JUMPI PUSH1 0x40 MLOAD PUSH4 0x145718A7 PUSH1 0xE0 SHL DUP2 MSTORE PUSH1 0x4 ADD PUSH1 0x40 MLOAD DUP1 SWAP2 SUB SWAP1 REVERT JUMPDEST PUSH2 0x1119 CALLER PUSH2 0x1275 JUMP JUMPDEST ISZERO PUSH2 0x1139 JUMPI PUSH1 0x40 MLOAD PUSH4 0x34DA009F PUSH1 0xE1 SHL DUP2 MSTORE CALLER PUSH1 0x4 DUP3 ADD MSTORE PUSH1 0x24 ADD PUSH2 0x282 JUMP JUMPDEST PUSH1 0x48 DUP1 SLOAD DUP3 ADD SWAP1 SSTORE PUSH0 DUP3 DUP2 MSTORE PUSH1 0x2 PUSH1 0x20 MSTORE PUSH1 0x40 DUP1 DUP3 KECCAK256 DUP1 SLOAD PUSH1 0xFF NOT AND PUSH1 0x1 OR SWAP1 SSTORE MLOAD PUSH4 0x2D287E43 PUSH1 0xE0 SHL DUP2 MSTORE PUSH1 0x4 DUP2 ADD DUP5 SWAP1 MSTORE PUSH32 0x0 PUSH1 0x1 PUSH1 0x1 PUSH1 0xA0 SHL SUB AND SWAP1 PUSH4 0x2D287E43 SWAP1 PUSH1 0x24 ADD PUSH1 0x20 PUSH1 0x40 MLOAD DUP1 DUP4 SUB DUP2 PUSH0 DUP8 GAS CALL ISZERO DUP1 ISZERO PUSH2 0x11BC JUMPI RETURNDATASIZE PUSH0 DUP1 RETURNDATACOPY RETURNDATASIZE PUSH0 REVERT JUMPDEST POP POP POP POP PUSH1 0x40 MLOAD RETURNDATASIZE PUSH1 0x1F NOT PUSH1 0x1F DUP3 ADD AND DUP3 ADD DUP1 PUSH1 0x40 MSTORE POP DUP2 ADD SWAP1 PUSH2 0x11E0 SWAP2 SWAP1 PUSH2 0x1B7F JUMP JUMPDEST PUSH1 0x40 DUP1 MLOAD PUSH4 0xFFFFFFFF DUP4 AND DUP2 MSTORE TIMESTAMP PUSH1 0x20 DUP3 ADD MSTORE SWAP2 SWAP3 POP DUP5 SWAP2 PUSH32 0xA945E51EEC50AB98C161376F0DB4CF2AEBA3EC92755FE2FCD388BDBBB80FF196 SWAP2 ADD PUSH1 0x40 MLOAD DUP1 SWAP2 SUB SWAP1 LOG2 POP POP PUSH2 0x914 PUSH1 0x1 PUSH0 DUP1 MLOAD PUSH1 0x20 PUSH2 0x1BB7 DUP4 CODECOPY DUP2 MLOAD SWAP2 MSTORE SSTORE JUMP JUMPDEST PUSH1 0x4 DUP2 PUSH1 0x40 DUP2 LT PUSH2 0x124A JUMPI PUSH0 DUP1 REVERT JUMPDEST ADD SLOAD SWAP1 POP DUP2 JUMP JUMPDEST PUSH0 DUP3 DUP2 MSTORE PUSH1 0x20 DUP2 SWAP1 MSTORE PUSH1 0x40 SWAP1 KECCAK256 PUSH1 0x1 ADD SLOAD PUSH2 0x126B DUP2 PUSH2 0x13C2 JUMP JUMPDEST PUSH2 0x8A4 DUP4 DUP4 PUSH2 0x145B JUMP JUMPDEST PUSH0 PUSH1 0x1 PUSH1 0x1 PUSH1 0xA0 SHL SUB DUP3 AND PUSH2 0x128B JUMPI POP PUSH0 SWAP2 SWAP1 POP JUMP JUMPDEST PUSH2 0x1296 PUSH1 0x46 DUP4 PUSH2 0x16BF JUMP JUMPDEST ISZERO PUSH2 0x12A3 JUMPI POP PUSH1 0x1 SWAP2 SWAP1 POP JUMP JUMPDEST PUSH32 0x0 PUSH1 0x1 PUSH1 0x1 PUSH1 0xA0 SHL SUB AND PUSH2 0x12D8 JUMPI POP PUSH0 SWAP2 SWAP1 POP JUMP JUMPDEST PUSH1 0x40 MLOAD PUSH4 0xDF592F7D PUSH1 0xE0 SHL DUP2 MSTORE PUSH1 0x1 PUSH1 0x1 PUSH1 0xA0 SHL SUB DUP4 DUP2 AND PUSH1 0x4 DUP4 ADD MSTORE PUSH32 0x0 AND SWAP1 PUSH4 0xDF592F7D SWAP1 PUSH1 0x24 ADD PUSH1 0x20 PUSH1 0x40 MLOAD DUP1 DUP4 SUB DUP2 DUP7 GAS STATICCALL SWAP3 POP POP POP DUP1 ISZERO PUSH2 0x135A JUMPI POP PUSH1 0x40 DUP1 MLOAD PUSH1 0x1F RETURNDATASIZE SWAP1 DUP2 ADD PUSH1 0x1F NOT AND DUP3 ADD SWAP1 SWAP3 MSTORE PUSH2 0x1357 SWAP2 DUP2 ADD SWAP1 PUSH2 0x1A3A JUMP JUMPDEST PUSH1 0x1 JUMPDEST PUSH2 0x86E JUMPI POP PUSH1 0x1 SWAP2 SWAP1 POP JUMP JUMPDEST SWAP2 SWAP1 POP JUMP JUMPDEST PUSH0 PUSH2 0xF75 PUSH1 0x46 PUSH2 0x16E0 JUMP JUMPDEST PUSH2 0x137E PUSH2 0x1516 JUMP JUMPDEST PUSH1 0x1 PUSH1 0x1 PUSH1 0xA0 SHL SUB DUP2 AND PUSH2 0x13A7 JUMPI PUSH1 0x40 MLOAD PUSH4 0x1E4FBDF7 PUSH1 0xE0 SHL DUP2 MSTORE PUSH0 PUSH1 0x4 DUP3 ADD MSTORE PUSH1 0x24 ADD PUSH2 0x282 JUMP JUMPDEST PUSH2 0x914 DUP2 PUSH2 0x1617 JUMP JUMPDEST PUSH0 PUSH2 0x13BB DUP4 DUP4 PUSH2 0x16E9 JUMP JUMPDEST SWAP4 SWAP3 POP POP POP JUMP JUMPDEST PUSH2 0x914 DUP2 CALLER PUSH2 0x170F JUMP JUMPDEST PUSH0 PUSH2 0x13D7 DUP4 DUP4 PUSH2 0x1055 JUMP JUMPDEST PUSH2 0x1454 JUMPI PUSH0 DUP4 DUP2 MSTORE PUSH1 0x20 DUP2 DUP2 MSTORE PUSH1 0x40 DUP1 DUP4 KECCAK256 PUSH1 0x1 PUSH1 0x1 PUSH1 0xA0 SHL SUB DUP7 AND DUP5 MSTORE SWAP1 SWAP2 MSTORE SWAP1 KECCAK256 DUP1 SLOAD PUSH1 0xFF NOT AND PUSH1 0x1 OR SWAP1 SSTORE PUSH2 0x140C CALLER SWAP1 JUMP JUMPDEST PUSH1 0x1 PUSH1 0x1 PUSH1 0xA0 SHL SUB AND DUP3 PUSH1 0x1 PUSH1 0x1 PUSH1 0xA0 SHL SUB AND DUP5 PUSH32 0x2F8788117E7EFF1D82E926EC794901D17C78024A50270940304540A733656F0D PUSH1 0x40 MLOAD PUSH1 0x40 MLOAD DUP1 SWAP2 SUB SWAP1 LOG4 POP PUSH1 0x1 PUSH2 0x86E JUMP JUMPDEST POP PUSH0 PUSH2 0x86E JUMP JUMPDEST PUSH0 PUSH2 0x1466 DUP4 DUP4 PUSH2 0x1055 JUMP JUMPDEST ISZERO PUSH2 0x1454 JUMPI PUSH0 DUP4 DUP2 MSTORE PUSH1 0x20 DUP2 DUP2 MSTORE PUSH1 0x40 DUP1 DUP4 KECCAK256 PUSH1 0x1 PUSH1 0x1 PUSH1 0xA0 SHL SUB DUP7 AND DUP1 DUP6 MSTORE SWAP3 MSTORE DUP1 DUP4 KECCAK256 DUP1 SLOAD PUSH1 0xFF NOT AND SWAP1 SSTORE MLOAD CALLER SWAP3 DUP7 SWAP2 PUSH32 0xF6391F5C32D9C69D2A47EA670B442974B53935D1EDC7FD64EB21E047A839171B SWAP2 SWAP1 LOG4 POP PUSH1 0x1 PUSH2 0x86E JUMP JUMPDEST PUSH2 0x14CC PUSH2 0x1748 JUMP JUMPDEST PUSH1 0x1 DUP1 SLOAD PUSH1 0xFF NOT AND SWAP1 SSTORE PUSH32 0x5DB9EE0A495BF2E6FF9C91A7834C1BA4FDD244A5E8AA4E537BD38AEAE4B073AA CALLER JUMPDEST PUSH1 0x40 MLOAD PUSH1 0x1 PUSH1 0x1 PUSH1 0xA0 SHL SUB SWAP1 SWAP2 AND DUP2 MSTORE PUSH1 0x20 ADD PUSH1 0x40 MLOAD DUP1 SWAP2 SUB SWAP1 LOG1 JUMP JUMPDEST PUSH1 0x1 SLOAD PUSH1 0x1 PUSH1 0x1 PUSH1 0xA0 SHL SUB PUSH2 0x100 SWAP1 SWAP2 DIV AND CALLER EQ PUSH2 0xA1E JUMPI PUSH1 0x40 MLOAD PUSH4 0x118CDAA7 PUSH1 0xE0 SHL DUP2 MSTORE CALLER PUSH1 0x4 DUP3 ADD MSTORE PUSH1 0x24 ADD PUSH2 0x282 JUMP JUMPDEST PUSH2 0x1551 PUSH2 0x176B JUMP JUMPDEST PUSH1 0x2 PUSH0 DUP1 MLOAD PUSH1 0x20 PUSH2 0x1BB7 DUP4 CODECOPY DUP2 MLOAD SWAP2 MSTORE SSTORE JUMP JUMPDEST PUSH1 0x1 SLOAD PUSH1 0xFF AND ISZERO PUSH2 0xA1E JUMPI PUSH1 0x40 MLOAD PUSH4 0xD93C0665 PUSH1 0xE0 SHL DUP2 MSTORE PUSH1 0x4 ADD PUSH1 0x40 MLOAD DUP1 SWAP2 SUB SWAP1 REVERT JUMPDEST DUP1 PUSH0 SUB PUSH2 0x1593 JUMPI POP POP JUMP JUMPDEST PUSH0 DUP3 PUSH1 0x1 PUSH1 0x1 PUSH1 0xA0 SHL SUB AND DUP3 PUSH1 0x40 MLOAD PUSH0 PUSH1 0x40 MLOAD DUP1 DUP4 SUB DUP2 DUP6 DUP8 GAS CALL SWAP3 POP POP POP RETURNDATASIZE DUP1 PUSH0 DUP2 EQ PUSH2 0x15DC JUMPI PUSH1 0x40 MLOAD SWAP2 POP PUSH1 0x1F NOT PUSH1 0x3F RETURNDATASIZE ADD AND DUP3 ADD PUSH1 0x40 MSTORE RETURNDATASIZE DUP3 MSTORE RETURNDATASIZE PUSH0 PUSH1 0x20 DUP5 ADD RETURNDATACOPY PUSH2 0x15E1 JUMP JUMPDEST PUSH1 0x60 SWAP2 POP JUMPDEST POP POP SWAP1 POP DUP1 PUSH2 0x8DD JUMPI PUSH1 0x40 MLOAD PUSH4 0xDB2C7F1 PUSH1 0xE3 SHL DUP2 MSTORE PUSH1 0x4 ADD PUSH1 0x40 MLOAD DUP1 SWAP2 SUB SWAP1 REVERT JUMPDEST PUSH0 PUSH2 0x13BB DUP4 PUSH1 0x1 PUSH1 0x1 PUSH1 0xA0 SHL SUB DUP5 AND PUSH2 0x179A JUMP JUMPDEST PUSH1 0x1 DUP1 SLOAD PUSH1 0x1 PUSH1 0x1 PUSH1 0xA0 SHL SUB DUP4 DUP2 AND PUSH2 0x100 DUP2 DUP2 MUL PUSH2 0x100 PUSH1 0x1 PUSH1 0xA8 SHL SUB NOT DUP6 AND OR SWAP1 SWAP5 SSTORE PUSH1 0x40 MLOAD SWAP4 SWAP1 SWAP3 DIV AND SWAP2 DUP3 SWAP1 PUSH32 0x8BE0079C531659141344CD1FD0A4F28419497F9722A3DAAFE3B4186F6B6457E0 SWAP1 PUSH0 SWAP1 LOG3 POP POP JUMP JUMPDEST PUSH0 PUSH2 0x13BB DUP4 PUSH1 0x1 PUSH1 0x1 PUSH1 0xA0 SHL SUB DUP5 AND PUSH2 0x1884 JUMP JUMPDEST PUSH2 0x168C PUSH2 0x1564 JUMP JUMPDEST PUSH1 0x1 DUP1 SLOAD PUSH1 0xFF NOT AND DUP2 OR SWAP1 SSTORE PUSH32 0x62E78CEA01BEE320CD4E420270B5EA74000D11B0C9F74754EBDBFC544B05A258 CALLER PUSH2 0x14F9 JUMP JUMPDEST PUSH1 0x1 PUSH1 0x1 PUSH1 0xA0 SHL SUB DUP2 AND PUSH0 SWAP1 DUP2 MSTORE PUSH1 0x1 DUP4 ADD PUSH1 0x20 MSTORE PUSH1 0x40 DUP2 KECCAK256 SLOAD ISZERO ISZERO PUSH2 0x13BB JUMP JUMPDEST PUSH0 PUSH2 0x86E DUP3 SLOAD SWAP1 JUMP JUMPDEST PUSH0 DUP3 PUSH0 ADD DUP3 DUP2 SLOAD DUP2 LT PUSH2 0x16FE JUMPI PUSH2 0x16FE PUSH2 0x1A59 JUMP JUMPDEST SWAP1 PUSH0 MSTORE PUSH1 0x20 PUSH0 KECCAK256 ADD SLOAD SWAP1 POP SWAP3 SWAP2 POP POP JUMP JUMPDEST PUSH2 0x1719 DUP3 DUP3 PUSH2 0x1055 JUMP JUMPDEST PUSH2 0xE0C JUMPI PUSH1 0x40 MLOAD PUSH4 0xE2517D3F PUSH1 0xE0 SHL DUP2 MSTORE PUSH1 0x1 PUSH1 0x1 PUSH1 0xA0 SHL SUB DUP3 AND PUSH1 0x4 DUP3 ADD MSTORE PUSH1 0x24 DUP2 ADD DUP4 SWAP1 MSTORE PUSH1 0x44 ADD PUSH2 0x282 JUMP JUMPDEST PUSH1 0x1 SLOAD PUSH1 0xFF AND PUSH2 0xA1E JUMPI PUSH1 0x40 MLOAD PUSH4 0x8DFC202B PUSH1 0xE0 SHL DUP2 MSTORE PUSH1 0x4 ADD PUSH1 0x40 MLOAD DUP1 SWAP2 SUB SWAP1 REVERT JUMPDEST PUSH0 DUP1 MLOAD PUSH1 0x20 PUSH2 0x1BB7 DUP4 CODECOPY DUP2 MLOAD SWAP2 MSTORE SLOAD PUSH1 0x2 SUB PUSH2 0xA1E JUMPI PUSH1 0x40 MLOAD PUSH4 0x3EE5AEB5 PUSH1 0xE0 SHL DUP2 MSTORE PUSH1 0x4 ADD PUSH1 0x40 MLOAD DUP1 SWAP2 SUB SWAP1 REVERT JUMPDEST PUSH0 DUP2 DUP2 MSTORE PUSH1 0x1 DUP4 ADD PUSH1 0x20 MSTORE PUSH1 0x40 DUP2 KECCAK256 SLOAD DUP1 ISZERO PUSH2 0x1874 JUMPI PUSH0 PUSH2 0x17BC PUSH1 0x1 DUP4 PUSH2 0x1ADC JUMP JUMPDEST DUP6 SLOAD SWAP1 SWAP2 POP PUSH0 SWAP1 PUSH2 0x17CF SWAP1 PUSH1 0x1 SWAP1 PUSH2 0x1ADC JUMP JUMPDEST SWAP1 POP DUP1 DUP3 EQ PUSH2 0x182E JUMPI PUSH0 DUP7 PUSH0 ADD DUP3 DUP2 SLOAD DUP2 LT PUSH2 0x17ED JUMPI PUSH2 0x17ED PUSH2 0x1A59 JUMP JUMPDEST SWAP1 PUSH0 MSTORE PUSH1 0x20 PUSH0 KECCAK256 ADD SLOAD SWAP1 POP DUP1 DUP8 PUSH0 ADD DUP5 DUP2 SLOAD DUP2 LT PUSH2 0x180D JUMPI PUSH2 0x180D PUSH2 0x1A59 JUMP JUMPDEST PUSH0 SWAP2 DUP3 MSTORE PUSH1 0x20 DUP1 DUP4 KECCAK256 SWAP1 SWAP2 ADD SWAP3 SWAP1 SWAP3 SSTORE SWAP2 DUP3 MSTORE PUSH1 0x1 DUP9 ADD SWAP1 MSTORE PUSH1 0x40 SWAP1 KECCAK256 DUP4 SWAP1 SSTORE JUMPDEST DUP6 SLOAD DUP7 SWAP1 DUP1 PUSH2 0x183F JUMPI PUSH2 0x183F PUSH2 0x1BA2 JUMP JUMPDEST PUSH1 0x1 SWAP1 SUB DUP2 DUP2 SWAP1 PUSH0 MSTORE PUSH1 0x20 PUSH0 KECCAK256 ADD PUSH0 SWAP1 SSTORE SWAP1 SSTORE DUP6 PUSH1 0x1 ADD PUSH0 DUP7 DUP2 MSTORE PUSH1 0x20 ADD SWAP1 DUP2 MSTORE PUSH1 0x20 ADD PUSH0 KECCAK256 PUSH0 SWAP1 SSTORE PUSH1 0x1 SWAP4 POP POP POP POP PUSH2 0x86E JUMP JUMPDEST PUSH0 SWAP2 POP POP PUSH2 0x86E JUMP JUMPDEST POP SWAP3 SWAP2 POP POP JUMP JUMPDEST PUSH0 DUP2 DUP2 MSTORE PUSH1 0x1 DUP4 ADD PUSH1 0x20 MSTORE PUSH1 0x40 DUP2 KECCAK256 SLOAD PUSH2 0x1454 JUMPI POP DUP2 SLOAD PUSH1 0x1 DUP2 DUP2 ADD DUP5 SSTORE PUSH0 DUP5 DUP2 MSTORE PUSH1 0x20 DUP1 DUP3 KECCAK256 SWAP1 SWAP4 ADD DUP5 SWAP1 SSTORE DUP5 SLOAD DUP5 DUP3 MSTORE DUP3 DUP7 ADD SWAP1 SWAP4 MSTORE PUSH1 0x40 SWAP1 KECCAK256 SWAP2 SWAP1 SWAP2 SSTORE PUSH2 0x86E JUMP JUMPDEST PUSH1 0x40 MLOAD DUP1 PUSH1 0xC0 ADD PUSH1 0x40 MSTORE DUP1 PUSH1 0x6 SWAP1 PUSH1 0x20 DUP3 MUL DUP1 CALLDATASIZE DUP4 CALLDATACOPY POP SWAP2 SWAP3 SWAP2 POP POP JUMP JUMPDEST PUSH0 PUSH1 0x20 DUP3 DUP5 SUB SLT ISZERO PUSH2 0x18F7 JUMPI PUSH0 DUP1 REVERT JUMPDEST DUP2 CALLDATALOAD PUSH1 0x1 PUSH1 0x1 PUSH1 0xE0 SHL SUB NOT DUP2 AND DUP2 EQ PUSH2 0x13BB JUMPI PUSH0 DUP1 REVERT JUMPDEST PUSH0 PUSH1 0x20 DUP3 DUP5 SUB SLT ISZERO PUSH2 0x191E JUMPI PUSH0 DUP1 REVERT JUMPDEST POP CALLDATALOAD SWAP2 SWAP1 POP JUMP JUMPDEST PUSH1 0x1 PUSH1 0x1 PUSH1 0xA0 SHL SUB DUP2 AND DUP2 EQ PUSH2 0x914 JUMPI PUSH0 DUP1 REVERT JUMPDEST PUSH0 DUP1 PUSH1 0x40 DUP4 DUP6 SUB SLT ISZERO PUSH2 0x194A JUMPI PUSH0 DUP1 REVERT JUMPDEST DUP3 CALLDATALOAD SWAP2 POP PUSH1 0x20 DUP4 ADD CALLDATALOAD PUSH2 0x195C DUP2 PUSH2 0x1925 JUMP JUMPDEST DUP1 SWAP2 POP POP SWAP3 POP SWAP3 SWAP1 POP JUMP JUMPDEST DUP1 CALLDATALOAD PUSH2 0x1366 DUP2 PUSH2 0x1925 JUMP JUMPDEST PUSH0 DUP1 PUSH0 DUP1 PUSH0 DUP1 PUSH0 DUP1 PUSH1 0xE0 DUP10 DUP12 SUB SLT ISZERO PUSH2 0x1989 JUMPI PUSH0 DUP1 REVERT JUMPDEST DUP9 CALLDATALOAD PUSH8 0xFFFFFFFFFFFFFFFF DUP1 DUP3 GT ISZERO PUSH2 0x19A0 JUMPI PUSH0 DUP1 REVERT JUMPDEST DUP2 DUP12 ADD SWAP2 POP DUP12 PUSH1 0x1F DUP4 ADD SLT PUSH2 0x19B3 JUMPI PUSH0 DUP1 REVERT JUMPDEST DUP2 CALLDATALOAD DUP2 DUP2 GT ISZERO PUSH2 0x19C1 JUMPI PUSH0 DUP1 REVERT JUMPDEST DUP13 PUSH1 0x20 DUP3 DUP6 ADD ADD GT ISZERO PUSH2 0x19D2 JUMPI PUSH0 DUP1 REVERT JUMPDEST PUSH1 0x20 SWAP3 DUP4 ADD SWAP11 POP SWAP9 POP POP DUP10 ADD CALLDATALOAD SWAP6 POP PUSH1 0x40 DUP10 ADD CALLDATALOAD SWAP5 POP PUSH1 0x60 DUP10 ADD CALLDATALOAD SWAP4 POP PUSH2 0x19FB PUSH1 0x80 DUP11 ADD PUSH2 0x1967 JUMP JUMPDEST SWAP3 POP PUSH2 0x1A09 PUSH1 0xA0 DUP11 ADD PUSH2 0x1967 JUMP JUMPDEST SWAP2 POP PUSH1 0xC0 DUP10 ADD CALLDATALOAD SWAP1 POP SWAP3 SWAP6 SWAP9 POP SWAP3 SWAP6 SWAP9 SWAP1 SWAP4 SWAP7 POP JUMP JUMPDEST PUSH0 PUSH1 0x20 DUP3 DUP5 SUB SLT ISZERO PUSH2 0x1A2F JUMPI PUSH0 DUP1 REVERT JUMPDEST DUP2 CALLDATALOAD PUSH2 0x13BB DUP2 PUSH2 0x1925 JUMP JUMPDEST PUSH0 PUSH1 0x20 DUP3 DUP5 SUB SLT ISZERO PUSH2 0x1A4A JUMPI PUSH0 DUP1 REVERT JUMPDEST DUP2 MLOAD DUP1 ISZERO ISZERO DUP2 EQ PUSH2 0x13BB JUMPI PUSH0 DUP1 REVERT JUMPDEST PUSH4 0x4E487B71 PUSH1 0xE0 SHL PUSH0 MSTORE PUSH1 0x32 PUSH1 0x4 MSTORE PUSH1 0x24 PUSH0 REVERT JUMPDEST PUSH1 0xE0 DUP2 MSTORE DUP3 PUSH1 0xE0 DUP3 ADD MSTORE PUSH0 PUSH2 0x100 DUP5 DUP7 DUP3 DUP6 ADD CALLDATACOPY PUSH0 DUP2 DUP7 DUP6 ADD ADD MSTORE DUP1 PUSH1 0x1F NOT PUSH1 0x1F DUP8 ADD AND DUP5 ADD ADD SWAP2 POP POP PUSH1 0x20 DUP1 DUP4 ADD DUP5 PUSH0 JUMPDEST PUSH1 0x6 DUP2 LT ISZERO PUSH2 0x1ABC JUMPI DUP2 MLOAD DUP4 MSTORE SWAP2 DUP4 ADD SWAP2 SWAP1 DUP4 ADD SWAP1 PUSH1 0x1 ADD PUSH2 0x1A9F JUMP JUMPDEST POP POP POP POP SWAP5 SWAP4 POP POP POP POP JUMP JUMPDEST PUSH4 0x4E487B71 PUSH1 0xE0 SHL PUSH0 MSTORE PUSH1 0x11 PUSH1 0x4 MSTORE PUSH1 0x24 PUSH0 REVERT JUMPDEST DUP2 DUP2 SUB DUP2 DUP2 GT ISZERO PUSH2 0x86E JUMPI PUSH2 0x86E PUSH2 0x1AC8 JUMP JUMPDEST PUSH4 0xFFFFFFFF DUP2 DUP2 AND DUP4 DUP3 AND ADD SWAP1 DUP1 DUP3 GT ISZERO PUSH2 0x187D JUMPI PUSH2 0x187D PUSH2 0x1AC8 JUMP JUMPDEST PUSH4 0x4E487B71 PUSH1 0xE0 SHL PUSH0 MSTORE PUSH1 0x12 PUSH1 0x4 MSTORE PUSH1 0x24 PUSH0 REVERT JUMPDEST PUSH0 PUSH4 0xFFFFFFFF DUP1 DUP5 AND DUP1 PUSH2 0x1B36 JUMPI PUSH2 0x1B36 PUSH2 0x1B0C JUMP JUMPDEST SWAP3 AND SWAP2 SWAP1 SWAP2 MOD SWAP3 SWAP2 POP POP JUMP JUMPDEST DUP1 DUP3 MUL DUP2 ISZERO DUP3 DUP3 DIV DUP5 EQ OR PUSH2 0x86E JUMPI PUSH2 0x86E PUSH2 0x1AC8 JUMP JUMPDEST PUSH0 DUP3 PUSH2 0x1B67 JUMPI PUSH2 0x1B67 PUSH2 0x1B0C JUMP JUMPDEST POP DIV SWAP1 JUMP JUMPDEST DUP1 DUP3 ADD DUP1 DUP3 GT ISZERO PUSH2 0x86E JUMPI PUSH2 0x86E PUSH2 0x1AC8 JUMP JUMPDEST PUSH0 PUSH1 0x20 DUP3 DUP5 SUB SLT ISZERO PUSH2 0x1B8F JUMPI PUSH0 DUP1 REVERT JUMPDEST DUP2 MLOAD PUSH4 0xFFFFFFFF DUP2 AND DUP2 EQ PUSH2 0x13BB JUMPI PUSH0 DUP1 REVERT JUMPDEST PUSH4 0x4E487B71 PUSH1 0xE0 SHL PUSH0 MSTORE PUSH1 0x31 PUSH1 0x4 MSTORE PUSH1 0x24 PUSH0 REVERT INVALID SWAP12 PUSH24 0x9B17422D0DF92223018B32B4D1FA46E071723D6817E2486D STOP EXTCODESIZE 0xEC 0xC5 PUSH0 STOP LOG2 PUSH5 0x6970667358 0x22 SLT KECCAK256 XOR 0xA7 0xBA 0xE DUP8 0xE2 SWAP11 PUSH8 0x1E525CE50A732954 SWAP5 SELFBALANCE 0x26 SELFDESTRUCT PUSH14 0xB3756EBA873D8710AEF58B64736F PUSH13 0x63430008180033000000000000 "},"methodIdentifiers":{"ASP_ROLE()":"ef4688f8","ASP_ROOT_HISTORY()":"020462f3","BPS_DENOMINATOR()":"e1a45218","COMPLIANCE_ROLE()":"062d3bd7","DEFAULT_ADMIN_ROLE()":"a217fddf","DENOMINATION()":"8b01429d","PAUSER_ROLE()":"e63ab1e9","PROTOCOL_FEE_BPS()":"be378228","accumulatedProtocolFees()":"31d1c1b3","addSanctioned(address)":"80b437b1","aspRootIndex()":"b7cf5825","aspRoots(uint256)":"d407c695","commitments(bytes32)":"839df945","deposit(bytes32)":"b214faa5","depositAmountRequired()":"58f786ed","getRoleAdmin(bytes32)":"248a9ca3","grantRole(bytes32,address)":"2f2ff15d","hasRole(bytes32,address)":"91d14854","isKnownAspRoot(bytes32)":"f184205f","isSanctioned(address)":"df592f7d","knownAspRoot(bytes32)":"8b61d736","localSanctionedAt(uint256)":"0280ae8a","localSanctionedLength()":"e9dd3018","nullifierHashes(bytes32)":"17cc915c","owner()":"8da5cb5b","pause()":"8456cb59","paused()":"5c975abb","publishAspRoot(bytes32)":"55d168da","removeSanctioned(address)":"4ea91771","renounceOwnership()":"715018a6","renounceRole(bytes32,address)":"36568abe","revokeRole(bytes32,address)":"d547741f","sanctionsOracle()":"b3df4df9","stateTree()":"18b14277","supportsInterface(bytes4)":"01ffc9a7","transferOwnership(address)":"f2fde38b","unpause()":"3f4ba83a","verifier()":"2b7ac3f3","withdraw(bytes,bytes32,bytes32,bytes32,address,address,uint256)":"4b01d5dc","withdrawFees()":"476343ee"}}}}}