{"project/contracts/Mocks.sol":{"MockVerifier":{"abi":[{"inputs":[{"internalType":"bytes","name":"","type":"bytes"},{"internalType":"uint256[6]","name":"","type":"uint256[6]"}],"name":"verifyProof","outputs":[{"internalType":"bool","name":"","type":"bool"}],"stateMutability":"pure","type":"function"}],"evm":{"bytecode":{"linkReferences":{},"object":"608060405234801561000f575f80fd5b506101058061001d5f395ff3fe6080604052348015600e575f80fd5b50600436106026575f3560e01c8063695ef6f914602a575b5f80fd5b603e60353660046052565b60019392505050565b604051901515815260200160405180910390f35b5f805f60e084860312156063575f80fd5b833567ffffffffffffffff808211156079575f80fd5b818601915086601f830112608b575f80fd5b8135818111156098575f80fd5b87602082850101111560a8575f80fd5b6020830195508094505050508460e08501111560c2575f80fd5b602084019050925092509256fea26469706673582212205dbc138df3a6e7129ccbdb6c026c911019572ef6c3db15b88caf67648f78448364736f6c63430008180033","opcodes":"PUSH1 0x80 PUSH1 0x40 MSTORE CALLVALUE DUP1 ISZERO PUSH2 0xF JUMPI PUSH0 DUP1 REVERT JUMPDEST POP PUSH2 0x105 DUP1 PUSH2 0x1D PUSH0 CODECOPY PUSH0 RETURN INVALID PUSH1 0x80 PUSH1 0x40 MSTORE CALLVALUE DUP1 ISZERO PUSH1 0xE JUMPI PUSH0 DUP1 REVERT JUMPDEST POP PUSH1 0x4 CALLDATASIZE LT PUSH1 0x26 JUMPI PUSH0 CALLDATALOAD PUSH1 0xE0 SHR DUP1 PUSH4 0x695EF6F9 EQ PUSH1 0x2A JUMPI JUMPDEST PUSH0 DUP1 REVERT JUMPDEST PUSH1 0x3E PUSH1 0x35 CALLDATASIZE PUSH1 0x4 PUSH1 0x52 JUMP JUMPDEST PUSH1 0x1 SWAP4 SWAP3 POP POP POP JUMP JUMPDEST PUSH1 0x40 MLOAD SWAP1 ISZERO ISZERO DUP2 MSTORE PUSH1 0x20 ADD PUSH1 0x40 MLOAD DUP1 SWAP2 SUB SWAP1 RETURN JUMPDEST PUSH0 DUP1 PUSH0 PUSH1 0xE0 DUP5 DUP7 SUB SLT ISZERO PUSH1 0x63 JUMPI PUSH0 DUP1 REVERT JUMPDEST DUP4 CALLDATALOAD PUSH8 0xFFFFFFFFFFFFFFFF DUP1 DUP3 GT ISZERO PUSH1 0x79 JUMPI PUSH0 DUP1 REVERT JUMPDEST DUP2 DUP7 ADD SWAP2 POP DUP7 PUSH1 0x1F DUP4 ADD SLT PUSH1 0x8B JUMPI PUSH0 DUP1 REVERT JUMPDEST DUP2 CALLDATALOAD DUP2 DUP2 GT ISZERO PUSH1 0x98 JUMPI PUSH0 DUP1 REVERT JUMPDEST DUP8 PUSH1 0x20 DUP3 DUP6 ADD ADD GT ISZERO PUSH1 0xA8 JUMPI PUSH0 DUP1 REVERT JUMPDEST PUSH1 0x20 DUP4 ADD SWAP6 POP DUP1 SWAP5 POP POP POP POP DUP5 PUSH1 0xE0 DUP6 ADD GT ISZERO PUSH1 0xC2 JUMPI PUSH0 DUP1 REVERT JUMPDEST PUSH1 0x20 DUP5 ADD SWAP1 POP SWAP3 POP SWAP3 POP SWAP3 JUMP INVALID LOG2 PUSH5 0x6970667358 0x22 SLT KECCAK256 TSTORE 0xBC SGT DUP14 RETURN 0xA6 0xE7 SLT SWAP13 0xCB 0xDB PUSH13 0x26C911019572EF6C3DB15B88C 0xAF PUSH8 0x648F78448364736F PUSH13 0x63430008180033000000000000 "},"methodIdentifiers":{"verifyProof(bytes,uint256[6])":"695ef6f9"}}}}}