{"project/contracts/PrivacyPool.sol":{"TelegramPrivacyPool":{"abi":[{"inputs":[{"internalType":"contract IVerifier","name":"_verifier","type":"address"},{"internalType":"contract IIncrementalMerkleTree","name":"_ethStateTree","type":"address"},{"internalType":"contract IIncrementalMerkleTree","name":"_usdtStateTree","type":"address"},{"internalType":"contract IERC20","name":"_usdt","type":"address"},{"internalType":"contract ISanctionsList","name":"_sanctionsOracle","type":"address"},{"internalType":"address","name":"admin","type":"address"}],"stateMutability":"nonpayable","type":"constructor"},{"inputs":[],"name":"AccessControlBadConfirmation","type":"error"},{"inputs":[{"internalType":"address","name":"account","type":"address"},{"internalType":"bytes32","name":"neededRole","type":"bytes32"}],"name":"AccessControlUnauthorizedAccount","type":"error"},{"inputs":[],"name":"CommitmentAlreadyExists","type":"error"},{"inputs":[],"name":"EnforcedPause","type":"error"},{"inputs":[],"name":"EthTransferFailed","type":"error"},{"inputs":[],"name":"ExpectedPause","type":"error"},{"inputs":[],"name":"FeeExceedsDenomination","type":"error"},{"inputs":[],"name":"InvalidProof","type":"error"},{"inputs":[],"name":"NullifierAlreadyUsed","type":"error"},{"inputs":[{"internalType":"address","name":"owner","type":"address"}],"name":"OwnableInvalidOwner","type":"error"},{"inputs":[{"internalType":"address","name":"account","type":"address"}],"name":"OwnableUnauthorizedAccount","type":"error"},{"inputs":[{"internalType":"address","name":"account","type":"address"}],"name":"RecipientSanctioned","type":"error"},{"inputs":[],"name":"ReentrancyGuardReentrantCall","type":"error"},{"inputs":[{"internalType":"address","name":"account","type":"address"}],"name":"RelayerSanctioned","type":"error"},{"inputs":[{"internalType":"address","name":"token","type":"address"}],"name":"SafeERC20FailedOperation","type":"error"},{"inputs":[{"internalType":"address","name":"account","type":"address"}],"name":"SenderSanctioned","type":"error"},{"inputs":[],"name":"UnknownAspRoot","type":"error"},{"inputs":[],"name":"UnknownStateRoot","type":"error"},{"inputs":[],"name":"WrongEthDepositAmount","type":"error"},{"inputs":[],"name":"ZeroAddress","type":"error"},{"inputs":[],"name":"ZeroRoot","type":"error"},{"anonymous":false,"inputs":[{"indexed":true,"internalType":"bytes32","name":"root","type":"bytes32"},{"indexed":false,"internalType":"uint32","name":"index","type":"uint32"},{"indexed":true,"internalType":"address","name":"asp","type":"address"}],"name":"AspRootUpdated","type":"event"},{"anonymous":false,"inputs":[{"indexed":true,"internalType":"bytes32","name":"commitment","type":"bytes32"},{"indexed":false,"internalType":"uint32","name":"leafIndex","type":"uint32"},{"indexed":false,"internalType":"uint256","name":"timestamp","type":"uint256"}],"name":"DepositEth","type":"event"},{"anonymous":false,"inputs":[{"indexed":true,"internalType":"bytes32","name":"commitment","type":"bytes32"},{"indexed":false,"internalType":"uint32","name":"leafIndex","type":"uint32"},{"indexed":false,"internalType":"uint256","name":"timestamp","type":"uint256"}],"name":"DepositUsdt","type":"event"},{"anonymous":false,"inputs":[{"indexed":true,"internalType":"address","name":"previousOwner","type":"address"},{"indexed":true,"internalType":"address","name":"newOwner","type":"address"}],"name":"OwnershipTransferred","type":"event"},{"anonymous":false,"inputs":[{"indexed":false,"internalType":"address","name":"account","type":"address"}],"name":"Paused","type":"event"},{"anonymous":false,"inputs":[{"indexed":true,"internalType":"address","name":"to","type":"address"},{"indexed":false,"internalType":"uint256","name":"amountEth","type":"uint256"},{"indexed":false,"internalType":"uint256","name":"amountUsdt","type":"uint256"}],"name":"ProtocolFeesWithdrawn","type":"event"},{"anonymous":false,"inputs":[{"indexed":true,"internalType":"bytes32","name":"role","type":"bytes32"},{"indexed":true,"internalType":"bytes32","name":"previousAdminRole","type":"bytes32"},{"indexed":true,"internalType":"bytes32","name":"newAdminRole","type":"bytes32"}],"name":"RoleAdminChanged","type":"event"},{"anonymous":false,"inputs":[{"indexed":true,"internalType":"bytes32","name":"role","type":"bytes32"},{"indexed":true,"internalType":"address","name":"account","type":"address"},{"indexed":true,"internalType":"address","name":"sender","type":"address"}],"name":"RoleGranted","type":"event"},{"anonymous":false,"inputs":[{"indexed":true,"internalType":"bytes32","name":"role","type":"bytes32"},{"indexed":true,"internalType":"address","name":"account","type":"address"},{"indexed":true,"internalType":"address","name":"sender","type":"address"}],"name":"RoleRevoked","type":"event"},{"anonymous":false,"inputs":[{"indexed":true,"internalType":"address","name":"account","type":"address"}],"name":"SanctionedAddressAdded","type":"event"},{"anonymous":false,"inputs":[{"indexed":true,"internalType":"address","name":"account","type":"address"}],"name":"SanctionedAddressRemoved","type":"event"},{"anonymous":false,"inputs":[{"indexed":false,"internalType":"address","name":"account","type":"address"}],"name":"Unpaused","type":"event"},{"anonymous":false,"inputs":[{"indexed":true,"internalType":"address","name":"to","type":"address"},{"indexed":true,"internalType":"bytes32","name":"nullifierHash","type":"bytes32"},{"indexed":true,"internalType":"address","name":"relayer","type":"address"},{"indexed":false,"internalType":"uint256","name":"relayerFee","type":"uint256"},{"indexed":false,"internalType":"uint256","name":"protocolFee","type":"uint256"}],"name":"WithdrawalEth","type":"event"},{"anonymous":false,"inputs":[{"indexed":true,"internalType":"address","name":"to","type":"address"},{"indexed":true,"internalType":"bytes32","name":"nullifierHash","type":"bytes32"},{"indexed":true,"internalType":"address","name":"relayer","type":"address"},{"indexed":false,"internalType":"uint256","name":"relayerFee","type":"uint256"},{"indexed":false,"internalType":"uint256","name":"protocolFee","type":"uint256"}],"name":"WithdrawalUsdt","type":"event"},{"stateMutability":"payable","type":"fallback"},{"inputs":[],"name":"ASP_ROLE","outputs":[{"internalType":"bytes32","name":"","type":"bytes32"}],"stateMutability":"view","type":"function"},{"inputs":[],"name":"ASP_ROOT_HISTORY","outputs":[{"internalType":"uint32","name":"","type":"uint32"}],"stateMutability":"view","type":"function"},{"inputs":[],"name":"COMPLIANCE_ROLE","outputs":[{"internalType":"bytes32","name":"","type":"bytes32"}],"stateMutability":"view","type":"function"},{"inputs":[],"name":"DEFAULT_ADMIN_ROLE","outputs":[{"internalType":"bytes32","name":"","type":"bytes32"}],"stateMutability":"view","type":"function"},{"inputs":[],"name":"ETH_DENOMINATION","outputs":[{"internalType":"uint256","name":"","type":"uint256"}],"stateMutability":"view","type":"function"},{"inputs":[],"name":"PAUSER_ROLE","outputs":[{"internalType":"bytes32","name":"","type":"bytes32"}],"stateMutability":"view","type":"function"},{"inputs":[],"name":"PROTOCOL_WITHDRAW_FEE_ETH","outputs":[{"internalType":"uint256","name":"","type":"uint256"}],"stateMutability":"view","type":"function"},{"inputs":[],"name":"PROTOCOL_WITHDRAW_FEE_USDT","outputs":[{"internalType":"uint256","name":"","type":"uint256"}],"stateMutability":"view","type":"function"},{"inputs":[],"name":"SNARK_SCALAR_FIELD","outputs":[{"internalType":"uint256","name":"","type":"uint256"}],"stateMutability":"view","type":"function"},{"inputs":[],"name":"USDT_DENOMINATION","outputs":[{"internalType":"uint256","name":"","type":"uint256"}],"stateMutability":"view","type":"function"},{"inputs":[],"name":"accumulatedProtocolFeesEth","outputs":[{"internalType":"uint256","name":"","type":"uint256"}],"stateMutability":"view","type":"function"},{"inputs":[],"name":"accumulatedProtocolFeesUsdt","outputs":[{"internalType":"uint256","name":"","type":"uint256"}],"stateMutability":"view","type":"function"},{"inputs":[{"internalType":"address","name":"account","type":"address"}],"name":"addSanctioned","outputs":[],"stateMutability":"nonpayable","type":"function"},{"inputs":[],"name":"aspRootIndex","outputs":[{"internalType":"uint32","name":"","type":"uint32"}],"stateMutability":"view","type":"function"},{"inputs":[{"internalType":"uint256","name":"","type":"uint256"}],"name":"aspRoots","outputs":[{"internalType":"bytes32","name":"","type":"bytes32"}],"stateMutability":"view","type":"function"},{"inputs":[{"internalType":"bytes32","name":"commitment","type":"bytes32"}],"name":"deposit","outputs":[],"stateMutability":"payable","type":"function"},{"inputs":[],"name":"depositAmountRequired","outputs":[{"internalType":"uint256","name":"","type":"uint256"}],"stateMutability":"pure","type":"function"},{"inputs":[{"internalType":"bytes32","name":"commitment","type":"bytes32"}],"name":"depositUsdt","outputs":[],"stateMutability":"nonpayable","type":"function"},{"inputs":[{"internalType":"bytes32","name":"","type":"bytes32"}],"name":"ethCommitments","outputs":[{"internalType":"bool","name":"","type":"bool"}],"stateMutability":"view","type":"function"},{"inputs":[{"internalType":"bytes32","name":"","type":"bytes32"}],"name":"ethNullifierHashes","outputs":[{"internalType":"bool","name":"","type":"bool"}],"stateMutability":"view","type":"function"},{"inputs":[],"name":"ethStateTree","outputs":[{"internalType":"contract IIncrementalMerkleTree","name":"","type":"address"}],"stateMutability":"view","type":"function"},{"inputs":[{"internalType":"bytes32","name":"role","type":"bytes32"}],"name":"getRoleAdmin","outputs":[{"internalType":"bytes32","name":"","type":"bytes32"}],"stateMutability":"view","type":"function"},{"inputs":[{"internalType":"bytes32","name":"role","type":"bytes32"},{"internalType":"address","name":"account","type":"address"}],"name":"grantRole","outputs":[],"stateMutability":"nonpayable","type":"function"},{"inputs":[{"internalType":"bytes32","name":"role","type":"bytes32"},{"internalType":"address","name":"account","type":"address"}],"name":"hasRole","outputs":[{"internalType":"bool","name":"","type":"bool"}],"stateMutability":"view","type":"function"},{"inputs":[{"internalType":"bytes32","name":"root","type":"bytes32"}],"name":"isKnownAspRoot","outputs":[{"internalType":"bool","name":"","type":"bool"}],"stateMutability":"view","type":"function"},{"inputs":[{"internalType":"address","name":"account","type":"address"}],"name":"isSanctioned","outputs":[{"internalType":"bool","name":"","type":"bool"}],"stateMutability":"view","type":"function"},{"inputs":[{"internalType":"bytes32","name":"","type":"bytes32"}],"name":"knownAspRoot","outputs":[{"internalType":"bool","name":"","type":"bool"}],"stateMutability":"view","type":"function"},{"inputs":[{"internalType":"uint256","name":"i","type":"uint256"}],"name":"localSanctionedAt","outputs":[{"internalType":"address","name":"","type":"address"}],"stateMutability":"view","type":"function"},{"inputs":[],"name":"localSanctionedLength","outputs":[{"internalType":"uint256","name":"","type":"uint256"}],"stateMutability":"view","type":"function"},{"inputs":[],"name":"owner","outputs":[{"internalType":"address","name":"","type":"address"}],"stateMutability":"view","type":"function"},{"inputs":[],"name":"pause","outputs":[],"stateMutability":"nonpayable","type":"function"},{"inputs":[],"name":"paused","outputs":[{"internalType":"bool","name":"","type":"bool"}],"stateMutability":"view","type":"function"},{"inputs":[{"internalType":"bytes32","name":"newRoot","type":"bytes32"}],"name":"publishAspRoot","outputs":[],"stateMutability":"nonpayable","type":"function"},{"inputs":[{"internalType":"address","name":"account","type":"address"}],"name":"removeSanctioned","outputs":[],"stateMutability":"nonpayable","type":"function"},{"inputs":[],"name":"renounceOwnership","outputs":[],"stateMutability":"nonpayable","type":"function"},{"inputs":[{"internalType":"bytes32","name":"role","type":"bytes32"},{"internalType":"address","name":"callerConfirmation","type":"address"}],"name":"renounceRole","outputs":[],"stateMutability":"nonpayable","type":"function"},{"inputs":[{"internalType":"bytes32","name":"role","type":"bytes32"},{"internalType":"address","name":"account","type":"address"}],"name":"revokeRole","outputs":[],"stateMutability":"nonpayable","type":"function"},{"inputs":[],"name":"sanctionsOracle","outputs":[{"internalType":"contract ISanctionsList","name":"","type":"address"}],"stateMutability":"view","type":"function"},{"inputs":[{"internalType":"bytes4","name":"interfaceId","type":"bytes4"}],"name":"supportsInterface","outputs":[{"internalType":"bool","name":"","type":"bool"}],"stateMutability":"view","type":"function"},{"inputs":[{"internalType":"address","name":"newOwner","type":"address"}],"name":"transferOwnership","outputs":[],"stateMutability":"nonpayable","type":"function"},{"inputs":[],"name":"unpause","outputs":[],"stateMutability":"nonpayable","type":"function"},{"inputs":[],"name":"usdt","outputs":[{"internalType":"contract IERC20","name":"","type":"address"}],"stateMutability":"view","type":"function"},{"inputs":[{"internalType":"bytes32","name":"","type":"bytes32"}],"name":"usdtCommitments","outputs":[{"internalType":"bool","name":"","type":"bool"}],"stateMutability":"view","type":"function"},{"inputs":[],"name":"usdtDepositAmountRequired","outputs":[{"internalType":"uint256","name":"","type":"uint256"}],"stateMutability":"pure","type":"function"},{"inputs":[{"internalType":"bytes32","name":"","type":"bytes32"}],"name":"usdtNullifierHashes","outputs":[{"internalType":"bool","name":"","type":"bool"}],"stateMutability":"view","type":"function"},{"inputs":[],"name":"usdtStateTree","outputs":[{"internalType":"contract IIncrementalMerkleTree","name":"","type":"address"}],"stateMutability":"view","type":"function"},{"inputs":[],"name":"verifier","outputs":[{"internalType":"contract IVerifier","name":"","type":"address"}],"stateMutability":"view","type":"function"},{"inputs":[{"internalType":"bytes","name":"proof","type":"bytes"},{"internalType":"bytes32","name":"stateRoot","type":"bytes32"},{"internalType":"bytes32","name":"aspRoot","type":"bytes32"},{"internalType":"bytes32","name":"nullifierHash","type":"bytes32"},{"internalType":"address payable","name":"recipient","type":"address"},{"internalType":"address payable","name":"relayer","type":"address"},{"internalType":"uint256","name":"fee","type":"uint256"}],"name":"withdraw","outputs":[],"stateMutability":"nonpayable","type":"function"},{"inputs":[],"name":"withdrawFees","outputs":[],"stateMutability":"nonpayable","type":"function"},{"inputs":[{"internalType":"bytes","name":"proof","type":"bytes"},{"internalType":"bytes32","name":"stateRoot","type":"bytes32"},{"internalType":"bytes32","name":"aspRoot","type":"bytes32"},{"internalType":"bytes32","name":"nullifierHash","type":"bytes32"},{"internalType":"address","name":"recipient","type":"address"},{"internalType":"address","name":"relayer","type":"address"},{"internalType":"uint256","name":"fee","type":"uint256"}],"name":"withdrawUsdt","outputs":[],"stateMutability":"nonpayable","type":"function"},{"stateMutability":"payable","type":"receive"}],"evm":{"bytecode":{"linkReferences":{},"object":"61012060405234801562000011575f80fd5b506040516200296838038062002968833981016040819052620000349162000311565b8060017f9b779b17422d0df92223018b32b4d1fa46e071723d6817e2486d003becc55f00556001600160a01b0381166200008757604051631e4fbdf760e01b81525f600482015260240160405180910390fd5b6200009281620001f4565b506001600160a01b038616620000bb5760405163d92e233d60e01b815260040160405180910390fd5b6001600160a01b038516620000e35760405163d92e233d60e01b815260040160405180910390fd5b6001600160a01b0384166200010b5760405163d92e233d60e01b815260040160405180910390fd5b6001600160a01b038316620001335760405163d92e233d60e01b815260040160405180910390fd5b6001600160a01b0381166200015b5760405163d92e233d60e01b815260040160405180910390fd5b6001600160a01b0380871660805285811660a05284811660c05283811660e0528216610100526200018d5f826200024d565b50620001ba7f442a94f1a1fac79af32856af2a64f63648cfa2ef3b98610a5bb7cbec4cee6985826200024d565b50620001e77f65d7a28e3265b37a6474929f336521b332c1681b933f6cb9f3376673440d862a826200024d565b50505050505050620003a1565b600180546001600160a01b03838116610100818102610100600160a81b031985161790945560405193909204169182907f8be0079c531659141344cd1fd0a4f28419497f9722a3daafe3b4186f6b6457e0905f90a35050565b5f828152602081815260408083206001600160a01b038516845290915281205460ff16620002f0575f838152602081815260408083206001600160a01b03861684529091529020805460ff19166001179055620002a73390565b6001600160a01b0316826001600160a01b0316847f2f8788117e7eff1d82e926ec794901d17c78024a50270940304540a733656f0d60405160405180910390a4506001620002f3565b505f5b92915050565b6001600160a01b03811681146200030e575f80fd5b50565b5f805f805f8060c0878903121562000327575f80fd5b86516200033481620002f9565b60208801519096506200034781620002f9565b60408801519095506200035a81620002f9565b60608801519094506200036d81620002f9565b60808801519093506200038081620002f9565b60a08801519092506200039381620002f9565b809150509295509295509295565b60805160a05160c05160e05161010051612535620004335f395f818161082301528181611a740152611ac601525f818161053601528181610dce01528181610e020152818161100d015261171c01525f818161040101528181610b16015261177d01525f818161076601528181611149015261196001525f81816104e401528181610cd3015261130601526125355ff3fe6080604052600436106102cc575f3560e01c80638456cb5911610174578063ca6e6bc1116100db578063e63ab1e911610094578063eee018501161006e578063eee0185014610990578063ef4688f8146109a6578063f184205f146109d9578063f2fde38b14610a0757610319565b8063e63ab1e91461092f578063e8144c8614610962578063e9dd30181461097c57610319565b8063ca6e6bc114610861578063d407c6951461088f578063d547741f146108ae578063d886bee8146108cd578063db61d8c1146108e2578063df592f7d1461091057610319565b80639a54149e1161012d5780639a54149e146107a75780639f840c7b146107d5578063a217fddf146107ec578063b214faa5146107ff578063b3df4df914610812578063b7cf58251461084557610319565b80638456cb59146106dc57806385ff527b146106f05780638b61d736146107055780638da5cb5b146107335780638f1846dd1461075557806391d148541461078857610319565b80633f4ba83a1161023357806358f786ed116101ec5780636d0430eb116101c65780636d0430eb1461065c578063715018a61461068a57806380b437b11461069e57806382738c82146106bd57610319565b806358f786ed14610616578063594e41f11461062f5780635c975abb1461064557610319565b80633f4ba83a14610577578063476343ee1461058b5780634b01d5dc1461059f5780634e6add93146105be5780634ea91771146105d857806355d168da146105f757610319565b8063248a9ca311610285578063248a9ca31461048557806325c2cd12146104b35780632b7ac3f3146104d35780632f2ff15d146105065780632f48ab7d1461052557806336568abe1461055857610319565b806301ffc9a71461035c578063020462f3146103905780630280ae8a146103b9578063037a3900146103f0578063062d3bd71461042357806317b0a3251461046457610319565b366103195760405162461bcd60e51b8152602060048201526018602482015277141c9a5d9858de541bdbdb0e881d5cd94819195c1bdcda5d60421b60448201526064015b60405180910390fd5b60405162461bcd60e51b8152602060048201526018602482015277141c9a5d9858de541bdbdb0e881d5cd94819195c1bdcda5d60421b6044820152606401610310565b348015610367575f80fd5b5061037b6103763660046121f0565b610a26565b60405190151581526020015b60405180910390f35b34801561039b575f80fd5b506103a4604081565b60405163ffffffff9091168152602001610387565b3480156103c4575f80fd5b506103d86103d3366004612217565b610a5c565b6040516001600160a01b039091168152602001610387565b3480156103fb575f80fd5b506103d87f000000000000000000000000000000000000000000000000000000000000000081565b34801561042e575f80fd5b506104567f442a94f1a1fac79af32856af2a64f63648cfa2ef3b98610a5bb7cbec4cee698581565b604051908152602001610387565b34801561046f575f80fd5b5061048361047e366004612287565b610a68565b005b348015610490575f80fd5b5061045661049f366004612217565b5f9081526020819052604090206001015490565b3480156104be575f80fd5b506104565f805160206124c083398151915281565b3480156104de575f80fd5b506103d87f000000000000000000000000000000000000000000000000000000000000000081565b348015610511575f80fd5b50610483610520366004612311565b610ea3565b348015610530575f80fd5b506103d87f000000000000000000000000000000000000000000000000000000000000000081565b348015610563575f80fd5b50610483610572366004612311565b610ecd565b348015610582575f80fd5b50610483610f05565b348015610596575f80fd5b50610483610f3a565b3480156105aa575f80fd5b506104836105b9366004612287565b611094565b3480156105c9575f80fd5b50610456662386f26fc1000081565b3480156105e3575f80fd5b506104836105f236600461233f565b61145a565b348015610602575f80fd5b50610483610611366004612217565b6114cc565b348015610621575f80fd5b50662386f26fc10000610456565b34801561063a575f80fd5b50610456620186a081565b348015610650575f80fd5b5060015460ff1661037b565b348015610667575f80fd5b5061037b610676366004612217565b60026020525f908152604090205460ff1681565b348015610695575f80fd5b506104836115fe565b3480156106a9575f80fd5b506104836106b836600461233f565b61160f565b3480156106c8575f80fd5b506104836106d7366004612217565b6116a7565b3480156106e7575f80fd5b50610483611842565b3480156106fb575f80fd5b50610456604b5481565b348015610710575f80fd5b5061037b61071f366004612217565b60476020525f908152604090205460ff1681565b34801561073e575f80fd5b5060015461010090046001600160a01b03166103d8565b348015610760575f80fd5b506103d87f000000000000000000000000000000000000000000000000000000000000000081565b348015610793575f80fd5b5061037b6107a2366004612311565b611874565b3480156107b2575f80fd5b5061037b6107c1366004612217565b60046020525f908152604090205460ff1681565b3480156107e0575f80fd5b506104566305f5e10081565b3480156107f7575f80fd5b506104565f81565b61048361080d366004612217565b61189c565b34801561081d575f80fd5b506103d87f000000000000000000000000000000000000000000000000000000000000000081565b348015610850575f80fd5b506046546103a49063ffffffff1681565b34801561086c575f80fd5b5061037b61087b366004612217565b60056020525f908152604090205460ff1681565b34801561089a575f80fd5b506104566108a9366004612217565b611a0a565b3480156108b9575f80fd5b506104836108c8366004612311565b611a20565b3480156108d8575f80fd5b50610456604a5481565b3480156108ed575f80fd5b5061037b6108fc366004612217565b60036020525f908152604090205460ff1681565b34801561091b575f80fd5b5061037b61092a36600461233f565b611a44565b34801561093a575f80fd5b506104567f65d7a28e3265b37a6474929f336521b332c1681b933f6cb9f3376673440d862a81565b34801561096d575f80fd5b5061045666038d7ea4c6800081565b348015610987575f80fd5b50610456611b35565b34801561099b575f80fd5b506305f5e100610456565b3480156109b1575f80fd5b506104567f60ddeeedcc0ad0194a5daeab83d1463588b03aca86cbee9384a9d5d1e673c2e281565b3480156109e4575f80fd5b5061037b6109f3366004612217565b5f9081526047602052604090205460ff1690565b348015610a12575f80fd5b50610483610a2136600461233f565b611b45565b5f6001600160e01b03198216637965db0b60e01b1480610a5657506301ffc9a760e01b6001600160e01b03198316145b92915050565b5f610a56604883611b7f565b610a70611b91565b610a78611bb5565b5f8481526005602052604090205460ff1615610aa757604051636569570160e11b815260040160405180910390fd5b620186a06305f5e100610aba828461236e565b1115610ad9576040516349609d8560e11b815260040160405180910390fd5b6001600160a01b038416610b005760405163d92e233d60e01b815260040160405180910390fd5b604051636d9833e360e01b8152600481018890527f00000000000000000000000000000000000000000000000000000000000000006001600160a01b031690636d9833e390602401602060405180830381865afa158015610b63573d5f803e3d5ffd5b505050506040513d601f19601f82011682018060405250810190610b879190612381565b610ba457604051633f4f4f1360e21b815260040160405180910390fd5b5f8681526047602052604090205460ff16610bd257604051630f3addad60e21b815260040160405180910390fd5b610bdb84611a44565b15610c045760405163dcd3658d60e01b81526001600160a01b0385166004820152602401610310565b6001600160a01b03831615801590610c205750610c2083611a44565b15610c4957604051636a77805b60e11b81526001600160a01b0384166004820152602401610310565b610c516121d2565b610c685f805160206124c0833981519152896123b4565b8152610c815f805160206124c0833981519152886123b4565b6020820152610c9d5f805160206124c0833981519152876123b4565b6040808301919091526001600160a01b038681166060840152858116608084015260a08301859052905163695ef6f960e01b81527f00000000000000000000000000000000000000000000000000000000000000009091169063695ef6f990610d0e908d908d9086906004016123db565b602060405180830381865afa158015610d29573d5f803e3d5ffd5b505050506040513d601f19601f82011682018060405250810190610d4d9190612381565b610d6a576040516309bde33960e01b815260040160405180910390fd5b5f868152600560205260408120805460ff19166001179055604b80548401905582610d99856305f5e100612436565b610da39190612436565b90505f84118015610dbc57506001600160a01b03851615155b15610df557610df56001600160a01b037f0000000000000000000000000000000000000000000000000000000000000000168686611bd0565b610e296001600160a01b037f0000000000000000000000000000000000000000000000000000000000000000168783611bd0565b846001600160a01b031687876001600160a01b03167f1ccea54be2999a2670d8ec6f44e396fe352a7a4768b045027d6c05f99fcb6e9a8787604051610e78929190918252602082015260400190565b60405180910390a4505050610e9960015f805160206124e083398151915255565b5050505050505050565b5f82815260208190526040902060010154610ebd81611c05565b610ec78383611c0f565b50505050565b6001600160a01b0381163314610ef65760405163334bd91960e11b815260040160405180910390fd5b610f008282611c9e565b505050565b7f65d7a28e3265b37a6474929f336521b332c1681b933f6cb9f3376673440d862a610f2f81611c05565b610f37611d07565b50565b610f42611d59565b610f4a611bb5565b604a54604b5481158015610f5c575080155b15610f6857505061107c565b5f604a819055604b5560015461010090046001600160a01b03168215610ffa575f816001600160a01b0316846040515f6040518083038185875af1925050503d805f8114610fd1576040519150601f19603f3d011682016040523d82523d5f602084013e610fd6565b606091505b5050905080610ff857604051630db2c7f160e31b815260040160405180910390fd5b505b8115611034576110346001600160a01b037f0000000000000000000000000000000000000000000000000000000000000000168284611bd0565b60408051848152602081018490526001600160a01b038316917ff299f1f754362fc7673effe66e73ca8d292dd87fc9fef1f28f7b97b2edc4c75b910160405180910390a25050505b61109260015f805160206124e083398151915255565b565b61109c611b91565b6110a4611bb5565b5f8481526004602052604090205460ff16156110d357604051636569570160e11b815260040160405180910390fd5b66038d7ea4c68000662386f26fc100006110ed828461236e565b111561110c576040516349609d8560e11b815260040160405180910390fd5b6001600160a01b0384166111335760405163d92e233d60e01b815260040160405180910390fd5b604051636d9833e360e01b8152600481018890527f00000000000000000000000000000000000000000000000000000000000000006001600160a01b031690636d9833e390602401602060405180830381865afa158015611196573d5f803e3d5ffd5b505050506040513d601f19601f820116820180604052508101906111ba9190612381565b6111d757604051633f4f4f1360e21b815260040160405180910390fd5b5f8681526047602052604090205460ff1661120557604051630f3addad60e21b815260040160405180910390fd5b61120e84611a44565b156112375760405163dcd3658d60e01b81526001600160a01b0385166004820152602401610310565b6001600160a01b03831615801590611253575061125383611a44565b1561127c57604051636a77805b60e11b81526001600160a01b0384166004820152602401610310565b6112846121d2565b61129b5f805160206124c0833981519152896123b4565b81526112b45f805160206124c0833981519152886123b4565b60208201526112d05f805160206124c0833981519152876123b4565b6040808301919091526001600160a01b038681166060840152858116608084015260a08301859052905163695ef6f960e01b81527f00000000000000000000000000000000000000000000000000000000000000009091169063695ef6f990611341908d908d9086906004016123db565b602060405180830381865afa15801561135c573d5f803e3d5ffd5b505050506040513d601f19601f820116820180604052508101906113809190612381565b61139d576040516309bde33960e01b815260040160405180910390fd5b5f868152600460205260408120805460ff19166001179055604a805484019055826113cf85662386f26fc10000612436565b6113d99190612436565b90505f841180156113f257506001600160a01b03851615155b15611401576114018585611d8c565b61140b8682611d8c565b846001600160a01b031687876001600160a01b03167f2c354682dfe18bc46bdd9fbf1692549fa36bb4cf776319bc8b5ddd131e5fa0fb8787604051610e78929190918252602082015260400190565b7f442a94f1a1fac79af32856af2a64f63648cfa2ef3b98610a5bb7cbec4cee698561148481611c05565b61148f604883611e07565b156114c8576040516001600160a01b038316907f27c24e841c9b716a2af2ae635108fc747d4f0ab26bb3be48a53e4ce68d1f925b905f90a25b5050565b7f60ddeeedcc0ad0194a5daeab83d1463588b03aca86cbee9384a9d5d1e673c2e26114f681611c05565b816115145760405163b263ae7360e01b815260040160405180910390fd5b6046545f9060409061152d9063ffffffff166001612449565b6115379190612466565b90505f60068263ffffffff1660408110611553576115536123c7565b015490508015611573575f818152604760205260409020805460ff191690555b8360068363ffffffff166040811061158d5761158d6123c7565b01555f84815260476020908152604091829020805460ff191660011790556046805463ffffffff861663ffffffff1990911681179091559151918252339186917f02cd97eb1138905d7dc9c1f5e42e188103a85075b9fc446197669f34269111bd910160405180910390a350505050565b611606611d59565b6110925f611e1b565b7f442a94f1a1fac79af32856af2a64f63648cfa2ef3b98610a5bb7cbec4cee698561163981611c05565b6001600160a01b0382166116605760405163d92e233d60e01b815260040160405180910390fd5b61166b604883611e74565b156114c8576040516001600160a01b038316907f99f336eb5bc6257ae248080079fdc6cdc792f5b29f86c8302759dafc68b4c4fd905f90a25050565b6116af611b91565b6116b7611bb5565b5f8181526003602052604090205460ff16156116e65760405163145718a760e01b815260040160405180910390fd5b6116ef33611a44565b1561170f576040516334da009f60e11b8152336004820152602401610310565b6117486001600160a01b037f00000000000000000000000000000000000000000000000000000000000000001633306305f5e100611e88565b5f81815260036020526040808220805460ff1916600117905551632d287e4360e01b8152600481018390526001600160a01b037f00000000000000000000000000000000000000000000000000000000000000001690632d287e43906024016020604051808303815f875af11580156117c3573d5f803e3d5ffd5b505050506040513d601f19601f820116820180604052508101906117e79190612488565b6040805163ffffffff8316815242602082015291925083917fe2578e0e0bc1b6b885400c3e57bfd5c1df148bfeed8f534917c3f4fa511c1c5291015b60405180910390a250610f3760015f805160206124e083398151915255565b7f65d7a28e3265b37a6474929f336521b332c1681b933f6cb9f3376673440d862a61186c81611c05565b610f37611ebe565b5f918252602082815260408084206001600160a01b0393909316845291905290205460ff1690565b6118a4611b91565b6118ac611bb5565b662386f26fc1000034146118d35760405163c1525f1160e01b815260040160405180910390fd5b5f8181526002602052604090205460ff16156119025760405163145718a760e01b815260040160405180910390fd5b61190b33611a44565b1561192b576040516334da009f60e11b8152336004820152602401610310565b5f81815260026020526040808220805460ff1916600117905551632d287e4360e01b8152600481018390526001600160a01b037f00000000000000000000000000000000000000000000000000000000000000001690632d287e43906024016020604051808303815f875af11580156119a6573d5f803e3d5ffd5b505050506040513d601f19601f820116820180604052508101906119ca9190612488565b6040805163ffffffff8316815242602082015291925083917f0c6ba7861996c8eab82344eb22ed1e20ab4f97ebc4d7477a53c911db9ab8a5f99101611823565b60068160408110611a19575f80fd5b0154905081565b5f82815260208190526040902060010154611a3a81611c05565b610ec78383611c9e565b5f6001600160a01b038216611a5a57505f919050565b611a65604883611ef9565b15611a7257506001919050565b7f00000000000000000000000000000000000000000000000000000000000000006001600160a01b0316611aa757505f919050565b60405163df592f7d60e01b81526001600160a01b0383811660048301527f0000000000000000000000000000000000000000000000000000000000000000169063df592f7d90602401602060405180830381865afa925050508015611b29575060408051601f3d908101601f19168201909252611b2691810190612381565b60015b610a5657506001919050565b5f611b406048611f1a565b905090565b611b4d611d59565b6001600160a01b038116611b7657604051631e4fbdf760e01b81525f6004820152602401610310565b610f3781611e1b565b5f611b8a8383611f23565b9392505050565b60015460ff16156110925760405163d93c066560e01b815260040160405180910390fd5b611bbd611f49565b60025f805160206124e083398151915255565b611bdd8383836001611f78565b610f0057604051635274afe760e01b81526001600160a01b0384166004820152602401610310565b610f378133611fda565b5f611c1a8383611874565b611c97575f838152602081815260408083206001600160a01b03861684529091529020805460ff19166001179055611c4f3390565b6001600160a01b0316826001600160a01b0316847f2f8788117e7eff1d82e926ec794901d17c78024a50270940304540a733656f0d60405160405180910390a4506001610a56565b505f610a56565b5f611ca98383611874565b15611c97575f838152602081815260408083206001600160a01b0386168085529252808320805460ff1916905551339286917ff6391f5c32d9c69d2a47ea670b442974b53935d1edc7fd64eb21e047a839171b9190a4506001610a56565b611d0f612013565b6001805460ff191690557f5db9ee0a495bf2e6ff9c91a7834c1ba4fdd244a5e8aa4e537bd38aeae4b073aa335b6040516001600160a01b03909116815260200160405180910390a1565b6001546001600160a01b036101009091041633146110925760405163118cdaa760e01b8152336004820152602401610310565b805f03611d97575050565b5f826001600160a01b0316826040515f6040518083038185875af1925050503d805f8114611de0576040519150601f19603f3d011682016040523d82523d5f602084013e611de5565b606091505b5050905080610f0057604051630db2c7f160e31b815260040160405180910390fd5b5f611b8a836001600160a01b038416612036565b600180546001600160a01b03838116610100818102610100600160a81b031985161790945560405193909204169182907f8be0079c531659141344cd1fd0a4f28419497f9722a3daafe3b4186f6b6457e0905f90a35050565b5f611b8a836001600160a01b038416612120565b611e96848484846001612165565b610ec757604051635274afe760e01b81526001600160a01b0385166004820152602401610310565b611ec6611b91565b6001805460ff1916811790557f62e78cea01bee320cd4e420270b5ea74000d11b0c9f74754ebdbfc544b05a25833611d3c565b6001600160a01b0381165f9081526001830160205260408120541515611b8a565b5f610a56825490565b5f825f018281548110611f3857611f386123c7565b905f5260205f200154905092915050565b5f805160206124e08339815191525460020361109257604051633ee5aeb560e01b815260040160405180910390fd5b60405163a9059cbb60e01b5f8181526001600160a01b038616600452602485905291602083604481808b5af1925060015f51148316611fce578383151615611fc2573d5f823e3d81fd5b5f873b113d1516831692505b60405250949350505050565b611fe48282611874565b6114c85760405163e2517d3f60e01b81526001600160a01b038216600482015260248101839052604401610310565b60015460ff1661109257604051638dfc202b60e01b815260040160405180910390fd5b5f8181526001830160205260408120548015612110575f612058600183612436565b85549091505f9061206b90600190612436565b90508082146120ca575f865f018281548110612089576120896123c7565b905f5260205f200154905080875f0184815481106120a9576120a96123c7565b5f918252602080832090910192909255918252600188019052604090208390555b85548690806120db576120db6124ab565b600190038181905f5260205f20015f90559055856001015f8681526020019081526020015f205f905560019350505050610a56565b5f915050610a56565b5092915050565b5f818152600183016020526040812054611c9757508154600181810184555f848152602080822090930184905584548482528286019093526040902091909155610a56565b6040516323b872dd60e01b5f8181526001600160a01b038781166004528616602452604485905291602083606481808c5af1925060015f511483166121c15783831516156121b5573d5f823e3d81fd5b5f883b113d1516831692505b604052505f60605295945050505050565b6040518060c001604052806006906020820280368337509192915050565b5f60208284031215612200575f80fd5b81356001600160e01b031981168114611b8a575f80fd5b5f60208284031215612227575f80fd5b5035919050565b5f8083601f84011261223e575f80fd5b50813567ffffffffffffffff811115612255575f80fd5b60208301915083602082850101111561226c575f80fd5b9250929050565b6001600160a01b0381168114610f37575f80fd5b5f805f805f805f8060e0898b03121561229e575f80fd5b883567ffffffffffffffff8111156122b4575f80fd5b6122c08b828c0161222e565b90995097505060208901359550604089013594506060890135935060808901356122e981612273565b925060a08901356122f981612273565b8092505060c089013590509295985092959890939650565b5f8060408385031215612322575f80fd5b82359150602083013561233481612273565b809150509250929050565b5f6020828403121561234f575f80fd5b8135611b8a81612273565b634e487b7160e01b5f52601160045260245ffd5b80820180821115610a5657610a5661235a565b5f60208284031215612391575f80fd5b81518015158114611b8a575f80fd5b634e487b7160e01b5f52601260045260245ffd5b5f826123c2576123c26123a0565b500690565b634e487b7160e01b5f52603260045260245ffd5b60e081528260e08201525f6101008486828501375f81868501015280601f19601f8701168401019150506020808301845f5b600681101561242a5781518352918301919083019060010161240d565b50505050949350505050565b81810381811115610a5657610a5661235a565b63ffffffff8181168382160190808211156121195761211961235a565b5f63ffffffff8084168061247c5761247c6123a0565b92169190910692915050565b5f60208284031215612498575f80fd5b815163ffffffff81168114611b8a575f80fd5b634e487b7160e01b5f52603160045260245ffdfe30644e72e131a029b85045b68181585d2833e84879b9709143e1f593f00000019b779b17422d0df92223018b32b4d1fa46e071723d6817e2486d003becc55f00a2646970667358221220558b98b9f76ab8f70d98556baf04cf0f81634fa24a095cc6a33dd4130d9741e564736f6c63430008180033","opcodes":"PUSH2 0x120 PUSH1 0x40 MSTORE CALLVALUE DUP1 ISZERO PUSH3 0x11 JUMPI PUSH0 DUP1 REVERT JUMPDEST POP PUSH1 0x40 MLOAD PUSH3 0x2968 CODESIZE SUB DUP1 PUSH3 0x2968 DUP4 CODECOPY DUP2 ADD PUSH1 0x40 DUP2 SWAP1 MSTORE PUSH3 0x34 SWAP2 PUSH3 0x311 JUMP JUMPDEST DUP1 PUSH1 0x1 PUSH32 0x9B779B17422D0DF92223018B32B4D1FA46E071723D6817E2486D003BECC55F00 SSTORE PUSH1 0x1 PUSH1 0x1 PUSH1 0xA0 SHL SUB DUP2 AND PUSH3 0x87 JUMPI PUSH1 0x40 MLOAD PUSH4 0x1E4FBDF7 PUSH1 0xE0 SHL DUP2 MSTORE PUSH0 PUSH1 0x4 DUP3 ADD MSTORE PUSH1 0x24 ADD PUSH1 0x40 MLOAD DUP1 SWAP2 SUB SWAP1 REVERT JUMPDEST PUSH3 0x92 DUP2 PUSH3 0x1F4 JUMP JUMPDEST POP PUSH1 0x1 PUSH1 0x1 PUSH1 0xA0 SHL SUB DUP7 AND PUSH3 0xBB JUMPI PUSH1 0x40 MLOAD PUSH4 0xD92E233D PUSH1 0xE0 SHL DUP2 MSTORE PUSH1 0x4 ADD PUSH1 0x40 MLOAD DUP1 SWAP2 SUB SWAP1 REVERT JUMPDEST PUSH1 0x1 PUSH1 0x1 PUSH1 0xA0 SHL SUB DUP6 AND PUSH3 0xE3 JUMPI PUSH1 0x40 MLOAD PUSH4 0xD92E233D PUSH1 0xE0 SHL DUP2 MSTORE PUSH1 0x4 ADD PUSH1 0x40 MLOAD DUP1 SWAP2 SUB SWAP1 REVERT JUMPDEST PUSH1 0x1 PUSH1 0x1 PUSH1 0xA0 SHL SUB DUP5 AND PUSH3 0x10B JUMPI PUSH1 0x40 MLOAD PUSH4 0xD92E233D PUSH1 0xE0 SHL DUP2 MSTORE PUSH1 0x4 ADD PUSH1 0x40 MLOAD DUP1 SWAP2 SUB SWAP1 REVERT JUMPDEST PUSH1 0x1 PUSH1 0x1 PUSH1 0xA0 SHL SUB DUP4 AND PUSH3 0x133 JUMPI PUSH1 0x40 MLOAD PUSH4 0xD92E233D PUSH1 0xE0 SHL DUP2 MSTORE PUSH1 0x4 ADD PUSH1 0x40 MLOAD DUP1 SWAP2 SUB SWAP1 REVERT JUMPDEST PUSH1 0x1 PUSH1 0x1 PUSH1 0xA0 SHL SUB DUP2 AND PUSH3 0x15B JUMPI PUSH1 0x40 MLOAD PUSH4 0xD92E233D PUSH1 0xE0 SHL DUP2 MSTORE PUSH1 0x4 ADD PUSH1 0x40 MLOAD DUP1 SWAP2 SUB SWAP1 REVERT JUMPDEST PUSH1 0x1 PUSH1 0x1 PUSH1 0xA0 SHL SUB DUP1 DUP8 AND PUSH1 0x80 MSTORE DUP6 DUP2 AND PUSH1 0xA0 MSTORE DUP5 DUP2 AND PUSH1 0xC0 MSTORE DUP4 DUP2 AND PUSH1 0xE0 MSTORE DUP3 AND PUSH2 0x100 MSTORE PUSH3 0x18D PUSH0 DUP3 PUSH3 0x24D JUMP JUMPDEST POP PUSH3 0x1BA PUSH32 0x442A94F1A1FAC79AF32856AF2A64F63648CFA2EF3B98610A5BB7CBEC4CEE6985 DUP3 PUSH3 0x24D JUMP JUMPDEST POP PUSH3 0x1E7 PUSH32 0x65D7A28E3265B37A6474929F336521B332C1681B933F6CB9F3376673440D862A DUP3 PUSH3 0x24D JUMP JUMPDEST POP POP POP POP POP POP POP PUSH3 0x3A1 JUMP JUMPDEST PUSH1 0x1 DUP1 SLOAD PUSH1 0x1 PUSH1 0x1 PUSH1 0xA0 SHL SUB DUP4 DUP2 AND PUSH2 0x100 DUP2 DUP2 MUL PUSH2 0x100 PUSH1 0x1 PUSH1 0xA8 SHL SUB NOT DUP6 AND OR SWAP1 SWAP5 SSTORE PUSH1 0x40 MLOAD SWAP4 SWAP1 SWAP3 DIV AND SWAP2 DUP3 SWAP1 PUSH32 0x8BE0079C531659141344CD1FD0A4F28419497F9722A3DAAFE3B4186F6B6457E0 SWAP1 PUSH0 SWAP1 LOG3 POP POP JUMP JUMPDEST PUSH0 DUP3 DUP2 MSTORE PUSH1 0x20 DUP2 DUP2 MSTORE PUSH1 0x40 DUP1 DUP4 KECCAK256 PUSH1 0x1 PUSH1 0x1 PUSH1 0xA0 SHL SUB DUP6 AND DUP5 MSTORE SWAP1 SWAP2 MSTORE DUP2 KECCAK256 SLOAD PUSH1 0xFF AND PUSH3 0x2F0 JUMPI PUSH0 DUP4 DUP2 MSTORE PUSH1 0x20 DUP2 DUP2 MSTORE PUSH1 0x40 DUP1 DUP4 KECCAK256 PUSH1 0x1 PUSH1 0x1 PUSH1 0xA0 SHL SUB DUP7 AND DUP5 MSTORE SWAP1 SWAP2 MSTORE SWAP1 KECCAK256 DUP1 SLOAD PUSH1 0xFF NOT AND PUSH1 0x1 OR SWAP1 SSTORE PUSH3 0x2A7 CALLER SWAP1 JUMP JUMPDEST PUSH1 0x1 PUSH1 0x1 PUSH1 0xA0 SHL SUB AND DUP3 PUSH1 0x1 PUSH1 0x1 PUSH1 0xA0 SHL SUB AND DUP5 PUSH32 0x2F8788117E7EFF1D82E926EC794901D17C78024A50270940304540A733656F0D PUSH1 0x40 MLOAD PUSH1 0x40 MLOAD DUP1 SWAP2 SUB SWAP1 LOG4 POP PUSH1 0x1 PUSH3 0x2F3 JUMP JUMPDEST POP PUSH0 JUMPDEST SWAP3 SWAP2 POP POP JUMP JUMPDEST PUSH1 0x1 PUSH1 0x1 PUSH1 0xA0 SHL SUB DUP2 AND DUP2 EQ PUSH3 0x30E JUMPI PUSH0 DUP1 REVERT JUMPDEST POP JUMP JUMPDEST PUSH0 DUP1 PUSH0 DUP1 PUSH0 DUP1 PUSH1 0xC0 DUP8 DUP10 SUB SLT ISZERO PUSH3 0x327 JUMPI PUSH0 DUP1 REVERT JUMPDEST DUP7 MLOAD PUSH3 0x334 DUP2 PUSH3 0x2F9 JUMP JUMPDEST PUSH1 0x20 DUP9 ADD MLOAD SWAP1 SWAP7 POP PUSH3 0x347 DUP2 PUSH3 0x2F9 JUMP JUMPDEST PUSH1 0x40 DUP9 ADD MLOAD SWAP1 SWAP6 POP PUSH3 0x35A DUP2 PUSH3 0x2F9 JUMP JUMPDEST PUSH1 0x60 DUP9 ADD MLOAD SWAP1 SWAP5 POP PUSH3 0x36D DUP2 PUSH3 0x2F9 JUMP JUMPDEST PUSH1 0x80 DUP9 ADD MLOAD SWAP1 SWAP4 POP PUSH3 0x380 DUP2 PUSH3 0x2F9 JUMP JUMPDEST PUSH1 0xA0 DUP9 ADD MLOAD SWAP1 SWAP3 POP PUSH3 0x393 DUP2 PUSH3 0x2F9 JUMP JUMPDEST DUP1 SWAP2 POP POP SWAP3 SWAP6 POP SWAP3 SWAP6 POP SWAP3 SWAP6 JUMP JUMPDEST PUSH1 0x80 MLOAD PUSH1 0xA0 MLOAD PUSH1 0xC0 MLOAD PUSH1 0xE0 MLOAD PUSH2 0x100 MLOAD PUSH2 0x2535 PUSH3 0x433 PUSH0 CODECOPY PUSH0 DUP2 DUP2 PUSH2 0x823 ADD MSTORE DUP2 DUP2 PUSH2 0x1A74 ADD MSTORE PUSH2 0x1AC6 ADD MSTORE PUSH0 DUP2 DUP2 PUSH2 0x536 ADD MSTORE DUP2 DUP2 PUSH2 0xDCE ADD MSTORE DUP2 DUP2 PUSH2 0xE02 ADD MSTORE DUP2 DUP2 PUSH2 0x100D ADD MSTORE PUSH2 0x171C ADD MSTORE PUSH0 DUP2 DUP2 PUSH2 0x401 ADD MSTORE DUP2 DUP2 PUSH2 0xB16 ADD MSTORE PUSH2 0x177D ADD MSTORE PUSH0 DUP2 DUP2 PUSH2 0x766 ADD MSTORE DUP2 DUP2 PUSH2 0x1149 ADD MSTORE PUSH2 0x1960 ADD MSTORE PUSH0 DUP2 DUP2 PUSH2 0x4E4 ADD MSTORE DUP2 DUP2 PUSH2 0xCD3 ADD MSTORE PUSH2 0x1306 ADD MSTORE PUSH2 0x2535 PUSH0 RETURN INVALID PUSH1 0x80 PUSH1 0x40 MSTORE PUSH1 0x4 CALLDATASIZE LT PUSH2 0x2CC JUMPI PUSH0 CALLDATALOAD PUSH1 0xE0 SHR DUP1 PUSH4 0x8456CB59 GT PUSH2 0x174 JUMPI DUP1 PUSH4 0xCA6E6BC1 GT PUSH2 0xDB JUMPI DUP1 PUSH4 0xE63AB1E9 GT PUSH2 0x94 JUMPI DUP1 PUSH4 0xEEE01850 GT PUSH2 0x6E JUMPI DUP1 PUSH4 0xEEE01850 EQ PUSH2 0x990 JUMPI DUP1 PUSH4 0xEF4688F8 EQ PUSH2 0x9A6 JUMPI DUP1 PUSH4 0xF184205F EQ PUSH2 0x9D9 JUMPI DUP1 PUSH4 0xF2FDE38B EQ PUSH2 0xA07 JUMPI PUSH2 0x319 JUMP JUMPDEST DUP1 PUSH4 0xE63AB1E9 EQ PUSH2 0x92F JUMPI DUP1 PUSH4 0xE8144C86 EQ PUSH2 0x962 JUMPI DUP1 PUSH4 0xE9DD3018 EQ PUSH2 0x97C JUMPI PUSH2 0x319 JUMP JUMPDEST DUP1 PUSH4 0xCA6E6BC1 EQ PUSH2 0x861 JUMPI DUP1 PUSH4 0xD407C695 EQ PUSH2 0x88F JUMPI DUP1 PUSH4 0xD547741F EQ PUSH2 0x8AE JUMPI DUP1 PUSH4 0xD886BEE8 EQ PUSH2 0x8CD JUMPI DUP1 PUSH4 0xDB61D8C1 EQ PUSH2 0x8E2 JUMPI DUP1 PUSH4 0xDF592F7D EQ PUSH2 0x910 JUMPI PUSH2 0x319 JUMP JUMPDEST DUP1 PUSH4 0x9A54149E GT PUSH2 0x12D JUMPI DUP1 PUSH4 0x9A54149E EQ PUSH2 0x7A7 JUMPI DUP1 PUSH4 0x9F840C7B EQ PUSH2 0x7D5 JUMPI DUP1 PUSH4 0xA217FDDF EQ PUSH2 0x7EC JUMPI DUP1 PUSH4 0xB214FAA5 EQ PUSH2 0x7FF JUMPI DUP1 PUSH4 0xB3DF4DF9 EQ PUSH2 0x812 JUMPI DUP1 PUSH4 0xB7CF5825 EQ PUSH2 0x845 JUMPI PUSH2 0x319 JUMP JUMPDEST DUP1 PUSH4 0x8456CB59 EQ PUSH2 0x6DC JUMPI DUP1 PUSH4 0x85FF527B EQ PUSH2 0x6F0 JUMPI DUP1 PUSH4 0x8B61D736 EQ PUSH2 0x705 JUMPI DUP1 PUSH4 0x8DA5CB5B EQ PUSH2 0x733 JUMPI DUP1 PUSH4 0x8F1846DD EQ PUSH2 0x755 JUMPI DUP1 PUSH4 0x91D14854 EQ PUSH2 0x788 JUMPI PUSH2 0x319 JUMP JUMPDEST DUP1 PUSH4 0x3F4BA83A GT PUSH2 0x233 JUMPI DUP1 PUSH4 0x58F786ED GT PUSH2 0x1EC JUMPI DUP1 PUSH4 0x6D0430EB GT PUSH2 0x1C6 JUMPI DUP1 PUSH4 0x6D0430EB EQ PUSH2 0x65C JUMPI DUP1 PUSH4 0x715018A6 EQ PUSH2 0x68A JUMPI DUP1 PUSH4 0x80B437B1 EQ PUSH2 0x69E JUMPI DUP1 PUSH4 0x82738C82 EQ PUSH2 0x6BD JUMPI PUSH2 0x319 JUMP JUMPDEST DUP1 PUSH4 0x58F786ED EQ PUSH2 0x616 JUMPI DUP1 PUSH4 0x594E41F1 EQ PUSH2 0x62F JUMPI DUP1 PUSH4 0x5C975ABB EQ PUSH2 0x645 JUMPI PUSH2 0x319 JUMP JUMPDEST DUP1 PUSH4 0x3F4BA83A EQ PUSH2 0x577 JUMPI DUP1 PUSH4 0x476343EE EQ PUSH2 0x58B JUMPI DUP1 PUSH4 0x4B01D5DC EQ PUSH2 0x59F JUMPI DUP1 PUSH4 0x4E6ADD93 EQ PUSH2 0x5BE JUMPI DUP1 PUSH4 0x4EA91771 EQ PUSH2 0x5D8 JUMPI DUP1 PUSH4 0x55D168DA EQ PUSH2 0x5F7 JUMPI PUSH2 0x319 JUMP JUMPDEST DUP1 PUSH4 0x248A9CA3 GT PUSH2 0x285 JUMPI DUP1 PUSH4 0x248A9CA3 EQ PUSH2 0x485 JUMPI DUP1 PUSH4 0x25C2CD12 EQ PUSH2 0x4B3 JUMPI DUP1 PUSH4 0x2B7AC3F3 EQ PUSH2 0x4D3 JUMPI DUP1 PUSH4 0x2F2FF15D EQ PUSH2 0x506 JUMPI DUP1 PUSH4 0x2F48AB7D EQ PUSH2 0x525 JUMPI DUP1 PUSH4 0x36568ABE EQ PUSH2 0x558 JUMPI PUSH2 0x319 JUMP JUMPDEST DUP1 PUSH4 0x1FFC9A7 EQ PUSH2 0x35C JUMPI DUP1 PUSH4 0x20462F3 EQ PUSH2 0x390 JUMPI DUP1 PUSH4 0x280AE8A EQ PUSH2 0x3B9 JUMPI DUP1 PUSH4 0x37A3900 EQ PUSH2 0x3F0 JUMPI DUP1 PUSH4 0x62D3BD7 EQ PUSH2 0x423 JUMPI DUP1 PUSH4 0x17B0A325 EQ PUSH2 0x464 JUMPI PUSH2 0x319 JUMP JUMPDEST CALLDATASIZE PUSH2 0x319 JUMPI PUSH1 0x40 MLOAD PUSH3 0x461BCD PUSH1 0xE5 SHL DUP2 MSTORE PUSH1 0x20 PUSH1 0x4 DUP3 ADD MSTORE PUSH1 0x18 PUSH1 0x24 DUP3 ADD MSTORE PUSH24 0x141C9A5D9858DE541BDBDB0E881D5CD94819195C1BDCDA5D PUSH1 0x42 SHL PUSH1 0x44 DUP3 ADD MSTORE PUSH1 0x64 ADD JUMPDEST PUSH1 0x40 MLOAD DUP1 SWAP2 SUB SWAP1 REVERT JUMPDEST PUSH1 0x40 MLOAD PUSH3 0x461BCD PUSH1 0xE5 SHL DUP2 MSTORE PUSH1 0x20 PUSH1 0x4 DUP3 ADD MSTORE PUSH1 0x18 PUSH1 0x24 DUP3 ADD MSTORE PUSH24 0x141C9A5D9858DE541BDBDB0E881D5CD94819195C1BDCDA5D PUSH1 0x42 SHL PUSH1 0x44 DUP3 ADD MSTORE PUSH1 0x64 ADD PUSH2 0x310 JUMP JUMPDEST CALLVALUE DUP1 ISZERO PUSH2 0x367 JUMPI PUSH0 DUP1 REVERT JUMPDEST POP PUSH2 0x37B PUSH2 0x376 CALLDATASIZE PUSH1 0x4 PUSH2 0x21F0 JUMP JUMPDEST PUSH2 0xA26 JUMP JUMPDEST PUSH1 0x40 MLOAD SWAP1 ISZERO ISZERO DUP2 MSTORE PUSH1 0x20 ADD JUMPDEST PUSH1 0x40 MLOAD DUP1 SWAP2 SUB SWAP1 RETURN JUMPDEST CALLVALUE DUP1 ISZERO PUSH2 0x39B JUMPI PUSH0 DUP1 REVERT JUMPDEST POP PUSH2 0x3A4 PUSH1 0x40 DUP2 JUMP JUMPDEST PUSH1 0x40 MLOAD PUSH4 0xFFFFFFFF SWAP1 SWAP2 AND DUP2 MSTORE PUSH1 0x20 ADD PUSH2 0x387 JUMP JUMPDEST CALLVALUE DUP1 ISZERO PUSH2 0x3C4 JUMPI PUSH0 DUP1 REVERT JUMPDEST POP PUSH2 0x3D8 PUSH2 0x3D3 CALLDATASIZE PUSH1 0x4 PUSH2 0x2217 JUMP JUMPDEST PUSH2 0xA5C JUMP JUMPDEST PUSH1 0x40 MLOAD PUSH1 0x1 PUSH1 0x1 PUSH1 0xA0 SHL SUB SWAP1 SWAP2 AND DUP2 MSTORE PUSH1 0x20 ADD PUSH2 0x387 JUMP JUMPDEST CALLVALUE DUP1 ISZERO PUSH2 0x3FB JUMPI PUSH0 DUP1 REVERT JUMPDEST POP PUSH2 0x3D8 PUSH32 0x0 DUP2 JUMP JUMPDEST CALLVALUE DUP1 ISZERO PUSH2 0x42E JUMPI PUSH0 DUP1 REVERT JUMPDEST POP PUSH2 0x456 PUSH32 0x442A94F1A1FAC79AF32856AF2A64F63648CFA2EF3B98610A5BB7CBEC4CEE6985 DUP2 JUMP JUMPDEST PUSH1 0x40 MLOAD SWAP1 DUP2 MSTORE PUSH1 0x20 ADD PUSH2 0x387 JUMP JUMPDEST CALLVALUE DUP1 ISZERO PUSH2 0x46F JUMPI PUSH0 DUP1 REVERT JUMPDEST POP PUSH2 0x483 PUSH2 0x47E CALLDATASIZE PUSH1 0x4 PUSH2 0x2287 JUMP JUMPDEST PUSH2 0xA68 JUMP JUMPDEST STOP JUMPDEST CALLVALUE DUP1 ISZERO PUSH2 0x490 JUMPI PUSH0 DUP1 REVERT JUMPDEST POP PUSH2 0x456 PUSH2 0x49F CALLDATASIZE PUSH1 0x4 PUSH2 0x2217 JUMP JUMPDEST PUSH0 SWAP1 DUP2 MSTORE PUSH1 0x20 DUP2 SWAP1 MSTORE PUSH1 0x40 SWAP1 KECCAK256 PUSH1 0x1 ADD SLOAD SWAP1 JUMP JUMPDEST CALLVALUE DUP1 ISZERO PUSH2 0x4BE JUMPI PUSH0 DUP1 REVERT JUMPDEST POP PUSH2 0x456 PUSH0 DUP1 MLOAD PUSH1 0x20 PUSH2 0x24C0 DUP4 CODECOPY DUP2 MLOAD SWAP2 MSTORE DUP2 JUMP JUMPDEST CALLVALUE DUP1 ISZERO PUSH2 0x4DE JUMPI PUSH0 DUP1 REVERT JUMPDEST POP PUSH2 0x3D8 PUSH32 0x0 DUP2 JUMP JUMPDEST CALLVALUE DUP1 ISZERO PUSH2 0x511 JUMPI PUSH0 DUP1 REVERT JUMPDEST POP PUSH2 0x483 PUSH2 0x520 CALLDATASIZE PUSH1 0x4 PUSH2 0x2311 JUMP JUMPDEST PUSH2 0xEA3 JUMP JUMPDEST CALLVALUE DUP1 ISZERO PUSH2 0x530 JUMPI PUSH0 DUP1 REVERT JUMPDEST POP PUSH2 0x3D8 PUSH32 0x0 DUP2 JUMP JUMPDEST CALLVALUE DUP1 ISZERO PUSH2 0x563 JUMPI PUSH0 DUP1 REVERT JUMPDEST POP PUSH2 0x483 PUSH2 0x572 CALLDATASIZE PUSH1 0x4 PUSH2 0x2311 JUMP JUMPDEST PUSH2 0xECD JUMP JUMPDEST CALLVALUE DUP1 ISZERO PUSH2 0x582 JUMPI PUSH0 DUP1 REVERT JUMPDEST POP PUSH2 0x483 PUSH2 0xF05 JUMP JUMPDEST CALLVALUE DUP1 ISZERO PUSH2 0x596 JUMPI PUSH0 DUP1 REVERT JUMPDEST POP PUSH2 0x483 PUSH2 0xF3A JUMP JUMPDEST CALLVALUE DUP1 ISZERO PUSH2 0x5AA JUMPI PUSH0 DUP1 REVERT JUMPDEST POP PUSH2 0x483 PUSH2 0x5B9 CALLDATASIZE PUSH1 0x4 PUSH2 0x2287 JUMP JUMPDEST PUSH2 0x1094 JUMP JUMPDEST CALLVALUE DUP1 ISZERO PUSH2 0x5C9 JUMPI PUSH0 DUP1 REVERT JUMPDEST POP PUSH2 0x456 PUSH7 0x2386F26FC10000 DUP2 JUMP JUMPDEST CALLVALUE DUP1 ISZERO PUSH2 0x5E3 JUMPI PUSH0 DUP1 REVERT JUMPDEST POP PUSH2 0x483 PUSH2 0x5F2 CALLDATASIZE PUSH1 0x4 PUSH2 0x233F JUMP JUMPDEST PUSH2 0x145A JUMP JUMPDEST CALLVALUE DUP1 ISZERO PUSH2 0x602 JUMPI PUSH0 DUP1 REVERT JUMPDEST POP PUSH2 0x483 PUSH2 0x611 CALLDATASIZE PUSH1 0x4 PUSH2 0x2217 JUMP JUMPDEST PUSH2 0x14CC JUMP JUMPDEST CALLVALUE DUP1 ISZERO PUSH2 0x621 JUMPI PUSH0 DUP1 REVERT JUMPDEST POP PUSH7 0x2386F26FC10000 PUSH2 0x456 JUMP JUMPDEST CALLVALUE DUP1 ISZERO PUSH2 0x63A JUMPI PUSH0 DUP1 REVERT JUMPDEST POP PUSH2 0x456 PUSH3 0x186A0 DUP2 JUMP JUMPDEST CALLVALUE DUP1 ISZERO PUSH2 0x650 JUMPI PUSH0 DUP1 REVERT JUMPDEST POP PUSH1 0x1 SLOAD PUSH1 0xFF AND PUSH2 0x37B JUMP JUMPDEST CALLVALUE DUP1 ISZERO PUSH2 0x667 JUMPI PUSH0 DUP1 REVERT JUMPDEST POP PUSH2 0x37B PUSH2 0x676 CALLDATASIZE PUSH1 0x4 PUSH2 0x2217 JUMP JUMPDEST PUSH1 0x2 PUSH1 0x20 MSTORE PUSH0 SWAP1 DUP2 MSTORE PUSH1 0x40 SWAP1 KECCAK256 SLOAD PUSH1 0xFF AND DUP2 JUMP JUMPDEST CALLVALUE DUP1 ISZERO PUSH2 0x695 JUMPI PUSH0 DUP1 REVERT JUMPDEST POP PUSH2 0x483 PUSH2 0x15FE JUMP JUMPDEST CALLVALUE DUP1 ISZERO PUSH2 0x6A9 JUMPI PUSH0 DUP1 REVERT JUMPDEST POP PUSH2 0x483 PUSH2 0x6B8 CALLDATASIZE PUSH1 0x4 PUSH2 0x233F JUMP JUMPDEST PUSH2 0x160F JUMP JUMPDEST CALLVALUE DUP1 ISZERO PUSH2 0x6C8 JUMPI PUSH0 DUP1 REVERT JUMPDEST POP PUSH2 0x483 PUSH2 0x6D7 CALLDATASIZE PUSH1 0x4 PUSH2 0x2217 JUMP JUMPDEST PUSH2 0x16A7 JUMP JUMPDEST CALLVALUE DUP1 ISZERO PUSH2 0x6E7 JUMPI PUSH0 DUP1 REVERT JUMPDEST POP PUSH2 0x483 PUSH2 0x1842 JUMP JUMPDEST CALLVALUE DUP1 ISZERO PUSH2 0x6FB JUMPI PUSH0 DUP1 REVERT JUMPDEST POP PUSH2 0x456 PUSH1 0x4B SLOAD DUP2 JUMP JUMPDEST CALLVALUE DUP1 ISZERO PUSH2 0x710 JUMPI PUSH0 DUP1 REVERT JUMPDEST POP PUSH2 0x37B PUSH2 0x71F CALLDATASIZE PUSH1 0x4 PUSH2 0x2217 JUMP JUMPDEST PUSH1 0x47 PUSH1 0x20 MSTORE PUSH0 SWAP1 DUP2 MSTORE PUSH1 0x40 SWAP1 KECCAK256 SLOAD PUSH1 0xFF AND DUP2 JUMP JUMPDEST CALLVALUE DUP1 ISZERO PUSH2 0x73E JUMPI PUSH0 DUP1 REVERT JUMPDEST POP PUSH1 0x1 SLOAD PUSH2 0x100 SWAP1 DIV PUSH1 0x1 PUSH1 0x1 PUSH1 0xA0 SHL SUB AND PUSH2 0x3D8 JUMP JUMPDEST CALLVALUE DUP1 ISZERO PUSH2 0x760 JUMPI PUSH0 DUP1 REVERT JUMPDEST POP PUSH2 0x3D8 PUSH32 0x0 DUP2 JUMP JUMPDEST CALLVALUE DUP1 ISZERO PUSH2 0x793 JUMPI PUSH0 DUP1 REVERT JUMPDEST POP PUSH2 0x37B PUSH2 0x7A2 CALLDATASIZE PUSH1 0x4 PUSH2 0x2311 JUMP JUMPDEST PUSH2 0x1874 JUMP JUMPDEST CALLVALUE DUP1 ISZERO PUSH2 0x7B2 JUMPI PUSH0 DUP1 REVERT JUMPDEST POP PUSH2 0x37B PUSH2 0x7C1 CALLDATASIZE PUSH1 0x4 PUSH2 0x2217 JUMP JUMPDEST PUSH1 0x4 PUSH1 0x20 MSTORE PUSH0 SWAP1 DUP2 MSTORE PUSH1 0x40 SWAP1 KECCAK256 SLOAD PUSH1 0xFF AND DUP2 JUMP JUMPDEST CALLVALUE DUP1 ISZERO PUSH2 0x7E0 JUMPI PUSH0 DUP1 REVERT JUMPDEST POP PUSH2 0x456 PUSH4 0x5F5E100 DUP2 JUMP JUMPDEST CALLVALUE DUP1 ISZERO PUSH2 0x7F7 JUMPI PUSH0 DUP1 REVERT JUMPDEST POP PUSH2 0x456 PUSH0 DUP2 JUMP JUMPDEST PUSH2 0x483 PUSH2 0x80D CALLDATASIZE PUSH1 0x4 PUSH2 0x2217 JUMP JUMPDEST PUSH2 0x189C JUMP JUMPDEST CALLVALUE DUP1 ISZERO PUSH2 0x81D JUMPI PUSH0 DUP1 REVERT JUMPDEST POP PUSH2 0x3D8 PUSH32 0x0 DUP2 JUMP JUMPDEST CALLVALUE DUP1 ISZERO PUSH2 0x850 JUMPI PUSH0 DUP1 REVERT JUMPDEST POP PUSH1 0x46 SLOAD PUSH2 0x3A4 SWAP1 PUSH4 0xFFFFFFFF AND DUP2 JUMP JUMPDEST CALLVALUE DUP1 ISZERO PUSH2 0x86C JUMPI PUSH0 DUP1 REVERT JUMPDEST POP PUSH2 0x37B PUSH2 0x87B CALLDATASIZE PUSH1 0x4 PUSH2 0x2217 JUMP JUMPDEST PUSH1 0x5 PUSH1 0x20 MSTORE PUSH0 SWAP1 DUP2 MSTORE PUSH1 0x40 SWAP1 KECCAK256 SLOAD PUSH1 0xFF AND DUP2 JUMP JUMPDEST CALLVALUE DUP1 ISZERO PUSH2 0x89A JUMPI PUSH0 DUP1 REVERT JUMPDEST POP PUSH2 0x456 PUSH2 0x8A9 CALLDATASIZE PUSH1 0x4 PUSH2 0x2217 JUMP JUMPDEST PUSH2 0x1A0A JUMP JUMPDEST CALLVALUE DUP1 ISZERO PUSH2 0x8B9 JUMPI PUSH0 DUP1 REVERT JUMPDEST POP PUSH2 0x483 PUSH2 0x8C8 CALLDATASIZE PUSH1 0x4 PUSH2 0x2311 JUMP JUMPDEST PUSH2 0x1A20 JUMP JUMPDEST CALLVALUE DUP1 ISZERO PUSH2 0x8D8 JUMPI PUSH0 DUP1 REVERT JUMPDEST POP PUSH2 0x456 PUSH1 0x4A SLOAD DUP2 JUMP JUMPDEST CALLVALUE DUP1 ISZERO PUSH2 0x8ED JUMPI PUSH0 DUP1 REVERT JUMPDEST POP PUSH2 0x37B PUSH2 0x8FC CALLDATASIZE PUSH1 0x4 PUSH2 0x2217 JUMP JUMPDEST PUSH1 0x3 PUSH1 0x20 MSTORE PUSH0 SWAP1 DUP2 MSTORE PUSH1 0x40 SWAP1 KECCAK256 SLOAD PUSH1 0xFF AND DUP2 JUMP JUMPDEST CALLVALUE DUP1 ISZERO PUSH2 0x91B JUMPI PUSH0 DUP1 REVERT JUMPDEST POP PUSH2 0x37B PUSH2 0x92A CALLDATASIZE PUSH1 0x4 PUSH2 0x233F JUMP JUMPDEST PUSH2 0x1A44 JUMP JUMPDEST CALLVALUE DUP1 ISZERO PUSH2 0x93A JUMPI PUSH0 DUP1 REVERT JUMPDEST POP PUSH2 0x456 PUSH32 0x65D7A28E3265B37A6474929F336521B332C1681B933F6CB9F3376673440D862A DUP2 JUMP JUMPDEST CALLVALUE DUP1 ISZERO PUSH2 0x96D JUMPI PUSH0 DUP1 REVERT JUMPDEST POP PUSH2 0x456 PUSH7 0x38D7EA4C68000 DUP2 JUMP JUMPDEST CALLVALUE DUP1 ISZERO PUSH2 0x987 JUMPI PUSH0 DUP1 REVERT JUMPDEST POP PUSH2 0x456 PUSH2 0x1B35 JUMP JUMPDEST CALLVALUE DUP1 ISZERO PUSH2 0x99B JUMPI PUSH0 DUP1 REVERT JUMPDEST POP PUSH4 0x5F5E100 PUSH2 0x456 JUMP JUMPDEST CALLVALUE DUP1 ISZERO PUSH2 0x9B1 JUMPI PUSH0 DUP1 REVERT JUMPDEST POP PUSH2 0x456 PUSH32 0x60DDEEEDCC0AD0194A5DAEAB83D1463588B03ACA86CBEE9384A9D5D1E673C2E2 DUP2 JUMP JUMPDEST CALLVALUE DUP1 ISZERO PUSH2 0x9E4 JUMPI PUSH0 DUP1 REVERT JUMPDEST POP PUSH2 0x37B PUSH2 0x9F3 CALLDATASIZE PUSH1 0x4 PUSH2 0x2217 JUMP JUMPDEST PUSH0 SWAP1 DUP2 MSTORE PUSH1 0x47 PUSH1 0x20 MSTORE PUSH1 0x40 SWAP1 KECCAK256 SLOAD PUSH1 0xFF AND SWAP1 JUMP JUMPDEST CALLVALUE DUP1 ISZERO PUSH2 0xA12 JUMPI PUSH0 DUP1 REVERT JUMPDEST POP PUSH2 0x483 PUSH2 0xA21 CALLDATASIZE PUSH1 0x4 PUSH2 0x233F JUMP JUMPDEST PUSH2 0x1B45 JUMP JUMPDEST PUSH0 PUSH1 0x1 PUSH1 0x1 PUSH1 0xE0 SHL SUB NOT DUP3 AND PUSH4 0x7965DB0B PUSH1 0xE0 SHL EQ DUP1 PUSH2 0xA56 JUMPI POP PUSH4 0x1FFC9A7 PUSH1 0xE0 SHL PUSH1 0x1 PUSH1 0x1 PUSH1 0xE0 SHL SUB NOT DUP4 AND EQ JUMPDEST SWAP3 SWAP2 POP POP JUMP JUMPDEST PUSH0 PUSH2 0xA56 PUSH1 0x48 DUP4 PUSH2 0x1B7F JUMP JUMPDEST PUSH2 0xA70 PUSH2 0x1B91 JUMP JUMPDEST PUSH2 0xA78 PUSH2 0x1BB5 JUMP JUMPDEST PUSH0 DUP5 DUP2 MSTORE PUSH1 0x5 PUSH1 0x20 MSTORE PUSH1 0x40 SWAP1 KECCAK256 SLOAD PUSH1 0xFF AND ISZERO PUSH2 0xAA7 JUMPI PUSH1 0x40 MLOAD PUSH4 0x65695701 PUSH1 0xE1 SHL DUP2 MSTORE PUSH1 0x4 ADD PUSH1 0x40 MLOAD DUP1 SWAP2 SUB SWAP1 REVERT JUMPDEST PUSH3 0x186A0 PUSH4 0x5F5E100 PUSH2 0xABA DUP3 DUP5 PUSH2 0x236E JUMP JUMPDEST GT ISZERO PUSH2 0xAD9 JUMPI PUSH1 0x40 MLOAD PUSH4 0x49609D85 PUSH1 0xE1 SHL DUP2 MSTORE PUSH1 0x4 ADD PUSH1 0x40 MLOAD DUP1 SWAP2 SUB SWAP1 REVERT JUMPDEST PUSH1 0x1 PUSH1 0x1 PUSH1 0xA0 SHL SUB DUP5 AND PUSH2 0xB00 JUMPI PUSH1 0x40 MLOAD PUSH4 0xD92E233D PUSH1 0xE0 SHL DUP2 MSTORE PUSH1 0x4 ADD PUSH1 0x40 MLOAD DUP1 SWAP2 SUB SWAP1 REVERT JUMPDEST PUSH1 0x40 MLOAD PUSH4 0x6D9833E3 PUSH1 0xE0 SHL DUP2 MSTORE PUSH1 0x4 DUP2 ADD DUP9 SWAP1 MSTORE PUSH32 0x0 PUSH1 0x1 PUSH1 0x1 PUSH1 0xA0 SHL SUB AND SWAP1 PUSH4 0x6D9833E3 SWAP1 PUSH1 0x24 ADD PUSH1 0x20 PUSH1 0x40 MLOAD DUP1 DUP4 SUB DUP2 DUP7 GAS STATICCALL ISZERO DUP1 ISZERO PUSH2 0xB63 JUMPI RETURNDATASIZE PUSH0 DUP1 RETURNDATACOPY RETURNDATASIZE PUSH0 REVERT JUMPDEST POP POP POP POP PUSH1 0x40 MLOAD RETURNDATASIZE PUSH1 0x1F NOT PUSH1 0x1F DUP3 ADD AND DUP3 ADD DUP1 PUSH1 0x40 MSTORE POP DUP2 ADD SWAP1 PUSH2 0xB87 SWAP2 SWAP1 PUSH2 0x2381 JUMP JUMPDEST PUSH2 0xBA4 JUMPI PUSH1 0x40 MLOAD PUSH4 0x3F4F4F13 PUSH1 0xE2 SHL DUP2 MSTORE PUSH1 0x4 ADD PUSH1 0x40 MLOAD DUP1 SWAP2 SUB SWAP1 REVERT JUMPDEST PUSH0 DUP7 DUP2 MSTORE PUSH1 0x47 PUSH1 0x20 MSTORE PUSH1 0x40 SWAP1 KECCAK256 SLOAD PUSH1 0xFF AND PUSH2 0xBD2 JUMPI PUSH1 0x40 MLOAD PUSH4 0xF3ADDAD PUSH1 0xE2 SHL DUP2 MSTORE PUSH1 0x4 ADD PUSH1 0x40 MLOAD DUP1 SWAP2 SUB SWAP1 REVERT JUMPDEST PUSH2 0xBDB DUP5 PUSH2 0x1A44 JUMP JUMPDEST ISZERO PUSH2 0xC04 JUMPI PUSH1 0x40 MLOAD PUSH4 0xDCD3658D PUSH1 0xE0 SHL DUP2 MSTORE PUSH1 0x1 PUSH1 0x1 PUSH1 0xA0 SHL SUB DUP6 AND PUSH1 0x4 DUP3 ADD MSTORE PUSH1 0x24 ADD PUSH2 0x310 JUMP JUMPDEST PUSH1 0x1 PUSH1 0x1 PUSH1 0xA0 SHL SUB DUP4 AND ISZERO DUP1 ISZERO SWAP1 PUSH2 0xC20 JUMPI POP PUSH2 0xC20 DUP4 PUSH2 0x1A44 JUMP JUMPDEST ISZERO PUSH2 0xC49 JUMPI PUSH1 0x40 MLOAD PUSH4 0x6A77805B PUSH1 0xE1 SHL DUP2 MSTORE PUSH1 0x1 PUSH1 0x1 PUSH1 0xA0 SHL SUB DUP5 AND PUSH1 0x4 DUP3 ADD MSTORE PUSH1 0x24 ADD PUSH2 0x310 JUMP JUMPDEST PUSH2 0xC51 PUSH2 0x21D2 JUMP JUMPDEST PUSH2 0xC68 PUSH0 DUP1 MLOAD PUSH1 0x20 PUSH2 0x24C0 DUP4 CODECOPY DUP2 MLOAD SWAP2 MSTORE DUP10 PUSH2 0x23B4 JUMP JUMPDEST DUP2 MSTORE PUSH2 0xC81 PUSH0 DUP1 MLOAD PUSH1 0x20 PUSH2 0x24C0 DUP4 CODECOPY DUP2 MLOAD SWAP2 MSTORE DUP9 PUSH2 0x23B4 JUMP JUMPDEST PUSH1 0x20 DUP3 ADD MSTORE PUSH2 0xC9D PUSH0 DUP1 MLOAD PUSH1 0x20 PUSH2 0x24C0 DUP4 CODECOPY DUP2 MLOAD SWAP2 MSTORE DUP8 PUSH2 0x23B4 JUMP JUMPDEST PUSH1 0x40 DUP1 DUP4 ADD SWAP2 SWAP1 SWAP2 MSTORE PUSH1 0x1 PUSH1 0x1 PUSH1 0xA0 SHL SUB DUP7 DUP2 AND PUSH1 0x60 DUP5 ADD MSTORE DUP6 DUP2 AND PUSH1 0x80 DUP5 ADD MSTORE PUSH1 0xA0 DUP4 ADD DUP6 SWAP1 MSTORE SWAP1 MLOAD PUSH4 0x695EF6F9 PUSH1 0xE0 SHL DUP2 MSTORE PUSH32 0x0 SWAP1 SWAP2 AND SWAP1 PUSH4 0x695EF6F9 SWAP1 PUSH2 0xD0E SWAP1 DUP14 SWAP1 DUP14 SWAP1 DUP7 SWAP1 PUSH1 0x4 ADD PUSH2 0x23DB JUMP JUMPDEST PUSH1 0x20 PUSH1 0x40 MLOAD DUP1 DUP4 SUB DUP2 DUP7 GAS STATICCALL ISZERO DUP1 ISZERO PUSH2 0xD29 JUMPI RETURNDATASIZE PUSH0 DUP1 RETURNDATACOPY RETURNDATASIZE PUSH0 REVERT JUMPDEST POP POP POP POP PUSH1 0x40 MLOAD RETURNDATASIZE PUSH1 0x1F NOT PUSH1 0x1F DUP3 ADD AND DUP3 ADD DUP1 PUSH1 0x40 MSTORE POP DUP2 ADD SWAP1 PUSH2 0xD4D SWAP2 SWAP1 PUSH2 0x2381 JUMP JUMPDEST PUSH2 0xD6A JUMPI PUSH1 0x40 MLOAD PUSH4 0x9BDE339 PUSH1 0xE0 SHL DUP2 MSTORE PUSH1 0x4 ADD PUSH1 0x40 MLOAD DUP1 SWAP2 SUB SWAP1 REVERT JUMPDEST PUSH0 DUP7 DUP2 MSTORE PUSH1 0x5 PUSH1 0x20 MSTORE PUSH1 0x40 DUP2 KECCAK256 DUP1 SLOAD PUSH1 0xFF NOT AND PUSH1 0x1 OR SWAP1 SSTORE PUSH1 0x4B DUP1 SLOAD DUP5 ADD SWAP1 SSTORE DUP3 PUSH2 0xD99 DUP6 PUSH4 0x5F5E100 PUSH2 0x2436 JUMP JUMPDEST PUSH2 0xDA3 SWAP2 SWAP1 PUSH2 0x2436 JUMP JUMPDEST SWAP1 POP PUSH0 DUP5 GT DUP1 ISZERO PUSH2 0xDBC JUMPI POP PUSH1 0x1 PUSH1 0x1 PUSH1 0xA0 SHL SUB DUP6 AND ISZERO ISZERO JUMPDEST ISZERO PUSH2 0xDF5 JUMPI PUSH2 0xDF5 PUSH1 0x1 PUSH1 0x1 PUSH1 0xA0 SHL SUB PUSH32 0x0 AND DUP7 DUP7 PUSH2 0x1BD0 JUMP JUMPDEST PUSH2 0xE29 PUSH1 0x1 PUSH1 0x1 PUSH1 0xA0 SHL SUB PUSH32 0x0 AND DUP8 DUP4 PUSH2 0x1BD0 JUMP JUMPDEST DUP5 PUSH1 0x1 PUSH1 0x1 PUSH1 0xA0 SHL SUB AND DUP8 DUP8 PUSH1 0x1 PUSH1 0x1 PUSH1 0xA0 SHL SUB AND PUSH32 0x1CCEA54BE2999A2670D8EC6F44E396FE352A7A4768B045027D6C05F99FCB6E9A DUP8 DUP8 PUSH1 0x40 MLOAD PUSH2 0xE78 SWAP3 SWAP2 SWAP1 SWAP2 DUP3 MSTORE PUSH1 0x20 DUP3 ADD MSTORE PUSH1 0x40 ADD SWAP1 JUMP JUMPDEST PUSH1 0x40 MLOAD DUP1 SWAP2 SUB SWAP1 LOG4 POP POP POP PUSH2 0xE99 PUSH1 0x1 PUSH0 DUP1 MLOAD PUSH1 0x20 PUSH2 0x24E0 DUP4 CODECOPY DUP2 MLOAD SWAP2 MSTORE SSTORE JUMP JUMPDEST POP POP POP POP POP POP POP POP JUMP JUMPDEST PUSH0 DUP3 DUP2 MSTORE PUSH1 0x20 DUP2 SWAP1 MSTORE PUSH1 0x40 SWAP1 KECCAK256 PUSH1 0x1 ADD SLOAD PUSH2 0xEBD DUP2 PUSH2 0x1C05 JUMP JUMPDEST PUSH2 0xEC7 DUP4 DUP4 PUSH2 0x1C0F JUMP JUMPDEST POP POP POP POP JUMP JUMPDEST PUSH1 0x1 PUSH1 0x1 PUSH1 0xA0 SHL SUB DUP2 AND CALLER EQ PUSH2 0xEF6 JUMPI PUSH1 0x40 MLOAD PUSH4 0x334BD919 PUSH1 0xE1 SHL DUP2 MSTORE PUSH1 0x4 ADD PUSH1 0x40 MLOAD DUP1 SWAP2 SUB SWAP1 REVERT JUMPDEST PUSH2 0xF00 DUP3 DUP3 PUSH2 0x1C9E JUMP JUMPDEST POP POP POP JUMP JUMPDEST PUSH32 0x65D7A28E3265B37A6474929F336521B332C1681B933F6CB9F3376673440D862A PUSH2 0xF2F DUP2 PUSH2 0x1C05 JUMP JUMPDEST PUSH2 0xF37 PUSH2 0x1D07 JUMP JUMPDEST POP JUMP JUMPDEST PUSH2 0xF42 PUSH2 0x1D59 JUMP JUMPDEST PUSH2 0xF4A PUSH2 0x1BB5 JUMP JUMPDEST PUSH1 0x4A SLOAD PUSH1 0x4B SLOAD DUP2 ISZERO DUP1 ISZERO PUSH2 0xF5C JUMPI POP DUP1 ISZERO JUMPDEST ISZERO PUSH2 0xF68 JUMPI POP POP PUSH2 0x107C JUMP JUMPDEST PUSH0 PUSH1 0x4A DUP2 SWAP1 SSTORE PUSH1 0x4B SSTORE PUSH1 0x1 SLOAD PUSH2 0x100 SWAP1 DIV PUSH1 0x1 PUSH1 0x1 PUSH1 0xA0 SHL SUB AND DUP3 ISZERO PUSH2 0xFFA JUMPI PUSH0 DUP2 PUSH1 0x1 PUSH1 0x1 PUSH1 0xA0 SHL SUB AND DUP5 PUSH1 0x40 MLOAD PUSH0 PUSH1 0x40 MLOAD DUP1 DUP4 SUB DUP2 DUP6 DUP8 GAS CALL SWAP3 POP POP POP RETURNDATASIZE DUP1 PUSH0 DUP2 EQ PUSH2 0xFD1 JUMPI PUSH1 0x40 MLOAD SWAP2 POP PUSH1 0x1F NOT PUSH1 0x3F RETURNDATASIZE ADD AND DUP3 ADD PUSH1 0x40 MSTORE RETURNDATASIZE DUP3 MSTORE RETURNDATASIZE PUSH0 PUSH1 0x20 DUP5 ADD RETURNDATACOPY PUSH2 0xFD6 JUMP JUMPDEST PUSH1 0x60 SWAP2 POP JUMPDEST POP POP SWAP1 POP DUP1 PUSH2 0xFF8 JUMPI PUSH1 0x40 MLOAD PUSH4 0xDB2C7F1 PUSH1 0xE3 SHL DUP2 MSTORE PUSH1 0x4 ADD PUSH1 0x40 MLOAD DUP1 SWAP2 SUB SWAP1 REVERT JUMPDEST POP JUMPDEST DUP2 ISZERO PUSH2 0x1034 JUMPI PUSH2 0x1034 PUSH1 0x1 PUSH1 0x1 PUSH1 0xA0 SHL SUB PUSH32 0x0 AND DUP3 DUP5 PUSH2 0x1BD0 JUMP JUMPDEST PUSH1 0x40 DUP1 MLOAD DUP5 DUP2 MSTORE PUSH1 0x20 DUP2 ADD DUP5 SWAP1 MSTORE PUSH1 0x1 PUSH1 0x1 PUSH1 0xA0 SHL SUB DUP4 AND SWAP2 PUSH32 0xF299F1F754362FC7673EFFE66E73CA8D292DD87FC9FEF1F28F7B97B2EDC4C75B SWAP2 ADD PUSH1 0x40 MLOAD DUP1 SWAP2 SUB SWAP1 LOG2 POP POP POP JUMPDEST PUSH2 0x1092 PUSH1 0x1 PUSH0 DUP1 MLOAD PUSH1 0x20 PUSH2 0x24E0 DUP4 CODECOPY DUP2 MLOAD SWAP2 MSTORE SSTORE JUMP JUMPDEST JUMP JUMPDEST PUSH2 0x109C PUSH2 0x1B91 JUMP JUMPDEST PUSH2 0x10A4 PUSH2 0x1BB5 JUMP JUMPDEST PUSH0 DUP5 DUP2 MSTORE PUSH1 0x4 PUSH1 0x20 MSTORE PUSH1 0x40 SWAP1 KECCAK256 SLOAD PUSH1 0xFF AND ISZERO PUSH2 0x10D3 JUMPI PUSH1 0x40 MLOAD PUSH4 0x65695701 PUSH1 0xE1 SHL DUP2 MSTORE PUSH1 0x4 ADD PUSH1 0x40 MLOAD DUP1 SWAP2 SUB SWAP1 REVERT JUMPDEST PUSH7 0x38D7EA4C68000 PUSH7 0x2386F26FC10000 PUSH2 0x10ED DUP3 DUP5 PUSH2 0x236E JUMP JUMPDEST GT ISZERO PUSH2 0x110C JUMPI PUSH1 0x40 MLOAD PUSH4 0x49609D85 PUSH1 0xE1 SHL DUP2 MSTORE PUSH1 0x4 ADD PUSH1 0x40 MLOAD DUP1 SWAP2 SUB SWAP1 REVERT JUMPDEST PUSH1 0x1 PUSH1 0x1 PUSH1 0xA0 SHL SUB DUP5 AND PUSH2 0x1133 JUMPI PUSH1 0x40 MLOAD PUSH4 0xD92E233D PUSH1 0xE0 SHL DUP2 MSTORE PUSH1 0x4 ADD PUSH1 0x40 MLOAD DUP1 SWAP2 SUB SWAP1 REVERT JUMPDEST PUSH1 0x40 MLOAD PUSH4 0x6D9833E3 PUSH1 0xE0 SHL DUP2 MSTORE PUSH1 0x4 DUP2 ADD DUP9 SWAP1 MSTORE PUSH32 0x0 PUSH1 0x1 PUSH1 0x1 PUSH1 0xA0 SHL SUB AND SWAP1 PUSH4 0x6D9833E3 SWAP1 PUSH1 0x24 ADD PUSH1 0x20 PUSH1 0x40 MLOAD DUP1 DUP4 SUB DUP2 DUP7 GAS STATICCALL ISZERO DUP1 ISZERO PUSH2 0x1196 JUMPI RETURNDATASIZE PUSH0 DUP1 RETURNDATACOPY RETURNDATASIZE PUSH0 REVERT JUMPDEST POP POP POP POP PUSH1 0x40 MLOAD RETURNDATASIZE PUSH1 0x1F NOT PUSH1 0x1F DUP3 ADD AND DUP3 ADD DUP1 PUSH1 0x40 MSTORE POP DUP2 ADD SWAP1 PUSH2 0x11BA SWAP2 SWAP1 PUSH2 0x2381 JUMP JUMPDEST PUSH2 0x11D7 JUMPI PUSH1 0x40 MLOAD PUSH4 0x3F4F4F13 PUSH1 0xE2 SHL DUP2 MSTORE PUSH1 0x4 ADD PUSH1 0x40 MLOAD DUP1 SWAP2 SUB SWAP1 REVERT JUMPDEST PUSH0 DUP7 DUP2 MSTORE PUSH1 0x47 PUSH1 0x20 MSTORE PUSH1 0x40 SWAP1 KECCAK256 SLOAD PUSH1 0xFF AND PUSH2 0x1205 JUMPI PUSH1 0x40 MLOAD PUSH4 0xF3ADDAD PUSH1 0xE2 SHL DUP2 MSTORE PUSH1 0x4 ADD PUSH1 0x40 MLOAD DUP1 SWAP2 SUB SWAP1 REVERT JUMPDEST PUSH2 0x120E DUP5 PUSH2 0x1A44 JUMP JUMPDEST ISZERO PUSH2 0x1237 JUMPI PUSH1 0x40 MLOAD PUSH4 0xDCD3658D PUSH1 0xE0 SHL DUP2 MSTORE PUSH1 0x1 PUSH1 0x1 PUSH1 0xA0 SHL SUB DUP6 AND PUSH1 0x4 DUP3 ADD MSTORE PUSH1 0x24 ADD PUSH2 0x310 JUMP JUMPDEST PUSH1 0x1 PUSH1 0x1 PUSH1 0xA0 SHL SUB DUP4 AND ISZERO DUP1 ISZERO SWAP1 PUSH2 0x1253 JUMPI POP PUSH2 0x1253 DUP4 PUSH2 0x1A44 JUMP JUMPDEST ISZERO PUSH2 0x127C JUMPI PUSH1 0x40 MLOAD PUSH4 0x6A77805B PUSH1 0xE1 SHL DUP2 MSTORE PUSH1 0x1 PUSH1 0x1 PUSH1 0xA0 SHL SUB DUP5 AND PUSH1 0x4 DUP3 ADD MSTORE PUSH1 0x24 ADD PUSH2 0x310 JUMP JUMPDEST PUSH2 0x1284 PUSH2 0x21D2 JUMP JUMPDEST PUSH2 0x129B PUSH0 DUP1 MLOAD PUSH1 0x20 PUSH2 0x24C0 DUP4 CODECOPY DUP2 MLOAD SWAP2 MSTORE DUP10 PUSH2 0x23B4 JUMP JUMPDEST DUP2 MSTORE PUSH2 0x12B4 PUSH0 DUP1 MLOAD PUSH1 0x20 PUSH2 0x24C0 DUP4 CODECOPY DUP2 MLOAD SWAP2 MSTORE DUP9 PUSH2 0x23B4 JUMP JUMPDEST PUSH1 0x20 DUP3 ADD MSTORE PUSH2 0x12D0 PUSH0 DUP1 MLOAD PUSH1 0x20 PUSH2 0x24C0 DUP4 CODECOPY DUP2 MLOAD SWAP2 MSTORE DUP8 PUSH2 0x23B4 JUMP JUMPDEST PUSH1 0x40 DUP1 DUP4 ADD SWAP2 SWAP1 SWAP2 MSTORE PUSH1 0x1 PUSH1 0x1 PUSH1 0xA0 SHL SUB DUP7 DUP2 AND PUSH1 0x60 DUP5 ADD MSTORE DUP6 DUP2 AND PUSH1 0x80 DUP5 ADD MSTORE PUSH1 0xA0 DUP4 ADD DUP6 SWAP1 MSTORE SWAP1 MLOAD PUSH4 0x695EF6F9 PUSH1 0xE0 SHL DUP2 MSTORE PUSH32 0x0 SWAP1 SWAP2 AND SWAP1 PUSH4 0x695EF6F9 SWAP1 PUSH2 0x1341 SWAP1 DUP14 SWAP1 DUP14 SWAP1 DUP7 SWAP1 PUSH1 0x4 ADD PUSH2 0x23DB JUMP JUMPDEST PUSH1 0x20 PUSH1 0x40 MLOAD DUP1 DUP4 SUB DUP2 DUP7 GAS STATICCALL ISZERO DUP1 ISZERO PUSH2 0x135C JUMPI RETURNDATASIZE PUSH0 DUP1 RETURNDATACOPY RETURNDATASIZE PUSH0 REVERT JUMPDEST POP POP POP POP PUSH1 0x40 MLOAD RETURNDATASIZE PUSH1 0x1F NOT PUSH1 0x1F DUP3 ADD AND DUP3 ADD DUP1 PUSH1 0x40 MSTORE POP DUP2 ADD SWAP1 PUSH2 0x1380 SWAP2 SWAP1 PUSH2 0x2381 JUMP JUMPDEST PUSH2 0x139D JUMPI PUSH1 0x40 MLOAD PUSH4 0x9BDE339 PUSH1 0xE0 SHL DUP2 MSTORE PUSH1 0x4 ADD PUSH1 0x40 MLOAD DUP1 SWAP2 SUB SWAP1 REVERT JUMPDEST PUSH0 DUP7 DUP2 MSTORE PUSH1 0x4 PUSH1 0x20 MSTORE PUSH1 0x40 DUP2 KECCAK256 DUP1 SLOAD PUSH1 0xFF NOT AND PUSH1 0x1 OR SWAP1 SSTORE PUSH1 0x4A DUP1 SLOAD DUP5 ADD SWAP1 SSTORE DUP3 PUSH2 0x13CF DUP6 PUSH7 0x2386F26FC10000 PUSH2 0x2436 JUMP JUMPDEST PUSH2 0x13D9 SWAP2 SWAP1 PUSH2 0x2436 JUMP JUMPDEST SWAP1 POP PUSH0 DUP5 GT DUP1 ISZERO PUSH2 0x13F2 JUMPI POP PUSH1 0x1 PUSH1 0x1 PUSH1 0xA0 SHL SUB DUP6 AND ISZERO ISZERO JUMPDEST ISZERO PUSH2 0x1401 JUMPI PUSH2 0x1401 DUP6 DUP6 PUSH2 0x1D8C JUMP JUMPDEST PUSH2 0x140B DUP7 DUP3 PUSH2 0x1D8C JUMP JUMPDEST DUP5 PUSH1 0x1 PUSH1 0x1 PUSH1 0xA0 SHL SUB AND DUP8 DUP8 PUSH1 0x1 PUSH1 0x1 PUSH1 0xA0 SHL SUB AND PUSH32 0x2C354682DFE18BC46BDD9FBF1692549FA36BB4CF776319BC8B5DDD131E5FA0FB DUP8 DUP8 PUSH1 0x40 MLOAD PUSH2 0xE78 SWAP3 SWAP2 SWAP1 SWAP2 DUP3 MSTORE PUSH1 0x20 DUP3 ADD MSTORE PUSH1 0x40 ADD SWAP1 JUMP JUMPDEST PUSH32 0x442A94F1A1FAC79AF32856AF2A64F63648CFA2EF3B98610A5BB7CBEC4CEE6985 PUSH2 0x1484 DUP2 PUSH2 0x1C05 JUMP JUMPDEST PUSH2 0x148F PUSH1 0x48 DUP4 PUSH2 0x1E07 JUMP JUMPDEST ISZERO PUSH2 0x14C8 JUMPI PUSH1 0x40 MLOAD PUSH1 0x1 PUSH1 0x1 PUSH1 0xA0 SHL SUB DUP4 AND SWAP1 PUSH32 0x27C24E841C9B716A2AF2AE635108FC747D4F0AB26BB3BE48A53E4CE68D1F925B SWAP1 PUSH0 SWAP1 LOG2 JUMPDEST POP POP JUMP JUMPDEST PUSH32 0x60DDEEEDCC0AD0194A5DAEAB83D1463588B03ACA86CBEE9384A9D5D1E673C2E2 PUSH2 0x14F6 DUP2 PUSH2 0x1C05 JUMP JUMPDEST DUP2 PUSH2 0x1514 JUMPI PUSH1 0x40 MLOAD PUSH4 0xB263AE73 PUSH1 0xE0 SHL DUP2 MSTORE PUSH1 0x4 ADD PUSH1 0x40 MLOAD DUP1 SWAP2 SUB SWAP1 REVERT JUMPDEST PUSH1 0x46 SLOAD PUSH0 SWAP1 PUSH1 0x40 SWAP1 PUSH2 0x152D SWAP1 PUSH4 0xFFFFFFFF AND PUSH1 0x1 PUSH2 0x2449 JUMP JUMPDEST PUSH2 0x1537 SWAP2 SWAP1 PUSH2 0x2466 JUMP JUMPDEST SWAP1 POP PUSH0 PUSH1 0x6 DUP3 PUSH4 0xFFFFFFFF AND PUSH1 0x40 DUP2 LT PUSH2 0x1553 JUMPI PUSH2 0x1553 PUSH2 0x23C7 JUMP JUMPDEST ADD SLOAD SWAP1 POP DUP1 ISZERO PUSH2 0x1573 JUMPI PUSH0 DUP2 DUP2 MSTORE PUSH1 0x47 PUSH1 0x20 MSTORE PUSH1 0x40 SWAP1 KECCAK256 DUP1 SLOAD PUSH1 0xFF NOT AND SWAP1 SSTORE JUMPDEST DUP4 PUSH1 0x6 DUP4 PUSH4 0xFFFFFFFF AND PUSH1 0x40 DUP2 LT PUSH2 0x158D JUMPI PUSH2 0x158D PUSH2 0x23C7 JUMP JUMPDEST ADD SSTORE PUSH0 DUP5 DUP2 MSTORE PUSH1 0x47 PUSH1 0x20 SWAP1 DUP2 MSTORE PUSH1 0x40 SWAP2 DUP3 SWAP1 KECCAK256 DUP1 SLOAD PUSH1 0xFF NOT AND PUSH1 0x1 OR SWAP1 SSTORE PUSH1 0x46 DUP1 SLOAD PUSH4 0xFFFFFFFF DUP7 AND PUSH4 0xFFFFFFFF NOT SWAP1 SWAP2 AND DUP2 OR SWAP1 SWAP2 SSTORE SWAP2 MLOAD SWAP2 DUP3 MSTORE CALLER SWAP2 DUP7 SWAP2 PUSH32 0x2CD97EB1138905D7DC9C1F5E42E188103A85075B9FC446197669F34269111BD SWAP2 ADD PUSH1 0x40 MLOAD DUP1 SWAP2 SUB SWAP1 LOG3 POP POP POP POP JUMP JUMPDEST PUSH2 0x1606 PUSH2 0x1D59 JUMP JUMPDEST PUSH2 0x1092 PUSH0 PUSH2 0x1E1B JUMP JUMPDEST PUSH32 0x442A94F1A1FAC79AF32856AF2A64F63648CFA2EF3B98610A5BB7CBEC4CEE6985 PUSH2 0x1639 DUP2 PUSH2 0x1C05 JUMP JUMPDEST PUSH1 0x1 PUSH1 0x1 PUSH1 0xA0 SHL SUB DUP3 AND PUSH2 0x1660 JUMPI PUSH1 0x40 MLOAD PUSH4 0xD92E233D PUSH1 0xE0 SHL DUP2 MSTORE PUSH1 0x4 ADD PUSH1 0x40 MLOAD DUP1 SWAP2 SUB SWAP1 REVERT JUMPDEST PUSH2 0x166B PUSH1 0x48 DUP4 PUSH2 0x1E74 JUMP JUMPDEST ISZERO PUSH2 0x14C8 JUMPI PUSH1 0x40 MLOAD PUSH1 0x1 PUSH1 0x1 PUSH1 0xA0 SHL SUB DUP4 AND SWAP1 PUSH32 0x99F336EB5BC6257AE248080079FDC6CDC792F5B29F86C8302759DAFC68B4C4FD SWAP1 PUSH0 SWAP1 LOG2 POP POP JUMP JUMPDEST PUSH2 0x16AF PUSH2 0x1B91 JUMP JUMPDEST PUSH2 0x16B7 PUSH2 0x1BB5 JUMP JUMPDEST PUSH0 DUP2 DUP2 MSTORE PUSH1 0x3 PUSH1 0x20 MSTORE PUSH1 0x40 SWAP1 KECCAK256 SLOAD PUSH1 0xFF AND ISZERO PUSH2 0x16E6 JUMPI PUSH1 0x40 MLOAD PUSH4 0x145718A7 PUSH1 0xE0 SHL DUP2 MSTORE PUSH1 0x4 ADD PUSH1 0x40 MLOAD DUP1 SWAP2 SUB SWAP1 REVERT JUMPDEST PUSH2 0x16EF CALLER PUSH2 0x1A44 JUMP JUMPDEST ISZERO PUSH2 0x170F JUMPI PUSH1 0x40 MLOAD PUSH4 0x34DA009F PUSH1 0xE1 SHL DUP2 MSTORE CALLER PUSH1 0x4 DUP3 ADD MSTORE PUSH1 0x24 ADD PUSH2 0x310 JUMP JUMPDEST PUSH2 0x1748 PUSH1 0x1 PUSH1 0x1 PUSH1 0xA0 SHL SUB PUSH32 0x0 AND CALLER ADDRESS PUSH4 0x5F5E100 PUSH2 0x1E88 JUMP JUMPDEST PUSH0 DUP2 DUP2 MSTORE PUSH1 0x3 PUSH1 0x20 MSTORE PUSH1 0x40 DUP1 DUP3 KECCAK256 DUP1 SLOAD PUSH1 0xFF NOT AND PUSH1 0x1 OR SWAP1 SSTORE MLOAD PUSH4 0x2D287E43 PUSH1 0xE0 SHL DUP2 MSTORE PUSH1 0x4 DUP2 ADD DUP4 SWAP1 MSTORE PUSH1 0x1 PUSH1 0x1 PUSH1 0xA0 SHL SUB PUSH32 0x0 AND SWAP1 PUSH4 0x2D287E43 SWAP1 PUSH1 0x24 ADD PUSH1 0x20 PUSH1 0x40 MLOAD DUP1 DUP4 SUB DUP2 PUSH0 DUP8 GAS CALL ISZERO DUP1 ISZERO PUSH2 0x17C3 JUMPI RETURNDATASIZE PUSH0 DUP1 RETURNDATACOPY RETURNDATASIZE PUSH0 REVERT JUMPDEST POP POP POP POP PUSH1 0x40 MLOAD RETURNDATASIZE PUSH1 0x1F NOT PUSH1 0x1F DUP3 ADD AND DUP3 ADD DUP1 PUSH1 0x40 MSTORE POP DUP2 ADD SWAP1 PUSH2 0x17E7 SWAP2 SWAP1 PUSH2 0x2488 JUMP JUMPDEST PUSH1 0x40 DUP1 MLOAD PUSH4 0xFFFFFFFF DUP4 AND DUP2 MSTORE TIMESTAMP PUSH1 0x20 DUP3 ADD MSTORE SWAP2 SWAP3 POP DUP4 SWAP2 PUSH32 0xE2578E0E0BC1B6B885400C3E57BFD5C1DF148BFEED8F534917C3F4FA511C1C52 SWAP2 ADD JUMPDEST PUSH1 0x40 MLOAD DUP1 SWAP2 SUB SWAP1 LOG2 POP PUSH2 0xF37 PUSH1 0x1 PUSH0 DUP1 MLOAD PUSH1 0x20 PUSH2 0x24E0 DUP4 CODECOPY DUP2 MLOAD SWAP2 MSTORE SSTORE JUMP JUMPDEST PUSH32 0x65D7A28E3265B37A6474929F336521B332C1681B933F6CB9F3376673440D862A PUSH2 0x186C DUP2 PUSH2 0x1C05 JUMP JUMPDEST PUSH2 0xF37 PUSH2 0x1EBE JUMP JUMPDEST PUSH0 SWAP2 DUP3 MSTORE PUSH1 0x20 DUP3 DUP2 MSTORE PUSH1 0x40 DUP1 DUP5 KECCAK256 PUSH1 0x1 PUSH1 0x1 PUSH1 0xA0 SHL SUB SWAP4 SWAP1 SWAP4 AND DUP5 MSTORE SWAP2 SWAP1 MSTORE SWAP1 KECCAK256 SLOAD PUSH1 0xFF AND SWAP1 JUMP JUMPDEST PUSH2 0x18A4 PUSH2 0x1B91 JUMP JUMPDEST PUSH2 0x18AC PUSH2 0x1BB5 JUMP JUMPDEST PUSH7 0x2386F26FC10000 CALLVALUE EQ PUSH2 0x18D3 JUMPI PUSH1 0x40 MLOAD PUSH4 0xC1525F11 PUSH1 0xE0 SHL DUP2 MSTORE PUSH1 0x4 ADD PUSH1 0x40 MLOAD DUP1 SWAP2 SUB SWAP1 REVERT JUMPDEST PUSH0 DUP2 DUP2 MSTORE PUSH1 0x2 PUSH1 0x20 MSTORE PUSH1 0x40 SWAP1 KECCAK256 SLOAD PUSH1 0xFF AND ISZERO PUSH2 0x1902 JUMPI PUSH1 0x40 MLOAD PUSH4 0x145718A7 PUSH1 0xE0 SHL DUP2 MSTORE PUSH1 0x4 ADD PUSH1 0x40 MLOAD DUP1 SWAP2 SUB SWAP1 REVERT JUMPDEST PUSH2 0x190B CALLER PUSH2 0x1A44 JUMP JUMPDEST ISZERO PUSH2 0x192B JUMPI PUSH1 0x40 MLOAD PUSH4 0x34DA009F PUSH1 0xE1 SHL DUP2 MSTORE CALLER PUSH1 0x4 DUP3 ADD MSTORE PUSH1 0x24 ADD PUSH2 0x310 JUMP JUMPDEST PUSH0 DUP2 DUP2 MSTORE PUSH1 0x2 PUSH1 0x20 MSTORE PUSH1 0x40 DUP1 DUP3 KECCAK256 DUP1 SLOAD PUSH1 0xFF NOT AND PUSH1 0x1 OR SWAP1 SSTORE MLOAD PUSH4 0x2D287E43 PUSH1 0xE0 SHL DUP2 MSTORE PUSH1 0x4 DUP2 ADD DUP4 SWAP1 MSTORE PUSH1 0x1 PUSH1 0x1 PUSH1 0xA0 SHL SUB PUSH32 0x0 AND SWAP1 PUSH4 0x2D287E43 SWAP1 PUSH1 0x24 ADD PUSH1 0x20 PUSH1 0x40 MLOAD DUP1 DUP4 SUB DUP2 PUSH0 DUP8 GAS CALL ISZERO DUP1 ISZERO PUSH2 0x19A6 JUMPI RETURNDATASIZE PUSH0 DUP1 RETURNDATACOPY RETURNDATASIZE PUSH0 REVERT JUMPDEST POP POP POP POP PUSH1 0x40 MLOAD RETURNDATASIZE PUSH1 0x1F NOT PUSH1 0x1F DUP3 ADD AND DUP3 ADD DUP1 PUSH1 0x40 MSTORE POP DUP2 ADD SWAP1 PUSH2 0x19CA SWAP2 SWAP1 PUSH2 0x2488 JUMP JUMPDEST PUSH1 0x40 DUP1 MLOAD PUSH4 0xFFFFFFFF DUP4 AND DUP2 MSTORE TIMESTAMP PUSH1 0x20 DUP3 ADD MSTORE SWAP2 SWAP3 POP DUP4 SWAP2 PUSH32 0xC6BA7861996C8EAB82344EB22ED1E20AB4F97EBC4D7477A53C911DB9AB8A5F9 SWAP2 ADD PUSH2 0x1823 JUMP JUMPDEST PUSH1 0x6 DUP2 PUSH1 0x40 DUP2 LT PUSH2 0x1A19 JUMPI PUSH0 DUP1 REVERT JUMPDEST ADD SLOAD SWAP1 POP DUP2 JUMP JUMPDEST PUSH0 DUP3 DUP2 MSTORE PUSH1 0x20 DUP2 SWAP1 MSTORE PUSH1 0x40 SWAP1 KECCAK256 PUSH1 0x1 ADD SLOAD PUSH2 0x1A3A DUP2 PUSH2 0x1C05 JUMP JUMPDEST PUSH2 0xEC7 DUP4 DUP4 PUSH2 0x1C9E JUMP JUMPDEST PUSH0 PUSH1 0x1 PUSH1 0x1 PUSH1 0xA0 SHL SUB DUP3 AND PUSH2 0x1A5A JUMPI POP PUSH0 SWAP2 SWAP1 POP JUMP JUMPDEST PUSH2 0x1A65 PUSH1 0x48 DUP4 PUSH2 0x1EF9 JUMP JUMPDEST ISZERO PUSH2 0x1A72 JUMPI POP PUSH1 0x1 SWAP2 SWAP1 POP JUMP JUMPDEST PUSH32 0x0 PUSH1 0x1 PUSH1 0x1 PUSH1 0xA0 SHL SUB AND PUSH2 0x1AA7 JUMPI POP PUSH0 SWAP2 SWAP1 POP JUMP JUMPDEST PUSH1 0x40 MLOAD PUSH4 0xDF592F7D PUSH1 0xE0 SHL DUP2 MSTORE PUSH1 0x1 PUSH1 0x1 PUSH1 0xA0 SHL SUB DUP4 DUP2 AND PUSH1 0x4 DUP4 ADD MSTORE PUSH32 0x0 AND SWAP1 PUSH4 0xDF592F7D SWAP1 PUSH1 0x24 ADD PUSH1 0x20 PUSH1 0x40 MLOAD DUP1 DUP4 SUB DUP2 DUP7 GAS STATICCALL SWAP3 POP POP POP DUP1 ISZERO PUSH2 0x1B29 JUMPI POP PUSH1 0x40 DUP1 MLOAD PUSH1 0x1F RETURNDATASIZE SWAP1 DUP2 ADD PUSH1 0x1F NOT AND DUP3 ADD SWAP1 SWAP3 MSTORE PUSH2 0x1B26 SWAP2 DUP2 ADD SWAP1 PUSH2 0x2381 JUMP JUMPDEST PUSH1 0x1 JUMPDEST PUSH2 0xA56 JUMPI POP PUSH1 0x1 SWAP2 SWAP1 POP JUMP JUMPDEST PUSH0 PUSH2 0x1B40 PUSH1 0x48 PUSH2 0x1F1A JUMP JUMPDEST SWAP1 POP SWAP1 JUMP JUMPDEST PUSH2 0x1B4D PUSH2 0x1D59 JUMP JUMPDEST PUSH1 0x1 PUSH1 0x1 PUSH1 0xA0 SHL SUB DUP2 AND PUSH2 0x1B76 JUMPI PUSH1 0x40 MLOAD PUSH4 0x1E4FBDF7 PUSH1 0xE0 SHL DUP2 MSTORE PUSH0 PUSH1 0x4 DUP3 ADD MSTORE PUSH1 0x24 ADD PUSH2 0x310 JUMP JUMPDEST PUSH2 0xF37 DUP2 PUSH2 0x1E1B JUMP JUMPDEST PUSH0 PUSH2 0x1B8A DUP4 DUP4 PUSH2 0x1F23 JUMP JUMPDEST SWAP4 SWAP3 POP POP POP JUMP JUMPDEST PUSH1 0x1 SLOAD PUSH1 0xFF AND ISZERO PUSH2 0x1092 JUMPI PUSH1 0x40 MLOAD PUSH4 0xD93C0665 PUSH1 0xE0 SHL DUP2 MSTORE PUSH1 0x4 ADD PUSH1 0x40 MLOAD DUP1 SWAP2 SUB SWAP1 REVERT JUMPDEST PUSH2 0x1BBD PUSH2 0x1F49 JUMP JUMPDEST PUSH1 0x2 PUSH0 DUP1 MLOAD PUSH1 0x20 PUSH2 0x24E0 DUP4 CODECOPY DUP2 MLOAD SWAP2 MSTORE SSTORE JUMP JUMPDEST PUSH2 0x1BDD DUP4 DUP4 DUP4 PUSH1 0x1 PUSH2 0x1F78 JUMP JUMPDEST PUSH2 0xF00 JUMPI PUSH1 0x40 MLOAD PUSH4 0x5274AFE7 PUSH1 0xE0 SHL DUP2 MSTORE PUSH1 0x1 PUSH1 0x1 PUSH1 0xA0 SHL SUB DUP5 AND PUSH1 0x4 DUP3 ADD MSTORE PUSH1 0x24 ADD PUSH2 0x310 JUMP JUMPDEST PUSH2 0xF37 DUP2 CALLER PUSH2 0x1FDA JUMP JUMPDEST PUSH0 PUSH2 0x1C1A DUP4 DUP4 PUSH2 0x1874 JUMP JUMPDEST PUSH2 0x1C97 JUMPI PUSH0 DUP4 DUP2 MSTORE PUSH1 0x20 DUP2 DUP2 MSTORE PUSH1 0x40 DUP1 DUP4 KECCAK256 PUSH1 0x1 PUSH1 0x1 PUSH1 0xA0 SHL SUB DUP7 AND DUP5 MSTORE SWAP1 SWAP2 MSTORE SWAP1 KECCAK256 DUP1 SLOAD PUSH1 0xFF NOT AND PUSH1 0x1 OR SWAP1 SSTORE PUSH2 0x1C4F CALLER SWAP1 JUMP JUMPDEST PUSH1 0x1 PUSH1 0x1 PUSH1 0xA0 SHL SUB AND DUP3 PUSH1 0x1 PUSH1 0x1 PUSH1 0xA0 SHL SUB AND DUP5 PUSH32 0x2F8788117E7EFF1D82E926EC794901D17C78024A50270940304540A733656F0D PUSH1 0x40 MLOAD PUSH1 0x40 MLOAD DUP1 SWAP2 SUB SWAP1 LOG4 POP PUSH1 0x1 PUSH2 0xA56 JUMP JUMPDEST POP PUSH0 PUSH2 0xA56 JUMP JUMPDEST PUSH0 PUSH2 0x1CA9 DUP4 DUP4 PUSH2 0x1874 JUMP JUMPDEST ISZERO PUSH2 0x1C97 JUMPI PUSH0 DUP4 DUP2 MSTORE PUSH1 0x20 DUP2 DUP2 MSTORE PUSH1 0x40 DUP1 DUP4 KECCAK256 PUSH1 0x1 PUSH1 0x1 PUSH1 0xA0 SHL SUB DUP7 AND DUP1 DUP6 MSTORE SWAP3 MSTORE DUP1 DUP4 KECCAK256 DUP1 SLOAD PUSH1 0xFF NOT AND SWAP1 SSTORE MLOAD CALLER SWAP3 DUP7 SWAP2 PUSH32 0xF6391F5C32D9C69D2A47EA670B442974B53935D1EDC7FD64EB21E047A839171B SWAP2 SWAP1 LOG4 POP PUSH1 0x1 PUSH2 0xA56 JUMP JUMPDEST PUSH2 0x1D0F PUSH2 0x2013 JUMP JUMPDEST PUSH1 0x1 DUP1 SLOAD PUSH1 0xFF NOT AND SWAP1 SSTORE PUSH32 0x5DB9EE0A495BF2E6FF9C91A7834C1BA4FDD244A5E8AA4E537BD38AEAE4B073AA CALLER JUMPDEST PUSH1 0x40 MLOAD PUSH1 0x1 PUSH1 0x1 PUSH1 0xA0 SHL SUB SWAP1 SWAP2 AND DUP2 MSTORE PUSH1 0x20 ADD PUSH1 0x40 MLOAD DUP1 SWAP2 SUB SWAP1 LOG1 JUMP JUMPDEST PUSH1 0x1 SLOAD PUSH1 0x1 PUSH1 0x1 PUSH1 0xA0 SHL SUB PUSH2 0x100 SWAP1 SWAP2 DIV AND CALLER EQ PUSH2 0x1092 JUMPI PUSH1 0x40 MLOAD PUSH4 0x118CDAA7 PUSH1 0xE0 SHL DUP2 MSTORE CALLER PUSH1 0x4 DUP3 ADD MSTORE PUSH1 0x24 ADD PUSH2 0x310 JUMP JUMPDEST DUP1 PUSH0 SUB PUSH2 0x1D97 JUMPI POP POP JUMP JUMPDEST PUSH0 DUP3 PUSH1 0x1 PUSH1 0x1 PUSH1 0xA0 SHL SUB AND DUP3 PUSH1 0x40 MLOAD PUSH0 PUSH1 0x40 MLOAD DUP1 DUP4 SUB DUP2 DUP6 DUP8 GAS CALL SWAP3 POP POP POP RETURNDATASIZE DUP1 PUSH0 DUP2 EQ PUSH2 0x1DE0 JUMPI PUSH1 0x40 MLOAD SWAP2 POP PUSH1 0x1F NOT PUSH1 0x3F RETURNDATASIZE ADD AND DUP3 ADD PUSH1 0x40 MSTORE RETURNDATASIZE DUP3 MSTORE RETURNDATASIZE PUSH0 PUSH1 0x20 DUP5 ADD RETURNDATACOPY PUSH2 0x1DE5 JUMP JUMPDEST PUSH1 0x60 SWAP2 POP JUMPDEST POP POP SWAP1 POP DUP1 PUSH2 0xF00 JUMPI PUSH1 0x40 MLOAD PUSH4 0xDB2C7F1 PUSH1 0xE3 SHL DUP2 MSTORE PUSH1 0x4 ADD PUSH1 0x40 MLOAD DUP1 SWAP2 SUB SWAP1 REVERT JUMPDEST PUSH0 PUSH2 0x1B8A DUP4 PUSH1 0x1 PUSH1 0x1 PUSH1 0xA0 SHL SUB DUP5 AND PUSH2 0x2036 JUMP JUMPDEST PUSH1 0x1 DUP1 SLOAD PUSH1 0x1 PUSH1 0x1 PUSH1 0xA0 SHL SUB DUP4 DUP2 AND PUSH2 0x100 DUP2 DUP2 MUL PUSH2 0x100 PUSH1 0x1 PUSH1 0xA8 SHL SUB NOT DUP6 AND OR SWAP1 SWAP5 SSTORE PUSH1 0x40 MLOAD SWAP4 SWAP1 SWAP3 DIV AND SWAP2 DUP3 SWAP1 PUSH32 0x8BE0079C531659141344CD1FD0A4F28419497F9722A3DAAFE3B4186F6B6457E0 SWAP1 PUSH0 SWAP1 LOG3 POP POP JUMP JUMPDEST PUSH0 PUSH2 0x1B8A DUP4 PUSH1 0x1 PUSH1 0x1 PUSH1 0xA0 SHL SUB DUP5 AND PUSH2 0x2120 JUMP JUMPDEST PUSH2 0x1E96 DUP5 DUP5 DUP5 DUP5 PUSH1 0x1 PUSH2 0x2165 JUMP JUMPDEST PUSH2 0xEC7 JUMPI PUSH1 0x40 MLOAD PUSH4 0x5274AFE7 PUSH1 0xE0 SHL DUP2 MSTORE PUSH1 0x1 PUSH1 0x1 PUSH1 0xA0 SHL SUB DUP6 AND PUSH1 0x4 DUP3 ADD MSTORE PUSH1 0x24 ADD PUSH2 0x310 JUMP JUMPDEST PUSH2 0x1EC6 PUSH2 0x1B91 JUMP JUMPDEST PUSH1 0x1 DUP1 SLOAD PUSH1 0xFF NOT AND DUP2 OR SWAP1 SSTORE PUSH32 0x62E78CEA01BEE320CD4E420270B5EA74000D11B0C9F74754EBDBFC544B05A258 CALLER PUSH2 0x1D3C JUMP JUMPDEST PUSH1 0x1 PUSH1 0x1 PUSH1 0xA0 SHL SUB DUP2 AND PUSH0 SWAP1 DUP2 MSTORE PUSH1 0x1 DUP4 ADD PUSH1 0x20 MSTORE PUSH1 0x40 DUP2 KECCAK256 SLOAD ISZERO ISZERO PUSH2 0x1B8A JUMP JUMPDEST PUSH0 PUSH2 0xA56 DUP3 SLOAD SWAP1 JUMP JUMPDEST PUSH0 DUP3 PUSH0 ADD DUP3 DUP2 SLOAD DUP2 LT PUSH2 0x1F38 JUMPI PUSH2 0x1F38 PUSH2 0x23C7 JUMP JUMPDEST SWAP1 PUSH0 MSTORE PUSH1 0x20 PUSH0 KECCAK256 ADD SLOAD SWAP1 POP SWAP3 SWAP2 POP POP JUMP JUMPDEST PUSH0 DUP1 MLOAD PUSH1 0x20 PUSH2 0x24E0 DUP4 CODECOPY DUP2 MLOAD SWAP2 MSTORE SLOAD PUSH1 0x2 SUB PUSH2 0x1092 JUMPI PUSH1 0x40 MLOAD PUSH4 0x3EE5AEB5 PUSH1 0xE0 SHL DUP2 MSTORE PUSH1 0x4 ADD PUSH1 0x40 MLOAD DUP1 SWAP2 SUB SWAP1 REVERT JUMPDEST PUSH1 0x40 MLOAD PUSH4 0xA9059CBB PUSH1 0xE0 SHL PUSH0 DUP2 DUP2 MSTORE PUSH1 0x1 PUSH1 0x1 PUSH1 0xA0 SHL SUB DUP7 AND PUSH1 0x4 MSTORE PUSH1 0x24 DUP6 SWAP1 MSTORE SWAP2 PUSH1 0x20 DUP4 PUSH1 0x44 DUP2 DUP1 DUP12 GAS CALL SWAP3 POP PUSH1 0x1 PUSH0 MLOAD EQ DUP4 AND PUSH2 0x1FCE JUMPI DUP4 DUP4 ISZERO AND ISZERO PUSH2 0x1FC2 JUMPI RETURNDATASIZE PUSH0 DUP3 RETURNDATACOPY RETURNDATASIZE DUP2 REVERT JUMPDEST PUSH0 DUP8 EXTCODESIZE GT RETURNDATASIZE ISZERO AND DUP4 AND SWAP3 POP JUMPDEST PUSH1 0x40 MSTORE POP SWAP5 SWAP4 POP POP POP POP JUMP JUMPDEST PUSH2 0x1FE4 DUP3 DUP3 PUSH2 0x1874 JUMP JUMPDEST PUSH2 0x14C8 JUMPI PUSH1 0x40 MLOAD PUSH4 0xE2517D3F PUSH1 0xE0 SHL DUP2 MSTORE PUSH1 0x1 PUSH1 0x1 PUSH1 0xA0 SHL SUB DUP3 AND PUSH1 0x4 DUP3 ADD MSTORE PUSH1 0x24 DUP2 ADD DUP4 SWAP1 MSTORE PUSH1 0x44 ADD PUSH2 0x310 JUMP JUMPDEST PUSH1 0x1 SLOAD PUSH1 0xFF AND PUSH2 0x1092 JUMPI PUSH1 0x40 MLOAD PUSH4 0x8DFC202B PUSH1 0xE0 SHL DUP2 MSTORE PUSH1 0x4 ADD PUSH1 0x40 MLOAD DUP1 SWAP2 SUB SWAP1 REVERT JUMPDEST PUSH0 DUP2 DUP2 MSTORE PUSH1 0x1 DUP4 ADD PUSH1 0x20 MSTORE PUSH1 0x40 DUP2 KECCAK256 SLOAD DUP1 ISZERO PUSH2 0x2110 JUMPI PUSH0 PUSH2 0x2058 PUSH1 0x1 DUP4 PUSH2 0x2436 JUMP JUMPDEST DUP6 SLOAD SWAP1 SWAP2 POP PUSH0 SWAP1 PUSH2 0x206B SWAP1 PUSH1 0x1 SWAP1 PUSH2 0x2436 JUMP JUMPDEST SWAP1 POP DUP1 DUP3 EQ PUSH2 0x20CA JUMPI PUSH0 DUP7 PUSH0 ADD DUP3 DUP2 SLOAD DUP2 LT PUSH2 0x2089 JUMPI PUSH2 0x2089 PUSH2 0x23C7 JUMP JUMPDEST SWAP1 PUSH0 MSTORE PUSH1 0x20 PUSH0 KECCAK256 ADD SLOAD SWAP1 POP DUP1 DUP8 PUSH0 ADD DUP5 DUP2 SLOAD DUP2 LT PUSH2 0x20A9 JUMPI PUSH2 0x20A9 PUSH2 0x23C7 JUMP JUMPDEST PUSH0 SWAP2 DUP3 MSTORE PUSH1 0x20 DUP1 DUP4 KECCAK256 SWAP1 SWAP2 ADD SWAP3 SWAP1 SWAP3 SSTORE SWAP2 DUP3 MSTORE PUSH1 0x1 DUP9 ADD SWAP1 MSTORE PUSH1 0x40 SWAP1 KECCAK256 DUP4 SWAP1 SSTORE JUMPDEST DUP6 SLOAD DUP7 SWAP1 DUP1 PUSH2 0x20DB JUMPI PUSH2 0x20DB PUSH2 0x24AB JUMP JUMPDEST PUSH1 0x1 SWAP1 SUB DUP2 DUP2 SWAP1 PUSH0 MSTORE PUSH1 0x20 PUSH0 KECCAK256 ADD PUSH0 SWAP1 SSTORE SWAP1 SSTORE DUP6 PUSH1 0x1 ADD PUSH0 DUP7 DUP2 MSTORE PUSH1 0x20 ADD SWAP1 DUP2 MSTORE PUSH1 0x20 ADD PUSH0 KECCAK256 PUSH0 SWAP1 SSTORE PUSH1 0x1 SWAP4 POP POP POP POP PUSH2 0xA56 JUMP JUMPDEST PUSH0 SWAP2 POP POP PUSH2 0xA56 JUMP JUMPDEST POP SWAP3 SWAP2 POP POP JUMP JUMPDEST PUSH0 DUP2 DUP2 MSTORE PUSH1 0x1 DUP4 ADD PUSH1 0x20 MSTORE PUSH1 0x40 DUP2 KECCAK256 SLOAD PUSH2 0x1C97 JUMPI POP DUP2 SLOAD PUSH1 0x1 DUP2 DUP2 ADD DUP5 SSTORE PUSH0 DUP5 DUP2 MSTORE PUSH1 0x20 DUP1 DUP3 KECCAK256 SWAP1 SWAP4 ADD DUP5 SWAP1 SSTORE DUP5 SLOAD DUP5 DUP3 MSTORE DUP3 DUP7 ADD SWAP1 SWAP4 MSTORE PUSH1 0x40 SWAP1 KECCAK256 SWAP2 SWAP1 SWAP2 SSTORE PUSH2 0xA56 JUMP JUMPDEST PUSH1 0x40 MLOAD PUSH4 0x23B872DD PUSH1 0xE0 SHL PUSH0 DUP2 DUP2 MSTORE PUSH1 0x1 PUSH1 0x1 PUSH1 0xA0 SHL SUB DUP8 DUP2 AND PUSH1 0x4 MSTORE DUP7 AND PUSH1 0x24 MSTORE PUSH1 0x44 DUP6 SWAP1 MSTORE SWAP2 PUSH1 0x20 DUP4 PUSH1 0x64 DUP2 DUP1 DUP13 GAS CALL SWAP3 POP PUSH1 0x1 PUSH0 MLOAD EQ DUP4 AND PUSH2 0x21C1 JUMPI DUP4 DUP4 ISZERO AND ISZERO PUSH2 0x21B5 JUMPI RETURNDATASIZE PUSH0 DUP3 RETURNDATACOPY RETURNDATASIZE DUP2 REVERT JUMPDEST PUSH0 DUP9 EXTCODESIZE GT RETURNDATASIZE ISZERO AND DUP4 AND SWAP3 POP JUMPDEST PUSH1 0x40 MSTORE POP PUSH0 PUSH1 0x60 MSTORE SWAP6 SWAP5 POP POP POP POP POP JUMP JUMPDEST PUSH1 0x40 MLOAD DUP1 PUSH1 0xC0 ADD PUSH1 0x40 MSTORE DUP1 PUSH1 0x6 SWAP1 PUSH1 0x20 DUP3 MUL DUP1 CALLDATASIZE DUP4 CALLDATACOPY POP SWAP2 SWAP3 SWAP2 POP POP JUMP JUMPDEST PUSH0 PUSH1 0x20 DUP3 DUP5 SUB SLT ISZERO PUSH2 0x2200 JUMPI PUSH0 DUP1 REVERT JUMPDEST DUP2 CALLDATALOAD PUSH1 0x1 PUSH1 0x1 PUSH1 0xE0 SHL SUB NOT DUP2 AND DUP2 EQ PUSH2 0x1B8A JUMPI PUSH0 DUP1 REVERT JUMPDEST PUSH0 PUSH1 0x20 DUP3 DUP5 SUB SLT ISZERO PUSH2 0x2227 JUMPI PUSH0 DUP1 REVERT JUMPDEST POP CALLDATALOAD SWAP2 SWAP1 POP JUMP JUMPDEST PUSH0 DUP1 DUP4 PUSH1 0x1F DUP5 ADD SLT PUSH2 0x223E JUMPI PUSH0 DUP1 REVERT JUMPDEST POP DUP2 CALLDATALOAD PUSH8 0xFFFFFFFFFFFFFFFF DUP2 GT ISZERO PUSH2 0x2255 JUMPI PUSH0 DUP1 REVERT JUMPDEST PUSH1 0x20 DUP4 ADD SWAP2 POP DUP4 PUSH1 0x20 DUP3 DUP6 ADD ADD GT ISZERO PUSH2 0x226C JUMPI PUSH0 DUP1 REVERT JUMPDEST SWAP3 POP SWAP3 SWAP1 POP JUMP JUMPDEST PUSH1 0x1 PUSH1 0x1 PUSH1 0xA0 SHL SUB DUP2 AND DUP2 EQ PUSH2 0xF37 JUMPI PUSH0 DUP1 REVERT JUMPDEST PUSH0 DUP1 PUSH0 DUP1 PUSH0 DUP1 PUSH0 DUP1 PUSH1 0xE0 DUP10 DUP12 SUB SLT ISZERO PUSH2 0x229E JUMPI PUSH0 DUP1 REVERT JUMPDEST DUP9 CALLDATALOAD PUSH8 0xFFFFFFFFFFFFFFFF DUP2 GT ISZERO PUSH2 0x22B4 JUMPI PUSH0 DUP1 REVERT JUMPDEST PUSH2 0x22C0 DUP12 DUP3 DUP13 ADD PUSH2 0x222E JUMP JUMPDEST SWAP1 SWAP10 POP SWAP8 POP POP PUSH1 0x20 DUP10 ADD CALLDATALOAD SWAP6 POP PUSH1 0x40 DUP10 ADD CALLDATALOAD SWAP5 POP PUSH1 0x60 DUP10 ADD CALLDATALOAD SWAP4 POP PUSH1 0x80 DUP10 ADD CALLDATALOAD PUSH2 0x22E9 DUP2 PUSH2 0x2273 JUMP JUMPDEST SWAP3 POP PUSH1 0xA0 DUP10 ADD CALLDATALOAD PUSH2 0x22F9 DUP2 PUSH2 0x2273 JUMP JUMPDEST DUP1 SWAP3 POP POP PUSH1 0xC0 DUP10 ADD CALLDATALOAD SWAP1 POP SWAP3 SWAP6 SWAP9 POP SWAP3 SWAP6 SWAP9 SWAP1 SWAP4 SWAP7 POP JUMP JUMPDEST PUSH0 DUP1 PUSH1 0x40 DUP4 DUP6 SUB SLT ISZERO PUSH2 0x2322 JUMPI PUSH0 DUP1 REVERT JUMPDEST DUP3 CALLDATALOAD SWAP2 POP PUSH1 0x20 DUP4 ADD CALLDATALOAD PUSH2 0x2334 DUP2 PUSH2 0x2273 JUMP JUMPDEST DUP1 SWAP2 POP POP SWAP3 POP SWAP3 SWAP1 POP JUMP JUMPDEST PUSH0 PUSH1 0x20 DUP3 DUP5 SUB SLT ISZERO PUSH2 0x234F JUMPI PUSH0 DUP1 REVERT JUMPDEST DUP2 CALLDATALOAD PUSH2 0x1B8A DUP2 PUSH2 0x2273 JUMP JUMPDEST PUSH4 0x4E487B71 PUSH1 0xE0 SHL PUSH0 MSTORE PUSH1 0x11 PUSH1 0x4 MSTORE PUSH1 0x24 PUSH0 REVERT JUMPDEST DUP1 DUP3 ADD DUP1 DUP3 GT ISZERO PUSH2 0xA56 JUMPI PUSH2 0xA56 PUSH2 0x235A JUMP JUMPDEST PUSH0 PUSH1 0x20 DUP3 DUP5 SUB SLT ISZERO PUSH2 0x2391 JUMPI PUSH0 DUP1 REVERT JUMPDEST DUP2 MLOAD DUP1 ISZERO ISZERO DUP2 EQ PUSH2 0x1B8A JUMPI PUSH0 DUP1 REVERT JUMPDEST PUSH4 0x4E487B71 PUSH1 0xE0 SHL PUSH0 MSTORE PUSH1 0x12 PUSH1 0x4 MSTORE PUSH1 0x24 PUSH0 REVERT JUMPDEST PUSH0 DUP3 PUSH2 0x23C2 JUMPI PUSH2 0x23C2 PUSH2 0x23A0 JUMP JUMPDEST POP MOD SWAP1 JUMP JUMPDEST PUSH4 0x4E487B71 PUSH1 0xE0 SHL PUSH0 MSTORE PUSH1 0x32 PUSH1 0x4 MSTORE PUSH1 0x24 PUSH0 REVERT JUMPDEST PUSH1 0xE0 DUP2 MSTORE DUP3 PUSH1 0xE0 DUP3 ADD MSTORE PUSH0 PUSH2 0x100 DUP5 DUP7 DUP3 DUP6 ADD CALLDATACOPY PUSH0 DUP2 DUP7 DUP6 ADD ADD MSTORE DUP1 PUSH1 0x1F NOT PUSH1 0x1F DUP8 ADD AND DUP5 ADD ADD SWAP2 POP POP PUSH1 0x20 DUP1 DUP4 ADD DUP5 PUSH0 JUMPDEST PUSH1 0x6 DUP2 LT ISZERO PUSH2 0x242A JUMPI DUP2 MLOAD DUP4 MSTORE SWAP2 DUP4 ADD SWAP2 SWAP1 DUP4 ADD SWAP1 PUSH1 0x1 ADD PUSH2 0x240D JUMP JUMPDEST POP POP POP POP SWAP5 SWAP4 POP POP POP POP JUMP JUMPDEST DUP2 DUP2 SUB DUP2 DUP2 GT ISZERO PUSH2 0xA56 JUMPI PUSH2 0xA56 PUSH2 0x235A JUMP JUMPDEST PUSH4 0xFFFFFFFF DUP2 DUP2 AND DUP4 DUP3 AND ADD SWAP1 DUP1 DUP3 GT ISZERO PUSH2 0x2119 JUMPI PUSH2 0x2119 PUSH2 0x235A JUMP JUMPDEST PUSH0 PUSH4 0xFFFFFFFF DUP1 DUP5 AND DUP1 PUSH2 0x247C JUMPI PUSH2 0x247C PUSH2 0x23A0 JUMP JUMPDEST SWAP3 AND SWAP2 SWAP1 SWAP2 MOD SWAP3 SWAP2 POP POP JUMP JUMPDEST PUSH0 PUSH1 0x20 DUP3 DUP5 SUB SLT ISZERO PUSH2 0x2498 JUMPI PUSH0 DUP1 REVERT JUMPDEST DUP2 MLOAD PUSH4 0xFFFFFFFF DUP2 AND DUP2 EQ PUSH2 0x1B8A JUMPI PUSH0 DUP1 REVERT JUMPDEST PUSH4 0x4E487B71 PUSH1 0xE0 SHL PUSH0 MSTORE PUSH1 0x31 PUSH1 0x4 MSTORE PUSH1 0x24 PUSH0 REVERT INVALID ADDRESS PUSH5 0x4E72E131A0 0x29 0xB8 POP GASLIMIT 0xB6 DUP2 DUP2 PC TSTORE 0x28 CALLER 0xE8 BASEFEE PUSH26 0xB9709143E1F593F00000019B779B17422D0DF92223018B32B4D1 STATICCALL CHAINID 0xE0 PUSH18 0x723D6817E2486D003BECC55F00A264697066 PUSH20 0x58221220558B98B9F76AB8F70D98556BAF04CF0F DUP2 PUSH4 0x4FA24A09 TLOAD 0xC6 LOG3 RETURNDATASIZE 0xD4 SGT 0xD SWAP8 COINBASE 0xE5 PUSH5 0x736F6C6343 STOP ADDMOD XOR STOP CALLER "},"methodIdentifiers":{"ASP_ROLE()":"ef4688f8","ASP_ROOT_HISTORY()":"020462f3","COMPLIANCE_ROLE()":"062d3bd7","DEFAULT_ADMIN_ROLE()":"a217fddf","ETH_DENOMINATION()":"4e6add93","PAUSER_ROLE()":"e63ab1e9","PROTOCOL_WITHDRAW_FEE_ETH()":"e8144c86","PROTOCOL_WITHDRAW_FEE_USDT()":"594e41f1","SNARK_SCALAR_FIELD()":"25c2cd12","USDT_DENOMINATION()":"9f840c7b","accumulatedProtocolFeesEth()":"d886bee8","accumulatedProtocolFeesUsdt()":"85ff527b","addSanctioned(address)":"80b437b1","aspRootIndex()":"b7cf5825","aspRoots(uint256)":"d407c695","deposit(bytes32)":"b214faa5","depositAmountRequired()":"58f786ed","depositUsdt(bytes32)":"82738c82","ethCommitments(bytes32)":"6d0430eb","ethNullifierHashes(bytes32)":"9a54149e","ethStateTree()":"8f1846dd","getRoleAdmin(bytes32)":"248a9ca3","grantRole(bytes32,address)":"2f2ff15d","hasRole(bytes32,address)":"91d14854","isKnownAspRoot(bytes32)":"f184205f","isSanctioned(address)":"df592f7d","knownAspRoot(bytes32)":"8b61d736","localSanctionedAt(uint256)":"0280ae8a","localSanctionedLength()":"e9dd3018","owner()":"8da5cb5b","pause()":"8456cb59","paused()":"5c975abb","publishAspRoot(bytes32)":"55d168da","removeSanctioned(address)":"4ea91771","renounceOwnership()":"715018a6","renounceRole(bytes32,address)":"36568abe","revokeRole(bytes32,address)":"d547741f","sanctionsOracle()":"b3df4df9","supportsInterface(bytes4)":"01ffc9a7","transferOwnership(address)":"f2fde38b","unpause()":"3f4ba83a","usdt()":"2f48ab7d","usdtCommitments(bytes32)":"db61d8c1","usdtDepositAmountRequired()":"eee01850","usdtNullifierHashes(bytes32)":"ca6e6bc1","usdtStateTree()":"037a3900","verifier()":"2b7ac3f3","withdraw(bytes,bytes32,bytes32,bytes32,address,address,uint256)":"4b01d5dc","withdrawFees()":"476343ee","withdrawUsdt(bytes,bytes32,bytes32,bytes32,address,address,uint256)":"17b0a325"}}}}}