{"project/contracts/Groth16VerifierAdapter.sol":{"Groth16VerifierAdapter":{"abi":[{"inputs":[{"internalType":"contract Groth16Verifier","name":"_groth16","type":"address"}],"stateMutability":"nonpayable","type":"constructor"},{"inputs":[],"name":"groth16","outputs":[{"internalType":"contract Groth16Verifier","name":"","type":"address"}],"stateMutability":"view","type":"function"},{"inputs":[{"internalType":"bytes","name":"proof","type":"bytes"},{"internalType":"uint256[6]","name":"publicInputs","type":"uint256[6]"}],"name":"verifyProof","outputs":[{"internalType":"bool","name":"","type":"bool"}],"stateMutability":"view","type":"function"}],"evm":{"bytecode":{"linkReferences":{},"object":"60a060405234801561000f575f80fd5b5060405161046f38038061046f83398101604081905261002e9161003f565b6001600160a01b031660805261006c565b5f6020828403121561004f575f80fd5b81516001600160a01b0381168114610065575f80fd5b9392505050565b6080516103e66100895f395f8181603d015260b701526103e65ff3fe608060405234801561000f575f80fd5b5060043610610034575f3560e01c8063502f13ab14610038578063695ef6f91461007c575b5f80fd5b61005f7f000000000000000000000000000000000000000000000000000000000000000081565b6040516001600160a01b0390911681526020015b60405180910390f35b61008f61008a366004610151565b61009f565b6040519015158152602001610073565b5f8080806100af86880188610256565b9250925092507f00000000000000000000000000000000000000000000000000000000000000006001600160a01b031663f398789b848484896040518563ffffffff1660e01b81526004016101079493929190610307565b602060405180830381865afa158015610122573d5f803e3d5ffd5b505050506040513d601f19601f82011682018060405250810190610146919061038a565b979650505050505050565b5f805f60e08486031215610163575f80fd5b833567ffffffffffffffff8082111561017a575f80fd5b818601915086601f83011261018d575f80fd5b81358181111561019b575f80fd5b8760208285010111156101ac575f80fd5b6020830195508094505050508460e0850111156101c7575f80fd5b6020840190509250925092565b6040805190810167ffffffffffffffff8111828210171561020357634e487b7160e01b5f52604160045260245ffd5b60405290565b5f82601f830112610218575f80fd5b6102206101d4565b806040840185811115610231575f80fd5b845b8181101561024b578035845260209384019301610233565b509095945050505050565b5f805f6101008486031215610269575f80fd5b6102738585610209565b9250604085605f860112610285575f80fd5b61028d6101d4565b8060c087018881111561029e575f80fd5b604088015b818110156102c4576102b58a82610209565b845260209093019284016102a3565b508195506102d28982610209565b9450505050509250925092565b805f5b60028110156103015781518452602093840193909101906001016102e2565b50505050565b6101c0810161031682876102df565b6040808301865f5b600280821061032d5750610367565b8251845f5b83811015610350578251825260209283019290910190600101610332565b50505092840192506020919091019060010161031e565b5050505061037860c08301856102df565b60c08361010084013795945050505050565b5f6020828403121561039a575f80fd5b815180151581146103a9575f80fd5b939250505056fea264697066735822122046938f9f86c0bbf786a9c24f66cdb23b35243c37c2a6e5a4e271cfd0cb00814664736f6c63430008180033","opcodes":"PUSH1 0xA0 PUSH1 0x40 MSTORE CALLVALUE DUP1 ISZERO PUSH2 0xF JUMPI PUSH0 DUP1 REVERT JUMPDEST POP PUSH1 0x40 MLOAD PUSH2 0x46F CODESIZE SUB DUP1 PUSH2 0x46F DUP4 CODECOPY DUP2 ADD PUSH1 0x40 DUP2 SWAP1 MSTORE PUSH2 0x2E SWAP2 PUSH2 0x3F JUMP JUMPDEST PUSH1 0x1 PUSH1 0x1 PUSH1 0xA0 SHL SUB AND PUSH1 0x80 MSTORE PUSH2 0x6C JUMP JUMPDEST PUSH0 PUSH1 0x20 DUP3 DUP5 SUB SLT ISZERO PUSH2 0x4F JUMPI PUSH0 DUP1 REVERT JUMPDEST DUP2 MLOAD PUSH1 0x1 PUSH1 0x1 PUSH1 0xA0 SHL SUB DUP2 AND DUP2 EQ PUSH2 0x65 JUMPI PUSH0 DUP1 REVERT JUMPDEST SWAP4 SWAP3 POP POP POP JUMP JUMPDEST PUSH1 0x80 MLOAD PUSH2 0x3E6 PUSH2 0x89 PUSH0 CODECOPY PUSH0 DUP2 DUP2 PUSH1 0x3D ADD MSTORE PUSH1 0xB7 ADD MSTORE PUSH2 0x3E6 PUSH0 RETURN INVALID PUSH1 0x80 PUSH1 0x40 MSTORE CALLVALUE DUP1 ISZERO PUSH2 0xF JUMPI PUSH0 DUP1 REVERT JUMPDEST POP PUSH1 0x4 CALLDATASIZE LT PUSH2 0x34 JUMPI PUSH0 CALLDATALOAD PUSH1 0xE0 SHR DUP1 PUSH4 0x502F13AB EQ PUSH2 0x38 JUMPI DUP1 PUSH4 0x695EF6F9 EQ PUSH2 0x7C JUMPI JUMPDEST PUSH0 DUP1 REVERT JUMPDEST PUSH2 0x5F PUSH32 0x0 DUP2 JUMP JUMPDEST PUSH1 0x40 MLOAD PUSH1 0x1 PUSH1 0x1 PUSH1 0xA0 SHL SUB SWAP1 SWAP2 AND DUP2 MSTORE PUSH1 0x20 ADD JUMPDEST PUSH1 0x40 MLOAD DUP1 SWAP2 SUB SWAP1 RETURN JUMPDEST PUSH2 0x8F PUSH2 0x8A CALLDATASIZE PUSH1 0x4 PUSH2 0x151 JUMP JUMPDEST PUSH2 0x9F JUMP JUMPDEST PUSH1 0x40 MLOAD SWAP1 ISZERO ISZERO DUP2 MSTORE PUSH1 0x20 ADD PUSH2 0x73 JUMP JUMPDEST PUSH0 DUP1 DUP1 DUP1 PUSH2 0xAF DUP7 DUP9 ADD DUP9 PUSH2 0x256 JUMP JUMPDEST SWAP3 POP SWAP3 POP SWAP3 POP PUSH32 0x0 PUSH1 0x1 PUSH1 0x1 PUSH1 0xA0 SHL SUB AND PUSH4 0xF398789B DUP5 DUP5 DUP5 DUP10 PUSH1 0x40 MLOAD DUP6 PUSH4 0xFFFFFFFF AND PUSH1 0xE0 SHL DUP2 MSTORE PUSH1 0x4 ADD PUSH2 0x107 SWAP5 SWAP4 SWAP3 SWAP2 SWAP1 PUSH2 0x307 JUMP JUMPDEST PUSH1 0x20 PUSH1 0x40 MLOAD DUP1 DUP4 SUB DUP2 DUP7 GAS STATICCALL ISZERO DUP1 ISZERO PUSH2 0x122 JUMPI RETURNDATASIZE PUSH0 DUP1 RETURNDATACOPY RETURNDATASIZE PUSH0 REVERT JUMPDEST POP POP POP POP PUSH1 0x40 MLOAD RETURNDATASIZE PUSH1 0x1F NOT PUSH1 0x1F DUP3 ADD AND DUP3 ADD DUP1 PUSH1 0x40 MSTORE POP DUP2 ADD SWAP1 PUSH2 0x146 SWAP2 SWAP1 PUSH2 0x38A JUMP JUMPDEST SWAP8 SWAP7 POP POP POP POP POP POP POP JUMP JUMPDEST PUSH0 DUP1 PUSH0 PUSH1 0xE0 DUP5 DUP7 SUB SLT ISZERO PUSH2 0x163 JUMPI PUSH0 DUP1 REVERT JUMPDEST DUP4 CALLDATALOAD PUSH8 0xFFFFFFFFFFFFFFFF DUP1 DUP3 GT ISZERO PUSH2 0x17A JUMPI PUSH0 DUP1 REVERT JUMPDEST DUP2 DUP7 ADD SWAP2 POP DUP7 PUSH1 0x1F DUP4 ADD SLT PUSH2 0x18D JUMPI PUSH0 DUP1 REVERT JUMPDEST DUP2 CALLDATALOAD DUP2 DUP2 GT ISZERO PUSH2 0x19B JUMPI PUSH0 DUP1 REVERT JUMPDEST DUP8 PUSH1 0x20 DUP3 DUP6 ADD ADD GT ISZERO PUSH2 0x1AC JUMPI PUSH0 DUP1 REVERT JUMPDEST PUSH1 0x20 DUP4 ADD SWAP6 POP DUP1 SWAP5 POP POP POP POP DUP5 PUSH1 0xE0 DUP6 ADD GT ISZERO PUSH2 0x1C7 JUMPI PUSH0 DUP1 REVERT JUMPDEST PUSH1 0x20 DUP5 ADD SWAP1 POP SWAP3 POP SWAP3 POP SWAP3 JUMP JUMPDEST PUSH1 0x40 DUP1 MLOAD SWAP1 DUP2 ADD PUSH8 0xFFFFFFFFFFFFFFFF DUP2 GT DUP3 DUP3 LT OR ISZERO PUSH2 0x203 JUMPI PUSH4 0x4E487B71 PUSH1 0xE0 SHL PUSH0 MSTORE PUSH1 0x41 PUSH1 0x4 MSTORE PUSH1 0x24 PUSH0 REVERT JUMPDEST PUSH1 0x40 MSTORE SWAP1 JUMP JUMPDEST PUSH0 DUP3 PUSH1 0x1F DUP4 ADD SLT PUSH2 0x218 JUMPI PUSH0 DUP1 REVERT JUMPDEST PUSH2 0x220 PUSH2 0x1D4 JUMP JUMPDEST DUP1 PUSH1 0x40 DUP5 ADD DUP6 DUP2 GT ISZERO PUSH2 0x231 JUMPI PUSH0 DUP1 REVERT JUMPDEST DUP5 JUMPDEST DUP2 DUP2 LT ISZERO PUSH2 0x24B JUMPI DUP1 CALLDATALOAD DUP5 MSTORE PUSH1 0x20 SWAP4 DUP5 ADD SWAP4 ADD PUSH2 0x233 JUMP JUMPDEST POP SWAP1 SWAP6 SWAP5 POP POP POP POP POP JUMP JUMPDEST PUSH0 DUP1 PUSH0 PUSH2 0x100 DUP5 DUP7 SUB SLT ISZERO PUSH2 0x269 JUMPI PUSH0 DUP1 REVERT JUMPDEST PUSH2 0x273 DUP6 DUP6 PUSH2 0x209 JUMP JUMPDEST SWAP3 POP PUSH1 0x40 DUP6 PUSH1 0x5F DUP7 ADD SLT PUSH2 0x285 JUMPI PUSH0 DUP1 REVERT JUMPDEST PUSH2 0x28D PUSH2 0x1D4 JUMP JUMPDEST DUP1 PUSH1 0xC0 DUP8 ADD DUP9 DUP2 GT ISZERO PUSH2 0x29E JUMPI PUSH0 DUP1 REVERT JUMPDEST PUSH1 0x40 DUP9 ADD JUMPDEST DUP2 DUP2 LT ISZERO PUSH2 0x2C4 JUMPI PUSH2 0x2B5 DUP11 DUP3 PUSH2 0x209 JUMP JUMPDEST DUP5 MSTORE PUSH1 0x20 SWAP1 SWAP4 ADD SWAP3 DUP5 ADD PUSH2 0x2A3 JUMP JUMPDEST POP DUP2 SWAP6 POP PUSH2 0x2D2 DUP10 DUP3 PUSH2 0x209 JUMP JUMPDEST SWAP5 POP POP POP POP POP SWAP3 POP SWAP3 POP SWAP3 JUMP JUMPDEST DUP1 PUSH0 JUMPDEST PUSH1 0x2 DUP2 LT ISZERO PUSH2 0x301 JUMPI DUP2 MLOAD DUP5 MSTORE PUSH1 0x20 SWAP4 DUP5 ADD SWAP4 SWAP1 SWAP2 ADD SWAP1 PUSH1 0x1 ADD PUSH2 0x2E2 JUMP JUMPDEST POP POP POP POP JUMP JUMPDEST PUSH2 0x1C0 DUP2 ADD PUSH2 0x316 DUP3 DUP8 PUSH2 0x2DF JUMP JUMPDEST PUSH1 0x40 DUP1 DUP4 ADD DUP7 PUSH0 JUMPDEST PUSH1 0x2 DUP1 DUP3 LT PUSH2 0x32D JUMPI POP PUSH2 0x367 JUMP JUMPDEST DUP3 MLOAD DUP5 PUSH0 JUMPDEST DUP4 DUP2 LT ISZERO PUSH2 0x350 JUMPI DUP3 MLOAD DUP3 MSTORE PUSH1 0x20 SWAP3 DUP4 ADD SWAP3 SWAP1 SWAP2 ADD SWAP1 PUSH1 0x1 ADD PUSH2 0x332 JUMP JUMPDEST POP POP POP SWAP3 DUP5 ADD SWAP3 POP PUSH1 0x20 SWAP2 SWAP1 SWAP2 ADD SWAP1 PUSH1 0x1 ADD PUSH2 0x31E JUMP JUMPDEST POP POP POP POP PUSH2 0x378 PUSH1 0xC0 DUP4 ADD DUP6 PUSH2 0x2DF JUMP JUMPDEST PUSH1 0xC0 DUP4 PUSH2 0x100 DUP5 ADD CALLDATACOPY SWAP6 SWAP5 POP POP POP POP POP JUMP JUMPDEST PUSH0 PUSH1 0x20 DUP3 DUP5 SUB SLT ISZERO PUSH2 0x39A JUMPI PUSH0 DUP1 REVERT JUMPDEST DUP2 MLOAD DUP1 ISZERO ISZERO DUP2 EQ PUSH2 0x3A9 JUMPI PUSH0 DUP1 REVERT JUMPDEST SWAP4 SWAP3 POP POP POP JUMP INVALID LOG2 PUSH5 0x6970667358 0x22 SLT KECCAK256 CHAINID SWAP4 DUP16 SWAP16 DUP7 0xC0 0xBB 0xF7 DUP7 0xA9 0xC2 0x4F PUSH7 0xCDB23B35243C37 0xC2 0xA6 0xE5 LOG4 0xE2 PUSH18 0xCFD0CB00814664736F6C6343000818003300 "},"methodIdentifiers":{"groth16()":"502f13ab","verifyProof(bytes,uint256[6])":"695ef6f9"}}}}}