{"project/contracts/Groth16VerifierGenerated.sol":{"Groth16Verifier":{"abi":[{"inputs":[{"internalType":"uint256[2]","name":"_pA","type":"uint256[2]"},{"internalType":"uint256[2][2]","name":"_pB","type":"uint256[2][2]"},{"internalType":"uint256[2]","name":"_pC","type":"uint256[2]"},{"internalType":"uint256[6]","name":"_pubSignals","type":"uint256[6]"}],"name":"verifyProof","outputs":[{"internalType":"bool","name":"","type":"bool"}],"stateMutability":"view","type":"function"}],"evm":{"bytecode":{"linkReferences":{},"object":"608060405234801561000f575f80fd5b506107188061001d5f395ff3fe608060405234801561000f575f80fd5b5060043610610029575f3560e01c8063f398789b1461002d575b5f80fd5b61004061003b366004610681565b610054565b604051901515815260200160405180910390f35b5f6105fc565b7f30644e72e131a029b85045b68181585d2833e84879b9709143e1f593f00000018110610089575f805260205ff35b50565b5f60405183815284602082015285604082015260408160608360076107d05a03fa9150816100bc575f805260205ff35b825160408201526020830151606082015260408360808360066107d05a03fa915050806100eb575f805260205ff35b5050505050565b7f1899c51d5fc0e8fddeb8c1ba9703a3fcd22e3a9dd469223807170eff2195869c85527f160bc43442a64c94b2f59f8be8cefc495eb91ff6dcf0274e96c3d248a0f15dbb60208601525f608086018661018e87357f0fc9896641d088fa44d8d477ce5f17e5ea2bc5c4c72e6e268b3ddea0315bd11e7f1daeea127f2687868ffb65e17d4eb9170fd89ce14db88bef098175fdb83aeb6d8461008c565b6101de60208801357f0db515910f452516f1ca4597a1e6d780b1963ae3f348ae8be0b0432e2083a46d7f10baef401091a3dff3190d7cc9d5c12b443402b28e0840c4972e67ca96067e868461008c565b61022e60408801357f0ac8e4e53670c2a9d67069d41952dd78240d139e246bd8b8ed21073b39d8decd7f288eb9708fd6ab7565a221c9f95c35cb0e07377d99d9e1cc03c8d25367df35238461008c565b61027e60608801357f148b1f9837d0c68f0ea174ef8e13ff8f8afa88829112b4b8738cf540bc49b6017f2c9d28518e8791e607b23e49df7bce9f6409d1d99803b54be06a26d8b5eebc9c8461008c565b6102ce60808801357f152a4d8369f3827cbfd2e415b112aec3edc3e52d253f6c6739755dbd266d2d167f01877598b6b091938c3e5aee4cc2856aab376a7295f503f28efb7faa57446f8c8461008c565b61031e60a08801357f2b80ee3f2b621d9f2ba2fc8f1ad0d61a3bae227042227f1660f954c5ac4a5e947f1ffd8bfd3218eda86bf919f1b03d33763a9e0c18c267cc2d07c237b5f1d6b58c8461008c565b50823581527f30644e72e131a029b85045b68181585d97816a916871ca8d3c208c16d87cfd4760208401357f30644e72e131a029b85045b68181585d97816a916871ca8d3c208c16d87cfd4703066020820152833560408201526020840135606082015260408401356080820152606084013560a08201527f18dce10d4ca39577b30df5a765b71fd9fec20b1570041a4d09f459b9928dc22960c08201527f2251160ca3bedaa575eaa0d38e8a5580fca0a19e2072b37084c4eaac7c23f40860e08201527f2e053742e4dbaa1305f876264c15353c83363db3632b6fd8456e5780537cc5546101008201527f233dc886af53b9cd55db399f87d0d8882ac072f673fab2ff9d229515f574a09f6101208201527f1f83fc4b02a08e65af1574911b1f150115de1b1adf209e9becf8c57d28d68e316101408201527f2447b82bd6d22d0f28153564d91dd055dd41a6450e06452ad19374536479a5836101608201525f87015161018082015260205f018701516101a08201527f198e9393920d483a7260bfb731fb5d25f1aa493335a9e71297e485b7aef312c26101c08201527f1800deef121f1e76426a00665e5c4479674322d4f75edadd46debd5cd992f6ed6101e08201527f090689d0585ff075ec9e99ad690c3395bc4b313370b38ef355acdadcd122975b6102008201527f12c85ea5db8c6deb4aab71808dcb408fe3d1e7690c43d37b4ce6cc0166fa7daa610220820152843561024082015260208501356102608201527f171799b8510fc7084ba7de70e4c9cd34e9c9e755ac2370b1456528dfb82fc3836102808201527f1296b2df765f0b5af6a0b613f5457d5af3595ed9177401c4b4e0fdb5451881646102a08201527f0fbba144ec1b294d194caa8f69e602d397d097f08f5b8274d0521f2705e92d3f6102c08201527f10d49cb66c3964cbc0432360c032595527e7cae739de8a7ed54532e5ae42a0e66102e08201526020816103008360086107d05a03fa9051169695505050505050565b60405161038081016040526106135f84013561005a565b610620602084013561005a565b61062d604084013561005a565b61063a606084013561005a565b610647608084013561005a565b61065460a084013561005a565b610661818486888a6100f2565b9050805f5260205ff35b806040810183101561067b575f80fd5b92915050565b5f805f806101c0808688031215610696575f80fd5b6106a0878761066b565b945060c08601878111156106b2575f80fd5b6040870194506106c2888261066b565b9350508681870111156106d3575f80fd5b5092959194509261010001915056fea2646970667358221220af4209c8b8a770ad0963e7bbbd72c1ec4a708b511e4b5da2df4bc337da9f89e064736f6c63430008180033","opcodes":"PUSH1 0x80 PUSH1 0x40 MSTORE CALLVALUE DUP1 ISZERO PUSH2 0xF JUMPI PUSH0 DUP1 REVERT JUMPDEST POP PUSH2 0x718 DUP1 PUSH2 0x1D PUSH0 CODECOPY PUSH0 RETURN INVALID PUSH1 0x80 PUSH1 0x40 MSTORE CALLVALUE DUP1 ISZERO PUSH2 0xF JUMPI PUSH0 DUP1 REVERT JUMPDEST POP PUSH1 0x4 CALLDATASIZE LT PUSH2 0x29 JUMPI PUSH0 CALLDATALOAD PUSH1 0xE0 SHR DUP1 PUSH4 0xF398789B EQ PUSH2 0x2D JUMPI JUMPDEST PUSH0 DUP1 REVERT JUMPDEST PUSH2 0x40 PUSH2 0x3B CALLDATASIZE PUSH1 0x4 PUSH2 0x681 JUMP JUMPDEST PUSH2 0x54 JUMP JUMPDEST PUSH1 0x40 MLOAD SWAP1 ISZERO ISZERO DUP2 MSTORE PUSH1 0x20 ADD PUSH1 0x40 MLOAD DUP1 SWAP2 SUB SWAP1 RETURN JUMPDEST PUSH0 PUSH2 0x5FC JUMP JUMPDEST PUSH32 0x30644E72E131A029B85045B68181585D2833E84879B9709143E1F593F0000001 DUP2 LT PUSH2 0x89 JUMPI PUSH0 DUP1 MSTORE PUSH1 0x20 PUSH0 RETURN JUMPDEST POP JUMP JUMPDEST PUSH0 PUSH1 0x40 MLOAD DUP4 DUP2 MSTORE DUP5 PUSH1 0x20 DUP3 ADD MSTORE DUP6 PUSH1 0x40 DUP3 ADD MSTORE PUSH1 0x40 DUP2 PUSH1 0x60 DUP4 PUSH1 0x7 PUSH2 0x7D0 GAS SUB STATICCALL SWAP2 POP DUP2 PUSH2 0xBC JUMPI PUSH0 DUP1 MSTORE PUSH1 0x20 PUSH0 RETURN JUMPDEST DUP3 MLOAD PUSH1 0x40 DUP3 ADD MSTORE PUSH1 0x20 DUP4 ADD MLOAD PUSH1 0x60 DUP3 ADD MSTORE PUSH1 0x40 DUP4 PUSH1 0x80 DUP4 PUSH1 0x6 PUSH2 0x7D0 GAS SUB STATICCALL SWAP2 POP POP DUP1 PUSH2 0xEB JUMPI PUSH0 DUP1 MSTORE PUSH1 0x20 PUSH0 RETURN JUMPDEST POP POP POP POP POP JUMP JUMPDEST PUSH32 0x1899C51D5FC0E8FDDEB8C1BA9703A3FCD22E3A9DD469223807170EFF2195869C DUP6 MSTORE PUSH32 0x160BC43442A64C94B2F59F8BE8CEFC495EB91FF6DCF0274E96C3D248A0F15DBB PUSH1 0x20 DUP7 ADD MSTORE PUSH0 PUSH1 0x80 DUP7 ADD DUP7 PUSH2 0x18E DUP8 CALLDATALOAD PUSH32 0xFC9896641D088FA44D8D477CE5F17E5EA2BC5C4C72E6E268B3DDEA0315BD11E PUSH32 0x1DAEEA127F2687868FFB65E17D4EB9170FD89CE14DB88BEF098175FDB83AEB6D DUP5 PUSH2 0x8C JUMP JUMPDEST PUSH2 0x1DE PUSH1 0x20 DUP9 ADD CALLDATALOAD PUSH32 0xDB515910F452516F1CA4597A1E6D780B1963AE3F348AE8BE0B0432E2083A46D PUSH32 0x10BAEF401091A3DFF3190D7CC9D5C12B443402B28E0840C4972E67CA96067E86 DUP5 PUSH2 0x8C JUMP JUMPDEST PUSH2 0x22E PUSH1 0x40 DUP9 ADD CALLDATALOAD PUSH32 0xAC8E4E53670C2A9D67069D41952DD78240D139E246BD8B8ED21073B39D8DECD PUSH32 0x288EB9708FD6AB7565A221C9F95C35CB0E07377D99D9E1CC03C8D25367DF3523 DUP5 PUSH2 0x8C JUMP JUMPDEST PUSH2 0x27E PUSH1 0x60 DUP9 ADD CALLDATALOAD PUSH32 0x148B1F9837D0C68F0EA174EF8E13FF8F8AFA88829112B4B8738CF540BC49B601 PUSH32 0x2C9D28518E8791E607B23E49DF7BCE9F6409D1D99803B54BE06A26D8B5EEBC9C DUP5 PUSH2 0x8C JUMP JUMPDEST PUSH2 0x2CE PUSH1 0x80 DUP9 ADD CALLDATALOAD PUSH32 0x152A4D8369F3827CBFD2E415B112AEC3EDC3E52D253F6C6739755DBD266D2D16 PUSH32 0x1877598B6B091938C3E5AEE4CC2856AAB376A7295F503F28EFB7FAA57446F8C DUP5 PUSH2 0x8C JUMP JUMPDEST PUSH2 0x31E PUSH1 0xA0 DUP9 ADD CALLDATALOAD PUSH32 0x2B80EE3F2B621D9F2BA2FC8F1AD0D61A3BAE227042227F1660F954C5AC4A5E94 PUSH32 0x1FFD8BFD3218EDA86BF919F1B03D33763A9E0C18C267CC2D07C237B5F1D6B58C DUP5 PUSH2 0x8C JUMP JUMPDEST POP DUP3 CALLDATALOAD DUP2 MSTORE PUSH32 0x30644E72E131A029B85045B68181585D97816A916871CA8D3C208C16D87CFD47 PUSH1 0x20 DUP5 ADD CALLDATALOAD PUSH32 0x30644E72E131A029B85045B68181585D97816A916871CA8D3C208C16D87CFD47 SUB MOD PUSH1 0x20 DUP3 ADD MSTORE DUP4 CALLDATALOAD PUSH1 0x40 DUP3 ADD MSTORE PUSH1 0x20 DUP5 ADD CALLDATALOAD PUSH1 0x60 DUP3 ADD MSTORE PUSH1 0x40 DUP5 ADD CALLDATALOAD PUSH1 0x80 DUP3 ADD MSTORE PUSH1 0x60 DUP5 ADD CALLDATALOAD PUSH1 0xA0 DUP3 ADD MSTORE PUSH32 0x18DCE10D4CA39577B30DF5A765B71FD9FEC20B1570041A4D09F459B9928DC229 PUSH1 0xC0 DUP3 ADD MSTORE PUSH32 0x2251160CA3BEDAA575EAA0D38E8A5580FCA0A19E2072B37084C4EAAC7C23F408 PUSH1 0xE0 DUP3 ADD MSTORE PUSH32 0x2E053742E4DBAA1305F876264C15353C83363DB3632B6FD8456E5780537CC554 PUSH2 0x100 DUP3 ADD MSTORE PUSH32 0x233DC886AF53B9CD55DB399F87D0D8882AC072F673FAB2FF9D229515F574A09F PUSH2 0x120 DUP3 ADD MSTORE PUSH32 0x1F83FC4B02A08E65AF1574911B1F150115DE1B1ADF209E9BECF8C57D28D68E31 PUSH2 0x140 DUP3 ADD MSTORE PUSH32 0x2447B82BD6D22D0F28153564D91DD055DD41A6450E06452AD19374536479A583 PUSH2 0x160 DUP3 ADD MSTORE PUSH0 DUP8 ADD MLOAD PUSH2 0x180 DUP3 ADD MSTORE PUSH1 0x20 PUSH0 ADD DUP8 ADD MLOAD PUSH2 0x1A0 DUP3 ADD MSTORE PUSH32 0x198E9393920D483A7260BFB731FB5D25F1AA493335A9E71297E485B7AEF312C2 PUSH2 0x1C0 DUP3 ADD MSTORE PUSH32 0x1800DEEF121F1E76426A00665E5C4479674322D4F75EDADD46DEBD5CD992F6ED PUSH2 0x1E0 DUP3 ADD MSTORE PUSH32 0x90689D0585FF075EC9E99AD690C3395BC4B313370B38EF355ACDADCD122975B PUSH2 0x200 DUP3 ADD MSTORE PUSH32 0x12C85EA5DB8C6DEB4AAB71808DCB408FE3D1E7690C43D37B4CE6CC0166FA7DAA PUSH2 0x220 DUP3 ADD MSTORE DUP5 CALLDATALOAD PUSH2 0x240 DUP3 ADD MSTORE PUSH1 0x20 DUP6 ADD CALLDATALOAD PUSH2 0x260 DUP3 ADD MSTORE PUSH32 0x171799B8510FC7084BA7DE70E4C9CD34E9C9E755AC2370B1456528DFB82FC383 PUSH2 0x280 DUP3 ADD MSTORE PUSH32 0x1296B2DF765F0B5AF6A0B613F5457D5AF3595ED9177401C4B4E0FDB545188164 PUSH2 0x2A0 DUP3 ADD MSTORE PUSH32 0xFBBA144EC1B294D194CAA8F69E602D397D097F08F5B8274D0521F2705E92D3F PUSH2 0x2C0 DUP3 ADD MSTORE PUSH32 0x10D49CB66C3964CBC0432360C032595527E7CAE739DE8A7ED54532E5AE42A0E6 PUSH2 0x2E0 DUP3 ADD MSTORE PUSH1 0x20 DUP2 PUSH2 0x300 DUP4 PUSH1 0x8 PUSH2 0x7D0 GAS SUB STATICCALL SWAP1 MLOAD AND SWAP7 SWAP6 POP POP POP POP POP POP JUMP JUMPDEST PUSH1 0x40 MLOAD PUSH2 0x380 DUP2 ADD PUSH1 0x40 MSTORE PUSH2 0x613 PUSH0 DUP5 ADD CALLDATALOAD PUSH2 0x5A JUMP JUMPDEST PUSH2 0x620 PUSH1 0x20 DUP5 ADD CALLDATALOAD PUSH2 0x5A JUMP JUMPDEST PUSH2 0x62D PUSH1 0x40 DUP5 ADD CALLDATALOAD PUSH2 0x5A JUMP JUMPDEST PUSH2 0x63A PUSH1 0x60 DUP5 ADD CALLDATALOAD PUSH2 0x5A JUMP JUMPDEST PUSH2 0x647 PUSH1 0x80 DUP5 ADD CALLDATALOAD PUSH2 0x5A JUMP JUMPDEST PUSH2 0x654 PUSH1 0xA0 DUP5 ADD CALLDATALOAD PUSH2 0x5A JUMP JUMPDEST PUSH2 0x661 DUP2 DUP5 DUP7 DUP9 DUP11 PUSH2 0xF2 JUMP JUMPDEST SWAP1 POP DUP1 PUSH0 MSTORE PUSH1 0x20 PUSH0 RETURN JUMPDEST DUP1 PUSH1 0x40 DUP2 ADD DUP4 LT ISZERO PUSH2 0x67B JUMPI PUSH0 DUP1 REVERT JUMPDEST SWAP3 SWAP2 POP POP JUMP JUMPDEST PUSH0 DUP1 PUSH0 DUP1 PUSH2 0x1C0 DUP1 DUP7 DUP9 SUB SLT ISZERO PUSH2 0x696 JUMPI PUSH0 DUP1 REVERT JUMPDEST PUSH2 0x6A0 DUP8 DUP8 PUSH2 0x66B JUMP JUMPDEST SWAP5 POP PUSH1 0xC0 DUP7 ADD DUP8 DUP2 GT ISZERO PUSH2 0x6B2 JUMPI PUSH0 DUP1 REVERT JUMPDEST PUSH1 0x40 DUP8 ADD SWAP5 POP PUSH2 0x6C2 DUP9 DUP3 PUSH2 0x66B JUMP JUMPDEST SWAP4 POP POP DUP7 DUP2 DUP8 ADD GT ISZERO PUSH2 0x6D3 JUMPI PUSH0 DUP1 REVERT JUMPDEST POP SWAP3 SWAP6 SWAP2 SWAP5 POP SWAP3 PUSH2 0x100 ADD SWAP2 POP JUMP INVALID LOG2 PUSH5 0x6970667358 0x22 SLT KECCAK256 0xAF TIMESTAMP MULMOD 0xC8 0xB8 0xA7 PUSH17 0xAD0963E7BBBD72C1EC4A708B511E4B5DA2 0xDF 0x4B 0xC3 CALLDATACOPY 0xDA SWAP16 DUP10 0xE0 PUSH5 0x736F6C6343 STOP ADDMOD XOR STOP CALLER "},"methodIdentifiers":{"verifyProof(uint256[2],uint256[2][2],uint256[2],uint256[6])":"f398789b"}}}}}