{"project/contracts/Mocks.sol":{"MockIncrementalMerkleTree":{"abi":[{"inputs":[],"name":"currentRoot","outputs":[{"internalType":"bytes32","name":"","type":"bytes32"}],"stateMutability":"view","type":"function"},{"inputs":[{"internalType":"bytes32","name":"","type":"bytes32"}],"name":"insert","outputs":[{"internalType":"uint32","name":"","type":"uint32"}],"stateMutability":"nonpayable","type":"function"},{"inputs":[{"internalType":"bytes32","name":"","type":"bytes32"}],"name":"isKnownRoot","outputs":[{"internalType":"bool","name":"","type":"bool"}],"stateMutability":"pure","type":"function"},{"inputs":[],"name":"nextIndex","outputs":[{"internalType":"uint32","name":"","type":"uint32"}],"stateMutability":"view","type":"function"}],"evm":{"bytecode":{"linkReferences":{},"object":"608060405234801561000f575f80fd5b506101a88061001d5f395ff3fe608060405234801561000f575f80fd5b506004361061004a575f3560e01c80632d287e431461004e5780636d9833e31461007b578063fc7e9c6f1461009f578063fdab463d146100ae575b5f80fd5b61006161005c36600461012b565b6100f8565b60405163ffffffff90911681526020015b60405180910390f35b61008f61008936600461012b565b50600190565b6040519015158152602001610072565b5f546100619063ffffffff1681565b6100ea5f805460405160e09190911b6001600160e01b031916602082015260240160405160208183030381529060405280519060200120905090565b604051908152602001610072565b5f805463ffffffff1661010c816001610142565b5f805463ffffffff191663ffffffff9290921691909117905592915050565b5f6020828403121561013b575f80fd5b5035919050565b63ffffffff81811683821601908082111561016b57634e487b7160e01b5f52601160045260245ffd5b509291505056fea2646970667358221220db6b83ac6cdaf79694da45212e8ed86a32eff3cba69bd62c378b7a47d704ef2364736f6c63430008180033","opcodes":"PUSH1 0x80 PUSH1 0x40 MSTORE CALLVALUE DUP1 ISZERO PUSH2 0xF JUMPI PUSH0 DUP1 REVERT JUMPDEST POP PUSH2 0x1A8 DUP1 PUSH2 0x1D PUSH0 CODECOPY PUSH0 RETURN INVALID PUSH1 0x80 PUSH1 0x40 MSTORE CALLVALUE DUP1 ISZERO PUSH2 0xF JUMPI PUSH0 DUP1 REVERT JUMPDEST POP PUSH1 0x4 CALLDATASIZE LT PUSH2 0x4A JUMPI PUSH0 CALLDATALOAD PUSH1 0xE0 SHR DUP1 PUSH4 0x2D287E43 EQ PUSH2 0x4E JUMPI DUP1 PUSH4 0x6D9833E3 EQ PUSH2 0x7B JUMPI DUP1 PUSH4 0xFC7E9C6F EQ PUSH2 0x9F JUMPI DUP1 PUSH4 0xFDAB463D EQ PUSH2 0xAE JUMPI JUMPDEST PUSH0 DUP1 REVERT JUMPDEST PUSH2 0x61 PUSH2 0x5C CALLDATASIZE PUSH1 0x4 PUSH2 0x12B JUMP JUMPDEST PUSH2 0xF8 JUMP JUMPDEST PUSH1 0x40 MLOAD PUSH4 0xFFFFFFFF SWAP1 SWAP2 AND DUP2 MSTORE PUSH1 0x20 ADD JUMPDEST PUSH1 0x40 MLOAD DUP1 SWAP2 SUB SWAP1 RETURN JUMPDEST PUSH2 0x8F PUSH2 0x89 CALLDATASIZE PUSH1 0x4 PUSH2 0x12B JUMP JUMPDEST POP PUSH1 0x1 SWAP1 JUMP JUMPDEST PUSH1 0x40 MLOAD SWAP1 ISZERO ISZERO DUP2 MSTORE PUSH1 0x20 ADD PUSH2 0x72 JUMP JUMPDEST PUSH0 SLOAD PUSH2 0x61 SWAP1 PUSH4 0xFFFFFFFF AND DUP2 JUMP JUMPDEST PUSH2 0xEA PUSH0 DUP1 SLOAD PUSH1 0x40 MLOAD PUSH1 0xE0 SWAP2 SWAP1 SWAP2 SHL PUSH1 0x1 PUSH1 0x1 PUSH1 0xE0 SHL SUB NOT AND PUSH1 0x20 DUP3 ADD MSTORE PUSH1 0x24 ADD PUSH1 0x40 MLOAD PUSH1 0x20 DUP2 DUP4 SUB SUB DUP2 MSTORE SWAP1 PUSH1 0x40 MSTORE DUP1 MLOAD SWAP1 PUSH1 0x20 ADD KECCAK256 SWAP1 POP SWAP1 JUMP JUMPDEST PUSH1 0x40 MLOAD SWAP1 DUP2 MSTORE PUSH1 0x20 ADD PUSH2 0x72 JUMP JUMPDEST PUSH0 DUP1 SLOAD PUSH4 0xFFFFFFFF AND PUSH2 0x10C DUP2 PUSH1 0x1 PUSH2 0x142 JUMP JUMPDEST PUSH0 DUP1 SLOAD PUSH4 0xFFFFFFFF NOT AND PUSH4 0xFFFFFFFF SWAP3 SWAP1 SWAP3 AND SWAP2 SWAP1 SWAP2 OR SWAP1 SSTORE SWAP3 SWAP2 POP POP JUMP JUMPDEST PUSH0 PUSH1 0x20 DUP3 DUP5 SUB SLT ISZERO PUSH2 0x13B JUMPI PUSH0 DUP1 REVERT JUMPDEST POP CALLDATALOAD SWAP2 SWAP1 POP JUMP JUMPDEST PUSH4 0xFFFFFFFF DUP2 DUP2 AND DUP4 DUP3 AND ADD SWAP1 DUP1 DUP3 GT ISZERO PUSH2 0x16B JUMPI PUSH4 0x4E487B71 PUSH1 0xE0 SHL PUSH0 MSTORE PUSH1 0x11 PUSH1 0x4 MSTORE PUSH1 0x24 PUSH0 REVERT JUMPDEST POP SWAP3 SWAP2 POP POP JUMP INVALID LOG2 PUSH5 0x6970667358 0x22 SLT KECCAK256 0xDB PUSH12 0x83AC6CDAF79694DA45212E8E 0xD8 PUSH11 0x32EFF3CBA69BD62C378B7A SELFBALANCE 0xD7 DIV 0xEF 0x23 PUSH5 0x736F6C6343 STOP ADDMOD XOR STOP CALLER "},"methodIdentifiers":{"currentRoot()":"fdab463d","insert(bytes32)":"2d287e43","isKnownRoot(bytes32)":"6d9833e3","nextIndex()":"fc7e9c6f"}}}}}