{"project/contracts/PrivacyPool.sol":{"TelegramPrivacyPool":{"abi":[{"inputs":[{"internalType":"contract IVerifier","name":"_verifier","type":"address"},{"internalType":"contract IIncrementalMerkleTree","name":"_ethStateTree","type":"address"},{"internalType":"contract IIncrementalMerkleTree","name":"_usdtStateTree","type":"address"},{"internalType":"contract IERC20","name":"_usdt","type":"address"},{"internalType":"contract ISanctionsList","name":"_sanctionsOracle","type":"address"},{"internalType":"address","name":"admin","type":"address"},{"internalType":"uint256","name":"ethDenomination_","type":"uint256"},{"internalType":"uint256","name":"protocolWithdrawFeeEth_","type":"uint256"},{"internalType":"uint256","name":"usdtDenomination_","type":"uint256"},{"internalType":"uint256","name":"protocolWithdrawFeeUsdt_","type":"uint256"}],"stateMutability":"nonpayable","type":"constructor"},{"inputs":[],"name":"AccessControlBadConfirmation","type":"error"},{"inputs":[{"internalType":"address","name":"account","type":"address"},{"internalType":"bytes32","name":"neededRole","type":"bytes32"}],"name":"AccessControlUnauthorizedAccount","type":"error"},{"inputs":[],"name":"CommitmentAlreadyExists","type":"error"},{"inputs":[],"name":"EnforcedPause","type":"error"},{"inputs":[],"name":"EthTransferFailed","type":"error"},{"inputs":[],"name":"ExpectedPause","type":"error"},{"inputs":[],"name":"FeeExceedsDenomination","type":"error"},{"inputs":[],"name":"InvalidDenomConfig","type":"error"},{"inputs":[],"name":"InvalidProof","type":"error"},{"inputs":[],"name":"NullifierAlreadyUsed","type":"error"},{"inputs":[{"internalType":"address","name":"owner","type":"address"}],"name":"OwnableInvalidOwner","type":"error"},{"inputs":[{"internalType":"address","name":"account","type":"address"}],"name":"OwnableUnauthorizedAccount","type":"error"},{"inputs":[{"internalType":"address","name":"account","type":"address"}],"name":"RecipientSanctioned","type":"error"},{"inputs":[],"name":"ReentrancyGuardReentrantCall","type":"error"},{"inputs":[{"internalType":"address","name":"account","type":"address"}],"name":"RelayerSanctioned","type":"error"},{"inputs":[{"internalType":"address","name":"token","type":"address"}],"name":"SafeERC20FailedOperation","type":"error"},{"inputs":[{"internalType":"address","name":"account","type":"address"}],"name":"SenderSanctioned","type":"error"},{"inputs":[],"name":"UnknownAspRoot","type":"error"},{"inputs":[],"name":"UnknownStateRoot","type":"error"},{"inputs":[],"name":"WrongEthDepositAmount","type":"error"},{"inputs":[],"name":"ZeroAddress","type":"error"},{"inputs":[],"name":"ZeroRoot","type":"error"},{"anonymous":false,"inputs":[{"indexed":true,"internalType":"bytes32","name":"root","type":"bytes32"},{"indexed":false,"internalType":"uint32","name":"index","type":"uint32"},{"indexed":true,"internalType":"address","name":"asp","type":"address"}],"name":"AspRootUpdated","type":"event"},{"anonymous":false,"inputs":[{"indexed":true,"internalType":"bytes32","name":"commitment","type":"bytes32"},{"indexed":false,"internalType":"uint32","name":"leafIndex","type":"uint32"},{"indexed":false,"internalType":"uint256","name":"timestamp","type":"uint256"}],"name":"DepositEth","type":"event"},{"anonymous":false,"inputs":[{"indexed":true,"internalType":"bytes32","name":"commitment","type":"bytes32"},{"indexed":false,"internalType":"uint32","name":"leafIndex","type":"uint32"},{"indexed":false,"internalType":"uint256","name":"timestamp","type":"uint256"}],"name":"DepositUsdt","type":"event"},{"anonymous":false,"inputs":[{"indexed":true,"internalType":"address","name":"previousOwner","type":"address"},{"indexed":true,"internalType":"address","name":"newOwner","type":"address"}],"name":"OwnershipTransferred","type":"event"},{"anonymous":false,"inputs":[{"indexed":false,"internalType":"address","name":"account","type":"address"}],"name":"Paused","type":"event"},{"anonymous":false,"inputs":[{"indexed":true,"internalType":"address","name":"to","type":"address"},{"indexed":false,"internalType":"uint256","name":"amountEth","type":"uint256"},{"indexed":false,"internalType":"uint256","name":"amountUsdt","type":"uint256"}],"name":"ProtocolFeesWithdrawn","type":"event"},{"anonymous":false,"inputs":[{"indexed":true,"internalType":"bytes32","name":"role","type":"bytes32"},{"indexed":true,"internalType":"bytes32","name":"previousAdminRole","type":"bytes32"},{"indexed":true,"internalType":"bytes32","name":"newAdminRole","type":"bytes32"}],"name":"RoleAdminChanged","type":"event"},{"anonymous":false,"inputs":[{"indexed":true,"internalType":"bytes32","name":"role","type":"bytes32"},{"indexed":true,"internalType":"address","name":"account","type":"address"},{"indexed":true,"internalType":"address","name":"sender","type":"address"}],"name":"RoleGranted","type":"event"},{"anonymous":false,"inputs":[{"indexed":true,"internalType":"bytes32","name":"role","type":"bytes32"},{"indexed":true,"internalType":"address","name":"account","type":"address"},{"indexed":true,"internalType":"address","name":"sender","type":"address"}],"name":"RoleRevoked","type":"event"},{"anonymous":false,"inputs":[{"indexed":true,"internalType":"address","name":"account","type":"address"}],"name":"SanctionedAddressAdded","type":"event"},{"anonymous":false,"inputs":[{"indexed":true,"internalType":"address","name":"account","type":"address"}],"name":"SanctionedAddressRemoved","type":"event"},{"anonymous":false,"inputs":[{"indexed":false,"internalType":"address","name":"account","type":"address"}],"name":"Unpaused","type":"event"},{"anonymous":false,"inputs":[{"indexed":true,"internalType":"address","name":"to","type":"address"},{"indexed":true,"internalType":"bytes32","name":"nullifierHash","type":"bytes32"},{"indexed":true,"internalType":"address","name":"relayer","type":"address"},{"indexed":false,"internalType":"uint256","name":"relayerFee","type":"uint256"},{"indexed":false,"internalType":"uint256","name":"protocolFee","type":"uint256"}],"name":"WithdrawalEth","type":"event"},{"anonymous":false,"inputs":[{"indexed":true,"internalType":"address","name":"to","type":"address"},{"indexed":true,"internalType":"bytes32","name":"nullifierHash","type":"bytes32"},{"indexed":true,"internalType":"address","name":"relayer","type":"address"},{"indexed":false,"internalType":"uint256","name":"relayerFee","type":"uint256"},{"indexed":false,"internalType":"uint256","name":"protocolFee","type":"uint256"}],"name":"WithdrawalUsdt","type":"event"},{"stateMutability":"payable","type":"fallback"},{"inputs":[],"name":"ASP_ROLE","outputs":[{"internalType":"bytes32","name":"","type":"bytes32"}],"stateMutability":"view","type":"function"},{"inputs":[],"name":"ASP_ROOT_HISTORY","outputs":[{"internalType":"uint32","name":"","type":"uint32"}],"stateMutability":"view","type":"function"},{"inputs":[],"name":"COMPLIANCE_ROLE","outputs":[{"internalType":"bytes32","name":"","type":"bytes32"}],"stateMutability":"view","type":"function"},{"inputs":[],"name":"DEFAULT_ADMIN_ROLE","outputs":[{"internalType":"bytes32","name":"","type":"bytes32"}],"stateMutability":"view","type":"function"},{"inputs":[],"name":"ETH_DENOMINATION","outputs":[{"internalType":"uint256","name":"","type":"uint256"}],"stateMutability":"view","type":"function"},{"inputs":[],"name":"PAUSER_ROLE","outputs":[{"internalType":"bytes32","name":"","type":"bytes32"}],"stateMutability":"view","type":"function"},{"inputs":[],"name":"PROTOCOL_WITHDRAW_FEE_ETH","outputs":[{"internalType":"uint256","name":"","type":"uint256"}],"stateMutability":"view","type":"function"},{"inputs":[],"name":"PROTOCOL_WITHDRAW_FEE_USDT","outputs":[{"internalType":"uint256","name":"","type":"uint256"}],"stateMutability":"view","type":"function"},{"inputs":[],"name":"SNARK_SCALAR_FIELD","outputs":[{"internalType":"uint256","name":"","type":"uint256"}],"stateMutability":"view","type":"function"},{"inputs":[],"name":"USDT_DENOMINATION","outputs":[{"internalType":"uint256","name":"","type":"uint256"}],"stateMutability":"view","type":"function"},{"inputs":[],"name":"accumulatedProtocolFeesEth","outputs":[{"internalType":"uint256","name":"","type":"uint256"}],"stateMutability":"view","type":"function"},{"inputs":[],"name":"accumulatedProtocolFeesUsdt","outputs":[{"internalType":"uint256","name":"","type":"uint256"}],"stateMutability":"view","type":"function"},{"inputs":[{"internalType":"address","name":"account","type":"address"}],"name":"addSanctioned","outputs":[],"stateMutability":"nonpayable","type":"function"},{"inputs":[],"name":"aspRootIndex","outputs":[{"internalType":"uint32","name":"","type":"uint32"}],"stateMutability":"view","type":"function"},{"inputs":[{"internalType":"uint256","name":"","type":"uint256"}],"name":"aspRoots","outputs":[{"internalType":"bytes32","name":"","type":"bytes32"}],"stateMutability":"view","type":"function"},{"inputs":[{"internalType":"bytes32","name":"commitment","type":"bytes32"}],"name":"deposit","outputs":[],"stateMutability":"payable","type":"function"},{"inputs":[],"name":"depositAmountRequired","outputs":[{"internalType":"uint256","name":"","type":"uint256"}],"stateMutability":"view","type":"function"},{"inputs":[{"internalType":"bytes32","name":"commitment","type":"bytes32"}],"name":"depositUsdt","outputs":[],"stateMutability":"nonpayable","type":"function"},{"inputs":[{"internalType":"bytes32","name":"","type":"bytes32"}],"name":"ethCommitments","outputs":[{"internalType":"bool","name":"","type":"bool"}],"stateMutability":"view","type":"function"},{"inputs":[{"internalType":"bytes32","name":"","type":"bytes32"}],"name":"ethNullifierHashes","outputs":[{"internalType":"bool","name":"","type":"bool"}],"stateMutability":"view","type":"function"},{"inputs":[],"name":"ethStateTree","outputs":[{"internalType":"contract IIncrementalMerkleTree","name":"","type":"address"}],"stateMutability":"view","type":"function"},{"inputs":[{"internalType":"bytes32","name":"role","type":"bytes32"}],"name":"getRoleAdmin","outputs":[{"internalType":"bytes32","name":"","type":"bytes32"}],"stateMutability":"view","type":"function"},{"inputs":[{"internalType":"bytes32","name":"role","type":"bytes32"},{"internalType":"address","name":"account","type":"address"}],"name":"grantRole","outputs":[],"stateMutability":"nonpayable","type":"function"},{"inputs":[{"internalType":"bytes32","name":"role","type":"bytes32"},{"internalType":"address","name":"account","type":"address"}],"name":"hasRole","outputs":[{"internalType":"bool","name":"","type":"bool"}],"stateMutability":"view","type":"function"},{"inputs":[{"internalType":"bytes32","name":"root","type":"bytes32"}],"name":"isKnownAspRoot","outputs":[{"internalType":"bool","name":"","type":"bool"}],"stateMutability":"view","type":"function"},{"inputs":[{"internalType":"address","name":"account","type":"address"}],"name":"isSanctioned","outputs":[{"internalType":"bool","name":"","type":"bool"}],"stateMutability":"view","type":"function"},{"inputs":[{"internalType":"bytes32","name":"","type":"bytes32"}],"name":"knownAspRoot","outputs":[{"internalType":"bool","name":"","type":"bool"}],"stateMutability":"view","type":"function"},{"inputs":[{"internalType":"uint256","name":"i","type":"uint256"}],"name":"localSanctionedAt","outputs":[{"internalType":"address","name":"","type":"address"}],"stateMutability":"view","type":"function"},{"inputs":[],"name":"localSanctionedLength","outputs":[{"internalType":"uint256","name":"","type":"uint256"}],"stateMutability":"view","type":"function"},{"inputs":[],"name":"owner","outputs":[{"internalType":"address","name":"","type":"address"}],"stateMutability":"view","type":"function"},{"inputs":[],"name":"pause","outputs":[],"stateMutability":"nonpayable","type":"function"},{"inputs":[],"name":"paused","outputs":[{"internalType":"bool","name":"","type":"bool"}],"stateMutability":"view","type":"function"},{"inputs":[{"internalType":"bytes32","name":"newRoot","type":"bytes32"}],"name":"publishAspRoot","outputs":[],"stateMutability":"nonpayable","type":"function"},{"inputs":[{"internalType":"address","name":"account","type":"address"}],"name":"removeSanctioned","outputs":[],"stateMutability":"nonpayable","type":"function"},{"inputs":[],"name":"renounceOwnership","outputs":[],"stateMutability":"nonpayable","type":"function"},{"inputs":[{"internalType":"bytes32","name":"role","type":"bytes32"},{"internalType":"address","name":"callerConfirmation","type":"address"}],"name":"renounceRole","outputs":[],"stateMutability":"nonpayable","type":"function"},{"inputs":[{"internalType":"bytes32","name":"role","type":"bytes32"},{"internalType":"address","name":"account","type":"address"}],"name":"revokeRole","outputs":[],"stateMutability":"nonpayable","type":"function"},{"inputs":[],"name":"sanctionsOracle","outputs":[{"internalType":"contract ISanctionsList","name":"","type":"address"}],"stateMutability":"view","type":"function"},{"inputs":[{"internalType":"bytes4","name":"interfaceId","type":"bytes4"}],"name":"supportsInterface","outputs":[{"internalType":"bool","name":"","type":"bool"}],"stateMutability":"view","type":"function"},{"inputs":[{"internalType":"address","name":"newOwner","type":"address"}],"name":"transferOwnership","outputs":[],"stateMutability":"nonpayable","type":"function"},{"inputs":[],"name":"unpause","outputs":[],"stateMutability":"nonpayable","type":"function"},{"inputs":[],"name":"usdt","outputs":[{"internalType":"contract IERC20","name":"","type":"address"}],"stateMutability":"view","type":"function"},{"inputs":[{"internalType":"bytes32","name":"","type":"bytes32"}],"name":"usdtCommitments","outputs":[{"internalType":"bool","name":"","type":"bool"}],"stateMutability":"view","type":"function"},{"inputs":[],"name":"usdtDepositAmountRequired","outputs":[{"internalType":"uint256","name":"","type":"uint256"}],"stateMutability":"view","type":"function"},{"inputs":[{"internalType":"bytes32","name":"","type":"bytes32"}],"name":"usdtNullifierHashes","outputs":[{"internalType":"bool","name":"","type":"bool"}],"stateMutability":"view","type":"function"},{"inputs":[],"name":"usdtStateTree","outputs":[{"internalType":"contract IIncrementalMerkleTree","name":"","type":"address"}],"stateMutability":"view","type":"function"},{"inputs":[],"name":"verifier","outputs":[{"internalType":"contract IVerifier","name":"","type":"address"}],"stateMutability":"view","type":"function"},{"inputs":[{"internalType":"bytes","name":"proof","type":"bytes"},{"internalType":"bytes32","name":"stateRoot","type":"bytes32"},{"internalType":"bytes32","name":"aspRoot","type":"bytes32"},{"internalType":"bytes32","name":"nullifierHash","type":"bytes32"},{"internalType":"address payable","name":"recipient","type":"address"},{"internalType":"address payable","name":"relayer","type":"address"},{"internalType":"uint256","name":"fee","type":"uint256"}],"name":"withdraw","outputs":[],"stateMutability":"nonpayable","type":"function"},{"inputs":[],"name":"withdrawFees","outputs":[],"stateMutability":"nonpayable","type":"function"},{"inputs":[{"internalType":"bytes","name":"proof","type":"bytes"},{"internalType":"bytes32","name":"stateRoot","type":"bytes32"},{"internalType":"bytes32","name":"aspRoot","type":"bytes32"},{"internalType":"bytes32","name":"nullifierHash","type":"bytes32"},{"internalType":"address","name":"recipient","type":"address"},{"internalType":"address","name":"relayer","type":"address"},{"internalType":"uint256","name":"fee","type":"uint256"}],"name":"withdrawUsdt","outputs":[],"stateMutability":"nonpayable","type":"function"},{"stateMutability":"payable","type":"receive"}],"evm":{"bytecode":{"linkReferences":{},"object":"6101a060405234801562000011575f80fd5b5060405162002bfc38038062002bfc83398101604081905262000034916200039a565b8460017f9b779b17422d0df92223018b32b4d1fa46e071723d6817e2486d003becc55f00556001600160a01b0381166200008757604051631e4fbdf760e01b81525f600482015260240160405180910390fd5b62000092816200027d565b506001600160a01b038a16620000bb5760405163d92e233d60e01b815260040160405180910390fd5b6001600160a01b038916620000e35760405163d92e233d60e01b815260040160405180910390fd5b6001600160a01b0388166200010b5760405163d92e233d60e01b815260040160405180910390fd5b6001600160a01b038716620001335760405163d92e233d60e01b815260040160405180910390fd5b6001600160a01b0385166200015b5760405163d92e233d60e01b815260040160405180910390fd5b83158062000167575081155b15620001865760405163fadc314360e01b815260040160405180910390fd5b838310620001a75760405163fadc314360e01b815260040160405180910390fd5b818110620001c85760405163fadc314360e01b815260040160405180910390fd5b608084905260a083905260c082905260e08190526001600160a01b03808b1661010052898116610120528881166101405287811661016052861661018052620002125f86620002d6565b506200023f7f442a94f1a1fac79af32856af2a64f63648cfa2ef3b98610a5bb7cbec4cee698586620002d6565b506200026c7f65d7a28e3265b37a6474929f336521b332c1681b933f6cb9f3376673440d862a86620002d6565b505050505050505050505062000452565b600180546001600160a01b03838116610100818102610100600160a81b031985161790945560405193909204169182907f8be0079c531659141344cd1fd0a4f28419497f9722a3daafe3b4186f6b6457e0905f90a35050565b5f828152602081815260408083206001600160a01b038516845290915281205460ff1662000379575f838152602081815260408083206001600160a01b03861684529091529020805460ff19166001179055620003303390565b6001600160a01b0316826001600160a01b0316847f2f8788117e7eff1d82e926ec794901d17c78024a50270940304540a733656f0d60405160405180910390a45060016200037c565b505f5b92915050565b6001600160a01b038116811462000397575f80fd5b50565b5f805f805f805f805f806101408b8d031215620003b5575f80fd5b8a51620003c28162000382565b60208c0151909a50620003d58162000382565b60408c0151909950620003e88162000382565b60608c0151909850620003fb8162000382565b60808c01519097506200040e8162000382565b60a08c0151909650620004218162000382565b8095505060c08b0151935060e08b015192506101008b015191506101208b015190509295989b9194979a5092959850565b60805160a05160c05160e05161010051610120516101405161016051610180516126aa620005525f395f818161088e01528181611be90152611c3b01525f818161053601528181610ec301528181610ef701528181611102015261185c01525f818161040101528181610bef01526118d901525f81816107b5015281816112700152611ad501525f81816104e401528181610dac015261142d01525f81816106720152610b4901525f818161083501528181610a2201528181610b6a01528181610e6a015261188001525f81816109de01526111ca01525f81816105cf0152818161063d015281816111eb015281816114eb0152611a0a01526126aa5ff3fe6080604052600436106102cc575f3560e01c80638456cb5911610174578063ca6e6bc1116100db578063e63ab1e911610094578063eee018501161006e578063eee0185014610a14578063ef4688f814610a46578063f184205f14610a79578063f2fde38b14610aa757610319565b8063e63ab1e91461099a578063e8144c86146109cd578063e9dd301814610a0057610319565b8063ca6e6bc1146108cc578063d407c695146108fa578063d547741f14610919578063d886bee814610938578063db61d8c11461094d578063df592f7d1461097b57610319565b80639a54149e1161012d5780639a54149e146107f65780639f840c7b14610824578063a217fddf14610857578063b214faa51461086a578063b3df4df91461087d578063b7cf5825146108b057610319565b80638456cb591461072b57806385ff527b1461073f5780638b61d736146107545780638da5cb5b146107825780638f1846dd146107a457806391d14854146107d757610319565b80633f4ba83a1161023357806358f786ed116101ec5780636d0430eb116101c65780636d0430eb146106ab578063715018a6146106d957806380b437b1146106ed57806382738c821461070c57610319565b806358f786ed1461062f578063594e41f1146106615780635c975abb1461069457610319565b80633f4ba83a14610577578063476343ee1461058b5780634b01d5dc1461059f5780634e6add93146105be5780634ea91771146105f157806355d168da1461061057610319565b8063248a9ca311610285578063248a9ca31461048557806325c2cd12146104b35780632b7ac3f3146104d35780632f2ff15d146105065780632f48ab7d1461052557806336568abe1461055857610319565b806301ffc9a71461035c578063020462f3146103905780630280ae8a146103b9578063037a3900146103f0578063062d3bd71461042357806317b0a3251461046457610319565b366103195760405162461bcd60e51b8152602060048201526018602482015277141c9a5d9858de541bdbdb0e881d5cd94819195c1bdcda5d60421b60448201526064015b60405180910390fd5b60405162461bcd60e51b8152602060048201526018602482015277141c9a5d9858de541bdbdb0e881d5cd94819195c1bdcda5d60421b6044820152606401610310565b348015610367575f80fd5b5061037b610376366004612365565b610ac6565b60405190151581526020015b60405180910390f35b34801561039b575f80fd5b506103a4604081565b60405163ffffffff9091168152602001610387565b3480156103c4575f80fd5b506103d86103d336600461238c565b610afc565b6040516001600160a01b039091168152602001610387565b3480156103fb575f80fd5b506103d87f000000000000000000000000000000000000000000000000000000000000000081565b34801561042e575f80fd5b506104567f442a94f1a1fac79af32856af2a64f63648cfa2ef3b98610a5bb7cbec4cee698581565b604051908152602001610387565b34801561046f575f80fd5b5061048361047e3660046123fc565b610b08565b005b348015610490575f80fd5b5061045661049f36600461238c565b5f9081526020819052604090206001015490565b3480156104be575f80fd5b506104565f8051602061263583398151915281565b3480156104de575f80fd5b506103d87f000000000000000000000000000000000000000000000000000000000000000081565b348015610511575f80fd5b50610483610520366004612486565b610f98565b348015610530575f80fd5b506103d87f000000000000000000000000000000000000000000000000000000000000000081565b348015610563575f80fd5b50610483610572366004612486565b610fc2565b348015610582575f80fd5b50610483610ffa565b348015610596575f80fd5b5061048361102f565b3480156105aa575f80fd5b506104836105b93660046123fc565b611189565b3480156105c9575f80fd5b506104567f000000000000000000000000000000000000000000000000000000000000000081565b3480156105fc575f80fd5b5061048361060b3660046124b4565b61159a565b34801561061b575f80fd5b5061048361062a36600461238c565b61160c565b34801561063a575f80fd5b507f0000000000000000000000000000000000000000000000000000000000000000610456565b34801561066c575f80fd5b506104567f000000000000000000000000000000000000000000000000000000000000000081565b34801561069f575f80fd5b5060015460ff1661037b565b3480156106b6575f80fd5b5061037b6106c536600461238c565b60026020525f908152604090205460ff1681565b3480156106e4575f80fd5b5061048361173e565b3480156106f8575f80fd5b506104836107073660046124b4565b61174f565b348015610717575f80fd5b5061048361072636600461238c565b6117e7565b348015610736575f80fd5b5061048361199e565b34801561074a575f80fd5b50610456604b5481565b34801561075f575f80fd5b5061037b61076e36600461238c565b60476020525f908152604090205460ff1681565b34801561078d575f80fd5b5060015461010090046001600160a01b03166103d8565b3480156107af575f80fd5b506103d87f000000000000000000000000000000000000000000000000000000000000000081565b3480156107e2575f80fd5b5061037b6107f1366004612486565b6119d0565b348015610801575f80fd5b5061037b61081036600461238c565b60046020525f908152604090205460ff1681565b34801561082f575f80fd5b506104567f000000000000000000000000000000000000000000000000000000000000000081565b348015610862575f80fd5b506104565f81565b61048361087836600461238c565b6119f8565b348015610888575f80fd5b506103d87f000000000000000000000000000000000000000000000000000000000000000081565b3480156108bb575f80fd5b506046546103a49063ffffffff1681565b3480156108d7575f80fd5b5061037b6108e636600461238c565b60056020525f908152604090205460ff1681565b348015610905575f80fd5b5061045661091436600461238c565b611b7f565b348015610924575f80fd5b50610483610933366004612486565b611b95565b348015610943575f80fd5b50610456604a5481565b348015610958575f80fd5b5061037b61096736600461238c565b60036020525f908152604090205460ff1681565b348015610986575f80fd5b5061037b6109953660046124b4565b611bb9565b3480156109a5575f80fd5b506104567f65d7a28e3265b37a6474929f336521b332c1681b933f6cb9f3376673440d862a81565b3480156109d8575f80fd5b506104567f000000000000000000000000000000000000000000000000000000000000000081565b348015610a0b575f80fd5b50610456611caa565b348015610a1f575f80fd5b507f0000000000000000000000000000000000000000000000000000000000000000610456565b348015610a51575f80fd5b506104567f60ddeeedcc0ad0194a5daeab83d1463588b03aca86cbee9384a9d5d1e673c2e281565b348015610a84575f80fd5b5061037b610a9336600461238c565b5f9081526047602052604090205460ff1690565b348015610ab2575f80fd5b50610483610ac13660046124b4565b611cba565b5f6001600160e01b03198216637965db0b60e01b1480610af657506301ffc9a760e01b6001600160e01b03198316145b92915050565b5f610af6604883611cf4565b610b10611d06565b610b18611d2a565b5f8481526005602052604090205460ff1615610b4757604051636569570160e11b815260040160405180910390fd5b7f00000000000000000000000000000000000000000000000000000000000000007f0000000000000000000000000000000000000000000000000000000000000000610b9382846124e3565b1115610bb2576040516349609d8560e11b815260040160405180910390fd5b6001600160a01b038416610bd95760405163d92e233d60e01b815260040160405180910390fd5b604051636d9833e360e01b8152600481018890527f00000000000000000000000000000000000000000000000000000000000000006001600160a01b031690636d9833e390602401602060405180830381865afa158015610c3c573d5f803e3d5ffd5b505050506040513d601f19601f82011682018060405250810190610c6091906124f6565b610c7d57604051633f4f4f1360e21b815260040160405180910390fd5b5f8681526047602052604090205460ff16610cab57604051630f3addad60e21b815260040160405180910390fd5b610cb484611bb9565b15610cdd5760405163dcd3658d60e01b81526001600160a01b0385166004820152602401610310565b6001600160a01b03831615801590610cf95750610cf983611bb9565b15610d2257604051636a77805b60e11b81526001600160a01b0384166004820152602401610310565b610d2a612347565b610d415f8051602061263583398151915289612529565b8152610d5a5f8051602061263583398151915288612529565b6020820152610d765f8051602061263583398151915287612529565b6040808301919091526001600160a01b038681166060840152858116608084015260a08301859052905163695ef6f960e01b81527f00000000000000000000000000000000000000000000000000000000000000009091169063695ef6f990610de7908d908d908690600401612550565b602060405180830381865afa158015610e02573d5f803e3d5ffd5b505050506040513d601f19601f82011682018060405250810190610e2691906124f6565b610e43576040516309bde33960e01b815260040160405180910390fd5b5f868152600560205260408120805460ff19166001179055604b80548401905582610e8e857f00000000000000000000000000000000000000000000000000000000000000006125ab565b610e9891906125ab565b90505f84118015610eb157506001600160a01b03851615155b15610eea57610eea6001600160a01b037f0000000000000000000000000000000000000000000000000000000000000000168686611d45565b610f1e6001600160a01b037f0000000000000000000000000000000000000000000000000000000000000000168783611d45565b846001600160a01b031687876001600160a01b03167f1ccea54be2999a2670d8ec6f44e396fe352a7a4768b045027d6c05f99fcb6e9a8787604051610f6d929190918252602082015260400190565b60405180910390a4505050610f8e60015f8051602061265583398151915255565b5050505050505050565b5f82815260208190526040902060010154610fb281611d7a565b610fbc8383611d84565b50505050565b6001600160a01b0381163314610feb5760405163334bd91960e11b815260040160405180910390fd5b610ff58282611e13565b505050565b7f65d7a28e3265b37a6474929f336521b332c1681b933f6cb9f3376673440d862a61102481611d7a565b61102c611e7c565b50565b611037611ece565b61103f611d2a565b604a54604b5481158015611051575080155b1561105d575050611171565b5f604a819055604b5560015461010090046001600160a01b031682156110ef575f816001600160a01b0316846040515f6040518083038185875af1925050503d805f81146110c6576040519150601f19603f3d011682016040523d82523d5f602084013e6110cb565b606091505b50509050806110ed57604051630db2c7f160e31b815260040160405180910390fd5b505b8115611129576111296001600160a01b037f0000000000000000000000000000000000000000000000000000000000000000168284611d45565b60408051848152602081018490526001600160a01b038316917ff299f1f754362fc7673effe66e73ca8d292dd87fc9fef1f28f7b97b2edc4c75b910160405180910390a25050505b61118760015f8051602061265583398151915255565b565b611191611d06565b611199611d2a565b5f8481526004602052604090205460ff16156111c857604051636569570160e11b815260040160405180910390fd5b7f00000000000000000000000000000000000000000000000000000000000000007f000000000000000000000000000000000000000000000000000000000000000061121482846124e3565b1115611233576040516349609d8560e11b815260040160405180910390fd5b6001600160a01b03841661125a5760405163d92e233d60e01b815260040160405180910390fd5b604051636d9833e360e01b8152600481018890527f00000000000000000000000000000000000000000000000000000000000000006001600160a01b031690636d9833e390602401602060405180830381865afa1580156112bd573d5f803e3d5ffd5b505050506040513d601f19601f820116820180604052508101906112e191906124f6565b6112fe57604051633f4f4f1360e21b815260040160405180910390fd5b5f8681526047602052604090205460ff1661132c57604051630f3addad60e21b815260040160405180910390fd5b61133584611bb9565b1561135e5760405163dcd3658d60e01b81526001600160a01b0385166004820152602401610310565b6001600160a01b0383161580159061137a575061137a83611bb9565b156113a357604051636a77805b60e11b81526001600160a01b0384166004820152602401610310565b6113ab612347565b6113c25f8051602061263583398151915289612529565b81526113db5f8051602061263583398151915288612529565b60208201526113f75f8051602061263583398151915287612529565b6040808301919091526001600160a01b038681166060840152858116608084015260a08301859052905163695ef6f960e01b81527f00000000000000000000000000000000000000000000000000000000000000009091169063695ef6f990611468908d908d908690600401612550565b602060405180830381865afa158015611483573d5f803e3d5ffd5b505050506040513d601f19601f820116820180604052508101906114a791906124f6565b6114c4576040516309bde33960e01b815260040160405180910390fd5b5f868152600460205260408120805460ff19166001179055604a8054840190558261150f857f00000000000000000000000000000000000000000000000000000000000000006125ab565b61151991906125ab565b90505f8411801561153257506001600160a01b03851615155b15611541576115418585611f01565b61154b8682611f01565b846001600160a01b031687876001600160a01b03167f2c354682dfe18bc46bdd9fbf1692549fa36bb4cf776319bc8b5ddd131e5fa0fb8787604051610f6d929190918252602082015260400190565b7f442a94f1a1fac79af32856af2a64f63648cfa2ef3b98610a5bb7cbec4cee69856115c481611d7a565b6115cf604883611f7c565b15611608576040516001600160a01b038316907f27c24e841c9b716a2af2ae635108fc747d4f0ab26bb3be48a53e4ce68d1f925b905f90a25b5050565b7f60ddeeedcc0ad0194a5daeab83d1463588b03aca86cbee9384a9d5d1e673c2e261163681611d7a565b816116545760405163b263ae7360e01b815260040160405180910390fd5b6046545f9060409061166d9063ffffffff1660016125be565b61167791906125db565b90505f60068263ffffffff16604081106116935761169361253c565b0154905080156116b3575f818152604760205260409020805460ff191690555b8360068363ffffffff16604081106116cd576116cd61253c565b01555f84815260476020908152604091829020805460ff191660011790556046805463ffffffff861663ffffffff1990911681179091559151918252339186917f02cd97eb1138905d7dc9c1f5e42e188103a85075b9fc446197669f34269111bd910160405180910390a350505050565b611746611ece565b6111875f611f90565b7f442a94f1a1fac79af32856af2a64f63648cfa2ef3b98610a5bb7cbec4cee698561177981611d7a565b6001600160a01b0382166117a05760405163d92e233d60e01b815260040160405180910390fd5b6117ab604883611fe9565b15611608576040516001600160a01b038316907f99f336eb5bc6257ae248080079fdc6cdc792f5b29f86c8302759dafc68b4c4fd905f90a25050565b6117ef611d06565b6117f7611d2a565b5f8181526003602052604090205460ff16156118265760405163145718a760e01b815260040160405180910390fd5b61182f33611bb9565b1561184f576040516334da009f60e11b8152336004820152602401610310565b6118a46001600160a01b037f00000000000000000000000000000000000000000000000000000000000000001633307f0000000000000000000000000000000000000000000000000000000000000000611ffd565b5f81815260036020526040808220805460ff1916600117905551632d287e4360e01b8152600481018390526001600160a01b037f00000000000000000000000000000000000000000000000000000000000000001690632d287e43906024016020604051808303815f875af115801561191f573d5f803e3d5ffd5b505050506040513d601f19601f8201168201806040525081019061194391906125fd565b6040805163ffffffff8316815242602082015291925083917fe2578e0e0bc1b6b885400c3e57bfd5c1df148bfeed8f534917c3f4fa511c1c5291015b60405180910390a25061102c60015f8051602061265583398151915255565b7f65d7a28e3265b37a6474929f336521b332c1681b933f6cb9f3376673440d862a6119c881611d7a565b61102c612033565b5f918252602082815260408084206001600160a01b0393909316845291905290205460ff1690565b611a00611d06565b611a08611d2a565b7f00000000000000000000000000000000000000000000000000000000000000003414611a485760405163c1525f1160e01b815260040160405180910390fd5b5f8181526002602052604090205460ff1615611a775760405163145718a760e01b815260040160405180910390fd5b611a8033611bb9565b15611aa0576040516334da009f60e11b8152336004820152602401610310565b5f81815260026020526040808220805460ff1916600117905551632d287e4360e01b8152600481018390526001600160a01b037f00000000000000000000000000000000000000000000000000000000000000001690632d287e43906024016020604051808303815f875af1158015611b1b573d5f803e3d5ffd5b505050506040513d601f19601f82011682018060405250810190611b3f91906125fd565b6040805163ffffffff8316815242602082015291925083917f0c6ba7861996c8eab82344eb22ed1e20ab4f97ebc4d7477a53c911db9ab8a5f9910161197f565b60068160408110611b8e575f80fd5b0154905081565b5f82815260208190526040902060010154611baf81611d7a565b610fbc8383611e13565b5f6001600160a01b038216611bcf57505f919050565b611bda60488361206e565b15611be757506001919050565b7f00000000000000000000000000000000000000000000000000000000000000006001600160a01b0316611c1c57505f919050565b60405163df592f7d60e01b81526001600160a01b0383811660048301527f0000000000000000000000000000000000000000000000000000000000000000169063df592f7d90602401602060405180830381865afa925050508015611c9e575060408051601f3d908101601f19168201909252611c9b918101906124f6565b60015b610af657506001919050565b5f611cb5604861208f565b905090565b611cc2611ece565b6001600160a01b038116611ceb57604051631e4fbdf760e01b81525f6004820152602401610310565b61102c81611f90565b5f611cff8383612098565b9392505050565b60015460ff16156111875760405163d93c066560e01b815260040160405180910390fd5b611d326120be565b60025f8051602061265583398151915255565b611d5283838360016120ed565b610ff557604051635274afe760e01b81526001600160a01b0384166004820152602401610310565b61102c813361214f565b5f611d8f83836119d0565b611e0c575f838152602081815260408083206001600160a01b03861684529091529020805460ff19166001179055611dc43390565b6001600160a01b0316826001600160a01b0316847f2f8788117e7eff1d82e926ec794901d17c78024a50270940304540a733656f0d60405160405180910390a4506001610af6565b505f610af6565b5f611e1e83836119d0565b15611e0c575f838152602081815260408083206001600160a01b0386168085529252808320805460ff1916905551339286917ff6391f5c32d9c69d2a47ea670b442974b53935d1edc7fd64eb21e047a839171b9190a4506001610af6565b611e84612188565b6001805460ff191690557f5db9ee0a495bf2e6ff9c91a7834c1ba4fdd244a5e8aa4e537bd38aeae4b073aa335b6040516001600160a01b03909116815260200160405180910390a1565b6001546001600160a01b036101009091041633146111875760405163118cdaa760e01b8152336004820152602401610310565b805f03611f0c575050565b5f826001600160a01b0316826040515f6040518083038185875af1925050503d805f8114611f55576040519150601f19603f3d011682016040523d82523d5f602084013e611f5a565b606091505b5050905080610ff557604051630db2c7f160e31b815260040160405180910390fd5b5f611cff836001600160a01b0384166121ab565b600180546001600160a01b03838116610100818102610100600160a81b031985161790945560405193909204169182907f8be0079c531659141344cd1fd0a4f28419497f9722a3daafe3b4186f6b6457e0905f90a35050565b5f611cff836001600160a01b038416612295565b61200b8484848460016122da565b610fbc57604051635274afe760e01b81526001600160a01b0385166004820152602401610310565b61203b611d06565b6001805460ff1916811790557f62e78cea01bee320cd4e420270b5ea74000d11b0c9f74754ebdbfc544b05a25833611eb1565b6001600160a01b0381165f9081526001830160205260408120541515611cff565b5f610af6825490565b5f825f0182815481106120ad576120ad61253c565b905f5260205f200154905092915050565b5f805160206126558339815191525460020361118757604051633ee5aeb560e01b815260040160405180910390fd5b60405163a9059cbb60e01b5f8181526001600160a01b038616600452602485905291602083604481808b5af1925060015f51148316612143578383151615612137573d5f823e3d81fd5b5f873b113d1516831692505b60405250949350505050565b61215982826119d0565b6116085760405163e2517d3f60e01b81526001600160a01b038216600482015260248101839052604401610310565b60015460ff1661118757604051638dfc202b60e01b815260040160405180910390fd5b5f8181526001830160205260408120548015612285575f6121cd6001836125ab565b85549091505f906121e0906001906125ab565b905080821461223f575f865f0182815481106121fe576121fe61253c565b905f5260205f200154905080875f01848154811061221e5761221e61253c565b5f918252602080832090910192909255918252600188019052604090208390555b855486908061225057612250612620565b600190038181905f5260205f20015f90559055856001015f8681526020019081526020015f205f905560019350505050610af6565b5f915050610af6565b5092915050565b5f818152600183016020526040812054611e0c57508154600181810184555f848152602080822090930184905584548482528286019093526040902091909155610af6565b6040516323b872dd60e01b5f8181526001600160a01b038781166004528616602452604485905291602083606481808c5af1925060015f5114831661233657838315161561232a573d5f823e3d81fd5b5f883b113d1516831692505b604052505f60605295945050505050565b6040518060c001604052806006906020820280368337509192915050565b5f60208284031215612375575f80fd5b81356001600160e01b031981168114611cff575f80fd5b5f6020828403121561239c575f80fd5b5035919050565b5f8083601f8401126123b3575f80fd5b50813567ffffffffffffffff8111156123ca575f80fd5b6020830191508360208285010111156123e1575f80fd5b9250929050565b6001600160a01b038116811461102c575f80fd5b5f805f805f805f8060e0898b031215612413575f80fd5b883567ffffffffffffffff811115612429575f80fd5b6124358b828c016123a3565b909950975050602089013595506040890135945060608901359350608089013561245e816123e8565b925060a089013561246e816123e8565b8092505060c089013590509295985092959890939650565b5f8060408385031215612497575f80fd5b8235915060208301356124a9816123e8565b809150509250929050565b5f602082840312156124c4575f80fd5b8135611cff816123e8565b634e487b7160e01b5f52601160045260245ffd5b80820180821115610af657610af66124cf565b5f60208284031215612506575f80fd5b81518015158114611cff575f80fd5b634e487b7160e01b5f52601260045260245ffd5b5f8261253757612537612515565b500690565b634e487b7160e01b5f52603260045260245ffd5b60e081528260e08201525f6101008486828501375f81868501015280601f19601f8701168401019150506020808301845f5b600681101561259f57815183529183019190830190600101612582565b50505050949350505050565b81810381811115610af657610af66124cf565b63ffffffff81811683821601908082111561228e5761228e6124cf565b5f63ffffffff808416806125f1576125f1612515565b92169190910692915050565b5f6020828403121561260d575f80fd5b815163ffffffff81168114611cff575f80fd5b634e487b7160e01b5f52603160045260245ffdfe30644e72e131a029b85045b68181585d2833e84879b9709143e1f593f00000019b779b17422d0df92223018b32b4d1fa46e071723d6817e2486d003becc55f00a26469706673582212207903fdfc8e3117a5238fdaf7a7959d54caa0b8355567833a9b9eec32453b116064736f6c63430008180033","opcodes":"PUSH2 0x1A0 PUSH1 0x40 MSTORE CALLVALUE DUP1 ISZERO PUSH3 0x11 JUMPI PUSH0 DUP1 REVERT JUMPDEST POP PUSH1 0x40 MLOAD PUSH3 0x2BFC CODESIZE SUB DUP1 PUSH3 0x2BFC DUP4 CODECOPY DUP2 ADD PUSH1 0x40 DUP2 SWAP1 MSTORE PUSH3 0x34 SWAP2 PUSH3 0x39A JUMP JUMPDEST DUP5 PUSH1 0x1 PUSH32 0x9B779B17422D0DF92223018B32B4D1FA46E071723D6817E2486D003BECC55F00 SSTORE PUSH1 0x1 PUSH1 0x1 PUSH1 0xA0 SHL SUB DUP2 AND PUSH3 0x87 JUMPI PUSH1 0x40 MLOAD PUSH4 0x1E4FBDF7 PUSH1 0xE0 SHL DUP2 MSTORE PUSH0 PUSH1 0x4 DUP3 ADD MSTORE PUSH1 0x24 ADD PUSH1 0x40 MLOAD DUP1 SWAP2 SUB SWAP1 REVERT JUMPDEST PUSH3 0x92 DUP2 PUSH3 0x27D JUMP JUMPDEST POP PUSH1 0x1 PUSH1 0x1 PUSH1 0xA0 SHL SUB DUP11 AND PUSH3 0xBB JUMPI PUSH1 0x40 MLOAD PUSH4 0xD92E233D PUSH1 0xE0 SHL DUP2 MSTORE PUSH1 0x4 ADD PUSH1 0x40 MLOAD DUP1 SWAP2 SUB SWAP1 REVERT JUMPDEST PUSH1 0x1 PUSH1 0x1 PUSH1 0xA0 SHL SUB DUP10 AND PUSH3 0xE3 JUMPI PUSH1 0x40 MLOAD PUSH4 0xD92E233D PUSH1 0xE0 SHL DUP2 MSTORE PUSH1 0x4 ADD PUSH1 0x40 MLOAD DUP1 SWAP2 SUB SWAP1 REVERT JUMPDEST PUSH1 0x1 PUSH1 0x1 PUSH1 0xA0 SHL SUB DUP9 AND PUSH3 0x10B JUMPI PUSH1 0x40 MLOAD PUSH4 0xD92E233D PUSH1 0xE0 SHL DUP2 MSTORE PUSH1 0x4 ADD PUSH1 0x40 MLOAD DUP1 SWAP2 SUB SWAP1 REVERT JUMPDEST PUSH1 0x1 PUSH1 0x1 PUSH1 0xA0 SHL SUB DUP8 AND PUSH3 0x133 JUMPI PUSH1 0x40 MLOAD PUSH4 0xD92E233D PUSH1 0xE0 SHL DUP2 MSTORE PUSH1 0x4 ADD PUSH1 0x40 MLOAD DUP1 SWAP2 SUB SWAP1 REVERT JUMPDEST PUSH1 0x1 PUSH1 0x1 PUSH1 0xA0 SHL SUB DUP6 AND PUSH3 0x15B JUMPI PUSH1 0x40 MLOAD PUSH4 0xD92E233D PUSH1 0xE0 SHL DUP2 MSTORE PUSH1 0x4 ADD PUSH1 0x40 MLOAD DUP1 SWAP2 SUB SWAP1 REVERT JUMPDEST DUP4 ISZERO DUP1 PUSH3 0x167 JUMPI POP DUP2 ISZERO JUMPDEST ISZERO PUSH3 0x186 JUMPI PUSH1 0x40 MLOAD PUSH4 0xFADC3143 PUSH1 0xE0 SHL DUP2 MSTORE PUSH1 0x4 ADD PUSH1 0x40 MLOAD DUP1 SWAP2 SUB SWAP1 REVERT JUMPDEST DUP4 DUP4 LT PUSH3 0x1A7 JUMPI PUSH1 0x40 MLOAD PUSH4 0xFADC3143 PUSH1 0xE0 SHL DUP2 MSTORE PUSH1 0x4 ADD PUSH1 0x40 MLOAD DUP1 SWAP2 SUB SWAP1 REVERT JUMPDEST DUP2 DUP2 LT PUSH3 0x1C8 JUMPI PUSH1 0x40 MLOAD PUSH4 0xFADC3143 PUSH1 0xE0 SHL DUP2 MSTORE PUSH1 0x4 ADD PUSH1 0x40 MLOAD DUP1 SWAP2 SUB SWAP1 REVERT JUMPDEST PUSH1 0x80 DUP5 SWAP1 MSTORE PUSH1 0xA0 DUP4 SWAP1 MSTORE PUSH1 0xC0 DUP3 SWAP1 MSTORE PUSH1 0xE0 DUP2 SWAP1 MSTORE PUSH1 0x1 PUSH1 0x1 PUSH1 0xA0 SHL SUB DUP1 DUP12 AND PUSH2 0x100 MSTORE DUP10 DUP2 AND PUSH2 0x120 MSTORE DUP9 DUP2 AND PUSH2 0x140 MSTORE DUP8 DUP2 AND PUSH2 0x160 MSTORE DUP7 AND PUSH2 0x180 MSTORE PUSH3 0x212 PUSH0 DUP7 PUSH3 0x2D6 JUMP JUMPDEST POP PUSH3 0x23F PUSH32 0x442A94F1A1FAC79AF32856AF2A64F63648CFA2EF3B98610A5BB7CBEC4CEE6985 DUP7 PUSH3 0x2D6 JUMP JUMPDEST POP PUSH3 0x26C PUSH32 0x65D7A28E3265B37A6474929F336521B332C1681B933F6CB9F3376673440D862A DUP7 PUSH3 0x2D6 JUMP JUMPDEST POP POP POP POP POP POP POP POP POP POP POP PUSH3 0x452 JUMP JUMPDEST PUSH1 0x1 DUP1 SLOAD PUSH1 0x1 PUSH1 0x1 PUSH1 0xA0 SHL SUB DUP4 DUP2 AND PUSH2 0x100 DUP2 DUP2 MUL PUSH2 0x100 PUSH1 0x1 PUSH1 0xA8 SHL SUB NOT DUP6 AND OR SWAP1 SWAP5 SSTORE PUSH1 0x40 MLOAD SWAP4 SWAP1 SWAP3 DIV AND SWAP2 DUP3 SWAP1 PUSH32 0x8BE0079C531659141344CD1FD0A4F28419497F9722A3DAAFE3B4186F6B6457E0 SWAP1 PUSH0 SWAP1 LOG3 POP POP JUMP JUMPDEST PUSH0 DUP3 DUP2 MSTORE PUSH1 0x20 DUP2 DUP2 MSTORE PUSH1 0x40 DUP1 DUP4 KECCAK256 PUSH1 0x1 PUSH1 0x1 PUSH1 0xA0 SHL SUB DUP6 AND DUP5 MSTORE SWAP1 SWAP2 MSTORE DUP2 KECCAK256 SLOAD PUSH1 0xFF AND PUSH3 0x379 JUMPI PUSH0 DUP4 DUP2 MSTORE PUSH1 0x20 DUP2 DUP2 MSTORE PUSH1 0x40 DUP1 DUP4 KECCAK256 PUSH1 0x1 PUSH1 0x1 PUSH1 0xA0 SHL SUB DUP7 AND DUP5 MSTORE SWAP1 SWAP2 MSTORE SWAP1 KECCAK256 DUP1 SLOAD PUSH1 0xFF NOT AND PUSH1 0x1 OR SWAP1 SSTORE PUSH3 0x330 CALLER SWAP1 JUMP JUMPDEST PUSH1 0x1 PUSH1 0x1 PUSH1 0xA0 SHL SUB AND DUP3 PUSH1 0x1 PUSH1 0x1 PUSH1 0xA0 SHL SUB AND DUP5 PUSH32 0x2F8788117E7EFF1D82E926EC794901D17C78024A50270940304540A733656F0D PUSH1 0x40 MLOAD PUSH1 0x40 MLOAD DUP1 SWAP2 SUB SWAP1 LOG4 POP PUSH1 0x1 PUSH3 0x37C JUMP JUMPDEST POP PUSH0 JUMPDEST SWAP3 SWAP2 POP POP JUMP JUMPDEST PUSH1 0x1 PUSH1 0x1 PUSH1 0xA0 SHL SUB DUP2 AND DUP2 EQ PUSH3 0x397 JUMPI PUSH0 DUP1 REVERT JUMPDEST POP JUMP JUMPDEST PUSH0 DUP1 PUSH0 DUP1 PUSH0 DUP1 PUSH0 DUP1 PUSH0 DUP1 PUSH2 0x140 DUP12 DUP14 SUB SLT ISZERO PUSH3 0x3B5 JUMPI PUSH0 DUP1 REVERT JUMPDEST DUP11 MLOAD PUSH3 0x3C2 DUP2 PUSH3 0x382 JUMP JUMPDEST PUSH1 0x20 DUP13 ADD MLOAD SWAP1 SWAP11 POP PUSH3 0x3D5 DUP2 PUSH3 0x382 JUMP JUMPDEST PUSH1 0x40 DUP13 ADD MLOAD SWAP1 SWAP10 POP PUSH3 0x3E8 DUP2 PUSH3 0x382 JUMP JUMPDEST PUSH1 0x60 DUP13 ADD MLOAD SWAP1 SWAP9 POP PUSH3 0x3FB DUP2 PUSH3 0x382 JUMP JUMPDEST PUSH1 0x80 DUP13 ADD MLOAD SWAP1 SWAP8 POP PUSH3 0x40E DUP2 PUSH3 0x382 JUMP JUMPDEST PUSH1 0xA0 DUP13 ADD MLOAD SWAP1 SWAP7 POP PUSH3 0x421 DUP2 PUSH3 0x382 JUMP JUMPDEST DUP1 SWAP6 POP POP PUSH1 0xC0 DUP12 ADD MLOAD SWAP4 POP PUSH1 0xE0 DUP12 ADD MLOAD SWAP3 POP PUSH2 0x100 DUP12 ADD MLOAD SWAP2 POP PUSH2 0x120 DUP12 ADD MLOAD SWAP1 POP SWAP3 SWAP6 SWAP9 SWAP12 SWAP2 SWAP5 SWAP8 SWAP11 POP SWAP3 SWAP6 SWAP9 POP JUMP JUMPDEST PUSH1 0x80 MLOAD PUSH1 0xA0 MLOAD PUSH1 0xC0 MLOAD PUSH1 0xE0 MLOAD PUSH2 0x100 MLOAD PUSH2 0x120 MLOAD PUSH2 0x140 MLOAD PUSH2 0x160 MLOAD PUSH2 0x180 MLOAD PUSH2 0x26AA PUSH3 0x552 PUSH0 CODECOPY PUSH0 DUP2 DUP2 PUSH2 0x88E ADD MSTORE DUP2 DUP2 PUSH2 0x1BE9 ADD MSTORE PUSH2 0x1C3B ADD MSTORE PUSH0 DUP2 DUP2 PUSH2 0x536 ADD MSTORE DUP2 DUP2 PUSH2 0xEC3 ADD MSTORE DUP2 DUP2 PUSH2 0xEF7 ADD MSTORE DUP2 DUP2 PUSH2 0x1102 ADD MSTORE PUSH2 0x185C ADD MSTORE PUSH0 DUP2 DUP2 PUSH2 0x401 ADD MSTORE DUP2 DUP2 PUSH2 0xBEF ADD MSTORE PUSH2 0x18D9 ADD MSTORE PUSH0 DUP2 DUP2 PUSH2 0x7B5 ADD MSTORE DUP2 DUP2 PUSH2 0x1270 ADD MSTORE PUSH2 0x1AD5 ADD MSTORE PUSH0 DUP2 DUP2 PUSH2 0x4E4 ADD MSTORE DUP2 DUP2 PUSH2 0xDAC ADD MSTORE PUSH2 0x142D ADD MSTORE PUSH0 DUP2 DUP2 PUSH2 0x672 ADD MSTORE PUSH2 0xB49 ADD MSTORE PUSH0 DUP2 DUP2 PUSH2 0x835 ADD MSTORE DUP2 DUP2 PUSH2 0xA22 ADD MSTORE DUP2 DUP2 PUSH2 0xB6A ADD MSTORE DUP2 DUP2 PUSH2 0xE6A ADD MSTORE PUSH2 0x1880 ADD MSTORE PUSH0 DUP2 DUP2 PUSH2 0x9DE ADD MSTORE PUSH2 0x11CA ADD MSTORE PUSH0 DUP2 DUP2 PUSH2 0x5CF ADD MSTORE DUP2 DUP2 PUSH2 0x63D ADD MSTORE DUP2 DUP2 PUSH2 0x11EB ADD MSTORE DUP2 DUP2 PUSH2 0x14EB ADD MSTORE PUSH2 0x1A0A ADD MSTORE PUSH2 0x26AA PUSH0 RETURN INVALID PUSH1 0x80 PUSH1 0x40 MSTORE PUSH1 0x4 CALLDATASIZE LT PUSH2 0x2CC JUMPI PUSH0 CALLDATALOAD PUSH1 0xE0 SHR DUP1 PUSH4 0x8456CB59 GT PUSH2 0x174 JUMPI DUP1 PUSH4 0xCA6E6BC1 GT PUSH2 0xDB JUMPI DUP1 PUSH4 0xE63AB1E9 GT PUSH2 0x94 JUMPI DUP1 PUSH4 0xEEE01850 GT PUSH2 0x6E JUMPI DUP1 PUSH4 0xEEE01850 EQ PUSH2 0xA14 JUMPI DUP1 PUSH4 0xEF4688F8 EQ PUSH2 0xA46 JUMPI DUP1 PUSH4 0xF184205F EQ PUSH2 0xA79 JUMPI DUP1 PUSH4 0xF2FDE38B EQ PUSH2 0xAA7 JUMPI PUSH2 0x319 JUMP JUMPDEST DUP1 PUSH4 0xE63AB1E9 EQ PUSH2 0x99A JUMPI DUP1 PUSH4 0xE8144C86 EQ PUSH2 0x9CD JUMPI DUP1 PUSH4 0xE9DD3018 EQ PUSH2 0xA00 JUMPI PUSH2 0x319 JUMP JUMPDEST DUP1 PUSH4 0xCA6E6BC1 EQ PUSH2 0x8CC JUMPI DUP1 PUSH4 0xD407C695 EQ PUSH2 0x8FA JUMPI DUP1 PUSH4 0xD547741F EQ PUSH2 0x919 JUMPI DUP1 PUSH4 0xD886BEE8 EQ PUSH2 0x938 JUMPI DUP1 PUSH4 0xDB61D8C1 EQ PUSH2 0x94D JUMPI DUP1 PUSH4 0xDF592F7D EQ PUSH2 0x97B JUMPI PUSH2 0x319 JUMP JUMPDEST DUP1 PUSH4 0x9A54149E GT PUSH2 0x12D JUMPI DUP1 PUSH4 0x9A54149E EQ PUSH2 0x7F6 JUMPI DUP1 PUSH4 0x9F840C7B EQ PUSH2 0x824 JUMPI DUP1 PUSH4 0xA217FDDF EQ PUSH2 0x857 JUMPI DUP1 PUSH4 0xB214FAA5 EQ PUSH2 0x86A JUMPI DUP1 PUSH4 0xB3DF4DF9 EQ PUSH2 0x87D JUMPI DUP1 PUSH4 0xB7CF5825 EQ PUSH2 0x8B0 JUMPI PUSH2 0x319 JUMP JUMPDEST DUP1 PUSH4 0x8456CB59 EQ PUSH2 0x72B JUMPI DUP1 PUSH4 0x85FF527B EQ PUSH2 0x73F JUMPI DUP1 PUSH4 0x8B61D736 EQ PUSH2 0x754 JUMPI DUP1 PUSH4 0x8DA5CB5B EQ PUSH2 0x782 JUMPI DUP1 PUSH4 0x8F1846DD EQ PUSH2 0x7A4 JUMPI DUP1 PUSH4 0x91D14854 EQ PUSH2 0x7D7 JUMPI PUSH2 0x319 JUMP JUMPDEST DUP1 PUSH4 0x3F4BA83A GT PUSH2 0x233 JUMPI DUP1 PUSH4 0x58F786ED GT PUSH2 0x1EC JUMPI DUP1 PUSH4 0x6D0430EB GT PUSH2 0x1C6 JUMPI DUP1 PUSH4 0x6D0430EB EQ PUSH2 0x6AB JUMPI DUP1 PUSH4 0x715018A6 EQ PUSH2 0x6D9 JUMPI DUP1 PUSH4 0x80B437B1 EQ PUSH2 0x6ED JUMPI DUP1 PUSH4 0x82738C82 EQ PUSH2 0x70C JUMPI PUSH2 0x319 JUMP JUMPDEST DUP1 PUSH4 0x58F786ED EQ PUSH2 0x62F JUMPI DUP1 PUSH4 0x594E41F1 EQ PUSH2 0x661 JUMPI DUP1 PUSH4 0x5C975ABB EQ PUSH2 0x694 JUMPI PUSH2 0x319 JUMP JUMPDEST DUP1 PUSH4 0x3F4BA83A EQ PUSH2 0x577 JUMPI DUP1 PUSH4 0x476343EE EQ PUSH2 0x58B JUMPI DUP1 PUSH4 0x4B01D5DC EQ PUSH2 0x59F JUMPI DUP1 PUSH4 0x4E6ADD93 EQ PUSH2 0x5BE JUMPI DUP1 PUSH4 0x4EA91771 EQ PUSH2 0x5F1 JUMPI DUP1 PUSH4 0x55D168DA EQ PUSH2 0x610 JUMPI PUSH2 0x319 JUMP JUMPDEST DUP1 PUSH4 0x248A9CA3 GT PUSH2 0x285 JUMPI DUP1 PUSH4 0x248A9CA3 EQ PUSH2 0x485 JUMPI DUP1 PUSH4 0x25C2CD12 EQ PUSH2 0x4B3 JUMPI DUP1 PUSH4 0x2B7AC3F3 EQ PUSH2 0x4D3 JUMPI DUP1 PUSH4 0x2F2FF15D EQ PUSH2 0x506 JUMPI DUP1 PUSH4 0x2F48AB7D EQ PUSH2 0x525 JUMPI DUP1 PUSH4 0x36568ABE EQ PUSH2 0x558 JUMPI PUSH2 0x319 JUMP JUMPDEST DUP1 PUSH4 0x1FFC9A7 EQ PUSH2 0x35C JUMPI DUP1 PUSH4 0x20462F3 EQ PUSH2 0x390 JUMPI DUP1 PUSH4 0x280AE8A EQ PUSH2 0x3B9 JUMPI DUP1 PUSH4 0x37A3900 EQ PUSH2 0x3F0 JUMPI DUP1 PUSH4 0x62D3BD7 EQ PUSH2 0x423 JUMPI DUP1 PUSH4 0x17B0A325 EQ PUSH2 0x464 JUMPI PUSH2 0x319 JUMP JUMPDEST CALLDATASIZE PUSH2 0x319 JUMPI PUSH1 0x40 MLOAD PUSH3 0x461BCD PUSH1 0xE5 SHL DUP2 MSTORE PUSH1 0x20 PUSH1 0x4 DUP3 ADD MSTORE PUSH1 0x18 PUSH1 0x24 DUP3 ADD MSTORE PUSH24 0x141C9A5D9858DE541BDBDB0E881D5CD94819195C1BDCDA5D PUSH1 0x42 SHL PUSH1 0x44 DUP3 ADD MSTORE PUSH1 0x64 ADD JUMPDEST PUSH1 0x40 MLOAD DUP1 SWAP2 SUB SWAP1 REVERT JUMPDEST PUSH1 0x40 MLOAD PUSH3 0x461BCD PUSH1 0xE5 SHL DUP2 MSTORE PUSH1 0x20 PUSH1 0x4 DUP3 ADD MSTORE PUSH1 0x18 PUSH1 0x24 DUP3 ADD MSTORE PUSH24 0x141C9A5D9858DE541BDBDB0E881D5CD94819195C1BDCDA5D PUSH1 0x42 SHL PUSH1 0x44 DUP3 ADD MSTORE PUSH1 0x64 ADD PUSH2 0x310 JUMP JUMPDEST CALLVALUE DUP1 ISZERO PUSH2 0x367 JUMPI PUSH0 DUP1 REVERT JUMPDEST POP PUSH2 0x37B PUSH2 0x376 CALLDATASIZE PUSH1 0x4 PUSH2 0x2365 JUMP JUMPDEST PUSH2 0xAC6 JUMP JUMPDEST PUSH1 0x40 MLOAD SWAP1 ISZERO ISZERO DUP2 MSTORE PUSH1 0x20 ADD JUMPDEST PUSH1 0x40 MLOAD DUP1 SWAP2 SUB SWAP1 RETURN JUMPDEST CALLVALUE DUP1 ISZERO PUSH2 0x39B JUMPI PUSH0 DUP1 REVERT JUMPDEST POP PUSH2 0x3A4 PUSH1 0x40 DUP2 JUMP JUMPDEST PUSH1 0x40 MLOAD PUSH4 0xFFFFFFFF SWAP1 SWAP2 AND DUP2 MSTORE PUSH1 0x20 ADD PUSH2 0x387 JUMP JUMPDEST CALLVALUE DUP1 ISZERO PUSH2 0x3C4 JUMPI PUSH0 DUP1 REVERT JUMPDEST POP PUSH2 0x3D8 PUSH2 0x3D3 CALLDATASIZE PUSH1 0x4 PUSH2 0x238C JUMP JUMPDEST PUSH2 0xAFC JUMP JUMPDEST PUSH1 0x40 MLOAD PUSH1 0x1 PUSH1 0x1 PUSH1 0xA0 SHL SUB SWAP1 SWAP2 AND DUP2 MSTORE PUSH1 0x20 ADD PUSH2 0x387 JUMP JUMPDEST CALLVALUE DUP1 ISZERO PUSH2 0x3FB JUMPI PUSH0 DUP1 REVERT JUMPDEST POP PUSH2 0x3D8 PUSH32 0x0 DUP2 JUMP JUMPDEST CALLVALUE DUP1 ISZERO PUSH2 0x42E JUMPI PUSH0 DUP1 REVERT JUMPDEST POP PUSH2 0x456 PUSH32 0x442A94F1A1FAC79AF32856AF2A64F63648CFA2EF3B98610A5BB7CBEC4CEE6985 DUP2 JUMP JUMPDEST PUSH1 0x40 MLOAD SWAP1 DUP2 MSTORE PUSH1 0x20 ADD PUSH2 0x387 JUMP JUMPDEST CALLVALUE DUP1 ISZERO PUSH2 0x46F JUMPI PUSH0 DUP1 REVERT JUMPDEST POP PUSH2 0x483 PUSH2 0x47E CALLDATASIZE PUSH1 0x4 PUSH2 0x23FC JUMP JUMPDEST PUSH2 0xB08 JUMP JUMPDEST STOP JUMPDEST CALLVALUE DUP1 ISZERO PUSH2 0x490 JUMPI PUSH0 DUP1 REVERT JUMPDEST POP PUSH2 0x456 PUSH2 0x49F CALLDATASIZE PUSH1 0x4 PUSH2 0x238C JUMP JUMPDEST PUSH0 SWAP1 DUP2 MSTORE PUSH1 0x20 DUP2 SWAP1 MSTORE PUSH1 0x40 SWAP1 KECCAK256 PUSH1 0x1 ADD SLOAD SWAP1 JUMP JUMPDEST CALLVALUE DUP1 ISZERO PUSH2 0x4BE JUMPI PUSH0 DUP1 REVERT JUMPDEST POP PUSH2 0x456 PUSH0 DUP1 MLOAD PUSH1 0x20 PUSH2 0x2635 DUP4 CODECOPY DUP2 MLOAD SWAP2 MSTORE DUP2 JUMP JUMPDEST CALLVALUE DUP1 ISZERO PUSH2 0x4DE JUMPI PUSH0 DUP1 REVERT JUMPDEST POP PUSH2 0x3D8 PUSH32 0x0 DUP2 JUMP JUMPDEST CALLVALUE DUP1 ISZERO PUSH2 0x511 JUMPI PUSH0 DUP1 REVERT JUMPDEST POP PUSH2 0x483 PUSH2 0x520 CALLDATASIZE PUSH1 0x4 PUSH2 0x2486 JUMP JUMPDEST PUSH2 0xF98 JUMP JUMPDEST CALLVALUE DUP1 ISZERO PUSH2 0x530 JUMPI PUSH0 DUP1 REVERT JUMPDEST POP PUSH2 0x3D8 PUSH32 0x0 DUP2 JUMP JUMPDEST CALLVALUE DUP1 ISZERO PUSH2 0x563 JUMPI PUSH0 DUP1 REVERT JUMPDEST POP PUSH2 0x483 PUSH2 0x572 CALLDATASIZE PUSH1 0x4 PUSH2 0x2486 JUMP JUMPDEST PUSH2 0xFC2 JUMP JUMPDEST CALLVALUE DUP1 ISZERO PUSH2 0x582 JUMPI PUSH0 DUP1 REVERT JUMPDEST POP PUSH2 0x483 PUSH2 0xFFA JUMP JUMPDEST CALLVALUE DUP1 ISZERO PUSH2 0x596 JUMPI PUSH0 DUP1 REVERT JUMPDEST POP PUSH2 0x483 PUSH2 0x102F JUMP JUMPDEST CALLVALUE DUP1 ISZERO PUSH2 0x5AA JUMPI PUSH0 DUP1 REVERT JUMPDEST POP PUSH2 0x483 PUSH2 0x5B9 CALLDATASIZE PUSH1 0x4 PUSH2 0x23FC JUMP JUMPDEST PUSH2 0x1189 JUMP JUMPDEST CALLVALUE DUP1 ISZERO PUSH2 0x5C9 JUMPI PUSH0 DUP1 REVERT JUMPDEST POP PUSH2 0x456 PUSH32 0x0 DUP2 JUMP JUMPDEST CALLVALUE DUP1 ISZERO PUSH2 0x5FC JUMPI PUSH0 DUP1 REVERT JUMPDEST POP PUSH2 0x483 PUSH2 0x60B CALLDATASIZE PUSH1 0x4 PUSH2 0x24B4 JUMP JUMPDEST PUSH2 0x159A JUMP JUMPDEST CALLVALUE DUP1 ISZERO PUSH2 0x61B JUMPI PUSH0 DUP1 REVERT JUMPDEST POP PUSH2 0x483 PUSH2 0x62A CALLDATASIZE PUSH1 0x4 PUSH2 0x238C JUMP JUMPDEST PUSH2 0x160C JUMP JUMPDEST CALLVALUE DUP1 ISZERO PUSH2 0x63A JUMPI PUSH0 DUP1 REVERT JUMPDEST POP PUSH32 0x0 PUSH2 0x456 JUMP JUMPDEST CALLVALUE DUP1 ISZERO PUSH2 0x66C JUMPI PUSH0 DUP1 REVERT JUMPDEST POP PUSH2 0x456 PUSH32 0x0 DUP2 JUMP JUMPDEST CALLVALUE DUP1 ISZERO PUSH2 0x69F JUMPI PUSH0 DUP1 REVERT JUMPDEST POP PUSH1 0x1 SLOAD PUSH1 0xFF AND PUSH2 0x37B JUMP JUMPDEST CALLVALUE DUP1 ISZERO PUSH2 0x6B6 JUMPI PUSH0 DUP1 REVERT JUMPDEST POP PUSH2 0x37B PUSH2 0x6C5 CALLDATASIZE PUSH1 0x4 PUSH2 0x238C JUMP JUMPDEST PUSH1 0x2 PUSH1 0x20 MSTORE PUSH0 SWAP1 DUP2 MSTORE PUSH1 0x40 SWAP1 KECCAK256 SLOAD PUSH1 0xFF AND DUP2 JUMP JUMPDEST CALLVALUE DUP1 ISZERO PUSH2 0x6E4 JUMPI PUSH0 DUP1 REVERT JUMPDEST POP PUSH2 0x483 PUSH2 0x173E JUMP JUMPDEST CALLVALUE DUP1 ISZERO PUSH2 0x6F8 JUMPI PUSH0 DUP1 REVERT JUMPDEST POP PUSH2 0x483 PUSH2 0x707 CALLDATASIZE PUSH1 0x4 PUSH2 0x24B4 JUMP JUMPDEST PUSH2 0x174F JUMP JUMPDEST CALLVALUE DUP1 ISZERO PUSH2 0x717 JUMPI PUSH0 DUP1 REVERT JUMPDEST POP PUSH2 0x483 PUSH2 0x726 CALLDATASIZE PUSH1 0x4 PUSH2 0x238C JUMP JUMPDEST PUSH2 0x17E7 JUMP JUMPDEST CALLVALUE DUP1 ISZERO PUSH2 0x736 JUMPI PUSH0 DUP1 REVERT JUMPDEST POP PUSH2 0x483 PUSH2 0x199E JUMP JUMPDEST CALLVALUE DUP1 ISZERO PUSH2 0x74A JUMPI PUSH0 DUP1 REVERT JUMPDEST POP PUSH2 0x456 PUSH1 0x4B SLOAD DUP2 JUMP JUMPDEST CALLVALUE DUP1 ISZERO PUSH2 0x75F JUMPI PUSH0 DUP1 REVERT JUMPDEST POP PUSH2 0x37B PUSH2 0x76E CALLDATASIZE PUSH1 0x4 PUSH2 0x238C JUMP JUMPDEST PUSH1 0x47 PUSH1 0x20 MSTORE PUSH0 SWAP1 DUP2 MSTORE PUSH1 0x40 SWAP1 KECCAK256 SLOAD PUSH1 0xFF AND DUP2 JUMP JUMPDEST CALLVALUE DUP1 ISZERO PUSH2 0x78D JUMPI PUSH0 DUP1 REVERT JUMPDEST POP PUSH1 0x1 SLOAD PUSH2 0x100 SWAP1 DIV PUSH1 0x1 PUSH1 0x1 PUSH1 0xA0 SHL SUB AND PUSH2 0x3D8 JUMP JUMPDEST CALLVALUE DUP1 ISZERO PUSH2 0x7AF JUMPI PUSH0 DUP1 REVERT JUMPDEST POP PUSH2 0x3D8 PUSH32 0x0 DUP2 JUMP JUMPDEST CALLVALUE DUP1 ISZERO PUSH2 0x7E2 JUMPI PUSH0 DUP1 REVERT JUMPDEST POP PUSH2 0x37B PUSH2 0x7F1 CALLDATASIZE PUSH1 0x4 PUSH2 0x2486 JUMP JUMPDEST PUSH2 0x19D0 JUMP JUMPDEST CALLVALUE DUP1 ISZERO PUSH2 0x801 JUMPI PUSH0 DUP1 REVERT JUMPDEST POP PUSH2 0x37B PUSH2 0x810 CALLDATASIZE PUSH1 0x4 PUSH2 0x238C JUMP JUMPDEST PUSH1 0x4 PUSH1 0x20 MSTORE PUSH0 SWAP1 DUP2 MSTORE PUSH1 0x40 SWAP1 KECCAK256 SLOAD PUSH1 0xFF AND DUP2 JUMP JUMPDEST CALLVALUE DUP1 ISZERO PUSH2 0x82F JUMPI PUSH0 DUP1 REVERT JUMPDEST POP PUSH2 0x456 PUSH32 0x0 DUP2 JUMP JUMPDEST CALLVALUE DUP1 ISZERO PUSH2 0x862 JUMPI PUSH0 DUP1 REVERT JUMPDEST POP PUSH2 0x456 PUSH0 DUP2 JUMP JUMPDEST PUSH2 0x483 PUSH2 0x878 CALLDATASIZE PUSH1 0x4 PUSH2 0x238C JUMP JUMPDEST PUSH2 0x19F8 JUMP JUMPDEST CALLVALUE DUP1 ISZERO PUSH2 0x888 JUMPI PUSH0 DUP1 REVERT JUMPDEST POP PUSH2 0x3D8 PUSH32 0x0 DUP2 JUMP JUMPDEST CALLVALUE DUP1 ISZERO PUSH2 0x8BB JUMPI PUSH0 DUP1 REVERT JUMPDEST POP PUSH1 0x46 SLOAD PUSH2 0x3A4 SWAP1 PUSH4 0xFFFFFFFF AND DUP2 JUMP JUMPDEST CALLVALUE DUP1 ISZERO PUSH2 0x8D7 JUMPI PUSH0 DUP1 REVERT JUMPDEST POP PUSH2 0x37B PUSH2 0x8E6 CALLDATASIZE PUSH1 0x4 PUSH2 0x238C JUMP JUMPDEST PUSH1 0x5 PUSH1 0x20 MSTORE PUSH0 SWAP1 DUP2 MSTORE PUSH1 0x40 SWAP1 KECCAK256 SLOAD PUSH1 0xFF AND DUP2 JUMP JUMPDEST CALLVALUE DUP1 ISZERO PUSH2 0x905 JUMPI PUSH0 DUP1 REVERT JUMPDEST POP PUSH2 0x456 PUSH2 0x914 CALLDATASIZE PUSH1 0x4 PUSH2 0x238C JUMP JUMPDEST PUSH2 0x1B7F JUMP JUMPDEST CALLVALUE DUP1 ISZERO PUSH2 0x924 JUMPI PUSH0 DUP1 REVERT JUMPDEST POP PUSH2 0x483 PUSH2 0x933 CALLDATASIZE PUSH1 0x4 PUSH2 0x2486 JUMP JUMPDEST PUSH2 0x1B95 JUMP JUMPDEST CALLVALUE DUP1 ISZERO PUSH2 0x943 JUMPI PUSH0 DUP1 REVERT JUMPDEST POP PUSH2 0x456 PUSH1 0x4A SLOAD DUP2 JUMP JUMPDEST CALLVALUE DUP1 ISZERO PUSH2 0x958 JUMPI PUSH0 DUP1 REVERT JUMPDEST POP PUSH2 0x37B PUSH2 0x967 CALLDATASIZE PUSH1 0x4 PUSH2 0x238C JUMP JUMPDEST PUSH1 0x3 PUSH1 0x20 MSTORE PUSH0 SWAP1 DUP2 MSTORE PUSH1 0x40 SWAP1 KECCAK256 SLOAD PUSH1 0xFF AND DUP2 JUMP JUMPDEST CALLVALUE DUP1 ISZERO PUSH2 0x986 JUMPI PUSH0 DUP1 REVERT JUMPDEST POP PUSH2 0x37B PUSH2 0x995 CALLDATASIZE PUSH1 0x4 PUSH2 0x24B4 JUMP JUMPDEST PUSH2 0x1BB9 JUMP JUMPDEST CALLVALUE DUP1 ISZERO PUSH2 0x9A5 JUMPI PUSH0 DUP1 REVERT JUMPDEST POP PUSH2 0x456 PUSH32 0x65D7A28E3265B37A6474929F336521B332C1681B933F6CB9F3376673440D862A DUP2 JUMP JUMPDEST CALLVALUE DUP1 ISZERO PUSH2 0x9D8 JUMPI PUSH0 DUP1 REVERT JUMPDEST POP PUSH2 0x456 PUSH32 0x0 DUP2 JUMP JUMPDEST CALLVALUE DUP1 ISZERO PUSH2 0xA0B JUMPI PUSH0 DUP1 REVERT JUMPDEST POP PUSH2 0x456 PUSH2 0x1CAA JUMP JUMPDEST CALLVALUE DUP1 ISZERO PUSH2 0xA1F JUMPI PUSH0 DUP1 REVERT JUMPDEST POP PUSH32 0x0 PUSH2 0x456 JUMP JUMPDEST CALLVALUE DUP1 ISZERO PUSH2 0xA51 JUMPI PUSH0 DUP1 REVERT JUMPDEST POP PUSH2 0x456 PUSH32 0x60DDEEEDCC0AD0194A5DAEAB83D1463588B03ACA86CBEE9384A9D5D1E673C2E2 DUP2 JUMP JUMPDEST CALLVALUE DUP1 ISZERO PUSH2 0xA84 JUMPI PUSH0 DUP1 REVERT JUMPDEST POP PUSH2 0x37B PUSH2 0xA93 CALLDATASIZE PUSH1 0x4 PUSH2 0x238C JUMP JUMPDEST PUSH0 SWAP1 DUP2 MSTORE PUSH1 0x47 PUSH1 0x20 MSTORE PUSH1 0x40 SWAP1 KECCAK256 SLOAD PUSH1 0xFF AND SWAP1 JUMP JUMPDEST CALLVALUE DUP1 ISZERO PUSH2 0xAB2 JUMPI PUSH0 DUP1 REVERT JUMPDEST POP PUSH2 0x483 PUSH2 0xAC1 CALLDATASIZE PUSH1 0x4 PUSH2 0x24B4 JUMP JUMPDEST PUSH2 0x1CBA JUMP JUMPDEST PUSH0 PUSH1 0x1 PUSH1 0x1 PUSH1 0xE0 SHL SUB NOT DUP3 AND PUSH4 0x7965DB0B PUSH1 0xE0 SHL EQ DUP1 PUSH2 0xAF6 JUMPI POP PUSH4 0x1FFC9A7 PUSH1 0xE0 SHL PUSH1 0x1 PUSH1 0x1 PUSH1 0xE0 SHL SUB NOT DUP4 AND EQ JUMPDEST SWAP3 SWAP2 POP POP JUMP JUMPDEST PUSH0 PUSH2 0xAF6 PUSH1 0x48 DUP4 PUSH2 0x1CF4 JUMP JUMPDEST PUSH2 0xB10 PUSH2 0x1D06 JUMP JUMPDEST PUSH2 0xB18 PUSH2 0x1D2A JUMP JUMPDEST PUSH0 DUP5 DUP2 MSTORE PUSH1 0x5 PUSH1 0x20 MSTORE PUSH1 0x40 SWAP1 KECCAK256 SLOAD PUSH1 0xFF AND ISZERO PUSH2 0xB47 JUMPI PUSH1 0x40 MLOAD PUSH4 0x65695701 PUSH1 0xE1 SHL DUP2 MSTORE PUSH1 0x4 ADD PUSH1 0x40 MLOAD DUP1 SWAP2 SUB SWAP1 REVERT JUMPDEST PUSH32 0x0 PUSH32 0x0 PUSH2 0xB93 DUP3 DUP5 PUSH2 0x24E3 JUMP JUMPDEST GT ISZERO PUSH2 0xBB2 JUMPI PUSH1 0x40 MLOAD PUSH4 0x49609D85 PUSH1 0xE1 SHL DUP2 MSTORE PUSH1 0x4 ADD PUSH1 0x40 MLOAD DUP1 SWAP2 SUB SWAP1 REVERT JUMPDEST PUSH1 0x1 PUSH1 0x1 PUSH1 0xA0 SHL SUB DUP5 AND PUSH2 0xBD9 JUMPI PUSH1 0x40 MLOAD PUSH4 0xD92E233D PUSH1 0xE0 SHL DUP2 MSTORE PUSH1 0x4 ADD PUSH1 0x40 MLOAD DUP1 SWAP2 SUB SWAP1 REVERT JUMPDEST PUSH1 0x40 MLOAD PUSH4 0x6D9833E3 PUSH1 0xE0 SHL DUP2 MSTORE PUSH1 0x4 DUP2 ADD DUP9 SWAP1 MSTORE PUSH32 0x0 PUSH1 0x1 PUSH1 0x1 PUSH1 0xA0 SHL SUB AND SWAP1 PUSH4 0x6D9833E3 SWAP1 PUSH1 0x24 ADD PUSH1 0x20 PUSH1 0x40 MLOAD DUP1 DUP4 SUB DUP2 DUP7 GAS STATICCALL ISZERO DUP1 ISZERO PUSH2 0xC3C JUMPI RETURNDATASIZE PUSH0 DUP1 RETURNDATACOPY RETURNDATASIZE PUSH0 REVERT JUMPDEST POP POP POP POP PUSH1 0x40 MLOAD RETURNDATASIZE PUSH1 0x1F NOT PUSH1 0x1F DUP3 ADD AND DUP3 ADD DUP1 PUSH1 0x40 MSTORE POP DUP2 ADD SWAP1 PUSH2 0xC60 SWAP2 SWAP1 PUSH2 0x24F6 JUMP JUMPDEST PUSH2 0xC7D JUMPI PUSH1 0x40 MLOAD PUSH4 0x3F4F4F13 PUSH1 0xE2 SHL DUP2 MSTORE PUSH1 0x4 ADD PUSH1 0x40 MLOAD DUP1 SWAP2 SUB SWAP1 REVERT JUMPDEST PUSH0 DUP7 DUP2 MSTORE PUSH1 0x47 PUSH1 0x20 MSTORE PUSH1 0x40 SWAP1 KECCAK256 SLOAD PUSH1 0xFF AND PUSH2 0xCAB JUMPI PUSH1 0x40 MLOAD PUSH4 0xF3ADDAD PUSH1 0xE2 SHL DUP2 MSTORE PUSH1 0x4 ADD PUSH1 0x40 MLOAD DUP1 SWAP2 SUB SWAP1 REVERT JUMPDEST PUSH2 0xCB4 DUP5 PUSH2 0x1BB9 JUMP JUMPDEST ISZERO PUSH2 0xCDD JUMPI PUSH1 0x40 MLOAD PUSH4 0xDCD3658D PUSH1 0xE0 SHL DUP2 MSTORE PUSH1 0x1 PUSH1 0x1 PUSH1 0xA0 SHL SUB DUP6 AND PUSH1 0x4 DUP3 ADD MSTORE PUSH1 0x24 ADD PUSH2 0x310 JUMP JUMPDEST PUSH1 0x1 PUSH1 0x1 PUSH1 0xA0 SHL SUB DUP4 AND ISZERO DUP1 ISZERO SWAP1 PUSH2 0xCF9 JUMPI POP PUSH2 0xCF9 DUP4 PUSH2 0x1BB9 JUMP JUMPDEST ISZERO PUSH2 0xD22 JUMPI PUSH1 0x40 MLOAD PUSH4 0x6A77805B PUSH1 0xE1 SHL DUP2 MSTORE PUSH1 0x1 PUSH1 0x1 PUSH1 0xA0 SHL SUB DUP5 AND PUSH1 0x4 DUP3 ADD MSTORE PUSH1 0x24 ADD PUSH2 0x310 JUMP JUMPDEST PUSH2 0xD2A PUSH2 0x2347 JUMP JUMPDEST PUSH2 0xD41 PUSH0 DUP1 MLOAD PUSH1 0x20 PUSH2 0x2635 DUP4 CODECOPY DUP2 MLOAD SWAP2 MSTORE DUP10 PUSH2 0x2529 JUMP JUMPDEST DUP2 MSTORE PUSH2 0xD5A PUSH0 DUP1 MLOAD PUSH1 0x20 PUSH2 0x2635 DUP4 CODECOPY DUP2 MLOAD SWAP2 MSTORE DUP9 PUSH2 0x2529 JUMP JUMPDEST PUSH1 0x20 DUP3 ADD MSTORE PUSH2 0xD76 PUSH0 DUP1 MLOAD PUSH1 0x20 PUSH2 0x2635 DUP4 CODECOPY DUP2 MLOAD SWAP2 MSTORE DUP8 PUSH2 0x2529 JUMP JUMPDEST PUSH1 0x40 DUP1 DUP4 ADD SWAP2 SWAP1 SWAP2 MSTORE PUSH1 0x1 PUSH1 0x1 PUSH1 0xA0 SHL SUB DUP7 DUP2 AND PUSH1 0x60 DUP5 ADD MSTORE DUP6 DUP2 AND PUSH1 0x80 DUP5 ADD MSTORE PUSH1 0xA0 DUP4 ADD DUP6 SWAP1 MSTORE SWAP1 MLOAD PUSH4 0x695EF6F9 PUSH1 0xE0 SHL DUP2 MSTORE PUSH32 0x0 SWAP1 SWAP2 AND SWAP1 PUSH4 0x695EF6F9 SWAP1 PUSH2 0xDE7 SWAP1 DUP14 SWAP1 DUP14 SWAP1 DUP7 SWAP1 PUSH1 0x4 ADD PUSH2 0x2550 JUMP JUMPDEST PUSH1 0x20 PUSH1 0x40 MLOAD DUP1 DUP4 SUB DUP2 DUP7 GAS STATICCALL ISZERO DUP1 ISZERO PUSH2 0xE02 JUMPI RETURNDATASIZE PUSH0 DUP1 RETURNDATACOPY RETURNDATASIZE PUSH0 REVERT JUMPDEST POP POP POP POP PUSH1 0x40 MLOAD RETURNDATASIZE PUSH1 0x1F NOT PUSH1 0x1F DUP3 ADD AND DUP3 ADD DUP1 PUSH1 0x40 MSTORE POP DUP2 ADD SWAP1 PUSH2 0xE26 SWAP2 SWAP1 PUSH2 0x24F6 JUMP JUMPDEST PUSH2 0xE43 JUMPI PUSH1 0x40 MLOAD PUSH4 0x9BDE339 PUSH1 0xE0 SHL DUP2 MSTORE PUSH1 0x4 ADD PUSH1 0x40 MLOAD DUP1 SWAP2 SUB SWAP1 REVERT JUMPDEST PUSH0 DUP7 DUP2 MSTORE PUSH1 0x5 PUSH1 0x20 MSTORE PUSH1 0x40 DUP2 KECCAK256 DUP1 SLOAD PUSH1 0xFF NOT AND PUSH1 0x1 OR SWAP1 SSTORE PUSH1 0x4B DUP1 SLOAD DUP5 ADD SWAP1 SSTORE DUP3 PUSH2 0xE8E DUP6 PUSH32 0x0 PUSH2 0x25AB JUMP JUMPDEST PUSH2 0xE98 SWAP2 SWAP1 PUSH2 0x25AB JUMP JUMPDEST SWAP1 POP PUSH0 DUP5 GT DUP1 ISZERO PUSH2 0xEB1 JUMPI POP PUSH1 0x1 PUSH1 0x1 PUSH1 0xA0 SHL SUB DUP6 AND ISZERO ISZERO JUMPDEST ISZERO PUSH2 0xEEA JUMPI PUSH2 0xEEA PUSH1 0x1 PUSH1 0x1 PUSH1 0xA0 SHL SUB PUSH32 0x0 AND DUP7 DUP7 PUSH2 0x1D45 JUMP JUMPDEST PUSH2 0xF1E PUSH1 0x1 PUSH1 0x1 PUSH1 0xA0 SHL SUB PUSH32 0x0 AND DUP8 DUP4 PUSH2 0x1D45 JUMP JUMPDEST DUP5 PUSH1 0x1 PUSH1 0x1 PUSH1 0xA0 SHL SUB AND DUP8 DUP8 PUSH1 0x1 PUSH1 0x1 PUSH1 0xA0 SHL SUB AND PUSH32 0x1CCEA54BE2999A2670D8EC6F44E396FE352A7A4768B045027D6C05F99FCB6E9A DUP8 DUP8 PUSH1 0x40 MLOAD PUSH2 0xF6D SWAP3 SWAP2 SWAP1 SWAP2 DUP3 MSTORE PUSH1 0x20 DUP3 ADD MSTORE PUSH1 0x40 ADD SWAP1 JUMP JUMPDEST PUSH1 0x40 MLOAD DUP1 SWAP2 SUB SWAP1 LOG4 POP POP POP PUSH2 0xF8E PUSH1 0x1 PUSH0 DUP1 MLOAD PUSH1 0x20 PUSH2 0x2655 DUP4 CODECOPY DUP2 MLOAD SWAP2 MSTORE SSTORE JUMP JUMPDEST POP POP POP POP POP POP POP POP JUMP JUMPDEST PUSH0 DUP3 DUP2 MSTORE PUSH1 0x20 DUP2 SWAP1 MSTORE PUSH1 0x40 SWAP1 KECCAK256 PUSH1 0x1 ADD SLOAD PUSH2 0xFB2 DUP2 PUSH2 0x1D7A JUMP JUMPDEST PUSH2 0xFBC DUP4 DUP4 PUSH2 0x1D84 JUMP JUMPDEST POP POP POP POP JUMP JUMPDEST PUSH1 0x1 PUSH1 0x1 PUSH1 0xA0 SHL SUB DUP2 AND CALLER EQ PUSH2 0xFEB JUMPI PUSH1 0x40 MLOAD PUSH4 0x334BD919 PUSH1 0xE1 SHL DUP2 MSTORE PUSH1 0x4 ADD PUSH1 0x40 MLOAD DUP1 SWAP2 SUB SWAP1 REVERT JUMPDEST PUSH2 0xFF5 DUP3 DUP3 PUSH2 0x1E13 JUMP JUMPDEST POP POP POP JUMP JUMPDEST PUSH32 0x65D7A28E3265B37A6474929F336521B332C1681B933F6CB9F3376673440D862A PUSH2 0x1024 DUP2 PUSH2 0x1D7A JUMP JUMPDEST PUSH2 0x102C PUSH2 0x1E7C JUMP JUMPDEST POP JUMP JUMPDEST PUSH2 0x1037 PUSH2 0x1ECE JUMP JUMPDEST PUSH2 0x103F PUSH2 0x1D2A JUMP JUMPDEST PUSH1 0x4A SLOAD PUSH1 0x4B SLOAD DUP2 ISZERO DUP1 ISZERO PUSH2 0x1051 JUMPI POP DUP1 ISZERO JUMPDEST ISZERO PUSH2 0x105D JUMPI POP POP PUSH2 0x1171 JUMP JUMPDEST PUSH0 PUSH1 0x4A DUP2 SWAP1 SSTORE PUSH1 0x4B SSTORE PUSH1 0x1 SLOAD PUSH2 0x100 SWAP1 DIV PUSH1 0x1 PUSH1 0x1 PUSH1 0xA0 SHL SUB AND DUP3 ISZERO PUSH2 0x10EF JUMPI PUSH0 DUP2 PUSH1 0x1 PUSH1 0x1 PUSH1 0xA0 SHL SUB AND DUP5 PUSH1 0x40 MLOAD PUSH0 PUSH1 0x40 MLOAD DUP1 DUP4 SUB DUP2 DUP6 DUP8 GAS CALL SWAP3 POP POP POP RETURNDATASIZE DUP1 PUSH0 DUP2 EQ PUSH2 0x10C6 JUMPI PUSH1 0x40 MLOAD SWAP2 POP PUSH1 0x1F NOT PUSH1 0x3F RETURNDATASIZE ADD AND DUP3 ADD PUSH1 0x40 MSTORE RETURNDATASIZE DUP3 MSTORE RETURNDATASIZE PUSH0 PUSH1 0x20 DUP5 ADD RETURNDATACOPY PUSH2 0x10CB JUMP JUMPDEST PUSH1 0x60 SWAP2 POP JUMPDEST POP POP SWAP1 POP DUP1 PUSH2 0x10ED JUMPI PUSH1 0x40 MLOAD PUSH4 0xDB2C7F1 PUSH1 0xE3 SHL DUP2 MSTORE PUSH1 0x4 ADD PUSH1 0x40 MLOAD DUP1 SWAP2 SUB SWAP1 REVERT JUMPDEST POP JUMPDEST DUP2 ISZERO PUSH2 0x1129 JUMPI PUSH2 0x1129 PUSH1 0x1 PUSH1 0x1 PUSH1 0xA0 SHL SUB PUSH32 0x0 AND DUP3 DUP5 PUSH2 0x1D45 JUMP JUMPDEST PUSH1 0x40 DUP1 MLOAD DUP5 DUP2 MSTORE PUSH1 0x20 DUP2 ADD DUP5 SWAP1 MSTORE PUSH1 0x1 PUSH1 0x1 PUSH1 0xA0 SHL SUB DUP4 AND SWAP2 PUSH32 0xF299F1F754362FC7673EFFE66E73CA8D292DD87FC9FEF1F28F7B97B2EDC4C75B SWAP2 ADD PUSH1 0x40 MLOAD DUP1 SWAP2 SUB SWAP1 LOG2 POP POP POP JUMPDEST PUSH2 0x1187 PUSH1 0x1 PUSH0 DUP1 MLOAD PUSH1 0x20 PUSH2 0x2655 DUP4 CODECOPY DUP2 MLOAD SWAP2 MSTORE SSTORE JUMP JUMPDEST JUMP JUMPDEST PUSH2 0x1191 PUSH2 0x1D06 JUMP JUMPDEST PUSH2 0x1199 PUSH2 0x1D2A JUMP JUMPDEST PUSH0 DUP5 DUP2 MSTORE PUSH1 0x4 PUSH1 0x20 MSTORE PUSH1 0x40 SWAP1 KECCAK256 SLOAD PUSH1 0xFF AND ISZERO PUSH2 0x11C8 JUMPI PUSH1 0x40 MLOAD PUSH4 0x65695701 PUSH1 0xE1 SHL DUP2 MSTORE PUSH1 0x4 ADD PUSH1 0x40 MLOAD DUP1 SWAP2 SUB SWAP1 REVERT JUMPDEST PUSH32 0x0 PUSH32 0x0 PUSH2 0x1214 DUP3 DUP5 PUSH2 0x24E3 JUMP JUMPDEST GT ISZERO PUSH2 0x1233 JUMPI PUSH1 0x40 MLOAD PUSH4 0x49609D85 PUSH1 0xE1 SHL DUP2 MSTORE PUSH1 0x4 ADD PUSH1 0x40 MLOAD DUP1 SWAP2 SUB SWAP1 REVERT JUMPDEST PUSH1 0x1 PUSH1 0x1 PUSH1 0xA0 SHL SUB DUP5 AND PUSH2 0x125A JUMPI PUSH1 0x40 MLOAD PUSH4 0xD92E233D PUSH1 0xE0 SHL DUP2 MSTORE PUSH1 0x4 ADD PUSH1 0x40 MLOAD DUP1 SWAP2 SUB SWAP1 REVERT JUMPDEST PUSH1 0x40 MLOAD PUSH4 0x6D9833E3 PUSH1 0xE0 SHL DUP2 MSTORE PUSH1 0x4 DUP2 ADD DUP9 SWAP1 MSTORE PUSH32 0x0 PUSH1 0x1 PUSH1 0x1 PUSH1 0xA0 SHL SUB AND SWAP1 PUSH4 0x6D9833E3 SWAP1 PUSH1 0x24 ADD PUSH1 0x20 PUSH1 0x40 MLOAD DUP1 DUP4 SUB DUP2 DUP7 GAS STATICCALL ISZERO DUP1 ISZERO PUSH2 0x12BD JUMPI RETURNDATASIZE PUSH0 DUP1 RETURNDATACOPY RETURNDATASIZE PUSH0 REVERT JUMPDEST POP POP POP POP PUSH1 0x40 MLOAD RETURNDATASIZE PUSH1 0x1F NOT PUSH1 0x1F DUP3 ADD AND DUP3 ADD DUP1 PUSH1 0x40 MSTORE POP DUP2 ADD SWAP1 PUSH2 0x12E1 SWAP2 SWAP1 PUSH2 0x24F6 JUMP JUMPDEST PUSH2 0x12FE JUMPI PUSH1 0x40 MLOAD PUSH4 0x3F4F4F13 PUSH1 0xE2 SHL DUP2 MSTORE PUSH1 0x4 ADD PUSH1 0x40 MLOAD DUP1 SWAP2 SUB SWAP1 REVERT JUMPDEST PUSH0 DUP7 DUP2 MSTORE PUSH1 0x47 PUSH1 0x20 MSTORE PUSH1 0x40 SWAP1 KECCAK256 SLOAD PUSH1 0xFF AND PUSH2 0x132C JUMPI PUSH1 0x40 MLOAD PUSH4 0xF3ADDAD PUSH1 0xE2 SHL DUP2 MSTORE PUSH1 0x4 ADD PUSH1 0x40 MLOAD DUP1 SWAP2 SUB SWAP1 REVERT JUMPDEST PUSH2 0x1335 DUP5 PUSH2 0x1BB9 JUMP JUMPDEST ISZERO PUSH2 0x135E JUMPI PUSH1 0x40 MLOAD PUSH4 0xDCD3658D PUSH1 0xE0 SHL DUP2 MSTORE PUSH1 0x1 PUSH1 0x1 PUSH1 0xA0 SHL SUB DUP6 AND PUSH1 0x4 DUP3 ADD MSTORE PUSH1 0x24 ADD PUSH2 0x310 JUMP JUMPDEST PUSH1 0x1 PUSH1 0x1 PUSH1 0xA0 SHL SUB DUP4 AND ISZERO DUP1 ISZERO SWAP1 PUSH2 0x137A JUMPI POP PUSH2 0x137A DUP4 PUSH2 0x1BB9 JUMP JUMPDEST ISZERO PUSH2 0x13A3 JUMPI PUSH1 0x40 MLOAD PUSH4 0x6A77805B PUSH1 0xE1 SHL DUP2 MSTORE PUSH1 0x1 PUSH1 0x1 PUSH1 0xA0 SHL SUB DUP5 AND PUSH1 0x4 DUP3 ADD MSTORE PUSH1 0x24 ADD PUSH2 0x310 JUMP JUMPDEST PUSH2 0x13AB PUSH2 0x2347 JUMP JUMPDEST PUSH2 0x13C2 PUSH0 DUP1 MLOAD PUSH1 0x20 PUSH2 0x2635 DUP4 CODECOPY DUP2 MLOAD SWAP2 MSTORE DUP10 PUSH2 0x2529 JUMP JUMPDEST DUP2 MSTORE PUSH2 0x13DB PUSH0 DUP1 MLOAD PUSH1 0x20 PUSH2 0x2635 DUP4 CODECOPY DUP2 MLOAD SWAP2 MSTORE DUP9 PUSH2 0x2529 JUMP JUMPDEST PUSH1 0x20 DUP3 ADD MSTORE PUSH2 0x13F7 PUSH0 DUP1 MLOAD PUSH1 0x20 PUSH2 0x2635 DUP4 CODECOPY DUP2 MLOAD SWAP2 MSTORE DUP8 PUSH2 0x2529 JUMP JUMPDEST PUSH1 0x40 DUP1 DUP4 ADD SWAP2 SWAP1 SWAP2 MSTORE PUSH1 0x1 PUSH1 0x1 PUSH1 0xA0 SHL SUB DUP7 DUP2 AND PUSH1 0x60 DUP5 ADD MSTORE DUP6 DUP2 AND PUSH1 0x80 DUP5 ADD MSTORE PUSH1 0xA0 DUP4 ADD DUP6 SWAP1 MSTORE SWAP1 MLOAD PUSH4 0x695EF6F9 PUSH1 0xE0 SHL DUP2 MSTORE PUSH32 0x0 SWAP1 SWAP2 AND SWAP1 PUSH4 0x695EF6F9 SWAP1 PUSH2 0x1468 SWAP1 DUP14 SWAP1 DUP14 SWAP1 DUP7 SWAP1 PUSH1 0x4 ADD PUSH2 0x2550 JUMP JUMPDEST PUSH1 0x20 PUSH1 0x40 MLOAD DUP1 DUP4 SUB DUP2 DUP7 GAS STATICCALL ISZERO DUP1 ISZERO PUSH2 0x1483 JUMPI RETURNDATASIZE PUSH0 DUP1 RETURNDATACOPY RETURNDATASIZE PUSH0 REVERT JUMPDEST POP POP POP POP PUSH1 0x40 MLOAD RETURNDATASIZE PUSH1 0x1F NOT PUSH1 0x1F DUP3 ADD AND DUP3 ADD DUP1 PUSH1 0x40 MSTORE POP DUP2 ADD SWAP1 PUSH2 0x14A7 SWAP2 SWAP1 PUSH2 0x24F6 JUMP JUMPDEST PUSH2 0x14C4 JUMPI PUSH1 0x40 MLOAD PUSH4 0x9BDE339 PUSH1 0xE0 SHL DUP2 MSTORE PUSH1 0x4 ADD PUSH1 0x40 MLOAD DUP1 SWAP2 SUB SWAP1 REVERT JUMPDEST PUSH0 DUP7 DUP2 MSTORE PUSH1 0x4 PUSH1 0x20 MSTORE PUSH1 0x40 DUP2 KECCAK256 DUP1 SLOAD PUSH1 0xFF NOT AND PUSH1 0x1 OR SWAP1 SSTORE PUSH1 0x4A DUP1 SLOAD DUP5 ADD SWAP1 SSTORE DUP3 PUSH2 0x150F DUP6 PUSH32 0x0 PUSH2 0x25AB JUMP JUMPDEST PUSH2 0x1519 SWAP2 SWAP1 PUSH2 0x25AB JUMP JUMPDEST SWAP1 POP PUSH0 DUP5 GT DUP1 ISZERO PUSH2 0x1532 JUMPI POP PUSH1 0x1 PUSH1 0x1 PUSH1 0xA0 SHL SUB DUP6 AND ISZERO ISZERO JUMPDEST ISZERO PUSH2 0x1541 JUMPI PUSH2 0x1541 DUP6 DUP6 PUSH2 0x1F01 JUMP JUMPDEST PUSH2 0x154B DUP7 DUP3 PUSH2 0x1F01 JUMP JUMPDEST DUP5 PUSH1 0x1 PUSH1 0x1 PUSH1 0xA0 SHL SUB AND DUP8 DUP8 PUSH1 0x1 PUSH1 0x1 PUSH1 0xA0 SHL SUB AND PUSH32 0x2C354682DFE18BC46BDD9FBF1692549FA36BB4CF776319BC8B5DDD131E5FA0FB DUP8 DUP8 PUSH1 0x40 MLOAD PUSH2 0xF6D SWAP3 SWAP2 SWAP1 SWAP2 DUP3 MSTORE PUSH1 0x20 DUP3 ADD MSTORE PUSH1 0x40 ADD SWAP1 JUMP JUMPDEST PUSH32 0x442A94F1A1FAC79AF32856AF2A64F63648CFA2EF3B98610A5BB7CBEC4CEE6985 PUSH2 0x15C4 DUP2 PUSH2 0x1D7A JUMP JUMPDEST PUSH2 0x15CF PUSH1 0x48 DUP4 PUSH2 0x1F7C JUMP JUMPDEST ISZERO PUSH2 0x1608 JUMPI PUSH1 0x40 MLOAD PUSH1 0x1 PUSH1 0x1 PUSH1 0xA0 SHL SUB DUP4 AND SWAP1 PUSH32 0x27C24E841C9B716A2AF2AE635108FC747D4F0AB26BB3BE48A53E4CE68D1F925B SWAP1 PUSH0 SWAP1 LOG2 JUMPDEST POP POP JUMP JUMPDEST PUSH32 0x60DDEEEDCC0AD0194A5DAEAB83D1463588B03ACA86CBEE9384A9D5D1E673C2E2 PUSH2 0x1636 DUP2 PUSH2 0x1D7A JUMP JUMPDEST DUP2 PUSH2 0x1654 JUMPI PUSH1 0x40 MLOAD PUSH4 0xB263AE73 PUSH1 0xE0 SHL DUP2 MSTORE PUSH1 0x4 ADD PUSH1 0x40 MLOAD DUP1 SWAP2 SUB SWAP1 REVERT JUMPDEST PUSH1 0x46 SLOAD PUSH0 SWAP1 PUSH1 0x40 SWAP1 PUSH2 0x166D SWAP1 PUSH4 0xFFFFFFFF AND PUSH1 0x1 PUSH2 0x25BE JUMP JUMPDEST PUSH2 0x1677 SWAP2 SWAP1 PUSH2 0x25DB JUMP JUMPDEST SWAP1 POP PUSH0 PUSH1 0x6 DUP3 PUSH4 0xFFFFFFFF AND PUSH1 0x40 DUP2 LT PUSH2 0x1693 JUMPI PUSH2 0x1693 PUSH2 0x253C JUMP JUMPDEST ADD SLOAD SWAP1 POP DUP1 ISZERO PUSH2 0x16B3 JUMPI PUSH0 DUP2 DUP2 MSTORE PUSH1 0x47 PUSH1 0x20 MSTORE PUSH1 0x40 SWAP1 KECCAK256 DUP1 SLOAD PUSH1 0xFF NOT AND SWAP1 SSTORE JUMPDEST DUP4 PUSH1 0x6 DUP4 PUSH4 0xFFFFFFFF AND PUSH1 0x40 DUP2 LT PUSH2 0x16CD JUMPI PUSH2 0x16CD PUSH2 0x253C JUMP JUMPDEST ADD SSTORE PUSH0 DUP5 DUP2 MSTORE PUSH1 0x47 PUSH1 0x20 SWAP1 DUP2 MSTORE PUSH1 0x40 SWAP2 DUP3 SWAP1 KECCAK256 DUP1 SLOAD PUSH1 0xFF NOT AND PUSH1 0x1 OR SWAP1 SSTORE PUSH1 0x46 DUP1 SLOAD PUSH4 0xFFFFFFFF DUP7 AND PUSH4 0xFFFFFFFF NOT SWAP1 SWAP2 AND DUP2 OR SWAP1 SWAP2 SSTORE SWAP2 MLOAD SWAP2 DUP3 MSTORE CALLER SWAP2 DUP7 SWAP2 PUSH32 0x2CD97EB1138905D7DC9C1F5E42E188103A85075B9FC446197669F34269111BD SWAP2 ADD PUSH1 0x40 MLOAD DUP1 SWAP2 SUB SWAP1 LOG3 POP POP POP POP JUMP JUMPDEST PUSH2 0x1746 PUSH2 0x1ECE JUMP JUMPDEST PUSH2 0x1187 PUSH0 PUSH2 0x1F90 JUMP JUMPDEST PUSH32 0x442A94F1A1FAC79AF32856AF2A64F63648CFA2EF3B98610A5BB7CBEC4CEE6985 PUSH2 0x1779 DUP2 PUSH2 0x1D7A JUMP JUMPDEST PUSH1 0x1 PUSH1 0x1 PUSH1 0xA0 SHL SUB DUP3 AND PUSH2 0x17A0 JUMPI PUSH1 0x40 MLOAD PUSH4 0xD92E233D PUSH1 0xE0 SHL DUP2 MSTORE PUSH1 0x4 ADD PUSH1 0x40 MLOAD DUP1 SWAP2 SUB SWAP1 REVERT JUMPDEST PUSH2 0x17AB PUSH1 0x48 DUP4 PUSH2 0x1FE9 JUMP JUMPDEST ISZERO PUSH2 0x1608 JUMPI PUSH1 0x40 MLOAD PUSH1 0x1 PUSH1 0x1 PUSH1 0xA0 SHL SUB DUP4 AND SWAP1 PUSH32 0x99F336EB5BC6257AE248080079FDC6CDC792F5B29F86C8302759DAFC68B4C4FD SWAP1 PUSH0 SWAP1 LOG2 POP POP JUMP JUMPDEST PUSH2 0x17EF PUSH2 0x1D06 JUMP JUMPDEST PUSH2 0x17F7 PUSH2 0x1D2A JUMP JUMPDEST PUSH0 DUP2 DUP2 MSTORE PUSH1 0x3 PUSH1 0x20 MSTORE PUSH1 0x40 SWAP1 KECCAK256 SLOAD PUSH1 0xFF AND ISZERO PUSH2 0x1826 JUMPI PUSH1 0x40 MLOAD PUSH4 0x145718A7 PUSH1 0xE0 SHL DUP2 MSTORE PUSH1 0x4 ADD PUSH1 0x40 MLOAD DUP1 SWAP2 SUB SWAP1 REVERT JUMPDEST PUSH2 0x182F CALLER PUSH2 0x1BB9 JUMP JUMPDEST ISZERO PUSH2 0x184F JUMPI PUSH1 0x40 MLOAD PUSH4 0x34DA009F PUSH1 0xE1 SHL DUP2 MSTORE CALLER PUSH1 0x4 DUP3 ADD MSTORE PUSH1 0x24 ADD PUSH2 0x310 JUMP JUMPDEST PUSH2 0x18A4 PUSH1 0x1 PUSH1 0x1 PUSH1 0xA0 SHL SUB PUSH32 0x0 AND CALLER ADDRESS PUSH32 0x0 PUSH2 0x1FFD JUMP JUMPDEST PUSH0 DUP2 DUP2 MSTORE PUSH1 0x3 PUSH1 0x20 MSTORE PUSH1 0x40 DUP1 DUP3 KECCAK256 DUP1 SLOAD PUSH1 0xFF NOT AND PUSH1 0x1 OR SWAP1 SSTORE MLOAD PUSH4 0x2D287E43 PUSH1 0xE0 SHL DUP2 MSTORE PUSH1 0x4 DUP2 ADD DUP4 SWAP1 MSTORE PUSH1 0x1 PUSH1 0x1 PUSH1 0xA0 SHL SUB PUSH32 0x0 AND SWAP1 PUSH4 0x2D287E43 SWAP1 PUSH1 0x24 ADD PUSH1 0x20 PUSH1 0x40 MLOAD DUP1 DUP4 SUB DUP2 PUSH0 DUP8 GAS CALL ISZERO DUP1 ISZERO PUSH2 0x191F JUMPI RETURNDATASIZE PUSH0 DUP1 RETURNDATACOPY RETURNDATASIZE PUSH0 REVERT JUMPDEST POP POP POP POP PUSH1 0x40 MLOAD RETURNDATASIZE PUSH1 0x1F NOT PUSH1 0x1F DUP3 ADD AND DUP3 ADD DUP1 PUSH1 0x40 MSTORE POP DUP2 ADD SWAP1 PUSH2 0x1943 SWAP2 SWAP1 PUSH2 0x25FD JUMP JUMPDEST PUSH1 0x40 DUP1 MLOAD PUSH4 0xFFFFFFFF DUP4 AND DUP2 MSTORE TIMESTAMP PUSH1 0x20 DUP3 ADD MSTORE SWAP2 SWAP3 POP DUP4 SWAP2 PUSH32 0xE2578E0E0BC1B6B885400C3E57BFD5C1DF148BFEED8F534917C3F4FA511C1C52 SWAP2 ADD JUMPDEST PUSH1 0x40 MLOAD DUP1 SWAP2 SUB SWAP1 LOG2 POP PUSH2 0x102C PUSH1 0x1 PUSH0 DUP1 MLOAD PUSH1 0x20 PUSH2 0x2655 DUP4 CODECOPY DUP2 MLOAD SWAP2 MSTORE SSTORE JUMP JUMPDEST PUSH32 0x65D7A28E3265B37A6474929F336521B332C1681B933F6CB9F3376673440D862A PUSH2 0x19C8 DUP2 PUSH2 0x1D7A JUMP JUMPDEST PUSH2 0x102C PUSH2 0x2033 JUMP JUMPDEST PUSH0 SWAP2 DUP3 MSTORE PUSH1 0x20 DUP3 DUP2 MSTORE PUSH1 0x40 DUP1 DUP5 KECCAK256 PUSH1 0x1 PUSH1 0x1 PUSH1 0xA0 SHL SUB SWAP4 SWAP1 SWAP4 AND DUP5 MSTORE SWAP2 SWAP1 MSTORE SWAP1 KECCAK256 SLOAD PUSH1 0xFF AND SWAP1 JUMP JUMPDEST PUSH2 0x1A00 PUSH2 0x1D06 JUMP JUMPDEST PUSH2 0x1A08 PUSH2 0x1D2A JUMP JUMPDEST PUSH32 0x0 CALLVALUE EQ PUSH2 0x1A48 JUMPI PUSH1 0x40 MLOAD PUSH4 0xC1525F11 PUSH1 0xE0 SHL DUP2 MSTORE PUSH1 0x4 ADD PUSH1 0x40 MLOAD DUP1 SWAP2 SUB SWAP1 REVERT JUMPDEST PUSH0 DUP2 DUP2 MSTORE PUSH1 0x2 PUSH1 0x20 MSTORE PUSH1 0x40 SWAP1 KECCAK256 SLOAD PUSH1 0xFF AND ISZERO PUSH2 0x1A77 JUMPI PUSH1 0x40 MLOAD PUSH4 0x145718A7 PUSH1 0xE0 SHL DUP2 MSTORE PUSH1 0x4 ADD PUSH1 0x40 MLOAD DUP1 SWAP2 SUB SWAP1 REVERT JUMPDEST PUSH2 0x1A80 CALLER PUSH2 0x1BB9 JUMP JUMPDEST ISZERO PUSH2 0x1AA0 JUMPI PUSH1 0x40 MLOAD PUSH4 0x34DA009F PUSH1 0xE1 SHL DUP2 MSTORE CALLER PUSH1 0x4 DUP3 ADD MSTORE PUSH1 0x24 ADD PUSH2 0x310 JUMP JUMPDEST PUSH0 DUP2 DUP2 MSTORE PUSH1 0x2 PUSH1 0x20 MSTORE PUSH1 0x40 DUP1 DUP3 KECCAK256 DUP1 SLOAD PUSH1 0xFF NOT AND PUSH1 0x1 OR SWAP1 SSTORE MLOAD PUSH4 0x2D287E43 PUSH1 0xE0 SHL DUP2 MSTORE PUSH1 0x4 DUP2 ADD DUP4 SWAP1 MSTORE PUSH1 0x1 PUSH1 0x1 PUSH1 0xA0 SHL SUB PUSH32 0x0 AND SWAP1 PUSH4 0x2D287E43 SWAP1 PUSH1 0x24 ADD PUSH1 0x20 PUSH1 0x40 MLOAD DUP1 DUP4 SUB DUP2 PUSH0 DUP8 GAS CALL ISZERO DUP1 ISZERO PUSH2 0x1B1B JUMPI RETURNDATASIZE PUSH0 DUP1 RETURNDATACOPY RETURNDATASIZE PUSH0 REVERT JUMPDEST POP POP POP POP PUSH1 0x40 MLOAD RETURNDATASIZE PUSH1 0x1F NOT PUSH1 0x1F DUP3 ADD AND DUP3 ADD DUP1 PUSH1 0x40 MSTORE POP DUP2 ADD SWAP1 PUSH2 0x1B3F SWAP2 SWAP1 PUSH2 0x25FD JUMP JUMPDEST PUSH1 0x40 DUP1 MLOAD PUSH4 0xFFFFFFFF DUP4 AND DUP2 MSTORE TIMESTAMP PUSH1 0x20 DUP3 ADD MSTORE SWAP2 SWAP3 POP DUP4 SWAP2 PUSH32 0xC6BA7861996C8EAB82344EB22ED1E20AB4F97EBC4D7477A53C911DB9AB8A5F9 SWAP2 ADD PUSH2 0x197F JUMP JUMPDEST PUSH1 0x6 DUP2 PUSH1 0x40 DUP2 LT PUSH2 0x1B8E JUMPI PUSH0 DUP1 REVERT JUMPDEST ADD SLOAD SWAP1 POP DUP2 JUMP JUMPDEST PUSH0 DUP3 DUP2 MSTORE PUSH1 0x20 DUP2 SWAP1 MSTORE PUSH1 0x40 SWAP1 KECCAK256 PUSH1 0x1 ADD SLOAD PUSH2 0x1BAF DUP2 PUSH2 0x1D7A JUMP JUMPDEST PUSH2 0xFBC DUP4 DUP4 PUSH2 0x1E13 JUMP JUMPDEST PUSH0 PUSH1 0x1 PUSH1 0x1 PUSH1 0xA0 SHL SUB DUP3 AND PUSH2 0x1BCF JUMPI POP PUSH0 SWAP2 SWAP1 POP JUMP JUMPDEST PUSH2 0x1BDA PUSH1 0x48 DUP4 PUSH2 0x206E JUMP JUMPDEST ISZERO PUSH2 0x1BE7 JUMPI POP PUSH1 0x1 SWAP2 SWAP1 POP JUMP JUMPDEST PUSH32 0x0 PUSH1 0x1 PUSH1 0x1 PUSH1 0xA0 SHL SUB AND PUSH2 0x1C1C JUMPI POP PUSH0 SWAP2 SWAP1 POP JUMP JUMPDEST PUSH1 0x40 MLOAD PUSH4 0xDF592F7D PUSH1 0xE0 SHL DUP2 MSTORE PUSH1 0x1 PUSH1 0x1 PUSH1 0xA0 SHL SUB DUP4 DUP2 AND PUSH1 0x4 DUP4 ADD MSTORE PUSH32 0x0 AND SWAP1 PUSH4 0xDF592F7D SWAP1 PUSH1 0x24 ADD PUSH1 0x20 PUSH1 0x40 MLOAD DUP1 DUP4 SUB DUP2 DUP7 GAS STATICCALL SWAP3 POP POP POP DUP1 ISZERO PUSH2 0x1C9E JUMPI POP PUSH1 0x40 DUP1 MLOAD PUSH1 0x1F RETURNDATASIZE SWAP1 DUP2 ADD PUSH1 0x1F NOT AND DUP3 ADD SWAP1 SWAP3 MSTORE PUSH2 0x1C9B SWAP2 DUP2 ADD SWAP1 PUSH2 0x24F6 JUMP JUMPDEST PUSH1 0x1 JUMPDEST PUSH2 0xAF6 JUMPI POP PUSH1 0x1 SWAP2 SWAP1 POP JUMP JUMPDEST PUSH0 PUSH2 0x1CB5 PUSH1 0x48 PUSH2 0x208F JUMP JUMPDEST SWAP1 POP SWAP1 JUMP JUMPDEST PUSH2 0x1CC2 PUSH2 0x1ECE JUMP JUMPDEST PUSH1 0x1 PUSH1 0x1 PUSH1 0xA0 SHL SUB DUP2 AND PUSH2 0x1CEB JUMPI PUSH1 0x40 MLOAD PUSH4 0x1E4FBDF7 PUSH1 0xE0 SHL DUP2 MSTORE PUSH0 PUSH1 0x4 DUP3 ADD MSTORE PUSH1 0x24 ADD PUSH2 0x310 JUMP JUMPDEST PUSH2 0x102C DUP2 PUSH2 0x1F90 JUMP JUMPDEST PUSH0 PUSH2 0x1CFF DUP4 DUP4 PUSH2 0x2098 JUMP JUMPDEST SWAP4 SWAP3 POP POP POP JUMP JUMPDEST PUSH1 0x1 SLOAD PUSH1 0xFF AND ISZERO PUSH2 0x1187 JUMPI PUSH1 0x40 MLOAD PUSH4 0xD93C0665 PUSH1 0xE0 SHL DUP2 MSTORE PUSH1 0x4 ADD PUSH1 0x40 MLOAD DUP1 SWAP2 SUB SWAP1 REVERT JUMPDEST PUSH2 0x1D32 PUSH2 0x20BE JUMP JUMPDEST PUSH1 0x2 PUSH0 DUP1 MLOAD PUSH1 0x20 PUSH2 0x2655 DUP4 CODECOPY DUP2 MLOAD SWAP2 MSTORE SSTORE JUMP JUMPDEST PUSH2 0x1D52 DUP4 DUP4 DUP4 PUSH1 0x1 PUSH2 0x20ED JUMP JUMPDEST PUSH2 0xFF5 JUMPI PUSH1 0x40 MLOAD PUSH4 0x5274AFE7 PUSH1 0xE0 SHL DUP2 MSTORE PUSH1 0x1 PUSH1 0x1 PUSH1 0xA0 SHL SUB DUP5 AND PUSH1 0x4 DUP3 ADD MSTORE PUSH1 0x24 ADD PUSH2 0x310 JUMP JUMPDEST PUSH2 0x102C DUP2 CALLER PUSH2 0x214F JUMP JUMPDEST PUSH0 PUSH2 0x1D8F DUP4 DUP4 PUSH2 0x19D0 JUMP JUMPDEST PUSH2 0x1E0C JUMPI PUSH0 DUP4 DUP2 MSTORE PUSH1 0x20 DUP2 DUP2 MSTORE PUSH1 0x40 DUP1 DUP4 KECCAK256 PUSH1 0x1 PUSH1 0x1 PUSH1 0xA0 SHL SUB DUP7 AND DUP5 MSTORE SWAP1 SWAP2 MSTORE SWAP1 KECCAK256 DUP1 SLOAD PUSH1 0xFF NOT AND PUSH1 0x1 OR SWAP1 SSTORE PUSH2 0x1DC4 CALLER SWAP1 JUMP JUMPDEST PUSH1 0x1 PUSH1 0x1 PUSH1 0xA0 SHL SUB AND DUP3 PUSH1 0x1 PUSH1 0x1 PUSH1 0xA0 SHL SUB AND DUP5 PUSH32 0x2F8788117E7EFF1D82E926EC794901D17C78024A50270940304540A733656F0D PUSH1 0x40 MLOAD PUSH1 0x40 MLOAD DUP1 SWAP2 SUB SWAP1 LOG4 POP PUSH1 0x1 PUSH2 0xAF6 JUMP JUMPDEST POP PUSH0 PUSH2 0xAF6 JUMP JUMPDEST PUSH0 PUSH2 0x1E1E DUP4 DUP4 PUSH2 0x19D0 JUMP JUMPDEST ISZERO PUSH2 0x1E0C JUMPI PUSH0 DUP4 DUP2 MSTORE PUSH1 0x20 DUP2 DUP2 MSTORE PUSH1 0x40 DUP1 DUP4 KECCAK256 PUSH1 0x1 PUSH1 0x1 PUSH1 0xA0 SHL SUB DUP7 AND DUP1 DUP6 MSTORE SWAP3 MSTORE DUP1 DUP4 KECCAK256 DUP1 SLOAD PUSH1 0xFF NOT AND SWAP1 SSTORE MLOAD CALLER SWAP3 DUP7 SWAP2 PUSH32 0xF6391F5C32D9C69D2A47EA670B442974B53935D1EDC7FD64EB21E047A839171B SWAP2 SWAP1 LOG4 POP PUSH1 0x1 PUSH2 0xAF6 JUMP JUMPDEST PUSH2 0x1E84 PUSH2 0x2188 JUMP JUMPDEST PUSH1 0x1 DUP1 SLOAD PUSH1 0xFF NOT AND SWAP1 SSTORE PUSH32 0x5DB9EE0A495BF2E6FF9C91A7834C1BA4FDD244A5E8AA4E537BD38AEAE4B073AA CALLER JUMPDEST PUSH1 0x40 MLOAD PUSH1 0x1 PUSH1 0x1 PUSH1 0xA0 SHL SUB SWAP1 SWAP2 AND DUP2 MSTORE PUSH1 0x20 ADD PUSH1 0x40 MLOAD DUP1 SWAP2 SUB SWAP1 LOG1 JUMP JUMPDEST PUSH1 0x1 SLOAD PUSH1 0x1 PUSH1 0x1 PUSH1 0xA0 SHL SUB PUSH2 0x100 SWAP1 SWAP2 DIV AND CALLER EQ PUSH2 0x1187 JUMPI PUSH1 0x40 MLOAD PUSH4 0x118CDAA7 PUSH1 0xE0 SHL DUP2 MSTORE CALLER PUSH1 0x4 DUP3 ADD MSTORE PUSH1 0x24 ADD PUSH2 0x310 JUMP JUMPDEST DUP1 PUSH0 SUB PUSH2 0x1F0C JUMPI POP POP JUMP JUMPDEST PUSH0 DUP3 PUSH1 0x1 PUSH1 0x1 PUSH1 0xA0 SHL SUB AND DUP3 PUSH1 0x40 MLOAD PUSH0 PUSH1 0x40 MLOAD DUP1 DUP4 SUB DUP2 DUP6 DUP8 GAS CALL SWAP3 POP POP POP RETURNDATASIZE DUP1 PUSH0 DUP2 EQ PUSH2 0x1F55 JUMPI PUSH1 0x40 MLOAD SWAP2 POP PUSH1 0x1F NOT PUSH1 0x3F RETURNDATASIZE ADD AND DUP3 ADD PUSH1 0x40 MSTORE RETURNDATASIZE DUP3 MSTORE RETURNDATASIZE PUSH0 PUSH1 0x20 DUP5 ADD RETURNDATACOPY PUSH2 0x1F5A JUMP JUMPDEST PUSH1 0x60 SWAP2 POP JUMPDEST POP POP SWAP1 POP DUP1 PUSH2 0xFF5 JUMPI PUSH1 0x40 MLOAD PUSH4 0xDB2C7F1 PUSH1 0xE3 SHL DUP2 MSTORE PUSH1 0x4 ADD PUSH1 0x40 MLOAD DUP1 SWAP2 SUB SWAP1 REVERT JUMPDEST PUSH0 PUSH2 0x1CFF DUP4 PUSH1 0x1 PUSH1 0x1 PUSH1 0xA0 SHL SUB DUP5 AND PUSH2 0x21AB JUMP JUMPDEST PUSH1 0x1 DUP1 SLOAD PUSH1 0x1 PUSH1 0x1 PUSH1 0xA0 SHL SUB DUP4 DUP2 AND PUSH2 0x100 DUP2 DUP2 MUL PUSH2 0x100 PUSH1 0x1 PUSH1 0xA8 SHL SUB NOT DUP6 AND OR SWAP1 SWAP5 SSTORE PUSH1 0x40 MLOAD SWAP4 SWAP1 SWAP3 DIV AND SWAP2 DUP3 SWAP1 PUSH32 0x8BE0079C531659141344CD1FD0A4F28419497F9722A3DAAFE3B4186F6B6457E0 SWAP1 PUSH0 SWAP1 LOG3 POP POP JUMP JUMPDEST PUSH0 PUSH2 0x1CFF DUP4 PUSH1 0x1 PUSH1 0x1 PUSH1 0xA0 SHL SUB DUP5 AND PUSH2 0x2295 JUMP JUMPDEST PUSH2 0x200B DUP5 DUP5 DUP5 DUP5 PUSH1 0x1 PUSH2 0x22DA JUMP JUMPDEST PUSH2 0xFBC JUMPI PUSH1 0x40 MLOAD PUSH4 0x5274AFE7 PUSH1 0xE0 SHL DUP2 MSTORE PUSH1 0x1 PUSH1 0x1 PUSH1 0xA0 SHL SUB DUP6 AND PUSH1 0x4 DUP3 ADD MSTORE PUSH1 0x24 ADD PUSH2 0x310 JUMP JUMPDEST PUSH2 0x203B PUSH2 0x1D06 JUMP JUMPDEST PUSH1 0x1 DUP1 SLOAD PUSH1 0xFF NOT AND DUP2 OR SWAP1 SSTORE PUSH32 0x62E78CEA01BEE320CD4E420270B5EA74000D11B0C9F74754EBDBFC544B05A258 CALLER PUSH2 0x1EB1 JUMP JUMPDEST PUSH1 0x1 PUSH1 0x1 PUSH1 0xA0 SHL SUB DUP2 AND PUSH0 SWAP1 DUP2 MSTORE PUSH1 0x1 DUP4 ADD PUSH1 0x20 MSTORE PUSH1 0x40 DUP2 KECCAK256 SLOAD ISZERO ISZERO PUSH2 0x1CFF JUMP JUMPDEST PUSH0 PUSH2 0xAF6 DUP3 SLOAD SWAP1 JUMP JUMPDEST PUSH0 DUP3 PUSH0 ADD DUP3 DUP2 SLOAD DUP2 LT PUSH2 0x20AD JUMPI PUSH2 0x20AD PUSH2 0x253C JUMP JUMPDEST SWAP1 PUSH0 MSTORE PUSH1 0x20 PUSH0 KECCAK256 ADD SLOAD SWAP1 POP SWAP3 SWAP2 POP POP JUMP JUMPDEST PUSH0 DUP1 MLOAD PUSH1 0x20 PUSH2 0x2655 DUP4 CODECOPY DUP2 MLOAD SWAP2 MSTORE SLOAD PUSH1 0x2 SUB PUSH2 0x1187 JUMPI PUSH1 0x40 MLOAD PUSH4 0x3EE5AEB5 PUSH1 0xE0 SHL DUP2 MSTORE PUSH1 0x4 ADD PUSH1 0x40 MLOAD DUP1 SWAP2 SUB SWAP1 REVERT JUMPDEST PUSH1 0x40 MLOAD PUSH4 0xA9059CBB PUSH1 0xE0 SHL PUSH0 DUP2 DUP2 MSTORE PUSH1 0x1 PUSH1 0x1 PUSH1 0xA0 SHL SUB DUP7 AND PUSH1 0x4 MSTORE PUSH1 0x24 DUP6 SWAP1 MSTORE SWAP2 PUSH1 0x20 DUP4 PUSH1 0x44 DUP2 DUP1 DUP12 GAS CALL SWAP3 POP PUSH1 0x1 PUSH0 MLOAD EQ DUP4 AND PUSH2 0x2143 JUMPI DUP4 DUP4 ISZERO AND ISZERO PUSH2 0x2137 JUMPI RETURNDATASIZE PUSH0 DUP3 RETURNDATACOPY RETURNDATASIZE DUP2 REVERT JUMPDEST PUSH0 DUP8 EXTCODESIZE GT RETURNDATASIZE ISZERO AND DUP4 AND SWAP3 POP JUMPDEST PUSH1 0x40 MSTORE POP SWAP5 SWAP4 POP POP POP POP JUMP JUMPDEST PUSH2 0x2159 DUP3 DUP3 PUSH2 0x19D0 JUMP JUMPDEST PUSH2 0x1608 JUMPI PUSH1 0x40 MLOAD PUSH4 0xE2517D3F PUSH1 0xE0 SHL DUP2 MSTORE PUSH1 0x1 PUSH1 0x1 PUSH1 0xA0 SHL SUB DUP3 AND PUSH1 0x4 DUP3 ADD MSTORE PUSH1 0x24 DUP2 ADD DUP4 SWAP1 MSTORE PUSH1 0x44 ADD PUSH2 0x310 JUMP JUMPDEST PUSH1 0x1 SLOAD PUSH1 0xFF AND PUSH2 0x1187 JUMPI PUSH1 0x40 MLOAD PUSH4 0x8DFC202B PUSH1 0xE0 SHL DUP2 MSTORE PUSH1 0x4 ADD PUSH1 0x40 MLOAD DUP1 SWAP2 SUB SWAP1 REVERT JUMPDEST PUSH0 DUP2 DUP2 MSTORE PUSH1 0x1 DUP4 ADD PUSH1 0x20 MSTORE PUSH1 0x40 DUP2 KECCAK256 SLOAD DUP1 ISZERO PUSH2 0x2285 JUMPI PUSH0 PUSH2 0x21CD PUSH1 0x1 DUP4 PUSH2 0x25AB JUMP JUMPDEST DUP6 SLOAD SWAP1 SWAP2 POP PUSH0 SWAP1 PUSH2 0x21E0 SWAP1 PUSH1 0x1 SWAP1 PUSH2 0x25AB JUMP JUMPDEST SWAP1 POP DUP1 DUP3 EQ PUSH2 0x223F JUMPI PUSH0 DUP7 PUSH0 ADD DUP3 DUP2 SLOAD DUP2 LT PUSH2 0x21FE JUMPI PUSH2 0x21FE PUSH2 0x253C JUMP JUMPDEST SWAP1 PUSH0 MSTORE PUSH1 0x20 PUSH0 KECCAK256 ADD SLOAD SWAP1 POP DUP1 DUP8 PUSH0 ADD DUP5 DUP2 SLOAD DUP2 LT PUSH2 0x221E JUMPI PUSH2 0x221E PUSH2 0x253C JUMP JUMPDEST PUSH0 SWAP2 DUP3 MSTORE PUSH1 0x20 DUP1 DUP4 KECCAK256 SWAP1 SWAP2 ADD SWAP3 SWAP1 SWAP3 SSTORE SWAP2 DUP3 MSTORE PUSH1 0x1 DUP9 ADD SWAP1 MSTORE PUSH1 0x40 SWAP1 KECCAK256 DUP4 SWAP1 SSTORE JUMPDEST DUP6 SLOAD DUP7 SWAP1 DUP1 PUSH2 0x2250 JUMPI PUSH2 0x2250 PUSH2 0x2620 JUMP JUMPDEST PUSH1 0x1 SWAP1 SUB DUP2 DUP2 SWAP1 PUSH0 MSTORE PUSH1 0x20 PUSH0 KECCAK256 ADD PUSH0 SWAP1 SSTORE SWAP1 SSTORE DUP6 PUSH1 0x1 ADD PUSH0 DUP7 DUP2 MSTORE PUSH1 0x20 ADD SWAP1 DUP2 MSTORE PUSH1 0x20 ADD PUSH0 KECCAK256 PUSH0 SWAP1 SSTORE PUSH1 0x1 SWAP4 POP POP POP POP PUSH2 0xAF6 JUMP JUMPDEST PUSH0 SWAP2 POP POP PUSH2 0xAF6 JUMP JUMPDEST POP SWAP3 SWAP2 POP POP JUMP JUMPDEST PUSH0 DUP2 DUP2 MSTORE PUSH1 0x1 DUP4 ADD PUSH1 0x20 MSTORE PUSH1 0x40 DUP2 KECCAK256 SLOAD PUSH2 0x1E0C JUMPI POP DUP2 SLOAD PUSH1 0x1 DUP2 DUP2 ADD DUP5 SSTORE PUSH0 DUP5 DUP2 MSTORE PUSH1 0x20 DUP1 DUP3 KECCAK256 SWAP1 SWAP4 ADD DUP5 SWAP1 SSTORE DUP5 SLOAD DUP5 DUP3 MSTORE DUP3 DUP7 ADD SWAP1 SWAP4 MSTORE PUSH1 0x40 SWAP1 KECCAK256 SWAP2 SWAP1 SWAP2 SSTORE PUSH2 0xAF6 JUMP JUMPDEST PUSH1 0x40 MLOAD PUSH4 0x23B872DD PUSH1 0xE0 SHL PUSH0 DUP2 DUP2 MSTORE PUSH1 0x1 PUSH1 0x1 PUSH1 0xA0 SHL SUB DUP8 DUP2 AND PUSH1 0x4 MSTORE DUP7 AND PUSH1 0x24 MSTORE PUSH1 0x44 DUP6 SWAP1 MSTORE SWAP2 PUSH1 0x20 DUP4 PUSH1 0x64 DUP2 DUP1 DUP13 GAS CALL SWAP3 POP PUSH1 0x1 PUSH0 MLOAD EQ DUP4 AND PUSH2 0x2336 JUMPI DUP4 DUP4 ISZERO AND ISZERO PUSH2 0x232A JUMPI RETURNDATASIZE PUSH0 DUP3 RETURNDATACOPY RETURNDATASIZE DUP2 REVERT JUMPDEST PUSH0 DUP9 EXTCODESIZE GT RETURNDATASIZE ISZERO AND DUP4 AND SWAP3 POP JUMPDEST PUSH1 0x40 MSTORE POP PUSH0 PUSH1 0x60 MSTORE SWAP6 SWAP5 POP POP POP POP POP JUMP JUMPDEST PUSH1 0x40 MLOAD DUP1 PUSH1 0xC0 ADD PUSH1 0x40 MSTORE DUP1 PUSH1 0x6 SWAP1 PUSH1 0x20 DUP3 MUL DUP1 CALLDATASIZE DUP4 CALLDATACOPY POP SWAP2 SWAP3 SWAP2 POP POP JUMP JUMPDEST PUSH0 PUSH1 0x20 DUP3 DUP5 SUB SLT ISZERO PUSH2 0x2375 JUMPI PUSH0 DUP1 REVERT JUMPDEST DUP2 CALLDATALOAD PUSH1 0x1 PUSH1 0x1 PUSH1 0xE0 SHL SUB NOT DUP2 AND DUP2 EQ PUSH2 0x1CFF JUMPI PUSH0 DUP1 REVERT JUMPDEST PUSH0 PUSH1 0x20 DUP3 DUP5 SUB SLT ISZERO PUSH2 0x239C JUMPI PUSH0 DUP1 REVERT JUMPDEST POP CALLDATALOAD SWAP2 SWAP1 POP JUMP JUMPDEST PUSH0 DUP1 DUP4 PUSH1 0x1F DUP5 ADD SLT PUSH2 0x23B3 JUMPI PUSH0 DUP1 REVERT JUMPDEST POP DUP2 CALLDATALOAD PUSH8 0xFFFFFFFFFFFFFFFF DUP2 GT ISZERO PUSH2 0x23CA JUMPI PUSH0 DUP1 REVERT JUMPDEST PUSH1 0x20 DUP4 ADD SWAP2 POP DUP4 PUSH1 0x20 DUP3 DUP6 ADD ADD GT ISZERO PUSH2 0x23E1 JUMPI PUSH0 DUP1 REVERT JUMPDEST SWAP3 POP SWAP3 SWAP1 POP JUMP JUMPDEST PUSH1 0x1 PUSH1 0x1 PUSH1 0xA0 SHL SUB DUP2 AND DUP2 EQ PUSH2 0x102C JUMPI PUSH0 DUP1 REVERT JUMPDEST PUSH0 DUP1 PUSH0 DUP1 PUSH0 DUP1 PUSH0 DUP1 PUSH1 0xE0 DUP10 DUP12 SUB SLT ISZERO PUSH2 0x2413 JUMPI PUSH0 DUP1 REVERT JUMPDEST DUP9 CALLDATALOAD PUSH8 0xFFFFFFFFFFFFFFFF DUP2 GT ISZERO PUSH2 0x2429 JUMPI PUSH0 DUP1 REVERT JUMPDEST PUSH2 0x2435 DUP12 DUP3 DUP13 ADD PUSH2 0x23A3 JUMP JUMPDEST SWAP1 SWAP10 POP SWAP8 POP POP PUSH1 0x20 DUP10 ADD CALLDATALOAD SWAP6 POP PUSH1 0x40 DUP10 ADD CALLDATALOAD SWAP5 POP PUSH1 0x60 DUP10 ADD CALLDATALOAD SWAP4 POP PUSH1 0x80 DUP10 ADD CALLDATALOAD PUSH2 0x245E DUP2 PUSH2 0x23E8 JUMP JUMPDEST SWAP3 POP PUSH1 0xA0 DUP10 ADD CALLDATALOAD PUSH2 0x246E DUP2 PUSH2 0x23E8 JUMP JUMPDEST DUP1 SWAP3 POP POP PUSH1 0xC0 DUP10 ADD CALLDATALOAD SWAP1 POP SWAP3 SWAP6 SWAP9 POP SWAP3 SWAP6 SWAP9 SWAP1 SWAP4 SWAP7 POP JUMP JUMPDEST PUSH0 DUP1 PUSH1 0x40 DUP4 DUP6 SUB SLT ISZERO PUSH2 0x2497 JUMPI PUSH0 DUP1 REVERT JUMPDEST DUP3 CALLDATALOAD SWAP2 POP PUSH1 0x20 DUP4 ADD CALLDATALOAD PUSH2 0x24A9 DUP2 PUSH2 0x23E8 JUMP JUMPDEST DUP1 SWAP2 POP POP SWAP3 POP SWAP3 SWAP1 POP JUMP JUMPDEST PUSH0 PUSH1 0x20 DUP3 DUP5 SUB SLT ISZERO PUSH2 0x24C4 JUMPI PUSH0 DUP1 REVERT JUMPDEST DUP2 CALLDATALOAD PUSH2 0x1CFF DUP2 PUSH2 0x23E8 JUMP JUMPDEST PUSH4 0x4E487B71 PUSH1 0xE0 SHL PUSH0 MSTORE PUSH1 0x11 PUSH1 0x4 MSTORE PUSH1 0x24 PUSH0 REVERT JUMPDEST DUP1 DUP3 ADD DUP1 DUP3 GT ISZERO PUSH2 0xAF6 JUMPI PUSH2 0xAF6 PUSH2 0x24CF JUMP JUMPDEST PUSH0 PUSH1 0x20 DUP3 DUP5 SUB SLT ISZERO PUSH2 0x2506 JUMPI PUSH0 DUP1 REVERT JUMPDEST DUP2 MLOAD DUP1 ISZERO ISZERO DUP2 EQ PUSH2 0x1CFF JUMPI PUSH0 DUP1 REVERT JUMPDEST PUSH4 0x4E487B71 PUSH1 0xE0 SHL PUSH0 MSTORE PUSH1 0x12 PUSH1 0x4 MSTORE PUSH1 0x24 PUSH0 REVERT JUMPDEST PUSH0 DUP3 PUSH2 0x2537 JUMPI PUSH2 0x2537 PUSH2 0x2515 JUMP JUMPDEST POP MOD SWAP1 JUMP JUMPDEST PUSH4 0x4E487B71 PUSH1 0xE0 SHL PUSH0 MSTORE PUSH1 0x32 PUSH1 0x4 MSTORE PUSH1 0x24 PUSH0 REVERT JUMPDEST PUSH1 0xE0 DUP2 MSTORE DUP3 PUSH1 0xE0 DUP3 ADD MSTORE PUSH0 PUSH2 0x100 DUP5 DUP7 DUP3 DUP6 ADD CALLDATACOPY PUSH0 DUP2 DUP7 DUP6 ADD ADD MSTORE DUP1 PUSH1 0x1F NOT PUSH1 0x1F DUP8 ADD AND DUP5 ADD ADD SWAP2 POP POP PUSH1 0x20 DUP1 DUP4 ADD DUP5 PUSH0 JUMPDEST PUSH1 0x6 DUP2 LT ISZERO PUSH2 0x259F JUMPI DUP2 MLOAD DUP4 MSTORE SWAP2 DUP4 ADD SWAP2 SWAP1 DUP4 ADD SWAP1 PUSH1 0x1 ADD PUSH2 0x2582 JUMP JUMPDEST POP POP POP POP SWAP5 SWAP4 POP POP POP POP JUMP JUMPDEST DUP2 DUP2 SUB DUP2 DUP2 GT ISZERO PUSH2 0xAF6 JUMPI PUSH2 0xAF6 PUSH2 0x24CF JUMP JUMPDEST PUSH4 0xFFFFFFFF DUP2 DUP2 AND DUP4 DUP3 AND ADD SWAP1 DUP1 DUP3 GT ISZERO PUSH2 0x228E JUMPI PUSH2 0x228E PUSH2 0x24CF JUMP JUMPDEST PUSH0 PUSH4 0xFFFFFFFF DUP1 DUP5 AND DUP1 PUSH2 0x25F1 JUMPI PUSH2 0x25F1 PUSH2 0x2515 JUMP JUMPDEST SWAP3 AND SWAP2 SWAP1 SWAP2 MOD SWAP3 SWAP2 POP POP JUMP JUMPDEST PUSH0 PUSH1 0x20 DUP3 DUP5 SUB SLT ISZERO PUSH2 0x260D JUMPI PUSH0 DUP1 REVERT JUMPDEST DUP2 MLOAD PUSH4 0xFFFFFFFF DUP2 AND DUP2 EQ PUSH2 0x1CFF JUMPI PUSH0 DUP1 REVERT JUMPDEST PUSH4 0x4E487B71 PUSH1 0xE0 SHL PUSH0 MSTORE PUSH1 0x31 PUSH1 0x4 MSTORE PUSH1 0x24 PUSH0 REVERT INVALID ADDRESS PUSH5 0x4E72E131A0 0x29 0xB8 POP GASLIMIT 0xB6 DUP2 DUP2 PC TSTORE 0x28 CALLER 0xE8 BASEFEE PUSH26 0xB9709143E1F593F00000019B779B17422D0DF92223018B32B4D1 STATICCALL CHAINID 0xE0 PUSH18 0x723D6817E2486D003BECC55F00A264697066 PUSH20 0x582212207903FDFC8E3117A5238FDAF7A7959D54 0xCA LOG0 0xB8 CALLDATALOAD SSTORE PUSH8 0x833A9B9EEC32453B GT PUSH1 0x64 PUSH20 0x6F6C634300081800330000000000000000000000 "},"methodIdentifiers":{"ASP_ROLE()":"ef4688f8","ASP_ROOT_HISTORY()":"020462f3","COMPLIANCE_ROLE()":"062d3bd7","DEFAULT_ADMIN_ROLE()":"a217fddf","ETH_DENOMINATION()":"4e6add93","PAUSER_ROLE()":"e63ab1e9","PROTOCOL_WITHDRAW_FEE_ETH()":"e8144c86","PROTOCOL_WITHDRAW_FEE_USDT()":"594e41f1","SNARK_SCALAR_FIELD()":"25c2cd12","USDT_DENOMINATION()":"9f840c7b","accumulatedProtocolFeesEth()":"d886bee8","accumulatedProtocolFeesUsdt()":"85ff527b","addSanctioned(address)":"80b437b1","aspRootIndex()":"b7cf5825","aspRoots(uint256)":"d407c695","deposit(bytes32)":"b214faa5","depositAmountRequired()":"58f786ed","depositUsdt(bytes32)":"82738c82","ethCommitments(bytes32)":"6d0430eb","ethNullifierHashes(bytes32)":"9a54149e","ethStateTree()":"8f1846dd","getRoleAdmin(bytes32)":"248a9ca3","grantRole(bytes32,address)":"2f2ff15d","hasRole(bytes32,address)":"91d14854","isKnownAspRoot(bytes32)":"f184205f","isSanctioned(address)":"df592f7d","knownAspRoot(bytes32)":"8b61d736","localSanctionedAt(uint256)":"0280ae8a","localSanctionedLength()":"e9dd3018","owner()":"8da5cb5b","pause()":"8456cb59","paused()":"5c975abb","publishAspRoot(bytes32)":"55d168da","removeSanctioned(address)":"4ea91771","renounceOwnership()":"715018a6","renounceRole(bytes32,address)":"36568abe","revokeRole(bytes32,address)":"d547741f","sanctionsOracle()":"b3df4df9","supportsInterface(bytes4)":"01ffc9a7","transferOwnership(address)":"f2fde38b","unpause()":"3f4ba83a","usdt()":"2f48ab7d","usdtCommitments(bytes32)":"db61d8c1","usdtDepositAmountRequired()":"eee01850","usdtNullifierHashes(bytes32)":"ca6e6bc1","usdtStateTree()":"037a3900","verifier()":"2b7ac3f3","withdraw(bytes,bytes32,bytes32,bytes32,address,address,uint256)":"4b01d5dc","withdrawFees()":"476343ee","withdrawUsdt(bytes,bytes32,bytes32,bytes32,address,address,uint256)":"17b0a325"}}}}}