{
  "_format": "hh3-artifact-1",
  "contractName": "MockVerifier",
  "sourceName": "contracts/Mocks.sol",
  "abi": [
    {
      "inputs": [
        {
          "internalType": "bytes",
          "name": "",
          "type": "bytes"
        },
        {
          "internalType": "uint256[6]",
          "name": "",
          "type": "uint256[6]"
        }
      ],
      "name": "verifyProof",
      "outputs": [
        {
          "internalType": "bool",
          "name": "",
          "type": "bool"
        }
      ],
      "stateMutability": "pure",
      "type": "function"
    }
  ],
  "bytecode": "0x608060405234801561000f575f80fd5b506101058061001d5f395ff3fe6080604052348015600e575f80fd5b50600436106026575f3560e01c8063695ef6f914602a575b5f80fd5b603e60353660046052565b60019392505050565b604051901515815260200160405180910390f35b5f805f60e084860312156063575f80fd5b833567ffffffffffffffff808211156079575f80fd5b818601915086601f830112608b575f80fd5b8135818111156098575f80fd5b87602082850101111560a8575f80fd5b6020830195508094505050508460e08501111560c2575f80fd5b602084019050925092509256fea26469706673582212200f23c81a35014ba34499efa6bc582725632b340c4c234749b78acdc466eeb64c64736f6c63430008180033",
  "linkReferences": {},
  "deployedLinkReferences": {},
  "immutableReferences": {},
  "inputSourceName": "project/contracts/Mocks.sol",
  "buildInfoId": "solc-0_8_24-de2362fb76bda87eb59b9049dc8160613d7ed8e1"
}